:020000040000FA
:040000001FD00ED02F
:0400080004EF04F00D
:040018000CEF04F0F5
:10002000A66E05A01200550EA76EAA0EA76EA68298
:100030000000A6B2FED712000A26D8B00B2A120082
:100040000F01070E706EDE0E716E030E726EA66AE1
:10005000A968AA68A680A83C00EF04F0066A1C0EF6
:10006000056E0F019394000E006F080E016FE81EDD
:10007000056F000E026F070E036FFF0E186FEB0E79
:10008000196FFF0E1A6FF80E1B6F070E706EDE0EE3
:10009000716E030E726E200E736E6F6A939E939C48
:1000A000818E818C0400609E60AEFED70FEE66F0FC
:1000B00065500F0B096EF46EF5E064B02BD010EEB6
:1000C00001F0EECFE6FFF42EFCD70650EBE0010A7C
:1000D000D8A407D0A968AA68A86A040EA1DF819CE9
:1000E000FF000650020A05E10B6A0A6A0C900C6ACE
:1000F000D9D70650030A0AE107500A2606E108503C
:100100000B2203E10CB001D073D076D00650040A64
:10011000C9E176D00350F86EF00BF36E0250F76E23
:10012000AA6E0150F66EA96E05A605D009500126EB
:10013000E86A02220322300EF36001D008D0F350A7
:10014000300A01E12AD0F350F00AACE132D005A424
:1001500005D0F6503F0B02E1940E62DF05B2A2D744
:10016000F650070B9FE1080EF46EEE50F56E64DF5B
:100170000D00F42EFAD7080EF46E0A00ED50F42E9E
:10018000FCD7840E4DDF080EF46E0900F550EE1812
:10019000D8A40C80F42EF9D785D7EF50F56E4CDF3C
:1001A0000C00C40E3DDF0900F550EE18F42EF5D713
:1001B00079D7EF50A86E40DF040E32DFA66AA68022
:1001C000A850EE18D8A40C80A94AAA2AF42EF1D778
:1001D00069D740B7FED7800E416F080E426F000E00
:1001E000436F040E446F448164A0449140875AD702
:1001F000010E466F456FEDD7466B010E456FE9D78F
:0A020000020E466F010E456FE4D7B1
:080800000000ADEF2DF0120025
:0808080007ED04F012000600E8
:06081000FBEF08F01200EE
:0608180059EF0BF0120085
:10082000A5640AFF0A90040E0301000800000000FE
:100830000000010000000000140040080000270331
:0708400043414E434D44000B
:10087000D9CFE6FFE1CFD9FFE652AFD800A802D02A
:100880000098829E115005E100A403D000940284D8
:10089000829E0150020B03E10150040B0BE000505B
:1008A000010B08E080C0E6FF81C0E6FFE7EC23F023
:1008B000E552E55201A008D080C0E6FF81C0E6FF06
:1008C00043EC0CF0E552E55202AA66D0029A000110
:1008D00065511EE0650765050CE10284DF6A050EBF
:1008E000DF5C07E2070EE66E45EC31F0E552DF2AE9
:1008F000F6D7000165510CE139EC0CF0FFEC2AF061
:1009000080C0E6FF81C0E6FF09EC2AF0E552E5521F
:100910000001610721E1010EE66E8CEC2AF0E55240
:10092000E8B0818EE8A0819E0001625102E0000ED5
:1009300001D0010E626F00017E5103E0000162519F
:1009400002E1000E01D0010E000902E0010E01D00B
:10095000040E0001616F636927EC2AF080C0E6FF96
:1009600081C0E6FFFCEC14F0E552E552A4EC2AF05D
:100970000001D551000805E2027E02AE03D0D50782
:1009800001D0029E80C0E6FF81C0E6FF98EC08F02F
:10099000E552E552F9EC2CF029EC30F000090CE0BE
:1009A000010EE66E8CEC2AF0E552E8B0818EE8A0EC
:1009B000819E37EC06F062D70001635101E06307C6
:1009C000635101E05BD7E66A8CEC2AF0E552E8B0AF
:1009D000818EE8B053D7819E51D7D9CFE6FFE1CFC2
:1009E000D9FFE652F26AA66AB2EC29F0026A000167
:1009F000D56B0001040E616F626B636B8B6A8A6A50
:100A0000896A800E946E3F0E936EC50E926E829030
:100A1000A56AA26A9F6A210EA36EA06A9D6AF06A07
:100A2000F16AF26AA46AA16A9E6AD08E060E2F6EDF
:100A3000306E006A016A01800080DF6A200EDF5C90
:100A400066E2DF50080DF3CFE9FFF4CFEAFF000EB6
:100A5000E926020EEA22EF6ADF50080DF3CFE9FF24
:100A6000F4CFEAFF000EE926020EEA22EE52EE6A09
:100A7000ED6ADF50080DF3CFE9FFF4CFEAFF000E77
:100A8000E926020EEA22030EE926000EEA22800E73
:100A9000EF6EDF50080DF3CFE9FFF4CFEAFF000E51
:100AA000E926020EEA22040EE926000EEA22EF6A87
:100AB000DF50080DF3CFE9FFF4CFEAFF000EE9267F
:100AC000020EEA22050EE926000EEA22EF6ADF5046
:100AD000080DF3CFE9FFF4CFEAFF000EE926020E7E
:100AE000EA22060EE926000EEA22EF6ADF50080D20
:100AF000F3CFE9FFF4CFEAFF000EE926020EEA2267
:100B0000070EE926000EEA22EF6ADF2A97D70001D6
:100B10006B6B00016C6BDF6A100EDF5C01E378D059
:100B2000DF50080DF3CFE9FFF4CFEAFF000EE9260E
:100B3000030EEA22EF6ADF50080DF3CFE9FFF4CF8E
:100B4000EAFF000EE926030EEA22EE52EF6ADF50BA
:100B5000080DF3CFE9FFF4CFEAFF000EE926030EFC
:100B6000EA22EE52010EE926000EEA22EF6ADF5079
:100B7000080DF3CFE9FFF4CFEAFF000EE926030EDC
:100B8000EA22EE52020EE926000EEA22EF6ADF5058
:100B9000080DF3CFE9FFF4CFEAFF000EE926030EBC
:100BA000EA22EE52030EE926000EEA22EF6ADF5037
:100BB000080DF3CFE9FFF4CFEAFF000EE926030E9C
:100BC000EA22EE52040EE926000EEA22EF6ADF5016
:100BD000080DF3CFE9FFF4CFEAFF000EE926030E7C
:100BE000EA22EE52050EE926000EEA22EF6ADF50F5
:100BF000080DF3CFE9FFF4CFEAFF000EE926030E5C
:100C0000EA22070EE926000EEA22EF6ADF2A84D7DD
:100C100000016D6B00016E6B0001606B0001786B71
:100C2000020EF66E000EF76E0800F550E66E000E2E
:100C3000F66E000EF76E0800F550E66E37EC31F0F8
:100C4000E552E55280C0E6FF81C0E6FF0AEC08F0FD
:100C5000E552E552819C818EF28EF28C0001050EE8
:100C6000656FE552E552E7CFD9FF12001200D9CFE8
:100C7000E6FFE1CFD9FF050EE12600016095D0C067
:100C8000E9FFD1C0EAFF060EEB505C0A01E143D157
:100C9000500A01E13DD1490A01E137D14F0A01E192
:100CA0001CD1020A01E109D1010A01E106D1890A38
:100CB00001E100D1200A01E1FDD0600A01E1FAD092
:100CC000200A01E1F7D0C20A01E1E3D0030A01E101
:100CD000CFD0650A01E1C9D0040A01E18AD0210A16
:100CE00001E187D0E50A01E181D0260A01E17ED049
:100CF000200A01E17BD0010A01E178D0420A76E0C6
:100D0000E20A63E06A0A41E0030A3FE02A0A22E0BD
:100D1000270A01E00DD1D0C0E9FFD1C0EAFF070EDC
:100D2000EB50E76E020EE7CFDBFFD0C0E9FFD1C08A
:100D3000EAFF080EEB50E76E030EE7CFDBFF030E72
:100D4000DBCFE6FF020EDBCFE6FFC0EC10F0E55292
:100D5000E552FFD0D0C0E9FFD1C0EAFF090EEB5049
:100D6000E66ED0C0E9FFD1C0EAFF080EEB50E66E98
:100D7000D0C0E9FFD1C0EAFF070EEB50E66E1BECD6
:100D800011F0E552E552E552E4D0D0C0E9FFD1C000
:100D9000EAFF080EEB50E66ED0C0E9FFD1C0EAFFD3
:100DA000070EEB50E66ED0C0E9FFD1C0EAFF060E99
:100DB000EB50490802E1010E01D0000EE66E75EC21
:100DC0000FF0E552E552E552C4D0D0C0E9FFD1C0E2
:100DD000EAFF070EEB50E76E020EE7CFDBFF020ED5
:100DE000DBCFE6FFD2EC16F0E552B3D0ECEC22F00C
:100DF000B0D0D0C0E9FFD1C0EAFF070EEB50586E6B
:100E000058C059F0586A58C0DEFF59C0DDFFD0C045
:100E1000E9FFD1C0EAFF080EEB50DF12D0C0E9FFB6
:100E2000D1C0EAFF060EEB5061080BE1D0C0E9FF2C
:100E3000D1C0EAFF090EEB50E76E040EE7CFDBFFEF
:100E400002D0040EDB6A82C0E6FF83C0E6FF040E18
:100E5000DBCFE6FFDECFE6FFDDCFE6FF83EC0CF075
:100E6000586E050EE15E585074D005EC0FF071D04D
:100E7000D0C0E9FFD1C0EAFF070EEB50E76E020ECB
:100E8000E7CFDBFF020EDBCFE6FF96EC15F0E55275
:100E900060D0D0C0E9FFD1C0EAFF070EEB50E76E8B
:100EA000020EE7CFDBFF020EDBCFE6FF75EC14F09E
:100EB000E5524FD00BEC17F04CD0D0C0E9FFD1C0B9
:100EC000EAFF060EEB50090802E0000E01D0010E09
:100ED000E66EAAEC22F0E5523CD005EC0CF0060ED2
:100EE000E66E45EC31F0E55282C0F6FF83C0F7FFB5
:100EF000020EF626000EF7220800F550100B04E053
:100F0000E66AAAEC22F0E55224D0E4EC17F021D0F6
:100F1000FFEC2AF01ED049EC29F0010808E1E66850
:100F2000FF0EE66E1FEC2FF0E552E552FF0011D0E8
:100F3000D0C0E9FFD1C0EAFF060EEB50010EFF085A
:100F400002E12CD805D0AAEC26F0000901E137D83F
:100F500000D00001865108E082C0E6FF83C0E6FFB2
:100F60000AEC08F0E552E552000160B50DD0000032
:100F7000D0C0E9FFD1C0EAFFEF6A02A804D002980E
:100F8000A3807FEC31F000D0050EE15C02E2E16A63
:100F9000E552E16EE552E7CFD9FF1200D9CFE6FF67
:100FA000030EE126D0C0E9FFD1C0EAFFE15C02E216
:100FB000E16AE552E16EE552E7CFD9FF1200D9CFE1
:100FC000E6FFE1CFD9FFE652010EDF6ED0C0E9FFA8
:100FD000D1C0EAFF060EEB50900A06E0010A04E0D9
:100FE000090A02E0010A0FE182C0E6FF83C0E6FFC2
:100FF000D0C0E6FFD1C0E6FF45EC1DF0E552E5525A
:10100000E552E55201D0DF6ADF50E552E552E7CF05
:10101000D9FF1200D9CFE6FFE1CFD9FFFD0EDBCF1C
:10102000E6FFFE0EDBCFE6FFAED8E552E552116ECD
:10103000126A136A146A156A166A176A226A236AA0
:10104000246A256A266A276A286A296A2A6A2B6A14
:101050002C6A2D6AFD0EDBCFF6FFFE0EDBCFF7FF0D
:10106000020EF626000EF7220800F550040B01E0F0
:10107000FF0E0001676FFD0EDBCFF6FFFE0EDBCF2C
:10108000F7FF090EF626000EF7220800F5503D6E18
:10109000FD0EDBCFF6FFFE0EDBCFF7FF050EF626CB
:1010A000000EF7220800F550186E196AFD0EDBCF0E
:1010B000F6FFFE0EDBCFF7FF060EF626000EF72238
:1010C0000800F5501A6E1B6AFD0EDBCFF6FFFE0E10
:1010D000DBCFF7FF080EF626000EF7220800F550CA
:1010E000206E216A1C6A030E1D6E1E6A1F6E2E6A18
:1010F000860EC06E0E0EC16E010EC26E666BAC0E19
:10110000686F210E696F6A6B0001950E646F0001B4
:1011100060AB03D00001A10E646F410ED56ED66A9C
:10112000D76AF28AF184D58EE552E7CFD9FF120053
:10113000D9CFE6FFE1CFD9FFFD0EDBCFF6FFFE0EE4
:10114000DBCFF7FFF62A000EF7220800F550010B5F
:101150000FE1000ED8801254000E13540BE302501E
:10116000800B08E18150100B03E10250040B02E1F7
:10117000000E01D0010EE8B08982E8A08992E55204
:10118000E7CFD9FF1200D9CFE6FFE1CFD9FFFD0E9F
:10119000DBCFF6FFFE0EDBCFF7FF020EF626000ECA
:1011A000F7220800F550010B03E08150200B1EE1EF
:1011B000FD0EDBCFF6FFFE0EDBCFF7FF020EF626AD
:1011C000000EF7220800F550010B0EE1FD0EDBCFFB
:1011D000F6FFFE0EDBCFF7FF020EF626000EF7221B
:1011E0000800F550020B02E0000E01D0010EE5529E
:1011F000E7CFD9FF1200DACFE4FFE2CFDAFFE9CF81
:10120000E4FFEACFE4FFF6CFE4FFF7CFE4FFF5CF4A
:10121000E4FFF3CFE4FFF4CFE4FFFACFE4FFE652BC
:10122000F29464C0D6FF828C115017E002A009D05E
:10123000828002A203D08294828206D0829282842B
:1012400003D082908292829402A405D082880250B8
:10125000080B17E118D0829819D002A409D0828017
:1012600002A603D08294828206D08292828403D026
:1012700082908292829402A008D082880250020B4F
:1012800002E0828603D0829601D08298115004E059
:1012900002B004D0819C05D002A402D0818C01D080
:1012A000819C115001E1009A80C0E6FF81C0E6FFF9
:1012B0003FDFE552E5522F500C0A01E176D0070AD4
:1012C00072E0010A6DE0030A69E0010A64E00F0AB6
:1012D0005AE0010A55E0030A3CE0010A38E0070A37
:1012E00033E0010A0FE0030A0CE0010A5EE102723A
:1012F000800E3114800802E1010E01D0040E2F6E21
:1013000057D002722F6A31503124316E3706375070
:101310004FE13B2A3B50EA6A030FE96E000EEA22D6
:10132000EF50316E080E376E3306335030E1090648
:10133000095006E00150100B11E10050080B0EE0BF
:10134000060E2F6E008034D00272020E30D0030ED3
:101350002ED00272060E2F6E00B02AD0080E2F6E0D
:101360003B6A3B50EA6A030FE96E000EEA22EF5037
:10137000316E160E326E3950336E080E376E18D03D
:101380000272050E14D002723206325002E10C0EC7
:101390000ED0080E0CD00272070E09D02F6A08D0AA
:1013A0000272090E04D00A0E02D002720B0E2F6ECA
:1013B00030500C0A74E0070A70E0010A6BE0030A7F
:1013C00067E0010A62E00F0A58E0010A53E0030AED
:1013D0003AE0010A36E0070A31E0010A0FE0030AA9
:1013E0000CE0010A5CE10276800E3414800802E110
:1013F000010E01D0040E306E55D00276306A3450A2
:101400003424346E380638504DE13C5001E1828A74
:101410003C2A3C50EA6A0A0FE96E000EEA22EF50BD
:10142000346E080E386E360636502BE1829A10065E
:1014300010500EE1060E306E018034D00276020E9E
:1014400030D0030E2ED00276060E306E01B02AD0B8
:10145000080E306E3C6A3C50EA6A0A0FE96E000ED4
:10146000EA22EF50346E100E356E3A50366E080E8A
:10147000386E18D00276050E14D002763506355037
:1014800002E10C0E0ED0080E0CD00276070E09D029
:10149000306A08D00276090E04D00A0E02D0027615
:1014A0000B0E306E00016651040A01E179D0070A83
:1014B00001E172D0010A10E0030A05E0010A01E02F
:1014C000C8D0010E67D0020E666F675101E1C1D02E
:1014D000115001E0BED062D0115059E1675120E0B7
:1014E000C2B222D0C4505D6E5E6E5D6AC3505D10A4
:1014F000226E5EC023F02450265C266E25502758AD
:10150000276E26502224266E27505E20276E26C086
:1015100024F0256ED89025322432D89025322432FA
:10152000010EC26E030E666F1250131027E11450A5
:10153000151012E122501C5C23501D5803E28292C8
:10154000829416D01850245C1950255801E281D09D
:10155000820E146E156A7DD01406000E155A1450B2
:10156000151001E076D01850245C1950255871E30D
:10157000828E0294126A090E136E6BD01206000E50
:10158000135A1250131065E10084829E62D0010E3E
:10159000C26E030E666F5DD0040E666FC28259D0B4
:1015A000C2B257D0C4505D6E5E6E5D6AC3505D10AE
:1015B000286E5EC029F02A502C5C2C6E2B502D58C2
:1015C0002D6E2C5028242C6E2D505E202D6E2CC09C
:1015D0002AF02B6ED8902B322A32D8902B322A3216
:1015E000010EC26E666F115034E01650171022E1E2
:1015F00000AA0DD02E5020245D6E000E21205E6EBC
:101600005D502A5C5E502B5824E3008622D01E5089
:10161000285C1F50295819E20050400B02E111507C
:1016200018E11A502A5C1B502B5813E3820E166ED9
:10163000176A0FD01606000E175A1650171009E138
:101640001A502A5C1B502B5804E3828E02900088AB
:10165000009C010E685F000E695B6A5B685169114E
:101660006A1112E1AC0E686F210E696F6A6B028A13
:101670000001D35101E0D30780C0E6FF81C0E6FF3F
:1016800082DDE552E552116E829CE552E5CFFAFF0C
:10169000E5CFF4FFE5CFF3FFE5CFF5FFE5CFF7FFAB
:1016A000E5CFF6FFE5CFEAFFE5CFE9FFE5CFDAFFCB
:1016B0001100D8CFE4FFE0CFE4FFE46EDACFE4FF1F
:1016C000E2CFDAFFE9CFE4FFEACFE4FFF6CFE4FFB1
:1016D000F7CFE4FFF5CFE4FFF3CFE4FFF4CFE4FF6F
:1016E000FACFE4FF00EE4DF00B0EE80403E3EECF7B
:1016F000E4FFFBD700EE58F0050EE80403E3EECF5D
:10170000E4FFFBD7E6520DEC31F0A46AE55200EE9F
:101710005CF0050EE80403E3E5CFEDFFFBD700EE38
:1017200057F00B0EE80403E3E5CFEDFFFBD7E5CF61
:10173000FAFFE5CFF4FFE5CFF3FFE5CFF5FFE5CF07
:10174000F7FFE5CFF6FFE5CFEAFFE5CFE9FFE5CF0D
:10175000DAFFE550E5CFE0FFE5CFD8FF1000D9CFA5
:10176000E6FFE1CFD9FFE652400EDF6EFE0EDB5002
:101770007F0803E2200EDF10DF6EFE0EDB9EDB042F
:1017800003E1010EDF1015D0FE0EDB507C0B0408C8
:1017900002E1FE0EDB2AFE0EDB40E840E8401F0BB4
:1017A000DF10DF6EFE0EDBA403D0100EDF10DF6E45
:1017B000DF50E552E552E7CFD9FF1200D9CFE6FF5F
:1017C000E1CFD9FFE652400EDF6EFE0EDB50E8504F
:1017D000800B03E0200EDF10DF6EFE0EDB9EDB04CD
:1017E00002E1010E0CD0FE0EDB50780B080802E17E
:1017F000FE0EDB2AFE0EDB40E840E8401F0BDF1048
:10180000E552E552E7CFD9FF1200D9CFE6FFE1CF8D
:10181000D9FFE652018CDF6A200EDF5C25E2DF5043
:10182000080DF3CFE9FFF4CFEAFF000EE926020E20
:10183000EA22030EE926000EEA22EF50800B01098E
:10184000E66EDF50080DF3CFE9FFF4CFEAFF000E9C
:10185000E926020EEA22030EE926000EEA22E552EC
:10186000E750EF6EDF2AD8D7E552E552E7CFD9FF30
:1018700012000A6A710E0B6E0C6E060E106E030ECD
:101880003A6E01901200D9CFE6FFE1CFD9FF01AC4B
:1018900003D0EFDF019C33D000016F512EE16E5178
:1018A000080DF3CFE9FFF4CFEAFF000EE926030E9F
:1018B000EA22EF50800B10E0FD0EDBCFF6FFFE0EAC
:1018C000DBCFF7FF030EF626000EF7220800F550D7
:1018D000E66E10EC1BF00FD0FD0EDBCFF6FFFE0E18
:1018E000DBCFF7FF030EF626000EF7220800F550B7
:1018F000E66EAEEC1BF0E55202D03AEC1DF0E5527C
:10190000E7CFD9FF1200D9CFE6FFE1CFD9FF060E0E
:10191000E126D950FD0FE96EFF0EDA20EA6EEE5097
:10192000ED1001E1DBD1010EDB6A020EDB6A030E72
:10193000DB6ADF6A010EF36E050EF3CFDBFF200ECC
:10194000DF5C6FE2DF50080DF3CFE9FFF4CFEAFF71
:10195000000EE926020EEA22EF50800B43E1010E51
:10196000DB500FE1DF50080DF3CFE9FFF4CFEAFFC2
:10197000000EE926020EEA22EF50040B02E1010EEE
:101980002CD0DF50080DF3CFE9FFF4CFEAFF000EB3
:10199000E926020EEA22EF50040B41E0050EDB6A55
:1019A000DF50080DF3CFE9FFF4CFEAFF000EE92680
:1019B000020EEA22EE52EECF58F0EFCF59F0FD0EB4
:1019C000DB50581806E1FE0EDB50591802E1020EFA
:1019D00004D0030EDB5023E1030EDFCFDBFF050E47
:1019E000DB6A1DD0DF50080DF3CFE9FFF4CFEAFF2B
:1019F000000EE926020EEA22EE52EECF58F0EFCFAB
:101A000059F0FD0EDB5058180AE1FE0EDB50591854
:101A100006E1020EF36E050EF3CFDBFF02D0DF2AE4
:101A20008ED7050EDB50020801E0A3D0DF50080D71
:101A3000F3CFE9FFF4CFEAFF000EE926020EEA2217
:101A4000EF50100B30E0DF50080DF3CFE9FFF4CF7B
:101A5000EAFF000EE926020EEA22EF98DFCFE6FF4A
:101A600047D9E552050EDB6ADF50080DF3CFE9FFD9
:101A7000F4CFEAFF000EE926020EEA22EF50080B2F
:101A800001E118D1DFCFE6FFD7EC2CF0E552DF50B3
:101A9000080DF3CFE9FFF4CFEAFF000EE926020EAE
:101AA000EA22EF9607D1FC0EDB50020A27E0030A78
:101AB00001E000D1FA0EDBCFF6FFFB0EDBCFF7FF24
:101AC000F62A000EF7220800F550020B01E1F2D0D1
:101AD000010EE66EDFCFE6FF81D9E552E552DF5019
:101AE000080DF3CFE9FFF4CFEAFF000EE926020E5E
:101AF000EA22FC0EEF140009EF6E34D0FA0EDBCFB1
:101B0000F6FFFB0EDBCFF7FFF62A000EF7220800E8
:101B1000F550040B01E1CED0DF50080DF3CFE9FF03
:101B2000F4CFEAFF000EE926020EEA22EF50030B83
:101B3000586E030E585C16E2DF50080DF3CFE9FF34
:101B4000F4CFEAFF000EE926020EEA22EF50030B63
:101B5000E82AE850030BF36EF46EFC0EEF14F3105A
:101B6000EF6EF450DFCFE6FFC3D8E552050EDB6A17
:101B7000A1D0050EDB5001E09DD0020EDB5002E04B
:101B8000020E04D0010EDB5007E0010EDB50E76EC1
:101B9000040EE7CFDBFF15D0030EDB500DE0030E84
:101BA000DB50E76E040EE7CFDBFF030EDBCFE6FF73
:101BB00033EC16F0E55205D0010EF36E050EF3CFAF
:101BC000DBFF050EDB5076E1040EDB50080DF3CF92
:101BD000E9FFF4CFEAFF000EE926020EEA22EE52F8
:101BE000FD0EDBCFEEFFFE0EDBCFEDFF040EDB5074
:101BF000080DF3CFE9FFF4CFEAFF000EE926020E4D
:101C0000EA22EE52EE52EF50800B01E0010E586EC8
:101C1000040EDB50080DF3CFE9FFF4CFEAFF000E0E
:101C2000E926020EEA22EE52EE525850010BF36EF4
:101C3000F346F346F346F346F346F346BF0EEF147E
:101C4000F310EF6E040EDB50080DF3CFE9FFF4CF75
:101C5000EAFF000EE926020EEA22EF8E040EDB50A8
:101C6000080DF3CFE9FFF4CFEAFF000EE926020EDC
:101C7000EA22EF94040EDB50080DF3CFE9FFF4CF16
:101C8000EAFF000EE926020EEA22FC0EEF1400091C
:101C9000EF6E040EDB50080DF3CFE9FFF4CFEAFF3F
:101CA000000EE926020EEA22EF98040EDBCFE6FFD3
:101CB0001FD8E552050EDB5011E0630E456ED0C013
:101CC000E9FFD1C0EAFF070EEB50466E080EEB505D
:101CD000476E050EDB50486E84EC31F0060EE15C79
:101CE00002E2E16AE552E16EE552E7CFD9FF120068
:101CF000D9CFE6FFE1CFD9FFFE0EDBCFE6FFD2EC76
:101D000016F0E552E10E456EFE0EDB50466EFE0EFD
:101D1000DB50080DF3CFE9FFF4CFEAFF000EE92610
:101D2000020EEA22EE52EE52EF50476EFE0EDB50EC
:101D3000080DF3CFE9FFF4CFEAFF000EE926020E0B
:101D4000EA22EE52EF50486EFE0EDB50080DF3CF44
:101D5000E9FFF4CFEAFF000EE926020EEA22030EA5
:101D6000E926000EEA22EF50496EFE0EDB50080D08
:101D7000F3CFE9FFF4CFEAFF000EE926020EEA22D4
:101D8000040EE926000EEA22EF504A6EFE0EDB50EA
:101D9000080DF3CFE9FFF4CFEAFF000EE926020EAB
:101DA000EA22050EE926000EEA22EF504B6EFE0EE7
:101DB000DB50080DF3CFE9FFF4CFEAFF000EE92670
:101DC000020EEA22060EE926000EEA22EF504C6EC1
:101DD00084EC31F0E552E7CFD9FF1200D9CFE6FF0E
:101DE000E1CFD9FF630E456EFE0EDB50466E476AAB
:101DF000FD0EDB5002E0080E01D0030E486E84ECAD
:101E000031F0E552E7CFD9FF1200D9CFE6FFE1CF9D
:101E1000D9FF020EE126D0C0E9FFD1C0EAFF070ECC
:101E2000EB50DF6EDF50080DF3CFE9FFF4CFEAFF90
:101E3000000EE926020EEA22EF50800B46E0D0C0E9
:101E4000E9FFD1C0EAFF080EEB5000091FE1D0C046
:101E5000E9FFD1C0EAFF080EEB50030B586EDF50CC
:101E6000080DF3CFE9FFF4CFEAFF000EE926020EDA
:101E7000EA225850030BF36EF346F346F346F3465B
:101E8000F3469F0EEF14F310EF6E25D0D0C0E9FF9C
:101E9000D1C0EAFF080EEB50800BE76E010EE7CFD2
:101EA000DBFFDBCFE6FFDFCFE6FF17EC2BF0E552E1
:101EB000E552DF50080DF3CFE9FFF4CFEAFF000E43
:101EC000E926020EEA22EF8606D0E66ADFCFE6FFB9
:101ED00085DFE552E552020EE15C02E2E16AE5527D
:101EE000E16EE552E7CFD9FF1200D9CFE6FFE1CF8F
:101EF000D9FF020EE126FD0EDB50080DF3CFE9FFFE
:101F0000F4CFEAFF000EE926020EEA22EF50800B22
:101F100001E1EBD0DE52010EDD6EFC0EDB50140849
:101F20001BE2050EDF6E150E586EFC0EDBCFE7FFD1
:101F30005850E75EFC0EE7CFDBFFD950010FE96E8A
:101F4000DACFEAFFFC0EDB50070B01E1C3D0EF460E
:101F5000EF90E806FCE1BED0FC0EDB500C081BE263
:101F6000040EDF6E0D0E586EFC0EDBCFE7FF5850EF
:101F7000E75EFC0EE7CFDBFFD950010FE96EDACF49
:101F8000EAFFFC0EDB50070B01E1A4D0EF46EF9017
:101F9000E806FCE19FD0FC0EDB5008082CE2030EA3
:101FA000DF6E090E586EFC0EDBCFE7FF5850E75E80
:101FB000FC0EE7CFDBFFD950010FE96EDACFEAFF65
:101FC000FC0EDB50070B04E0EF46EF90E806FCE167
:101FD000010EDBCFE6FFFE0EDBCFE6FFFD0EDB5092
:101FE000080DF3CFE9FFF4CFEAFF000EE926020E59
:101FF000EA22060E5BD0FC0EDB5004082CE2020E37
:10200000DF6E050E586EFC0EDBCFE7FF5850E75E23
:10201000FC0EE7CFDBFFD950010FE96EDACFEAFF04
:10202000FC0EDB50070B04E0EF46EF90E806FCE106
:10203000010EDBCFE6FFFE0EDBCFE6FFFD0EDB5031
:10204000080DF3CFE9FFF4CFEAFF000EE926020EF8
:10205000EA22050E2BD0010EDF6EFC0EDB5005E1EF
:10206000050EF36EFC0EF3CFDBFFFC0EDB04586EA7
:10207000D950010FE96EDACFEAFF5850070B04E0A0
:10208000EF46EF90E806FCE1010EDBCFE6FFFE0E27
:10209000DBCFE6FFFD0EDB50080DF3CFE9FFF4CFF9
:1020A000EAFF000EE926020EEA22040EE926000EDF
:1020B000EA22E9CF58F0EACF59F0E9CFE6FFEACFBC
:1020C000E6FF24D8E552E552E552E552E76E010EEF
:1020D000E7CFDBFF010EDBCFE6FFDFCFE6FFFD0E34
:1020E000DBCFE6FF05D9E55205D0E66AFD0EDBCF72
:1020F000E6FF74DEE552E552020EE15C02E2E16ABF
:10210000E552E16EE552E7CFD9FF1200D9CFE6FFE5
:10211000E1CFD9FFFC0EDB50020A1EE0020A0CE000
:10212000010A23E1FD0EDBCFE9FFFE0EDBCFEAFF64
:10213000FB0EDB50EF1219D0FB0EDB1CE76EFB0E23
:10214000E7CFDBFFFD0EDBCFE9FFFE0EDBCFEAFFC3
:10215000FB0EDB50EF1609D0FD0EDBCFE9FFFE0EC4
:10216000DBCFEAFFFB0EDB50EF1AFD0EDBCFE9FF02
:10217000FE0EDBCFEAFFEF50E552E7CFD9FF1200AA
:10218000D9CFE6FFE1CFD9FFFE0EDB50080DF3CF2C
:10219000E9FFF4CFEAFF000EE926020EEA22EF5033
:1021A000800B3EE0FD0EDB507F0B586E82C0F6FFC9
:1021B00083C0F7FF0F0EF626000EF7220800F55039
:1021C000D880585413E282C0F6FF83C0F7FF0F0E89
:1021D000F626000EF7220800F5CF58F0FD0EDB5072
:1021E000800B5824E76EFD0EE7CFDBFFFE0EDB50C1
:1021F000080DF3CFE9FFF4CFEAFF000EE926020E47
:10220000EA22030EE926000EEA22FD0EDBCFEFFFE5
:10221000E66AE66AFE0EDBCFE6FF6AD8E55205D035
:10222000E66AFE0EDBCFE6FFD9DDE552E552E55268
:10223000E7CFD9FF1200D9CFE6FFE1CFD9FFFE0EDD
:10224000DB50080DF3CFE9FFF4CFEAFF000EE926DB
:10225000020EEA22EF50800B40E0FD0EDB50030A35
:102260001EE0010A0FE0030A2CE1FE0EDB50080D10
:10227000F3CFE9FFF4CFEAFF000EE926020EEA22CF
:10228000040E19D0FE0EDB50080DF3CFE9FFF4CF9A
:10229000EAFF000EE926020EEA22050E0CD0FE0E21
:1022A000DB50080DF3CFE9FFF4CFEAFF000EE9267B
:1022B000020EEA22060EE926000EEA22FC0EDBCF11
:1022C000EFFFFC0EDBCFE6FFFD0EDBCFE6FFFE0EE1
:1022D000DBCFE6FF0DD8E55205D0E66AFE0EDBCF78
:1022E000E6FF7CDDE552E552E552E7CFD9FF12006B
:1022F000D9CFE6FFE1CFD9FF040EE126DF6A000166
:102300006D51080DF3CF58F0F4CF59F0000E582658
:10231000030E5922020E58C0DBFF030E59C0DBFF2B
:10232000FE0EDB50080DF3CFE9FFF4CFEAFF000EFD
:10233000E926020EEA22EF50800B01E1C4D2FE0E24
:10234000DBCFE6FFD2EC16F0E552FE0EDB50080DB7
:10235000F3CFE9FFF4CFEAFF000EE926020EEA22EE
:10236000030EE926000EEA22010EEFCFDBFF020E7C
:10237000DBCFE9FF030EDBCFEAFFEF50800B01E07C
:102380009FD2020EDBCFE9FF030EDBCFEAFFEE5256
:10239000050EE926000EEA22EF6AFE0EDB50080D5C
:1023A000F3CFE9FFF4CFEAFF000EE926020EEA229E
:1023B000EE52EE52EF50800B01E18AD0FE0EDB5060
:1023C000080DF3CFE9FFF4CFEAFF000EE926020E75
:1023D000EA22EE52EE52EF50E66E020EDBCFE9FF3C
:1023E000030EDBCFEAFFEE52E9CF58F0EACF59F007
:1023F000DF500F01E924E96E000EEA20EA6EE55293
:10240000E750EF6E020EDBCFE9FF030EDBCFEAFFF2
:10241000EE52E9CF58F0EACF59F0DF50DF2AE92435
:10242000E96E000EEA20EA6EEF50E66E020EDBCF98
:10243000E9FF030EDBCFEAFFEE52050EE926000EA0
:10244000EA22E552E750EF6EFE0EDB50080DF3CFA7
:10245000E9FFF4CFEAFF000EE926020EEA22EE526F
:10246000EF50E66E020EDBCFE9FF030EDBCFEAFF93
:10247000EE52E9CF58F0EACF59F0DF50E924E96E87
:10248000000EEA20EA6EE552E750EF6E020EDBCF57
:10249000E9FF030EDBCFEAFFEE52E9CF59F0EACFB6
:1024A0005AF0DF50DF2AE924E96E000EEA20EA6ED6
:1024B000EFCF58F0020EDBCFE9FF030EDBCFEAFFD0
:1024C000EE52050EE926000EEA22EF50581836D0DB
:1024D000FE0EDB50080DF3CFE9FFF4CFEAFF000E4C
:1024E000E926020EEA22EE52EF50E66E020EDBCF34
:1024F000E9FF030EDBCFEAFFEE52E9CF58F0EACF57
:1025000059F0DF500F01E924E96E000EEA20EA6E6F
:10251000E552E750EF6E020EDBCFE9FF030EDBCF93
:10252000EAFFEE52E9CF58F0EACF59F0DF50DF2A48
:10253000E924E96E000EEA20EA6EEF50E66E020E24
:10254000DBCFE9FF030EDBCFEAFFEE52050EE926F3
:10255000000EEA22E552E750EF6EFD0EDB5001E07F
:102560009FD0FE0EDB50080DF3CFE9FFF4CFEAFF5A
:10257000000EE926020EEA22EF50600BE842E84224
:10258000E842E842E842010A63E0020A5BE0010A2D
:1025900059E0020A01E078D0020EDBCFE9FF030E1A
:1025A000DBCFEAFFEE52E9CF58F0EACF59F0DF5027
:1025B000E924E96E000EEA20EA6E3F0EEF6E020E8D
:1025C000DBCFE9FF030EDBCFEAFFEE52E9CF59F094
:1025D000DF50DF2AE924E96E000EEA20EA6EEFCF31
:1025E00058F0020EDBCFE9FF030EDBCFEAFFEE521D
:1025F000050EE926000EEA22EF505818E66E020E8C
:10260000DBCFE9FF030EDBCFEAFFEE52050EE92632
:10261000000EEA22E552E750EF6E020EDBCFE9FF33
:10262000030EDBCFEAFFEE52E9CF58F0EACF59F0C4
:10263000DF50E924E96E000EEA20EA6E010EDBCFDE
:10264000EFFF22D0010EDBCFE6FFAFEC0BF005D0A1
:10265000010EDBCFE6FFDEEC0BF0E552E66E020E7C
:10266000DBCFE9FF030EDBCFEAFFEE52E9CF58F0F4
:10267000EACF59F0DF500F01E924E96E000EEA209D
:10268000EA6EE552E750EF6E020EDBCFE9FF030E74
:10269000DBCFEAFF070EE926000EEA22010EA4D0E6
:1026A000FD0EDB50050A40E0010A2BE0070A0FE0AF
:1026B000010A08E0030A01E08CD0FC0EDB501F0B7E
:1026C000800909D0FC0EDB500F0BB00904D0FC0EC2
:1026D000DB500F0BA009E66E020EDBCFE9FF030E05
:1026E000DBCFEAFFEE52E9CF58F0EACF59F0DF50E6
:1026F000E924E96E000EEA20EA6EE552E750EF6E3B
:1027000068D0020EDBCFE9FF030EDBCFEAFFEE520B
:10271000E9CF58F0EACF59F0DF50E924E96E000E16
:10272000EA20EA6EDE0E12D0020EDBCFE9FF030EC6
:10273000DBCFEAFFEE52E9CF58F0EACF59F0DF5095
:10274000E924E96E000EEA20EA6EDF0EEF6E020E5B
:10275000DBCFE9FF030EDBCFEAFFEE52E9CF59F002
:10276000DF50DF2AE924E96E000EEA20EA6EEFCF9F
:1027700058F0020EDBCFE9FF030EDBCFEAFFEE528B
:10278000050EE926000EEA22EF505818E66E020EFA
:10279000DBCFE9FF030EDBCFEAFFEE52050EE926A1
:1027A000000EEA22E552E750EF6E020EDBCFE9FFA2
:1027B000030EDBCFEAFFEE52E9CF58F0EACF59F033
:1027C000DF50E924E96E000EEA20EA6EFC0EDBCF52
:1027D000EFFF020EDBCFE9FF030EDBCFEAFF070EB0
:1027E000E926000EEA22020EEF6E020EDBCFE9FFB1
:1027F000030EDBCFEAFFEE52E9CF59F0DF50DF2ABC
:10280000E924E96E000EEA20EA6EEFCF58F0020EDE
:10281000DBCFE9FF030EDBCFEAFFEE52050EE92620
:10282000000EEA22EF505818E66E020EDBCFE9FFE9
:10283000030EDBCFEAFFEE52050EE926000EEA2278
:10284000E552E750EF6E020EDBCFE9FF030EDBCF60
:10285000EAFFEE52050EE926000EEA22EF50E66E80
:10286000020EDBCFE9FF030EDBCFEAFFEE52E9CF2A
:1028700058F0EACF59F0DF50DF2AE924E96E000E64
:10288000EA20EA6EE552E750EF6EDF50586E020E16
:10289000DBCFE9FF030EDBCFEAFF5850070BF36EE7
:1028A000F80EEF14F310EF6E020EDBCFE9FF030E0C
:1028B000DBCFEAFFEF8E00016D290F0B6D6F0BD0A0
:1028C0000001608508D0E66AFE0EDBCFE6FFEEEC85
:1028D0000EF0E552E552040EE15C02E2E16AE552D7
:1028E000E16EE552E7CFD9FF1200D9CFE6FFE1CF85
:1028F000D9FFFE0EDB50080DF3CFE9FFF4CFEAFF5E
:10290000000EE926020EEA22EF50800B69E0E10E8C
:10291000456EFE0EDB50466EFE0EDB50080DF3CF0B
:10292000E9FFF4CFEAFF000EE926020EEA22EE529A
:10293000EE52EF50476EFE0EDB50080DF3CFE9FF6D
:10294000F4CFEAFF000EE926020EEA22EE52EF5023
:10295000486EFE0EDB50080DF3CFE9FFF4CFEAFF1F
:10296000000EE926020EEA22030EE926000EEA22F4
:10297000EF50496EFE0EDB50080DF3CFE9FFF4CFA8
:10298000EAFF000EE926020EEA22040EE926000EF6
:10299000EA22EF504A6EFE0EDB50080DF3CFE9FF3E
:1029A000F4CFEAFF000EE926020EEA22050EE92620
:1029B000000EEA22EF504B6EFE0EDB50080DF3CFF7
:1029C000E9FFF4CFEAFF000EE926020EEA22060E26
:1029D000E926000EEA22EF504C6E84EC31F008D06C
:1029E000E66AFE0EDBCFE6FFEEEC0EF0E552E552B6
:1029F000E552E7CFD9FF1200D9CFE6FFE1CFD9FFEB
:102A0000E652DF6A200EDF5C01E38BD0DF50080D59
:102A1000F3CFE9FFF4CFEAFF000EE926020EEA2227
:102A2000EF50800B01E17BD0DF50080DF3CFE9FFC1
:102A3000F4CFEAFF000EE926020EEA22EF50100B57
:102A40006EE1DF50080DF3CFE9FFF4CFEAFF000E8F
:102A5000E926020EEA22EF50080B61E1DF50080D73
:102A6000F3CFE9FFF4CFEAFF000EE926020EEA22D7
:102A7000070EE926000EEA22EF0651E1DF50080DAD
:102A8000F3CFE9FFF4CFEAFF000EE926020EEA22B7
:102A9000030EE926000EEA22EF507F0B0DE0FD0E3B
:102AA000DBCFF6FFFE0EDBCFF7FFF62A000EF72294
:102AB0000800F550200B0CE1DFCFE6FF37D8E552D8
:102AC000E66ADFCFE6FFEEEC0EF0E552E55227D0E6
:102AD000DF50080DF3CFE9FFF4CFEAFF000EE9263F
:102AE000020EEA22030EE926000EEA22EF50800BC6
:102AF000E66EDFCFE6FFC0EC10F0E552E552DF50A6
:102B0000080DF3CFE9FFF4CFEAFF000EE926020E2D
:102B1000EA22070EE926000EEA22010EEF6EDF2AF6
:102B200071D7E552E552E7CFD9FF1200D9CFE6FFC2
:102B3000E1CFD9FFFE0EDB50080DF3CFE9FFF4CF54
:102B4000EAFF000EE926020EEA22EF50800B01E1B7
:102B50007ED0FE0EDB50080DF3CFE9FFF4CFEAFF85
:102B6000000EE926020EEA22EF50030B000818E2DD
:102B7000FE0EDB50080DF3CFE9FFF4CFEAFF000EA5
:102B8000E926020EEA22EF50030BE806F36EE85046
:102B9000030BF36EF46EFC0EEF14F310EF6E5FD0C8
:102BA000FE0EDB50080DF3CFE9FFF4CFEAFF000E75
:102BB000E926020EEA22EF50080B18E1FE0EDB5068
:102BC000080DF3CFE9FFF4CFEAFF000EE926020E6D
:102BD000EA22030EE926000EEA22EF507F0B0108DD
:102BE00005E3FE0EDBCFE6FFB1D838D0FE0EDB509A
:102BF000080DF3CFE9FFF4CFEAFF000EE926020E3D
:102C0000EA22EF88010EE66EE66AFE0EDBCFE6FFF3
:102C10007FEC2CF0E552E552E552000920E1010E6F
:102C2000E66EE66EFE0EDBCFE6FF7FEC2CF0E552A3
:102C3000E552E552000913E1010EE66E020EE66E62
:102C4000FE0EDBCFE6FF7FEC2CF0E55206D0E66A05
:102C5000FE0EDBCFE6FFEEEC0EF0E552E552E5525C
:102C6000E7CFD9FF1200D9CFE6FFE1CFD9FFFE0EA3
:102C7000DB50080DF3CFE9FFF4CFEAFF000EE926A1
:102C8000020EEA22EF6AFE0EDB50080DF3CFE9FFD9
:102C9000F4CFEAFF000EE926020EEA22EE52EE6AB7
:102CA000ED6AFE0EDB50080DF3CFE9FFF4CFEAFF2B
:102CB000000EE926020EEA22030EE926000EEA22A1
:102CC000800EEF6EFE0EDB50080DF3CFE9FFF4CF60
:102CD000EAFF000EE926020EEA22040EE926000EA3
:102CE000EA22EF6AFE0EDB50080DF3CFE9FFF4CFC6
:102CF000EAFF000EE926020EEA22050EE926000E82
:102D0000EA22EF6AFE0EDB50080DF3CFE9FFF4CFA5
:102D1000EAFF000EE926020EEA22060EE926000E60
:102D2000EA22EF6AFE0EDB50080DF3CFE9FFF4CF85
:102D3000EAFF000EE926020EEA22070EE926000E3F
:102D4000EA22EF6AE552E7CFD9FF1200D9CFE6FFBA
:102D5000E1CFD9FFFE0EDB50080DF3CFE9FFF4CF32
:102D6000EAFF000EE926020EEA22EF9EFE0EDB507D
:102D7000080DF3CFE9FFF4CFEAFF000EE926020EBB
:102D8000EA22EF98FE0EDB50080DF3CFE9FFF4CFF7
:102D9000EAFF000EE926020EEA22EF84E552E7CFB1
:102DA000D9FF1200D9CFE6FFE1CFD9FFFE0EDB50ED
:102DB000080DF3CFE9FFF4CFEAFF000EE926020E7B
:102DC000EA22EF50800B1BE0040EF66E700EF76ED9
:102DD0000800F550E824E66EFE0EDB50080DF3CF38
:102DE000E9FFF4CFEAFF000EE926020EEA22070E01
:102DF000E926000EEA22E552E750EF6E08D0E66AB7
:102E0000FE0EDBCFE6FFEEEC0EF0E552E552E552AA
:102E1000E7CFD9FF1200D9CFE6FFE1CFD9FF020EED
:102E2000E12600016D51080DF3CF58F0F4CF59F0B1
:102E3000000E5826030E592258C0DEFF59C0DDFF90
:102E4000DECFE9FFDDCFEAFFEF50800B01E0B0D02D
:102E5000D0C0E9FFD1C0EAFF060EEB50800A40E087
:102E6000200A2BE0600A16E0200A01E081D0D0C0E1
:102E7000E9FFD1C0EAFF0D0EEB50E66EDECFE9FFB1
:102E8000DDCFEAFFEE52050EE926000EEA22E552FA
:102E9000E750EF6ED0C0E9FFD1C0EAFF0C0EEB5057
:102EA000E66EDECFE9FFDDCFEAFFEE52040EE92643
:102EB000000EEA22E552E750EF6ED0C0E9FFD1C024
:102EC000EAFF0B0EEB50E66EDECFE9FFDDCFEAFF47
:102ED000EE52030EE926000EEA22E552E750EF6EAD
:102EE000D0C0E9FFD1C0EAFF0A0EEB50E66EDECF9C
:102EF000E9FFDDCFEAFFEE52020EE926000EEA22DC
:102F0000E552E750EF6ED0C0E9FFD1C0EAFF090EED
:102F1000EB50E66EDECFE9FFDDCFEAFFEE52010EA9
:102F2000E926000EEA22E552E750EF6ED0C0E9FF35
:102F3000D1C0EAFF080EEB50E66EDECFE9FFDDCF31
:102F4000EAFFEE52E552E750EF6ED0C0E9FFD1C084
:102F5000EAFF070EEB50070BE66EDECFE9FFDDCF91
:102F6000EAFF070EE926000EEA22E552E750EF6E6F
:102F7000D0C0E9FFD1C0EAFF060EEB50E00BE00B3A
:102F8000E838E840FF0F586EDECFE9FFDDCFEAFFFB
:102F9000E850070BF36EF80EEF14F310EF6EDECF70
:102FA000E9FFDDCFEAFFEF8E6D290F0B6D6F02D0C9
:102FB00000016085020EE15C02E2E16AE552E16E29
:102FC000E552E7CFD9FF1200D9CFE6FFE1CFD9FF15
:102FD000020EE126120E0001726F736BD0C0E9FF82
:102FE000D1C0EAFF080EEB500001776F070EEB50DF
:102FF000080DF3CFE9FFF4CFEAFF000EE926020E39
:10300000EA22EE52EECFDEFFEDCFDDFF010EE66EDF
:1030100077C0E6FF72C0E6FF73C0E6FFDECFE6FFD3
:10302000DDCFE6FF0ED8586E060EE15E5850020E58
:10303000E15C02E2E16AE552E16EE552E7CFD9FFD9
:103040001200D9CFE6FFE1CFD9FF030EE126DF6AF8
:1030500000016D51080DF3CF58F0F4CF59F0000E78
:103060005826030E5922010E58C0DBFF020E59C02C
:10307000DBFF010EDBCFE9FF020EDBCFEAFFEF50F3
:10308000800B01E0F2D1010EDBCFE9FF020EDBCFB6
:10309000EAFFEE52050EE926000EEA22EF6AD95049
:1030A000FE0FE96EFF0EDA20EA6EEF50800B6BE048
:1030B000010EDBCFE9FF020EDBCFEAFFEE52E9CFD4
:1030C00058F0EACF59F0DF500F01E924E96E000E05
:1030D000EA20EA6EFE0EDBCFEFFF010EDBCFE9FF49
:1030E000020EDBCFEAFFEE52E9CF58F0EACF59F0FB
:1030F000DF50DF2AE924E96E000EEA20EA6EEF5085
:10310000E66E010EDBCFE9FF020EDBCFEAFFEE52E7
:10311000050EE926000EEA22E552E750EF6E010E99
:10312000DBCFE9FF020EDBCFEAFFEE52E9CF58F02A
:10313000EACF59F0DF50E924E96E000EEA20EA6E8A
:10314000FD0EDBCFEFFF010EDBCFE9FF020EDBCF81
:10315000EAFFEE52E9CF59F0DF50DF2AE924E96EA9
:10316000000EEA20EA6EEFCF58F0010EDBCFE9FF48
:10317000020EDBCFEAFFEE52050EE926000EEA2230
:10318000EF50581828D0010EDBCFE9FF020EDBCF3D
:10319000EAFFEE52E9CF58F0EACF59F0DF500F01C5
:1031A000E924E96E000EEA20EA6EFD0EDBCFEFFFA8
:1031B000010EDBCFE9FF020EDBCFEAFFEE52E9CFD3
:1031C00058F0EACF59F0DF50DF2AE924E96E000E0B
:1031D000EA20EA6EEF50E66E010EDBCFE9FF020E49
:1031E000DBCFEAFFEE52050EE926000EEA22E55299
:1031F000E750EF6EF90EDB94DB96DB98DB9ADB9CF5
:10320000DB9EDB040DE1FB0EFC0EDBCF5BF05BC055
:103210005AF05B6A030E5A16000E5B16EC0E0CD0C9
:10322000FB0EFC0EDBCF5BF05BC05AF05B6A030E5B
:103230005A16000E5B16E80E5A12000E5B12010EB3
:10324000DBCFE9FF020EDBCFEAFFEE52E9CF58F009
:10325000EACF59F0DF50E924E96E000EEA20EA6E69
:103260005AC0EFFF010EDBCFE9FF020EDBCFEAFF12
:10327000EE52E9CF59F0DF50DF2AE924E96E000E63
:10328000EA20EA6EEFCF58F0010EDBCFE9FF020E25
:10329000DBCFEAFFEE52050EE926000EEA22EF50E0
:1032A0005818E66E010EDBCFE9FF020EDBCFEAFF16
:1032B000EE52050EE926000EEA22E552E750EF6EC7
:1032C000FF0EE76EFB0EDBCF5AF0FC0EE7505A16EE
:1032D0005B6A010EDBCFE9FF020EDBCFEAFFEE52A5
:1032E000E9CF58F0EACF59F0DF50E924E96E000E3B
:1032F000EA20EA6E5AC0EFFF010EDBCFE9FF020EB3
:10330000DBCFEAFFEE52E9CF59F0DF50DF2AE924A4
:10331000E96E000EEA20EA6EEFCF58F0010EDBCF27
:10332000E9FF020EDBCFEAFFEE52050EE926000EA2
:10333000EA22EF505818E66E010EDBCFE9FF020ECD
:10334000DBCFEAFFEE52050EE926000EEA22E55237
:10335000E750EF6E010EDBCFE9FF020EDBCFEAFF95
:10336000EE52E9CF58F0EACF59F0DF50E924E96E88
:10337000000EEA20EA6EFA0EDBCFEFFF010EDBCF84
:10338000E9FF020EDBCFEAFFEE52E9CF59F0DF5042
:10339000DF2AE924E96E000EEA20EA6EEFCF58F04A
:1033A000010EDBCFE9FF020EDBCFEAFFEE52050E86
:1033B000E926000EEA22EF505818E66E010EDBCF28
:1033C000E9FF020EDBCFEAFFEE52050EE926000E02
:1033D000EA22E552E750EF6E010EDBCFE9FF020E65
:1033E000DBCFEAFFEE52050EE926000EEA22EF508F
:1033F000E66E010EDBCFE9FF020EDBCFEAFFEE52F5
:10340000E9CF58F0EACF59F0DF50DF2AE924E96E1E
:10341000000EEA20EA6EE552E750EF6EDF50586E7C
:10342000010EDBCFE9FF020EDBCFEAFF5850070B9E
:10343000F36EF80EEF14F310EF6E010EDBCFE9FF21
:10344000020EDBCFEAFF070EE926000EEA22020E8B
:10345000EF6E010EDBCFE9FF020EDBCFEAFFEF8E4E
:1034600000016D290F0B6D6F02D000016085030E06
:10347000E15C02E2E16AE552E16EE552E7CFD9FF95
:103480001200D9CFE6FFE1CFD9FF040EE1260001FB
:103490006D51080DF3CF58F0F4CF59F0000E5826B7
:1034A000030E5922020E58C0DBFF030E59C0DBFF8A
:1034B000020EDBCFE9FF030EDBCFEAFFEF50800BFC
:1034C00001E0A2D0020EDBCFE9FF030EDBCFEAFF63
:1034D000EE52050EE926000EEA22EF6AFD0EDBCF62
:1034E00058F0FE0EDBCF59F0FF0E5816070E591696
:1034F00058C0DEFF59C0DDFF010EDB50200DF35038
:10350000200B586EDF50E840E8403F0B010F3F0BA7
:10351000800F5824E66E020EDBCFE9FF030EDBCFEF
:10352000EAFFEE52E552E750EF6E030EDF14E82497
:10353000586E010EDB38F00BE81C700B880F582416
:10354000E66E020EDBCFE9FF030EDBCFEAFFEE52A1
:10355000010EE926000EEA22E552E750EF6EFC0E5E
:10356000DB500CE0020EDBCFE9FF030EDBCFEAFFFE
:10357000EE52010EE926000EEA22EF80020EDBCFAA
:10358000E9FF030EDBCFEAFFEE52010EE926000E43
:10359000EA22EFCF58F0020EDBCFE9FF030EDBCFBC
:1035A000EAFFEE52EF505818E66E020EDBCFE9FF4D
:1035B000030EDBCFEAFFEE52020EE926000EEA22EE
:1035C000E552E750EF6E020EDBCFE9FF030EDBCFD3
:1035D000EAFFF80EEF140309EF6E020EDBCFE9FFEE
:1035E000030EDBCFEAFF070EE926000EEA22010EEA
:1035F000EF6E020EDBCFE9FF030EDBCFEAFFEF8EAB
:103600006D290F0B6D6F02D000016085040EE15C27
:1036100002E2E16AE552E16EE552E7CFD9FF12001E
:10362000D9CFE6FFE1CFD9FFE65200016E51080D78
:10363000F3CFE9FFF4CFEAFF000EE926030EEA22FA
:10364000EF50070B3A6E010E106EDF6A3A50DF5CE6
:1036500024E200016E51080DF3CFE9FFF4CFEAFF39
:10366000000EE926030EEA22EE52E9CF58F0EACF27
:1036700059F0DF500F01E924E96E000EEA20EA6EEE
:10368000EF50E66EDF50EA6A0A0FE96E000EEA229A
:10369000E552E750EF6EDF2AD9D700016E51080DD1
:1036A000F3CFE9FFF4CFEAFF000EE926030EEA228A
:1036B000070EE926000EEA22EF50010824E26E51BF
:1036C000080DF3CFE9FFF4CFEAFF000EE926030E61
:1036D000EA22070EE926000EEA22EF04E66E6E519A
:1036E000080DF3CFE9FFF4CFEAFF000EE926030E41
:1036F000EA22070EE926000EEA22E552E750EF6EB5
:10370000010E6F6F0ED06E51080DF3CFE9FFF4CFAD
:10371000EAFF000EE926030EEA22EF9E6E290F0B48
:103720006E6F0190D950FE0FE96EFF0EDA20EA6E3F
:10373000EF50010B0EE00A0EE66E000EE66E7CC046
:10374000E6FF7DC0E6FFB4EC31F0E552E552E5520C
:10375000E552E552E552E7CFD9FF1200D9CFE6FF97
:10376000E1CFD9FF020EE12600016B51080DF3CF26
:10377000E9FFF4CFEAFF000EE926020EEA22EF503D
:10378000800B01E14AD1DF6A6B51080DF3CFE9FFED
:10379000F4CFEAFF000EE926020EEA22EE52EE52C4
:1037A000EF50800B40E06B51080DF3CFE9FFF4CFF1
:1037B000EAFF000EE926020EEA22EE52EE52EF5028
:1037C000E66EDF50EA6A0A0FE96E000EEA22E55261
:1037D000E750EF6EDF50DF2AEA6A0A0FE96E000E4B
:1037E000EA22EF500F6E6B51080DF3CFE9FFF4CFD3
:1037F000EAFF000EE926020EEA22EE52EF50E66ED4
:10380000DF50EA6A0A0FE96E000EEA22E552E7503D
:10381000EF6EDF50DF2AEA6A0A0FE96E000EEA2235
:10382000EF500F181ED06B51080DF3CFE9FFF4CF06
:10383000EAFF000EE926020EEA22EE52EF50E66E93
:10384000DF50EA6A0A0FE96E000EEA22E552E750FD
:10385000EF6EDF50DF2AEA6A0A0FE96E000EEA22F5
:10386000EF500F6E6C51020A51E0030A3EE0010A6C
:103870002BE06B51080DF3CFE9FFF4CFEAFF000E08
:10388000E926020EEA22030EE926000EEA22010EC4
:10389000EFCFDBFF6B51080DF3CFE9FFF4CFEAFF69
:1038A000000EE926020EEA22EF50600BE842E842E1
:1038B000E842E842E842010A5DE0020A55E0010AF6
:1038C00053E0020A3EE069D06B51080DF3CFE9FFE7
:1038D000F4CFEAFF000EE926020EEA22040EE926E2
:1038E000000EEA22EF50800921D06B51080DF3CF72
:1038F000E9FFF4CFEAFF000EE926020EEA22050EE8
:10390000E926000EEA22EF50B00910D06B51080DE5
:10391000F3CFE9FFF4CFEAFF000EE926020EEA2218
:10392000060EE926000EEA22EF50A009E66EDF50EF
:10393000EA6A0A0FE96E000EEA22E552E750EF6EDE
:103940002CD0DF50EA6A0A0FE96E000EEA223F0E21
:10395000EF6EDF50DF2AEA6A0A0FE96E000EEA22F4
:10396000EF500F180F6E10D0010EDBCFE6FFAFEC5B
:103970000BF005D0010EDBCFE6FFDEEC0BF0E552DD
:10398000E76E010EE7CFDBFFDF50EA6A0A0FE96E50
:10399000000EEA22010EDBCFEFFFDF50DF2AEA6ADA
:1039A0000A0FE96E000EEA22EF500F180F6EDF507B
:1039B000DF2AEA6A0A0FE96E000EEA220FC0EFFF63
:1039C000DF503A6E010E106E019000016C5102083A
:1039D00009E2D950FE0FE96EFF0EDA20EA6EEF50D1
:1039E000020B0CE16C51020819E3D950FE0FE96E8D
:1039F000FF0EDA20EA6EEF50040B10E00A0EE66EBE
:103A0000000EE66E7CC0E6FF7DC0E6FFB4EC31F050
:103A1000E552E552E552E55201D02CD8200EDF6E7A
:103A2000DF5000081DE200016B2B200E6B5D08E3E8
:103A30006B6B010E6F6F6C2B6C51060801E26C6BA7
:103A4000DF066B51080DF3CFE9FFF4CFEAFF000E5C
:103A5000E926020EEA22EF50800BE2E0DF6AE0D7AF
:103A6000020EE15C02E2E16AE552E16EE552E7CF67
:103A7000D9FF12000A680B6A0C68030E3A6E010E39
:103A8000106E019000016F6B1200D9CFE6FFE1CFFD
:103A9000D9FF090EE126FD0EDBCFE9FFFE0EDBCFDD
:103AA000EAFF070EE926000EEA22EF50E66ED95033
:103AB000020FE96EDACFEAFFE552E750EE6EED6AEB
:103AC000D950020FE96EDACFEAFFEE50ED6EEF6AE1
:103AD000FD0EDBCFE9FFFE0EDBCFEAFF080EE92685
:103AE000000EEA22EF50586E596AD950020FE96E63
:103AF000DACFEAFF5850EE265950ED22FD0EDBCF0B
:103B0000E9FFFE0EDBCFEAFF090EE926000EEA22EE
:103B1000EF50E66ED950040FE96EDACFEAFFE552B6
:103B2000E750EE6EED6AD950040FE96EDACFEAFF86
:103B3000EE50ED6EEF6AFD0EDBCFE9FFFE0EDBCF40
:103B4000EAFF0A0EE926000EEA22EF50586E596A83
:103B5000D950040FE96EDACFEAFF5850EE265950DB
:103B6000ED22FB0EDBCFF6FFFC0EDBCFF7FFF62AD4
:103B7000000EF7220800F550100B01E18FD0FD0E6A
:103B8000DBCFE9FFFE0EDBCFEAFF060EE926000ED3
:103B9000EA22EF5098080DE0FD0EDBCFE9FFFE0EA4
:103BA000DBCFEAFF060EE926000EEA22EF50990865
:103BB00013E1FB0EDBCFF6FFFC0EDBCFF7FF0A0EA7
:103BC000F626000EF7220900F5CF58F00800F5CFD1
:103BD00059F05850591032E0FD0EDBCFE9FFFE0ED0
:103BE000DBCFEAFF060EE926000EEA22EF5090082E
:103BF0000DE0FD0EDBCFE9FFFE0EDBCFEAFF060E88
:103C0000E926000EEA22EF50910848E1FB0EDBCFD7
:103C1000F6FFFC0EDBCFF7FF0A0EF626000EF722AA
:103C20000900F5CF5AF00800F5CF5BF0020EDB502B
:103C30005A1834E1030EDB505B1830E1FD0EDBCF88
:103C4000E9FFFE0EDBCFEAFF060EE926000EEA22B0
:103C5000EF5090080FE0FD0EDBCFE9FFFE0EDBCF4B
:103C6000EAFF060EE926000EEA22EF50980802E06D
:103C7000000E01D0010EE66E040EDBCF58F0050EEB
:103C8000DBCF59F05806000E595A58C0E6FF59C00C
:103C9000E6FF41EC1AF0E552E552E552D950020F29
:103CA000E96EDACFEAFFA20EEE182CE1ED502AE120
:103CB000D950040FE96EDACFEAFF050EEE1822E1C3
:103CC000ED5020E1FB0EDBCFF6FFFC0EDBCFF7FF64
:103CD000F62A000EF7220800F550800B0DE0FD0ECD
:103CE000DBCFE9FFFE0EDBCFEAFF060EE926000E72
:103CF000EA22EF50900802E0000E01D0010E01010F
:103D0000F26F0FDB0101F25101E160D2020EDBCF55
:103D100053F0030EDBCF54F0A10E531801E15450C1
:103D200001E1B6D1A20E531801E1545001E115D1C1
:103D3000780E531801E04AD2545001E047D2D950CE
:103D4000040FE96EDACFEAFF050EEE182AE1ED5016
:103D500028E1FD0EDBCFE9FFFE0EDBCFEAFF060E0A
:103D6000E926000EEA22EF5090081BE1E66A09DB23
:103D7000E552E76E010EE7CFDBFFDB50FF0811E0F5
:103D800000017051040803E3030E705D02E2030EAC
:103D9000706F70C0E6FF010EDBCFE6FF9DDBE552E2
:103DA000E552040EDBCF58F0050EDBCF59F0060EBE
:103DB000585E000E595A5850DF6EE66EE2DAE55250
:103DC000E76E010EE7CFDBFFDB50FF0801E1FED11C
:103DD000FD0EDBCFE9FFFE0EDBCFEAFF060EE92684
:103DE000000EEA22EF5090084BE1DF50060DF3CFB2
:103DF000E9FFF4CFEAFF000EE926040EEA22030EE3
:103E0000E926000EEA22EF86010EDB50080DF3CF03
:103E1000E9FFF4CFEAFF000EE926020EEA22030EC4
:103E2000E926000EEA22EF507F0B2AE1DF50060D53
:103E3000F3CFE9FFF4CFEAFF000EE926040EEA22F1
:103E4000020EE926000EEA22EF50E66E010EDBCFED
:103E5000E6FFC0EC10F0E552E55200017051040895
:103E600003E3030E705D02E2030E706F70C0E6FFA5
:103E7000010EDBCFE6FF30DBE552E5520001702B8F
:103E8000FD0EDBCFE9FFFE0EDBCFEAFF060EE926D3
:103E9000000EEA22EF50910801E098D1010EDB50AC
:103EA000080DF3CFE9FFF4CFEAFF000EE926020E7A
:103EB000EA22030EE926000EEA22EF507F0B01E111
:103EC00085D1DF50060DF3CFE9FFF4CFEAFF000EF6
:103ED000E926040EEA22030EE926000EEA22EF503C
:103EE000080B01E173D1010EDB50080DF3CFE9FFA0
:103EF000F4CFEAFF000EE926020EEA22030EE926BD
:103F0000000EEA22EF50E66EDF50060DF3CFE9FF18
:103F1000F4CFEAFF000EE926040EEA22020EE9269B
:103F2000000EEA22E552E750EF6EDF50060DF3CFA8
:103F3000E9FFF4CFEAFF000EE926040EEA22020EA2
:103F4000E926000EEA22EF50800BE66E010EDBCF71
:103F5000E6FFC0EC10F0E55238D1FD0EDBCFE9FFF3
:103F6000FE0EDBCFEAFF060EE926000EEA22EF5036
:103F7000900801E02BD1040EDBCF58F0050EDBCF0B
:103F800059F0020E585E000E595A5850DF6EE66E18
:103F9000F8D9E552E76E010EE7CFDBFFDB50FF08F3
:103FA00001E114D1DF50060DF3CFE9FFF4CFEAFFB2
:103FB000000EE926040EEA22020EE926000EEA228D
:103FC000080EEFCFDBFFDF50060DF3CFE9FFF4CF94
:103FD000EAFF000EE926040EEA22030EE926000E8F
:103FE000EA22EF50100B20E0DF50060DF3CFE9FF7F
:103FF000F4CFEAFF000EE926040EEA22030EE926BA
:10400000000EEA22EF50200B01E0FF0E586ED9504F
:10401000080FE96EDACFEAFFEF50800B01E0FF0EE8
:10402000585C01E0D3D0CED0D950080FE96EDACF7A
:10403000EAFFEF50800B01E0FF0E586EDF50060DD7
:10404000F3CFE9FFF4CFEAFF000EE926040EEA22DF
:10405000030EE926000EEA225850010BF36EF346D8
:10406000F346F346F346F346DF0EEF14F310EF6E1C
:10407000DF50060DF3CFE9FFF4CFEAFF000EE9268B
:10408000040EEA22030EE926000EEA22EF889AD0F7
:10409000FD0EDBCFE9FFFE0EDBCFEAFF060EE926C1
:1040A000000EEA22EF50900801E090D0040EDBCF22
:1040B00058F0050EDBCF59F0020E585E000E595A2B
:1040C0005850DF6EE66E5DD9E552E76E010EE7CF20
:1040D000DBFFDB50FF0801E179D0DF50060DF3CFA5
:1040E000E9FFF4CFEAFF000EE926040EEA22020EF1
:1040F000E926000EEA22080EEFCFDBFFDF50060DA7
:10410000F3CFE9FFF4CFEAFF000EE926040EEA221E
:10411000030EE926000EEA22EF50100B1FE0DF50DD
:10412000060DF3CFE9FFF4CFEAFF000EE926040EF7
:10413000EA22030EE926000EEA22EF50200B01E0EE
:10414000FF0E586ED950080FE96EDACFEAFFEF5034
:10415000800B01E0FF0E585C39E034D0D950080FD5
:10416000E96EDACFEAFFEF50800B800A01E0010E22
:10417000586EDF50060DF3CFE9FFF4CFEAFF000ED3
:10418000E926040EEA22030EE926000EEA22585020
:10419000010BF36EF346F346F346F346F346DF0EA8
:1041A000EF14F310EF6EDF50060DF3CFE9FFF4CFFD
:1041B000EAFF000EE926040EEA22030EE926000EAD
:1041C000EA22EF88DFCFE6FF1DD9E552090EE15C58
:1041D00002E2E16AE552E16EE552E7CFD9FF120053
:1041E000D9CFE6FFE1CFD9FF040EE126FB0EDB506D
:1041F000DF6EFD0EDB50010A68E0020A50E0010AA2
:1042000001E085D0DFCFE6FFBCD8E552E76E010EB6
:10421000E7CFDBFFDB50FF0801E179D0DF50060D6F
:10422000F3CFE9FFF4CFEAFF000EE926040EEA22FD
:10423000050EE926000EEA22EF0669E10001705141
:10424000040803E3030E705D02E2030E706F705109
:10425000702BE66E010EDBCFE6FF3ED9E552E5524C
:10426000F90EDBCFF6FFFA0EDBCFF7FF0E0EF626C8
:10427000000EF7220800F550E66EDF50060DF3CF72
:10428000E9FFF4CFEAFF000EE926040EEA22050E4C
:10429000E926000EEA22E552E750EF6E38D0DFCF74
:1042A000E6FF6FD8E552E76E010EE7CFDBFFDB508C
:1042B000FF082DE0FE0EDBCFE6FF010EDBCFE6FFB1
:1042C000E66A75EC0FF0E55220D0DFCFE6FF59D853
:1042D000E552E76E010EE7CFDBFFDB50FF0817E08A
:1042E000DF50060DF3CFE9FFF4CFEAFF000EE92619
:1042F000040EEA22020EE926000EEA22EF50E66ED4
:10430000010EDBCFE6FFC0EC10F0E552E552040EE3
:10431000E15C02E2E16AE552E16EE552E7CFD9FFE6
:104320001200D9CFE6FFE1CFD9FFE652DF6A200EB7
:10433000DF5C22E2DF50060DF3CFE9FFF4CFEAFFA6
:10434000000EE926040EEA22030EE926000EEA22F8
:10435000EF50010B0FE0DF50060DF3CFE9FFF4CF74
:10436000EAFF000EE926040EEA22030EE926000EFB
:10437000EA22EF96DF2ADBD7E552E552E7CFD9FFF5
:104380001200D9CFE6FFE1CFD9FFE652DF68FE0E7B
:10439000DB50020831E3FE0EDB50060DF3CFE9FFE0
:1043A000F4CFEAFF000EE926040EEA22030EE92606
:1043B000000EEA22EF50010B1FE0FE0EDB50060D4F
:1043C000F3CFE9FFF4CFEAFF000EE926040EEA225C
:1043D000040EE926000EEA22EFCFDFFFDF50080DC2
:1043E000F3CFE9FFF4CFEAFF000EE926020EEA223E
:1043F000EF50800B01E1DF68DF50E552E552E7CF77
:10440000D9FF1200D9CFE6FFE1CFD9FF020EE12696
:10441000FE0EDBCFE6FFB5DFE552DF6EFF0852E0B0
:10442000FE0EDB50060DF3CFE9FFF4CFEAFF000EDE
:10443000E926040EEA22020EE926000EEA22EF7EA9
:10444000FE0EDB50060DF3CFE9FFF4CFEAFF000EBE
:10445000E926040EEA22020EE926000EEA22010EE7
:10446000EFCFDBFFFE0EDB50060DF3CFE9FFF4CFFD
:10447000EAFF000EE926040EEA22030EE926000EEA
:10448000EA22EF50080B15E1010EDB90DB92DB9482
:10449000DB96DB98DB9ADB9CE66AE66E280EE66E1E
:1044A000FE0EDBCFE6FF4AEC2DF0E552E552E55279
:1044B000E552010EDBCFE6FFDFCFE6FFC0EC10F0E8
:1044C000E552E552020EE15C02E2E16AE552E16E7C
:1044D000E552E7CFD9FF1200D9CFE6FFE1CFD9FFF0
:1044E000020EE126FD0EDB50040808E3030EF36E16
:1044F000FD0EDBCFF4FFF350F45C05E2030EF36E28
:10450000FD0EF3CFDBFFFD0EDBCFE6FFFE0EDBCFB4
:10451000E6FF010EE66E75EC0FF0E552E552E5524E
:10452000FD0EDBCFE6FF030EE66E040EE66EFE0E1A
:10453000DBCFE6FF4AEC2DF0E552E552E552E552BD
:10454000020EE15C02E2E16AE552E16EE552E7CF7C
:10455000D9FF1200D9CFE6FFE1CFD9FFFE0EDB5025
:1045600003E00284050E02D00294040E456E84EC32
:1045700031F0E552E7CFD9FF1200D9CFE6FFE1CF06
:10458000D9FF00B004D0F28EF28C0000FAD7000EF2
:10459000056E046E036EFE0EDB50096E030E396E5F
:1045A0000090E552E7CFD9FF1200D9CFE6FFE1CF67
:1045B000D9FF00B004D0F28EF28C0000FAD7056863
:1045C0000368046AFE0EDB50096E030E396E00901C
:1045D000E552E7CFD9FF1200D9CFE6FFE1CFD9FFEF
:1045E000040EE126D0C0E9FFD1C0EAFF060EEB5071
:1045F000C10821E1D0C0E9FFD1C0EAFF070EEB50AE
:10460000E76E010EE7CFDBFF080EEB50DF6E090E01
:10461000EB50E76E020EE7CFDBFF0A0EEB50E76EC2
:10462000030EE7CFDBFF0C0EEB500001776F0B0E94
:10463000EB50766F30D0D0C0E9FFD1C0EAFF070E53
:10464000EB50080DF3CFE9FFF4CFEAFF000EE926A7
:10465000020EEA22EE52EECFDEFFEDCFDDFFD0C03C
:10466000E9FFD1C0EAFF080EEB50E76E020EE7CF7C
:10467000DBFF090EEB50E76E030EE7CFDBFF0A0E00
:10468000EB500001776F060EEB50820802E1010E3D
:1046900001D0020E766F020EDBCF58F058C059F0F1
:1046A000586A030EDB505810726F59C073F0010E38
:1046B000725F000E735BD0C0E9FFD1C0EAFF060E47
:1046C000EB50820810E0D0C0E9FFD1C0EAFF060E2F
:1046D000EB50830808E0D0C0E9FFD1C0EAFF060E26
:1046E000EB50C10813E176C0E6FF77C0E6FF72C069
:1046F000E6FF73C0E6FFDECFE6FFDDCFE6FF21EC8D
:1047000018F0586E060EE15E585045D0D0C0E9FF53
:10471000D1C0EAFF070EEB50716F0B0EEB50776FB5
:104720000A0EEB50766F01880A0EE66EBDEC22F0A1
:10473000E55202900001000E725D040E735923E2EF
:104740000150020B1EE10150040B1BE1D0C0E9FF38
:10475000D1C0EAFF060EEB50840802E1018209D0C5
:10476000D0C0E9FFD1C0EAFF060EEB50A20801E17C
:10477000018480C0E6FF81C0E6FF29D8E552E552FA
:104780000AD0040E01D0050E476E71C046F04C0EE3
:10479000456E84EC31F0040EE15C02E2E16AE55220
:1047A000E16EE552E7CFD9FF1200030E000172154A
:1047B000746F72C058F073C059F0D89059325832A3
:1047C000D890593258325850756F752B1200D9CF86
:1047D000E6FFE1CFD9FF000178510F0A01E111D2C4
:1047E000010A01E104D2030A01E1DCD1010A01E17D
:1047F000A2D1070A01E196D1030A01E16BD10F0AA8
:1048000001E15AD1010A01E12BD1030A01E11AD1D8
:10481000010A01E1EBD0070A01E1DFD0010A35E02E
:10482000030A21E0010A01E0F4D10150020B03E187
:104830000150040B18E02E6A2C6A2D6A2A6A2B6A32
:10484000166A176A02800098009C009A00960196EA
:104850000198829E829A0E0EE66EBDEC22F0E55221
:104860000001010ECCD12A502E6E2A50180804E205
:1048700002900088828E0BD0008C150EE66EBDEC87
:1048800022F0E5520001020EBAD100A806D00ADAE1
:10489000019201940001786BBCD1020E765D03E0B9
:1048A000030E765D24E1030E765D06E1010E756F61
:1048B000070E7215746F01D078DFFD0EDBCFF6FFA7
:1048C000FE0EDBCFF7FF030EF626000EF7220800E0
:1048D000F550E66E75C0E6FFE66A7D0EE66E9DD980
:1048E000E552E552E552E55200010B0E71D0760516
:1048F00028E101A24DD073C058F0596A780E5810C3
:104900007A6FEF0E776F7B6B080E796FFD0EDBCF42
:10491000F6FFFE0EDBCFF7FF030EF626000EF722A2
:104920000800F550E66E77C0E6FF7251E66E7AC079
:10493000E6FF73D9E552E552E552E5520001050E56
:1049400047D0765146E101A223D073C058F0596A8E
:10495000740E58107A6F776BFD0EDBCFF6FFFE0EEC
:10496000DBCFF7FF030EF626000EF7220800F55006
:10497000E66E7751772BE66E7251E66E7AC0E6FFEF
:104980004CD9E552E552E552E55200010D0E20D01A
:1049900073C058F0596A7C0E58107A6FFD0EDBCF49
:1049A000F6FFFE0EDBCFF7FF030EF626000EF72212
:1049B0000800F550E66E77C0E6FF72C0E6FF7AC0E9
:1049C000E6FF2BD9E552E552E552E55200010E0E05
:1049D000786F2A502E6E008A1CD101880A0EE66E6E
:1049E000BDEC22F0E5520001040E09D101987907CF
:1049F000795101E1FCD07B51E8247B6F77077BAFD5
:104A000003D0080E771102D0F70E7715776FFD0EE1
:104A1000DBCFF6FFFE0EDBCFF7FF030EF626000E10
:104A2000F7220800F550E66E77C0E6FF7251E66E99
:104A30007AC0E6FFF2D8E552E552E552E5520001B0
:104A4000030EDDD07B51E8247B6F00B67B2B018801
:104A50000A0EE66EBDEC22F0E5520001060ECFD044
:104A6000019877077907795107E17B5105E1E70E56
:104A7000776F080E796F3BD0795103E17BC077F0F7
:104A8000B6D0FD0EDBCFF6FFFE0EDBCFF7FF030E39
:104A9000F626000EF7220800F550E66E77C0E6FF16
:104AA0007251E66E7AC0E6FFB8D8E552E552E5529B
:104AB000E5520001050EA3D07B51E8247B6F00A6D0
:104AC0007B2B01880A0EE66EBDEC22F0E552000158
:104AD000080E95D0019877077907795104E17B5149
:104AE00002E1776B84D0795102E1018680D0FD0E1E
:104AF000DBCFF6FFFE0EDBCFF7FF030EF626000E30
:104B0000F7220800F550E66E77C0E6FF7251E66EB8
:104B10007AC0E6FF82D8E552E552E552E55200013F
:104B2000070E6DD001880A0EE66EBDEC22F0E5524C
:104B300000010C0E64D00198009601A216D0700EF0
:104B400074117A6F776BFD0EDBCFF6FFFE0EDBCFB5
:104B5000F7FF030EF626000EF7220800F550E66E6A
:104B60007751772BE66EE66A34D0780E74117A6F3F
:104B7000FD0EDBCFF6FFFE0EDBCFF7FF030EF626B2
:104B8000000EF7220800F550E66E77C0E6FFE66AF1
:104B90007AC0E6FF42D8E552E552E552E5520001FF
:104BA0000E0E2DD077511FE00050080B1CE1FD0EBA
:104BB000DBCFF6FFFE0EDBCFF7FF030EF626000E6F
:104BC000F7220800F550E66E7751772BE66E7251AA
:104BD000E66E7AC0E6FF21D8E552E552E552E5528D
:104BE00000010D0E0CD0775101E101867707018895
:104BF0000A0EE66EBDEC22F0E55200010F0E786F52
:104C000008D0019802904ED8019201940001786B6F
:104C1000009AE552E7CFD9FF1200D9CFE6FFE1CFE6
:104C2000D9FF0096FE0EDB50036EFC0EDBCFE6FFD5
:104C3000FE0EDB50E552E718066E030E396E0001DA
:104C4000765102E076050CE1FD0EDB50046EFC0EA1
:104C5000DB50056EFD0EDB500618066E392A05D0B6
:104C6000FC0EDB50046E0650056E080E096E0090B7
:104C7000D950FB0FE96EFF0EDA20EA6EEF50080BF9
:104C80000DE00350E66EE66A7CC0E6FF7DC0E6FFFD
:104C9000B4EC31F0E552E552E552E552E552E7CF8A
:104CA000D9FF12000001722B000E73234C0E456ECB
:104CB00071C046F001A602D0010E03D000A803D0B7
:104CC000020E476E14D001A20CD0850E456E73C043
:104CD00058F0596A5850476E7251486E77C049F083
:104CE00006D000A602D0030E01D0010E476E84EF5D
:104CF00031F0020EE66E3DEC2FF0E552F3CF7CF082
:104D0000F4CF7DF0040EE66E10EC2FF0E5520001BA
:104D10007E6FC1EF2DF07EC07FF00001040E7E6F2C
:104D20007CC0E6FF7DC0E6FF500EE66E51EC31F030
:104D3000E552E552E55212000001070E7F6FE85080
:104D400002E0010E01D0000E7E6F12001200000181
:104D50007E6B12000501806BD0C0E9FFD1C0EAFF75
:104D6000060EEB500D0802E194D86FD092DA0009DC
:104D70006CE00501010E806FD0C0E9FFD1C0EAFFF1
:104D8000060EEB505E0A5DE0AB0A5AE0270A57E0D8
:104D9000600A53E02E0A4FE00A0A3BE0030A37E0BC
:104DA000E40A2BE0290A27E00F0A23E0010A1FE0AA
:104DB000030A1CE0010A16E0070A0DE0200A01E0E0
:104DC00041D0D0C0E9FFD1C0EAFF090EEB50E66E3A
:104DD000A7D8E5523AD000017E0503E10001060E96
:104DE0007E6F33D00001010E7E6F2FD02ED019D9E7
:104DF0002CD018D92AD017D928D0D0C0E9FFD1C0DB
:104E0000EAFF090EEB50E66E0FD9E5521ED02DD900
:104E10001CD0D0C0E9FFD1C0EAFF0A0EEB50E66E0D
:104E2000D0C0E9FFD1C0EAFF090EEB50E66E1ED9F3
:104E3000E552E5520AD04ED908D04DD906D005D05A
:104E400004D0FF000501806B00D0050180511DE1F9
:104E5000040E00017E5D19E10501010E806FD0C0D6
:104E6000E9FFD1C0EAFF060EEB50420A09E0530AFF
:104E700005E0010A01E006D031D907D073D905D089
:104E8000CAD903D00501806B00D00501805100D044
:104E90001200D9CFE6FFE1CFD9FF020EE126200EA6
:104EA000DE6E080EDD6EB60E456EDECFF6FFDDCF90
:104EB000F7FF0800F550486EDECFF6FFDDCFF7FFB5
:104EC000020EF626000EF7220800F550496EDECFDE
:104ED000F6FFDDCFF7FF070EF626000EF7220800DB
:104EE000F5504A6E7CC0E6FF7DC0E6FF65EC31F010
:104EF000E552E552020EE15C02E2E16AE552E16E42
:104F0000E552E7CFD9FF12007CC0E6FF7DC0E6FF87
:104F1000520EE66E51EC31F0E552E552E5521200C8
:104F2000D9CFE6FFE1CFD9FF020EE126200EDE6EDB
:104F3000080EDD6EFE0EDBCF58F0380EF66E080E52
:104F4000F76E0900F5CF59F00800F5CF5AF0585028
:104F5000595C000E5A5854E39B0E456EFE0EDB5012
:104F6000486EFE0EDB5004E1380EF66E080E35D0AA
:104F70000F0EF36EFE0EDBCFF4FFF350F45C1EE376
:104F8000130EF36EFE0EDBCFF4FFF350F45C16E26B
:104F9000C3D9F3CF5AF0F4CF5BF0FE0EDB50F10F24
:104FA000080DF3505AC058F05BC059F005E0D89096
:104FB00059325832E804FBE1585012D0DECFF6FFE8
:104FC000DDCFF7FFF6CF58F0F7CF59F0FE0EDB0438
:104FD0000F015824F66E000E5920F76E0800F550A8
:104FE000496EFE0EDB50080804E100017E0501E178
:104FF00049847CC0E6FF7DC0E6FF65EC31F004D05B
:10500000090EE66EE66A30D9E552E552020EE15C21
:1050100002E2E16AE552E16EE552E7CFD9FF120004
:105020001200120012001200D9CFE6FFE1CFD9FF23
:10503000970E456EFE0EDB50486EFE0EDB06DB5013
:105040000001F76A8025F66E8151F7220800F550BD
:10505000496E7CC0E6FF7DC0E6FF65EC31F0E552AD
:10506000E552E552E7CFD9FF12001200D9CFE6FF93
:10507000E1CFD9FF020EE12680C0DEFF81C0DDFF57
:10508000FE0EDB50DE26000EDD22DF06010E01E201
:10509000DB06FD0EDBCFE6FFDECFE6FFDDCFE6FF72
:1050A000FAEC2EF0E552E552E5527CC0E6FF7DC0F9
:1050B000E6FF590EE66E51EC31F0E552E552E5524D
:1050C000020EE15C02E2E16AE552E16EE552E7CFF1
:1050D000D9FF12001200120012001200D9CFE6FF11
:1050E000E1CFD9FF030EE126200EDE6E080EDD6E45
:1050F000EF0E456E070EF36E020EF3CFDBFFDB50B3
:105100000D0820E3DECFF6FFDDCFF7FFF6CF58F036
:10511000F7CF59F0020EDB50F90F5824F66E000E4F
:105120005920F76E0800F550E66E020EDB50EA6A71
:105130003F0FE96E000EEA22E552E750EF6E020ED5
:10514000DB2ADDD700017E0501E14D8484EC31F0DE
:10515000030EE15C02E2E16AE552E16EE552E7CF5F
:10516000D9FF1200D9CFE6FFE1CFD9FF070EE12624
:105170003A0EF66E080EF76E030E0900F5CFDBFF50
:10518000040E0900F5CFDBFF050E0900F5CFDBFFAC
:10519000060E0900F5CFDBFF030EDBCF53F0040E44
:1051A000DBCF54F0DE5253C0DEFF54C0DDFFDD52D2
:1051B000E20E456EDF6ADF50DF2A000920E0DF5093
:1051C000E76E010EDBCFF6FF020EDBCFF7FFE750F5
:1051D000F626000EF7220800F550E66E070EDF24D3
:1051E000EA6A3F0FE96E000EEA22E552E750EF6EE1
:1051F000070EDF5C02E3000EDED7010EDCD784EC85
:1052000031F0070EE15C02E2E16AE552E16EE5523F
:10521000E7CFD9FF1200D0C0E9FFD1C0EAFF070EE7
:10522000EB5000017D6F7C6B080EEB50586E596A95
:10523000E8507C2759507D23050E7E6F010EE66EE7
:105240007CC0E6FF7DC0E6FF49D8E552E552E55255
:105250007CC0E6FF7DC0E6FF520EE66E51EC31F0F9
:10526000E552E552E5521200D9CFE6FFE1CFD9FF72
:105270006F0E456EFD0EDB50486E7CC0E6FF7DC0B4
:10528000E6FF65EC31F0E552E552E552E7CFD9FF94
:105290001200D0C0E9FFD1C0EAFF060EEB50E00BD0
:1052A000E838E840586E020E585C17E3D0C0E9FFBA
:1052B000D1C0EAFF070EEB505C6E5B6A080EEB5044
:1052C0005B24596E000E5C205A6E00017C51591807
:1052D00004E17D515A1801E1010C000CD9CFE6FF21
:1052E000E1CFD9FFFD0EDBCFE6FFFE0EDBCFE6FF01
:1052F000020EE66E7EEC2FF0E552E552E552FC0E12
:10530000DBCFE6FF040EE66E1FEC2FF0E552E55210
:10531000E552E7CFD9FF1200D9CFE6FFE1CFD9FFA1
:10532000020EE126F29EFE0EF66EF7683F0EF86E54
:105330000900F5CFDEFF0A00F5CFDDFFF86AF28E37
:10534000DECF58F0DDCF59F058C0F3FF59C0F4FF5D
:10535000020EE15C02E2E16AE552E16EE552E7CF5E
:10536000D9FF1200D9CFE6FFE1CFD9FFE65279ECA1
:1053700026F00001000E806F700E816F80C082F0F9
:10538000E8CF83F00001866B876B896B8A6B80C0E6
:10539000F6FFF76E0C0EF626000EF7220800F55009
:1053A000E8248B6FDF6A200EDF5C11E2DF50060D10
:1053B000F3CFE9FFF4CFEAFF000EE926040EEA225C
:1053C000030EE926000EEA22EF6ADF2AECD7DF6A35
:1053D000200EDF5C19E2DF50040DF3CFE9FFF4CFBC
:1053E000EAFF000EE926050EEA22EE52EF6ADF50D0
:1053F000040DF3CFE9FFF4CFEAFF000EE926050E16
:10540000EA22EF68DF2AE4D7E552E552E7CFD9FF79
:105410001200D9CFE6FFE1CFD9FFFD0EDBCFF6FFBB
:10542000FE0EDBCFF7FFF62A000EF7220800F5503C
:10543000400B09E0010EE66EE66EE66A8CEC31F098
:10544000E552E552E552E552E7CFD9FF12000001DF
:10545000895106E08A5102E0000E01D0010E8A6FE8
:1054600080B42AD000017E51040A22E0030A1DE024
:10547000060A16E0070A14E0040A08E0020A01E03E
:1054800012000001886B0001020E13D00001882B6E
:10549000060E885D10E3010E896F0001030E09D02E
:1054A0000001886B0001070E04D00001882B120058
:1054B000080E7E6F1200120000017E51080A26E0DD
:1054C0000F0A17E0020A0FE0060A08E0010A04E0EA
:1054D000020A21E0010A12007E6B12008BEC26F01A
:1054E0000001040E04D00001896B0001010E7E6FE3
:1054F00012000001885100080EE28851060802E2FD
:10550000A7EF26F0010E896F8BEF26F09CEC26F0BA
:105510000001896B12001200D9CFE6FFE1CFD9FF5D
:10552000E6520001895103E08AC0DFFF03D0FE0E7E
:10553000DB50DF6EDF5002E0010E01D0000EE552BD
:10554000E552E7CFD9FF1200D9CFE6FFE1CFD9FF6F
:10555000040EE12600018B513DE08B0746E182C03D
:10556000F6FF83C0F7FF0C0EF626000EF7220800A8
:10557000F5CF8BF082C0F6FF83C0F7FF070EF6264B
:10558000000EF7220800020EF5CFDBFF2450E76E75
:10559000030EE7CFDBFF020EDBCFE6FF030EDB508F
:1055A000E552E702F350DE6EDD6A010EF4CFDBFF59
:1055B000D00E456E486A010E496EDB504A6EDF50D0
:1055C0004B6E7CC0E6FF7DC0E6FF65EC31F0E55236
:1055D000E5520BD082C0F6FF83C0F7FF0C0EF62613
:1055E000000EF7220800F5CF8BF0040EE15C02E21A
:1055F000E16AE552E16EE552E7CFD9FF1200E30E12
:10560000456E82C0F6FF83C0F7FF0800F550486E74
:10561000496A040E4A6E640E4B6E4C6A7CC0E6FF0B
:105620007DC0E6FF65EC31F0E552E5521200D9CFBE
:10563000E6FFE1CFD9FFE652200EF36EFD0EDBCF81
:10564000F4FFF350F45C01E355D1FE0EDB50080D7E
:10565000F3CFE9FFF4CFEAFF000EE926020EEA22BB
:10566000EF50800B01E146D1FD0EDB50060DF3CF6C
:10567000E9FFF4CFEAFF000EE926040EEA22030E4A
:10568000E926000EEA22EF50010B58E0FD0EDB5038
:10569000060DF3CFE9FFF4CFEAFF000EE926040E72
:1056A000EA22040EE926000EEA22EFCFDFFFDF50E8
:1056B000080DF3CFE9FFF4CFEAFF000EE926020E52
:1056C000EA22EF50800B3AE0DF50080DF3CFE9FFFC
:1056D000F4CFEAFF000EE926020EEA22EF96DF5031
:1056E000080DF3CFE9FFF4CFEAFF000EE926020E22
:1056F000EA22EF50100B22E0800E586EDF50080DAA
:10570000F3CFE9FFF4CFEAFF000EE926020EEA220A
:10571000030EE926000EEA225850EF16DF50080D5E
:10572000F3CFE9FFF4CFEAFF000EE926020EEA22EA
:10573000070EE926000EEA22010EEF6EFD0EDB5089
:10574000060DF3CFE9FFF4CFEAFF000EE926040EC1
:10575000EA22040EE926000EEA22FE0EDBCFEFFF5E
:10576000DB50080DF3CFE9FFF4CFEAFF000EE92686
:10577000020EEA22EE52EECF58F0EFCF59F0FD0EB6
:10578000DB50060DF3CFE9FFF4CFEAFF000EE92668
:10579000040EEA2258C0EEFF59C0EDFFFE0EDB50AA
:1057A000080DF3CFE9FFF4CFEAFF000EE926020E61
:1057B000EA22030EE926000EEA22EF507F0B12E1E7
:1057C000FD0EDB50040DF3CFF6FFF4CFF7FF100E04
:1057D000F626700EF722020EF626000EF7220800BB
:1057E000F55010D0FE0EDB50080DF3CFE9FFF4CFDB
:1057F000EAFF000EE926020EEA22030EE926000E59
:10580000EA22EF50E66EFD0EDB50060DF3CFE9FF06
:10581000F4CFEAFF000EE926040EEA22020EE92682
:10582000000EEA22E552E750EF6E0E0EF66E700E95
:10583000F76E0800F550E66EFD0EDB50060DF3CF57
:10584000E9FFF4CFEAFF000EE926040EEA22050E76
:10585000E926000EEA22E552E750EF6EFD0EDB501E
:10586000060DF3CFE9FFF4CFEAFF000EE926040EA0
:10587000EA22030EE926000EEA22EF80FD0EDB503D
:10588000060DF3CFE9FFF4CFEAFF000EE926040E80
:10589000EA22030EE926000EEA22EF82FD0EDB501B
:1058A000060DF3CFE9FFF4CFEAFF000EE926040E60
:1058B000EA22030EE926000EEA22EF96FD0EDB50E7
:1058C000060DF3CFE9FFF4CFEAFF000EE926040E40
:1058D000EA22030EE926000EEA22EF98FE0EDB50C4
:1058E000080DF3CFE9FFF4CFEAFF000EE926020E20
:1058F000EA22EF86E552E552E7CFD9FF1200D9CF71
:10590000E6FFE1CFD9FFE652FD0EDB50060DF3CFE7
:10591000E9FFF4CFEAFF000EE926040EEA22030EA7
:10592000E926000EEA22EF50010B05E0FC0EDB50E9
:1059300002E0000E01D0010EDF6EDF5009E0FD0E27
:10594000DBCFE6FFFE0EDBCFE6FF71DEE552E55270
:10595000DF50E552E552E7CFD9FF1200D9CFE6FF7D
:10596000E1CFD9FFE652DF6A200EDF5C16E2DF509E
:10597000060DF3CFE9FFF4CFEAFF000EE926040E8F
:10598000EA22040EE926000EEA22EFCF58F0FE0EBE
:10599000DB50585C02E0DF2AE7D7200EDF5C01E134
:1059A000DF68DF50E552E552E7CFD9FF1200D9CFCB
:1059B000E6FFE1CFD9FFE652FE0EDBCFE6FFCEDFFA
:1059C000E552DF6EFF0EDF5C0FE0DF50060DF3CF18
:1059D000E9FFF4CFEAFF000EE926040EEA22030EE7
:1059E000E926000EEA22EF90E552E552E7CFD9FF13
:1059F0001200D9CFE6FFE1CFD9FFE652DF6A200ED1
:105A0000DF5C43E2DF50040DF3CFE9FFF4CFEAFFA0
:105A1000000EE926050EEA22EF50FF0834E0DF50C1
:105A2000040DF3CFE9FFF4CFEAFF000EE926050EDF
:105A3000EA22EE52EF0627E182C0E6FF83C0E6FFCE
:105A4000DF50040DF3CFE9FFF4CFEAFF000EE926A3
:105A5000050EEA22EECFE6FFEECFE6FFEECFE6FF41
:105A6000EFCFE6FFF0EC20F0586E060EE15E5850E6
:105A7000DF50040DF3CFE9FFF4CFEAFF000EE92673
:105A8000050EEA22EF68DF2ABAD7E552E552E7CFE2
:105A9000D9FF1200D9CFE6FFE1CFD9FFE652DF6A86
:105AA000200EDF5C0FE2DF50040DF3CFE9FFF4CFEF
:105AB000EAFF000EE926050EEA22EF50FF0802E099
:105AC000DF2AEED7200EDF5C3DE2DF50040DF3CF7E
:105AD000E9FFF4CFEAFF000EE926050EEA22EE52B6
:105AE000FD0EDBCFEFFFDF50040DF3CFE9FFF4CF66
:105AF000EAFF000EE926050EEA22FE0EDBCFEFFFDD
:105B0000DF50040DF3CFE9FFF4CFEAFF000EE926E2
:105B1000050EEA22020EE926000EEA22FC0EDBCF79
:105B2000EFFFDF50040DF3CFE9FFF4CFEAFF000EE3
:105B3000E926050EEA22030EE926000EEA22FB0EF4
:105B4000DBCFEFFF200EDF5C02E3000E01D0010E81
:105B5000E552E552E7CFD9FF120012EE00F0800EB9
:105B6000006EA50EE66E002EFDD711EE00F021EEC0
:105B700000F0F86A579C36EC06F038EC04F0FBD7DE
:105B8000120000018C6BCE69CF691200D9CFE6FFFD
:105B9000E1CFD9FF030EE1268D0EDE6E000EDD6E25
:105BA000CEC0F6FFCFC0F7FFF86ADECFE9FFDDCF4A
:105BB000EAFFF29E010EF36E020EF3CFDBFF020E40
:105BC000DB50020817E30001200ECD6FEE50F56E9A
:105BD0000D00CD07FBE10A00A68EA69CA698A68420
:105BE000550EA76EAA0EA76EA682A6940900020EF5
:105BF000DB2AE5D7F28E030EE15C02E2E16AE552B0
:105C0000E16EE552E7CFD9FF1200CEC0F6FFCFC05C
:105C1000F7FFF86AF29EA68EA69CA684A688550E6B
:105C2000A76EAA0EA76EA682A694F28EC6EF2DF0DE
:105C300000018CA905D08CAB02D005EF2EF0A6DFB9
:105C40001200D9CFE6FFE1CFD9FF030EE126000114
:105C50008C51070B050803E00001050E8C6F000155
:105C600000018C51080B15E0FD0EDBCF58F0FE0E45
:105C7000DBCF59F0C00E5816FF0E591658500001D0
:105C8000CE1902E15950CF1904E0D2DF0001050E10
:105C90008C6F00018CB72CD0D950010FE96EDACF90
:105CA000EAFF8D0EEE6E000EED6E010EDBCFE9FF0A
:105CB000020EDBCFEAFFFD0EDBCFCEF0FE0EDBCF18
:105CC000CFF0C00E0001CE17FF0E0001CF17CEC0DF
:105CD000F6FFCFC0F7FFF86A800EA66E0001400EF7
:105CE000CD6F0900F5CFEEFFCD07FBE100018C87FA
:105CF0003F0EE76EFD0EDBCFE9FFFE0EDBCFEAFFC6
:105D0000E750E916EA6A8D0EE926000EEA22EF5006
:105D100000D0586E030EE15C02E2E16AE552E16EEA
:105D20005850E552E7CFD9FF1200D9CFE6FFE1CFB7
:105D3000D9FF020EE12600018C51070B050803E094
:105D40008C818C938C858C51080B10E0FD0EDBCF81
:105D500058F0FE0EDBCF59F0C00E5816FF0E591644
:105D60005850CE1902E15950CF1909E0FD0EDBCF92
:105D7000E6FFFE0EDBCFE6FF64DFE552E5523F0EA5
:105D8000E76EFD0EDBCF58F0FE0EE7505816596A4D
:105D90008D0E5826000E592258C0DEFF59C0DDFF77
:105DA000DECFE9FFDDCFEAFFEF50F36EFC0EDB50F4
:105DB000F35C02E000018C89FC0EDBCFE6FFDECF56
:105DC000E9FFDDCFEAFFEF1CE552E71402E0000136
:105DD0008C8BDECFE9FFDDCFEAFFFC0EDBCFEFFFE0
:105DE000020EE15C02E2E16AE552E16EE552E7CFC4
:105DF000D9FF1200D9CFE6FFE1CFD9FFFC0EDBCFF0
:105E0000E6FFFD0EDBCFE6FFFE0EDBCFE6FF8DDF0C
:105E1000E552E552E5520CDFE552E7CFD9FF12001B
:105E2000D9CFE6FFE1CFD9FFFE0EDB50A96EA69ECB
:105E3000A69CA680A850E552E7CFD9FF1200D9CF83
:105E4000E6FFE1CFD9FFFE0EDB50A96EFD0EDB5061
:105E5000A86EA69EA69CA684F29E550EA76EAA0EBC
:105E6000A76EA68200000000F28EA1A8FED7A1981E
:105E7000A694E552E7CFD9FF1200D9CFE6FFE1CFD4
:105E8000D9FF030EE126FE0EDB50DF6EDF50DF2A66
:105E9000E66EC6DFE552E66ED950010FE96EDACF45
:105EA000EAFFE552E750EE6EED6ADFCFE6FFB8DFBE
:105EB000E5525A6E5B6E5A6A010EDB505A10586EEC
:105EC000020EDB505B10596E010E58C0DBFF020E54
:105ED00059C0DBFF010EDBCF58F0020EDBCF59F0CB
:105EE00058C0F3FF59C0F4FF030EE15C02E2E16A1F
:105EF000E552E16EE552E7CFD9FF1200D9CFE6FFB8
:105F0000E1CFD9FFE652FE0EDB50DF6EFC0EDBCF99
:105F1000E6FFDF50DF2AE66E92DFE552E552FC0E27
:105F2000DBCF58F0FD0EDBCF59F059C058F0596A5D
:105F30005850E66EDFCFE6FF82DFE552E552E552CC
:105F4000E552E7CFD9FF1200D9CFE6FFE1CFD9FF65
:105F50000001D66BD76BD36B800E6F6E6EAEFED723
:105F6000B00E776E0D01F86B606A070E706E9E0EB4
:105F7000716E030E726E200E736E010ED46FD56BB0
:105F8000D86B0F01186B080E196F1A6B1B6B1C6B0B
:105F90001D6F1E6B1F6B800E016F0D01E06BE16BBF
:105FA000E26BE36BE46BE56BE66BE76BF06BF16B5D
:105FB000F26BF36BFA6BFC6B606A0F01506B0E01B6
:105FC000206B306B406B506B606B706B6F6AFE0EBA
:105FD000DBCFE6FF10D8E55204D8E552E7CFD9FF72
:105FE000120037D8000906E0D0C0E9FFD1C0EAFFAF
:105FF000EF6AF7D71200D9CFE6FFE1CFD9FFE6521B
:10600000FE0EDBCFE6FF10EC2FF0E552DF6E3F6AAD
:10601000780EDF14E840E840E8401F0BB009406EFE
:10602000070EDF14200DF350416E780EDF14E840A8
:10603000E840E8401F0BB0090F01216F070EDF1485
:10604000200DF3CF42FF456BE552E552E7CFD9FF74
:106050001200D9CFE6FFE1CFD9FF020EE126DF6AB9
:10606000DF5054E1070E6F14010A07E0010A0BE14B
:106070000001600ED06F0F0E04D00001500ED06FE3
:106080000F0ED16F0CD0020E6F5C070B100DF3508A
:106090000001D06FD16B200ED0270E0ED123D0C0BF
:1060A000E9FFD1C0EAFFEF50800BE76E010EE7CFAA
:1060B000DBFFDB5028E03CD8D0C0E9FFD1C0EAFFCD
:1060C000050EE926000EEA22EF50400B02E031D81F
:1060D000C7D7D0C0E9FFD1C0EAFF050EE926000E00
:1060E000EA22EF500F0B000908E0D0C0E9FFD1C051
:1060F000EAFF020EEB50080B06E0D0C0E9FFD1C06A
