:020000040000FA
:040000001FD00ED02F
:0400080004EF04F00D
:040018000CEF04F0F5
:10002000A66E05A01200550EA76EAA0EA76EA68298
:100030000000A6B2FED712000A26D8B00B2A120082
:10004000A66AA968AA68A680A83C00EF04F0066A20
:100050001C0E056E0F019394000E006F080E016FC9
:10006000E81E056F000E026F070E036FFF0E186F7C
:10007000EB0E196FFF0E1A6FF80E1B6F030E706EEA
:100080009E0E716E030E726E200E736E6F6A0E0EF0
:10009000C16E939E939C818E818C609E040060AEA5
:1000A000FDD70FEE66F065500F0B096EF46EF5E0AC
:1000B00064B02BD010EE01F0EECFE6FFF42EFCD7AB
:1000C0000650EBE0010AD8A407D0A968AA68A86A7C
:1000D000040EA6DF819CFF000650020A05E10B6AB0
:1000E0000A6A0C900C6AD9D70650030A0AE1075035
:1000F0000A2606E108500B2203E10CB001D073D0B0
:1001000076D00650040AC9E176D00350F86EF00BA1
:10011000F36E0250F76EAA6E0150F66EA96E05A638
:1001200005D009500126E86A02220322300EF3604E
:1001300001D008D0F350300A01E12AD0F350F00A80
:10014000ACE132D005A405D0F6503F0B02E1940E8D
:1001500067DF05B2A2D7F650070B9FE1080EF46ED9
:10016000EE50F56E69DF0D00F42EFAD7080EF46E2E
:100170000A00ED50F42EFCD7840E52DF080EF46E08
:100180000900F550EE18D8A40C80F42EF9D785D7C5
:10019000EF50F56E51DF0C00C40E42DF0900F55040
:1001A000EE18F42EF5D779D7EF50A86E45DF040E80
:1001B00037DFA66AA680A850EE18D8A40C80A94AFA
:1001C000AA2AF42EF1D769D740B7FED7800E416F27
:1001D000080E426F000E436F040E446F448164A00A
:1001E000449140875AD7010E466F456FEDD7466B55
:1001F000010E456FE9D7020E466F010E456FE4D739
:0608000000008CEF07F080
:0408080020EF04F0E9
:0C081000414343345F3220009FEF04F0AE
:10082000A551088002100209010100080000000023
:1008300000000000000000000E0010080000CB01C6
:100840006FCF0AF06ECF0BF0E9CF05F0EACF06F0DC
:10085000E1CF07F0E2CF08F0080EFA6E0B500E0B56
:10086000F92637D012D035D034D033D002D006D0CC
:1008700030D0A49200EE2AF056EF04F0A4900DB20E
:1008800042D000EE2AF056EF04F00F0130AB08D052
:100890001A5206E01A2E04D030973F0E31173087D7
:1008A000509F0001609E749E749C14D06F50F10B99
:1008B0006F6E0B500E0B6F121FEE60F0E6CFEEFF67
:1008C0006E0EE162FBD7609E2FBC13D02F5201E069
:1008D0000D80609E030EA4166F50F10B0A106F6E10
:1008E00005C0E9FF06C0EAFF07C0E1FF08C0E2FF5C
:1008F00011000DB2EED71CA2ECD70F0120B7FED726
:1009000020870001E6D76566E4D76138E832780BC6
:10091000206E6238E842070B2010196E10EE80F04E
:100920005F6A5F80080E196403D0195EE12AFBD765
:10093000194E02D05F46FCD75F50E712CAD7006E4F
:10094000D8CF01F0E0CF02F0E00ECE6E9E6A4A50A2
:1009500001E180784B2A4BB081D0495001E0490633
:100960004A5001E04A0646500BE0462E77D0808080
:10097000485006E08216486A545002E0466E6ED037
:1009800047526CE049526AE147B00DD047B216D0E9
:1009900047B41FD047B628D047B831D047BA3AD06D
:1009A00047BC43D04DD04790581C821657508212F6
:1009B0004C5054E0466E571C486E4CD04792571C22
:1009C0008216585082124D5049E0466E581C486EAF
:1009D00041D047945A1C8216595082124E503EE024
:1009E000466E591C486E36D04796591C82165A508E
:1009F00082124F5033E0466E5A1C486E2BD04798F7
:100A00005C1C82165B508212505028E0466E5B1CC4
:100A1000486E20D0479A5B1C82165C50821251505F
:100A20001DE0466E5C1C486E15D0479C5E1C82160D
:100A30005D508212525012E0466E5D1C486E0AD024
:100A4000479E5D1C82165E508212535007E0466E30
:100A50005E1C486E8090465056244A6E02C0E0FFED
:100A6000005001C0D8FF10001CB205D0A1A202D0D6
:100A7000817EA1920DD0F2A40BD00DA401D0817C77
:100A8000F2940DA605D01B2E03D00A0E1B6E520E3B
:100A900080B667D0640E0E6E0F6A106A102E4EEF8D
:100AA00005F00DA404D0F2A402D0817CF2940F2EA4
:100AB0004EEF05F080B640D00E2E4EEF05F01CA292
:100AC00055D00D6A819C818EF26A010E196E010E5D
:100AD000A96E000E83EC08F0510E5CEC0DF0256A57
:100AE000266A80A6FED714EC0DF080A6FAD7020E77
:100AF000A96E000E83EC08F0A92A000E83EC08F022
:100B00001CA20DD0010EA96E000E83EC08F00D6A38
:100B10001C92819C818EC00EF26E34EF05F0010EA6
:100B2000A96E010E83EC08F01C82A1EC0DF00D9271
:100B30005BEC0DF00D841DD00DA40CD00D94818CB8
:100B4000520E5CEC0DF0010EA96E080E0D6E83ECDA
:100B500008F007D00D84A1EC0DF00D925BEC0DF0C8
:100B600008D00DA206D00D920D8403D00D82819E77
:100B7000B8D70DA079D752D00DA8D6D00D8AFFECEA
:100B800006F078D10DA8D0D0FFEC06F0755103E047
:100B90007507020E75611AD10D8C6CD1BCEC08F092
:100BA00000080EE1C4EC08F0BFD0BCEC08F000086F
:100BB00007E133C077F034C075F00BEC0CF0B4D023
:100BC000D7EF06F00DA4B0D05CEC0CF0ADD0255002
:100BD0002624D8A4ACEC0CF0A7D00CEF07F00DA4A1
:100BE000A3D046EC0CF0A0D0BCEC08F00008E8E183
:100BF00066EC0DF062EC08F097D0316A326A0CD1E5
:100C0000FDEF05F0CEEF05F0F4EF05F01BEF07F078
:100C100022EF07F0C2EF05F0BBEF06F0900E305C5C
:100C2000DCE0910E305CD9E0980E305CE6E0990E85
:100C3000305CE3E05C0E305C58E0730E305C65E0E5
:100C40000D0E305CC4E0100E305CC9E0110E305C5B
:100C5000B9E01CA269D0420E305C69E0530E305CF2
:100C60003BE0540E305C34E0550E305C2DE0560E07
:100C7000305CD2E0710E305CC9E0960E305CC4E0AE
:100C80005D0E305C1FE0710E305CC0E0750E305CB4
:100C90001DE0960E305CB8E0D20E305C1BE0950E85
:100CA000305C1CE0B20E305CB5E0570E305CB0E05A
:100CB000720E305C15E0580E305CA4E09C0E305C87
:100CC00011E032D0F0EF06F0CBEF06F0A5EF06F022
:100CD000C4EF06F0DBEF06F0BDEF06F0BCEF05F069
:100CE000E9EF06F0D5EF05F01FD01CA20AD0BCEC4E
:100CF00008F000085CE1FF0EA96EFF0E83EC08F01F
:100D0000FF003150322453E1F6D71CA207D0BCECCF
:100D100008F000084CE172EC0CF006D0315032249F
:100D200046E172EC0CF000D00D9034EF05F00DA40C
:100D3000FBD7BCEC0CF00D940D860A0E1B6E520E08
:100D40005CEC0DF0819E818CEFD7BCEC08F00008C4
:100D50002EE133C019F0D7EC0DF0520E5CEC0DF023
:100D600094EF06F00DA4E0D7500E3E6E030E286EF1
:100D7000E3EC0CF0D9D732EF07F0BCEC08F0000838
:100D800016E10D88818CD0D7BCEC08F000080FE18B
:100D90000D980D9AC9D7BCEC08F0000808E10DA821
:100DA00007D017EC0AF0590E5CEC0DF0F2D7BCD767
:100DB000020ECFEF0CF00DA8B7D7FFEC06F075517F
:100DC00005E07507020E756101D054D0060ECFEF15
:100DD0000CF0BCEC08F00008EAE1E2EC0BF0A4D760
:100DE000BCEC08F0000809E1A1EC0DF0520E5CEC3F
:100DF0000DF0080E0D6E94EF06F0D7EF06F031C03F
:100E000071F032C072F033C073F034C074F035C08A
:100E100075F036C076F01200FFEC06F01CA205D08B
:100E2000B1EC0AF0000815E07FD781A823D0F8D7ED
:100E3000030ECFEF0CF0BCEC08F00008B8E172EC48
:100E40000DF072D7BCEC08F00008B1E182EC0BF0B9
:100E50006BD788EC0AF0EECF16F0EECF18F023EC4B
:100E600008F062D7BCEC08F00008A1E13AEC0CF005
:100E70005BD700D0B1EC0AF000081AE01CB209D030
:100E800080AA43D0D0EC08F0000811E0040ED3EFA4
:100E90000CF00DBC09D00DBA37D0D0EC08F000082A
:100EA00006E0040ED7EF0CF0050ED7EF0CF0B8D724
:100EB0001CB205D080BA0DD069EC09F025D00DBC6C
:100EC0000BD00DAA06D069EC09F0590E5CEC0DF0C0
:100ED0001BD0D0EC08F0EBD788EC0AF075C043F0DB
:100EE000432A7551EBCF44F0D30E3E6E71C03FF0F4
:100EF00072C040F073C041F074C042F0070E286E1B
:100F0000E7EC0CF001D00D980D9C0D90FA6A94EF6F
:100F100006F0060ED7EF0CF000EE00F0EE6AE9AE38
:100F2000FDD7F26AC26A0F0EC16E280E926E3B0E9A
:100F3000936E819C819E8184000E946E826AD08E15
:100F4000E06AA66A0D6A1A6A776A6F8E030E706E7F
:100F50009E0E716E030E726E200E736E240E606E06
:100F60000F01200E506F016B056B00010FEE18F0A2
:100F7000EE6A200EE962FCD76F6ABD6A840ED56EF8
:100F8000810ECD6EB10ECF6E386A230EA56E9F6AAC
:100F9000A26AA06A010E9D6E010E196EF16AF06AD6
:100FA000230EA36E9E6AA16A0F01509F0001609EEE
:100FB000749E749CA46A7CEC08F0E0EC09F01C6A56
:100FC000010EA96E94EC08F00D6E000801E10CD042
:100FD0001C8299EC08F0C00EF26E818C819E0D90FF
:100FE00062EC08F034EF05F01C92256A266A81A8AD
:100FF000FDEF07F080AA17EC0AF08DEC0DF062EC23
:1010000008F0C00EF26E819C818E34EF05F022C094
:1010100024F0243A2444E00B246E22C023F023421F
:10102000234223400F0B236E12002CC024F0243ADD
:101030002440070B246E2BC023F023462346234471
:10104000780B2410120055C049F016A00DD030A026
:1010500003D018A007D003D018A001D003D0479226
:10106000478002D04782479016A20DD030A003D00F
:1010700018A207D003D018A201D003D04796478406
:1010800002D04786479416A40DD030A003D018A4F0
:1010900007D003D018A401D003D0479A478802D0C4
:1010A000478A479816A60DD030A003D018A607D0BF
:1010B00003D018A601D003D0479E478C02D0478E9C
:1010C000479C1200E00EA96E10EE4CF0A680A8CF4F
:1010D000E6FFA92AEB0EA962F9D71B0EF76ED80E10
:1010E000F66EF86A080E0E6E10EE57F00900F5CF96
:1010F000E6FF0E2EFBD71200E86A466E476E486E7A
:10110000496E4A6E1200A86EA69EA69CA684F26A3C
:10111000550EA76EAA0EA76EA682A6B2FED7A198FC
:10112000A694C00EF26E1200A69EA69CA680A850A1
:101130001200000EA96EA680A850226E07EC08F0DF
:10114000F00E39162350391224503A6E020EA96E51
:1011500094EC08F0256EA92A94EC08F0266E0F0195
:1011600020B7FED7216B2350216F2450226FB00E81
:101170002113256B000112002550315C04E126503B
:10118000325C01E1000C010C050EA96E94EC08F034
:10119000416E740E3E6E040E286EE3EC0CF01200ED
:1011A0001CB203D080AA000C02D00DBA000CB1EC26
:1011B0000AF0000825E188EC0AF06EB102D01CA20A
:1011C0000BD0755176C0EBFF1CEC0BF06EB1000C30
:1011D000590E5CEC0DF0000C39EC0DF016C017F058
:1011E0001750EF10EE6E166E81BA07D01750EF123F
:1011F000EFCF18F01CEC0BF0000C171CEF16F8D713
:10120000040EA96E94EC08F0000801E1010C0E0E2A
:10121000A96E94EC08F0626F0F0EA96E94EC08F0C2
:10122000636F686701D00DD080EC0AF069514AEC19
:101230000BF0060EE92662C0EEFF63C0EEFF16EC6F
:101240000BF088EC0AF063514AEC0BF0040EE9262F
:101250000E0EA96EEE5083EC08F00F0EA96EEE5044
:1012600083EC08F06AC0A9FF625183EC08F0A92A58
:10127000635183EC08F063514AEC0BF071C0EEFF50
:1012800072C0EEFF73C0EEFF74C0EEFF68C0EEFFE9
:1012900069C0EEFFEE6AEE6A080E786F000EEB6A28
:1012A000E82A782FFCD76B51F00FA96E94EC08F068
:1012B000E82A83EC08F0050EA96E94EC08F0010F03
:1012C00083EC08F0A90694EC08F0E80683EC08F03B
:1012D00074D7B1EC0AF0000801E012000E0EA96EFE
:1012E00094EC08F06C6F0F0EA96E94EC08F06D6F23
:1012F00088EC0AF063514AEC0BF0040EE926EFCFBC
:1013000066F06CC0EEFFEFCF67F06DC0EEFFEFCF81
:1013100064F0EE6AEFCF65F0EE6A0E0EA96E6251D0
:1013200083EC08F00F0EA96E635183EC08F01CECFF
:101330000BF0646701D011D064C062F065C063F047
:1013400088EC0AF063514AEC0BF0040EE92666C003
:10135000EEFF67C0EEFF1CEC0BF06AC0A9FF665100
:1013600083EC08F0A92A675183EC08F0666701D086
:1013700011D066C062F067C063F088EC0AF0635178
:101380004AEC0BF0060EE92664C0EEFF65C0EEFFE6
:101390001CEC0BF06B51F00FA96E94EC08F0E80612
:1013A00083EC08F0050EA96E94EC08F0E80683ECD7
:1013B00008F0A90694EC08F0010F83EC08F0120085
:1013C0006E6B040EA96E94EC08F0206EA92A94ECC2
:1013D00008F02026800E206201D012001BEC0DF0D8
:1013E000050EA96E94EC08F0146E17EC0AF0146662
:1013F00001D012006E8112EE00F022EE80F0E6CFF6
:1014000071F0E6CF72F0E6CF73F0E6CF74F0000E25
:10141000756FDECF76F0D7EC08F0010E756FDECF7A
:1014200076F0D7EC08F0142EEAD76E6B1200050E9A
:10143000A96E000E83EC08F0800EA90683EC08F07C
:10144000100E0E6E100EA96E000E83EC08F0A92A85
:101450000E2EFAD7080E0E6EF00EA96E000E83EC5B
:1014600008F0A92A0E2EFAD7EBEC0AF00E0EA96EA0
:10147000300E626F83EC08F00F0EA96E000E636FE2
:1014800083EC08F00EEC0BF0646B656B800E0E6E57
:1014900063C020F062C021F020504AEC0BF0100E27
:1014A0002026000E2122EE6AEE6AEE6AEE6A0E0631
:1014B0001BE021C0EEFF20C0EEFF64C0EEFF65C060
:1014C000EEFF62C064F063C065F00E50030B05E0F0
:1014D000100E6327000E6223DFD71CEC0BF0100EFA
:1014E0006327000E6223D4D7206A20C0EEFF20C0FD
:1014F000EEFF64C0EEFF65C0EEFF1CEC0BF01200C7
:10150000C00E6915F66E6851F76E400E786F08D000
:10151000C00E6315F66E6251F76EF86A400E786F72
:10152000F86AEACF70F0E9CF6FF001EE00F0090041
:10153000F550EE6E782FFBD76FC0E9FF70C0EAFF61
:101540001200F86A62C0F7FF63C0F6FF100E786FF2
:10155000E7D7F86A62C0F7FF63C0F6FF080E786F3E
:10156000DFD7070E7415206E6B6F2046100E2024F7
:101570006A6FA96E94EC08F0626F686FA92A94EC08
:1015800008F0636F696F626701D0010C6351F66EFA
:101590006251F76EF86A136A0900F5507163132AF5
:1015A0000900F5507263132A0900F5507363132A7A
:1015B0000900F5507463132A136606D063514AEC90
:1015C0000BF0080EE926000C0900F550626F0900C7
:1015D000F550636FD8D7200E0E6E000EF66E300EEB
:1015E000F76EF86AFCEC0AF00E2E01D01200400EE5
:1015F000F626000EF722F6D7A68EA69CA684A6880D
:10160000F2CF0CF0F26A550EA76EAA0EA76EA68254
:101610000000000000000CC0F2FF120001EE00F01C
:10162000400E786FEE6A782FFDD71200C00E691554
:10163000F66E6851F76E05D0C00E6315F66E6251F6
:10164000F76EF86AFCEC0AF001EE00F0020E796F1A
:101650001F0E786FEE50F56E0D00782FFBD7EE5011
:10166000F56E0C003AEC0BF0F62A000EF722792FFB
:10167000EFD71200A68EA69CA698A684F2CF0CF0F7
:10168000F26A550EA76EAA0EA76EA68200000CC0C5
:10169000F2FF1200E83A030BE86603D001EE00F017
:1016A0001200E806E86603D001EE10F01200E8062A
:1016B000E86603D001EE20F0120001EE30F01200D7
:1016C000B1EC0AF0000803E0766B756B08D0A1EC72
:1016D0000AF001EE08F07551EB50766F752BD30EC2
:1016E0003E6E00C13FF001C140F002C141F003C1B4
:1016F00042F075C043F076C044F0070E286EE7EC68
:101700000CF01200206A050EA96E94EC08F0000897
:101710002CE0456A080E146E100EA96E94EC08F0C9
:10172000626FA92A94EC08F0636F626704D0140614
:1017300020E0A92AF3D7A9EC0AF0452A00C141F01C
:1017400001C142F002C143F003C144F0F20E3E6E0B
:10175000080E286EE3EC0CF005EC0DF005EC0DF036
:1017600004C162F005C163F0E0D7070EDBEC0CF0BA
:10177000120012006B6B146A156A6B51F00FA96EA0
:1017800094EC08F0000F05E015261550776101D0A4
:1017900004D015C014F06B2BF0D76B45100FA96E59
:1017A00094EC08F0626FA92A94EC08F0636F77510B
:1017B00014601200142AA9EC0AF004C162F005C1F9
:1017C00063F0F5D7050EA96E94EC08F000081FE051
:1017D00077511DE07707050EA96E94EC08F077614C
:1017E00016D0BAEC0BF0A9EC0AF000C141F001C12F
:1017F00042F002C143F003C144F0772B77C045F0BB
:10180000F20E3E6E080E286EE3EC0CF01200070E8E
:10181000DBEC0CF01200050EA96E94EC08F0000849
:10182000F6E07751F4E07707050EA96E94EC08F026
:101830007761EDD775511AE07507020E756116D004
:10184000BAEC0BF0A1EC0AF001EE08F07551EBCF09
:1018500043F0752B772BB50E3E6E77C041F075C007
:1018600042F0060E286EE3EC0CF01200060EDBECE4
:101870000CF01200040EA96E94EC08F0416E700E8C
:101880003E6E040E286EE3EC0CF01200EF0E3E6E7E
:10189000200EF66E080EF76E00EE3FF0070E0E6E8D
:1018A000A68E0900F5CFEEFF0E2EFBD7A69E080EE2
:1018B000286EE7EC0CF01200E20E3E6E100EF66E93
:1018C000080EF76E00EE3FF0070E0E6EA68E0900B2
:1018D000F5CFEEFF0E2EFBD7A69E080E286EE7EC86
:1018E0000CF012003350000821E00E0E33C020F03F
:1018F0002006206026D09B0E3E6E070E206204D08C
:10190000A5EC0CF0426E0BD0200EF66E080EF76EB2
:10191000F86A3304F626A68E0800F5CF42F033C0ED
:1019200041F0050E286EE3EC0CF012009B0E3E6EAB
:101930000E0E426E33C041F0050E286EE3EC0CF043
:1019400012000A0EDBEC0CF01200010E1CB20409AE
:10195000206E20862050120014EC0DF0B60E3E6E64
:10196000A50E416E080E426EA5EC0CF0436E060EFD
:10197000286EE3EC0CF0120031C025F032C026F0E6
:10198000020EA96E315083EC08F0A92A325083EC84
:1019900008F0010EA96E080E83EC08F01200DBECD3
:1019A0000CF094EF06F0DBEC0CF085EF07F0DBECCD
:1019B0000CF084EF07F0416E6F0E3E6E040E286E41
:1019C000E3EC0CF0120025C03FF026C040F0285098
:1019D0003D6E0F0E3916B00E39120A0E1A6EF2EC69
:1019E0000CF0120000EE38F01FEE30F00F0130B7AF
:1019F000FED70001EE50E66E460EE962FBD70F01FE
:101A000030B7FED73087000112000A0E0F6E0E6A43
:101A10000E2E08EF0DF00F2EFAD71200106A05EC0B
:101A20000DF0102EFCD71200640E106E05EC0DF0B8
:101A3000102EFCD71200200E0E6ED8900E460E46C9
:101A400002EE00F0200EA96EA680A8CFEEFFA92A14
:101A50000E2EFAD7200E0E6ED8900E4602EE80F0B3
:101A6000A00EA96EA680A850EE6EA92A0E2EFAD757
:101A70001200030E81141E6E010E166E1E5203E03C
:101A800016461E06FBD71200C00E0E6E200EA96E63
:101A9000000E83EC08F0A92A0E2EFAD7050EA96EC7
:101AA000000E83EC08F0800E0E6E02EE00F0EE6A7F
:101AB0000E2EFDD71200500E3E6E25C03FF026C000
:101AC00040F0030E286EE3EC0CF01200110E3360B0
:101AD0001200335006E0E806E00FA96E345083ECA4
:101AE00008F01200110E336015E0335013E0E806E1
:101AF000E00FA96E94EC08F0426E33C041F031C0A3
:101B00003FF032C040F0970E3E6E050E286EE7ECB7
:101B10000CF01200416A426AF2D7080E0E6E060EF1
:101B2000206EA96E94EC08F0216EDA0EA9262150E1
:101B300083EC08F00E2E01D01200202A2050A96E4E
:101B4000F1D7E1CF60F0E2CF61F0C00EF26E0D820E
:101B5000386A0E0E0E6E00EE80F0EE6A0E2EFDD785
:101B6000BF0E396EE00E3A6E400E286E3C0EB36E1C
:101B7000AF0EB26EB10EB16E0A0E1A6EE7EC0CF03B
:101B80003D6AA1A2FED7B190A192196A192A5F6A93
:101B90005F8010EE80F0E72804E1080E1926E12AA4
:101BA000FAD75F50E71403E05F36192AFAD7640EBC
:101BB00019600CD0000EA96E195083EC08F099EC56
:101BC00008F060C0E1FF61C0E2FF1200070EDBEC2D
:101BD0000CF01968199EEED701800240200410080D
:020000040030CA
:0300010006061ED2
:020005008081F8
:060008000FC00FE00F40E5
:0200000400F00A
:100000007F00000000000505050505050505000049
:1000100000000000000000000000000000000000E0
:1000A0000000000000000000000000000000000050
:1000B0000000000000000000000000000000000040
:1000C0000000000000000000000000000000000030
:1000D0000000000000000000000000000000000020
:1000E00005050505050505051900030000000000CC
:0800F000000000000000000008
:0200FE00000000
:00000001FF
