:020000040000FA
:040000001FD00ED02F
:0400080004EF04F00D
:040018000CEF04F0F5
:10002000A66E05A01200550EA76EAA0EA76EA68298
:100030000000A6B2FED712000A26D8B00B2A120082
:10004000A66AA968AA68A680A83C00EF04F0066A20
:100050001C0E056E0F019394000E006F080E016FC9
:10006000E81E056F000E026F070E036FFF0E186F7C
:10007000EB0E196FFF0E1A6FF80E1B6F030E706EEA
:100080009E0E716E030E726E200E736E6F6A0E0EF0
:10009000C16E939E939C818E818C609E040060AEA5
:1000A000FDD70FEE66F065500F0B096EF46EF5E0AC
:1000B00064B02BD010EE01F0EECFE6FFF42EFCD7AB
:1000C0000650EBE0010AD8A407D0A968AA68A86A7C
:1000D000040EA6DF819CFF000650020A05E10B6AB0
:1000E0000A6A0C900C6AD9D70650030A0AE1075035
:1000F0000A2606E108500B2203E10CB001D073D0B0
:1001000076D00650040AC9E176D00350F86EF00BA1
:10011000F36E0250F76EAA6E0150F66EA96E05A638
:1001200005D009500126E86A02220322300EF3604E
:1001300001D008D0F350300A01E12AD0F350F00A80
:10014000ACE132D005A405D0F6503F0B02E1940E8D
:1001500067DF05B2A2D7F650070B9FE1080EF46ED9
:10016000EE50F56E69DF0D00F42EFAD7080EF46E2E
:100170000A00ED50F42EFCD7840E52DF080EF46E08
:100180000900F550EE18D8A40C80F42EF9D785D7C5
:10019000EF50F56E51DF0C00C40E42DF0900F55040
:1001A000EE18F42EF5D779D7EF50A86E45DF040E80
:1001B00037DFA66AA680A850EE18D8A40C80A94AFA
:1001C000AA2AF42EF1D769D740B7FED7800E416F27
:1001D000080E426F000E436F040E446F448164A00A
:1001E000449140875AD7010E466F456FEDD7466B55
:1001F000010E456FE9D7020E466F010E456FE4D739
:060800000000B6EF07F056
:0408080020EF04F0E9
:0C081000534552564F20200000EF05F029
:10082000A5480B8002240309010100080000000014
:1008300000000000000000000E0010080000DA01B7
:10084000FA50286E080EFA6EDACF0AF0D9CF09F006
:10085000F2942144F92612D013D019D01FD025D0FC
:100860002CD032D039D03FD046D04CD053D059D0F4
:1008700060D066D06DD073D07AD080D0C2EF04F053
:10088000C30ED56E0A0ED66E212AC2EF04F031B027
:1008900082800A0ED66E212AC2EF04F020EE8EF07E
:1008A000DF50D66E212AC2EF04F0829031B28282EC
:1008B0000A0ED66E212AC2EF04F020EE8FF0DF5030
:1008C000D66E212AC2EF04F0829231B482840A0EDD
:1008D000D66E212AC2EF04F020EE90F0DF50D66EE3
:1008E000212AC2EF04F0829431B682860A0ED66EB7
:1008F000212AC2EF04F020EE91F0DF50D66E212ABB
:10090000C2EF04F0829631B882880A0ED66E212A90
:10091000C2EF04F020EE92F0DF50D66E212AC2EF33
:1009200004F0829831BA828A0A0ED66E212AC2EF6A
:1009300004F020EE93F0DF50D66E212AC2EF04F0CF
:10094000829A31BC828C0A0ED66E212AC2EF04F044
:1009500020EE94F0DF50D66E212AC2EF04F0829C84
:1009600031BE828E0A0ED66E212AC2EF04F020EE2E
:1009700095F0DF50D66E212AC2EF04F0829E216AE4
:10098000C2EF04F00AC0DAFF09C0D9FF2850FA6E9E
:02099000110054
:100A0000006ED8CF01F06FCF0BF06ECF0CF0FACFA5
:100A100003F0FA6AE9CF05F0EACF06F0E1CF07F07C
:100A2000E2CF08F00A0EFA6E0C500E0BF92637D002
:100A300012D035D034D033D002D006D030D0A492EA
:100A400000EE3BF03CEF05F0A4901CB246D000EE67
:100A50003BF03CEF05F00F0130AB08D01B5206E035
:100A60001B2E04D030973F0E31173087509F000166
:100A7000609E749E749C14D06F50F10B6F6E0C507E
:100A80000E0B6F121FEE60F0E650EE6E6E0EE1621E
:100A9000FBD7609E40BC17D0405201E01C80609E96
:100AA000A46A6F50F10B0B106F6E03C0FAFF05C004
:100AB000E9FF06C0EAFF07C0E1FF08C0E2FF0050FF
:100AC00001C0D8FF10001CB2EAD714A2E8D70F016A
:100AD00020B7FED720870001E2D76566E0D76138EE
:100AE000E832780B1D6E6238E842070B1D10136E5A
:100AF00010EE80F05D6A5D80080E136403D0135E13
:100B0000E12AFBD7134E02D05D46FCD75D50E712B9
:100B1000C6D7D58EF18414B207D0A1A204D0817EAD
:100B2000A192040E196E11D09EA00FD09E901CA40D
:100B300005D0192E0AD0817C040E196E1CA605D092
:100B40001A2E03D00A0E1A6E520E80B45FD0640EB5
:100B5000156E166A176A040E196E172EADEF05F0A2
:100B60001CA408D09EA006D0192E04D0817C040EAF
:100B7000196E9E90162EADEF05F080B43DD0152E67
:100B8000ADEF05F014A259D01C6A819C818EF26AE7
:100B9000010E136E010EA96E000EC2EC08F0510E8C
:100BA00097EC08F0116A126A80A4FED7CBEC10F023
:100BB00080A4FAD7020EA96E000EC2EC08F0A92A92
:100BC000000EC2EC08F014A20DD0010EA96E000EAA
:100BD000C2EC08F01C6A1492819C818EE00EF26EC9
:100BE00089EF05F0010EA96E010EC2EC08F0148227
:100BF000E00EF26E32EF08F01CA608D01CA403D061
:100C00001C94818C03D01C8496EC08F01CA218D094
:100C1000A1A2FCD7B190A192D2EC10F0000EA96E67
:100C20001350C2EC08F072EC08F0010EA96E010E30
:100C3000C2EC08F01C921C846CD71C82819EB4D735
:100C40001CA001D04ED0215201E063D7D59CF29474
:100C5000FF0ED76E070ED512010ED66E1CBEADEC80
:100C600010F062EC0DF0212A89EF05F01CA8A8D045
:100C70001C8A32EC07F037D11CA8A2D032EC07F066
:100C8000735103E07307020E7361E2D01C8C2BD109
:100C900066EC0CF000080EE1EFEC08F091D066EC89
:100CA0000CF0000807E144C075F045C073F01CEC7F
:100CB0000CF086D019EF07F03FEF07F01CA480D0AE
:100CC000A5EC0CF07DD01CA47BD0BBEC0CF078D054
:100CD00011501224D8A40BEC0DF072D0426A436A72
:100CE000CED0900E415CE8E0910E415CE5E0980EBC
:100CF000415CF4E0990E415CF1E0960E415C3BE012
:100D00005C0E415C3EE0730E415C4BE014A258D097
:100D1000420E415C58E00D0E415CDAE0100E415C81
:100D2000CDE0110E415CCFE0530E415C65E0540E06
:100D3000415C69E0550E415C70E0560E415C5AE042
:100D4000D20E415C7AE0950E415C90E0B20E415CBF
:100D500093E0570E415C11E0720E415C7CE0580E4E
:100D6000415C07E09C0E415C9AE0710E415C07E03B
:100D700027D048EF06F05AEF07F053EF07F048EF9F
:100D800007F014A20AD066EC0CF0000852E1FF0E46
:100D9000A96EFF0EC2EC08F0FF004250432449E167
:100DA000F6D714A207D066EC0CF0000842E1D1ECB3
:100DB0000CF006D0425043243CE1D1EC0CF000D0C2
:100DC0001C9089EF05F01CA4FBD75FEC08F01C9485
:100DD0001C860A0E1A6E520E97EC08F0818C819ECA
:100DE000EFD71CA4EDD7500E556E030E206E57ECB6
:100DF0000CF0E6D76BEF07F066EC0CF0000819E199
:100E00001C88818CDDD766EC0CF0000812E11C9880
:100E10001C9A1CBE3CEC0DF0D3D766EC0CF000081D
:100E200008E11CA807D028EC0AF0590E97EC08F04E
:100E3000EFD7C6D7020E1BEF0DF01CA8C1D732ECBE
:100E400007F0735105E07307020E736101D04BD0B8
:100E5000060E1BEF0DF066EC0CF00008EAE1F3EC77
:100E60000BF0AED742C06FF043C070F044C071F0D9
:100E700045C072F046C073F047C074F0120032EC07
:100E800007F014A29DD7C2EC0AF000081BE098D727
:100E900066EC0CF00008CDE1F7EC10F0E0EF06F0A6
:100EA000030E1BEF0DF066EC0CF00008C2E193ECB2
:100EB0000BF086D766EC0CF0000802E109EC11F0AB
:100EC000E0EF06F099EC0AF0EECF4CF0EECF4EF0EA
:100ED00038EC08F075D766EC0CF00008AAE14BEC92
:100EE0000CF06ED700D014A2E0EF06F0C2EC0AF0CE
:100EF00000080FE01CBC09D01CBA30D0FBEC08F095
:100F0000000806E0040E23EF0DF0050E23EF0DF0B0
:100F100025D01CBC0BD01CAA06D07AEC09F0590EC7
:100F200097EC08F01BD0FBEC08F018D099EC0AF015
:100F300073C05AF05A2A7351EBCF5BF0D30E556E43
:100F40006FC056F070C057F071C058F072C059F0C1
:100F5000070E206E5BEC0CF001D01C981C9C1C90C2
:100F6000FA6AE0EF06F0060E23EF0DF000EE00F057
:100F7000EE6AE9AEFDD7F26AC26A0F0EC16E070EC5
:100F8000926E3B0E936E819C819E8184000E946EC6
:100F9000826AD08EE06AA66A1C6A1B6A776A6F8EC4
:100FA000030E706E9E0E716E030E726E200E736EC7
:100FB000240E606E0F01200E506F016B056B000157
:100FC0000FEE18F0EE6A200EE962FCD76F6ABD6A78
:100FD000B10ECD6E000ECF6E430ED56E4F6A000E71
:100FE000A56E9F6AA26AA06A826A296A2A6A2B6A27
:100FF0002C6A246A256A326A336A010E136EF16A1A
:10100000F06A230EA36E9E6AA16A0F01509F000131
:10101000609E749E749CA46A216A8CEC0CF0C60ECF
:10102000A96EBDEC08F0346EF1EC09F0146A010E03
:10103000A96EBDEC08F01C6E000801E10AD0148214
:1010400072EC08F0E00EF26E819E818C1C9089EFAC
:1010500005F01492116A126AE00EF26E819C818E84
:1010600089EF05F0E00EF26E1C82D5EC08F051D548
:101070004C1C33164D6E4C5025124E144C1A41B078
:1010800001D04C1E4D5024164D1C4C1424124E1AE7
:101090004C504E142412120000EE4FF01FEE30F0B0
:1010A0000F0130B7FED70001EE50E66E5D0EE9622B
:1010B000FBD70F0130B7FED730870001120042C0C6
:1010C00011F043C012F0020EA96E4250C2EC08F0BB
:1010D000A92A4350C2EC08F0010EA96E080EC2EC1A
:1010E00008F01200000EA96EA680A8500E6EA1ECAA
:1010F00008F0F00E50160F5050121050516E020EA4
:10110000A96EBDEC08F0116EA92ABDEC08F0126EB4
:101110000F0120B7FED7216B0F50216F1050226FA7
:10112000B00E2113256B00011CB61200500E556E37
:1011300011C056F012C057F0030E206E57EC0CF0A1
:1011400012000EC010F0103A1044E00B106E0EC0EA
:101150000FF00F420F420F400F0B0F6E12003DC0F9
:1011600010F0103A1040070B106E3CC00FF00F4605
:101170000F460F44780B10101200A69EA69CA68066
:10118000A8501200A86EA69EA69CA684F2CF0DF0D1
:10119000F26A550EA76EAA0EA76EA682A6B2FED759
:1011A000A198A6940DC0F2FF12004F6A0E0E156EA4
:1011B00000EE80F0EE6A152EFDD7BF0E506EE00EE9
:1011C000516E400E206E3C0EB36EAF0EB26EB10E7D
:1011D000B16E0A0E1B6E5BEC0CF0546A1200050E29
:1011E000A96EBDEC08F0586E740E556E040E206E9C
:1011F00057EC0CF0120000D01CBA000CC2EC0AF044
:1012000000080FE199EC0AF06CB100D0735174C082
:10121000EBFF2DEC0BF06CB1000C590E97EC08F0C5
:10122000000C040EA96EBDEC08F0000801E1010CF1
:10123000FA0EA96EBDEC08F0606FFB0EA96EBDEC56
:1012400008F0616F666701D00DD091EC0AF067512C
:101250005BEC0BF0060EE92660C0EEFF61C0EEFF0E
:1012600027EC0BF099EC0AF061515BEC0BF0040EEB
:10127000E926FA0EA96EEE50C2EC08F0FB0EA96E3C
:10128000EE50C2EC08F068C0A9FF6051C2EC08F053
:10129000A92A6151C2EC08F061515BEC0BF06FC000
:1012A000EEFF70C0EEFF71C0EEFF72C0EEFF66C0D1
:1012B000EEFF67C0EEFFEE6AEE6A080E766F000E74
:1012C000EB6AE82A762FFCD76951BE0FA96EBDECF8
:1012D00008F0E82AC2EC08F0050EA96EBDEC08F093
:1012E000010FC2EC08F0A906BDEC08F0E806C2EC5C
:1012F00008F08AD7C2EC0AF0000801E01200FA0EEA
:10130000A96EBDEC08F06A6FFB0EA96EBDEC08F08B
:101310006B6F99EC0AF061515BEC0BF0040EE9265F
:10132000EFCF64F06AC0EEFFEFCF65F06BC0EEFF69
:10133000EFCF62F0EE6AEFCF63F0EE6AFA0EA96EBD
:101340006051C2EC08F0FB0EA96E6151C2EC08F0CE
:101350002DEC0BF0626701D011D062C060F063C069
:1013600061F099EC0AF061515BEC0BF0040EE92698
:1013700064C0EEFF65C0EEFF2DEC0BF068C0A9FF66
:101380006451C2EC08F0A92A6551C2EC08F0646708
:1013900001D011D064C060F065C061F099EC0AF032
:1013A00061515BEC0BF0060EE92662C0EEFF63C0F4
:1013B000EEFF2DEC0BF06951BE0FA96EBDEC08F0ED
:1013C000E806C2EC08F0050EA96EBDEC08F0E806D0
:1013D000C2EC08F0A906BDEC08F0010FC2EC08F061
:1013E00012006C6B040EA96EBDEC08F01D6EA92AEC
:1013F000BDEC08F01D26800E1D6201D012006EECBF
:101400000CF0050EA96EBDEC08F04A6E28EC0AF04F
:101410004A6601D012006C8112EE00F022EE80F0DC
:10142000E6CF6FF0E6CF70F0E6CF71F0E6CF72F066
:10143000000E736FDECF74F0FEEC08F0010E736FD8
:10144000DECF74F0FEEC08F04A2EEAD76C6B120087
:10145000050EA96E000EC2EC08F0800EA906C2ECC3
:1014600008F0100E156EEA0EA96E000EC2EC08F020
:10147000A92A152EFAD7080E156EBE0EA96E000EFB
:10148000C2EC08F0A92A152EFAD7FCEC0AF0FA0EE5
:10149000A96E300E606FC2EC08F0FB0EA96E000E54
:1014A000616FC2EC08F01FEC0BF0626B636B800E97
:1014B000156E61C01DF060C01EF01D505BEC0BF09E
:1014C000100E1D26000E1E22EE6AEE6AEE6AEE6A0D
:1014D00015061BE01EC0EEFF1DC0EEFF62C0EEFF52
:1014E00063C0EEFF60C062F061C063F01550030B93
:1014F00005E0100E6127000E6023DFD72DEC0BF006
:10150000100E6127000E6023D4D71D6A1DC0EEFFA8
:101510001DC0EEFF62C0EEFF63C0EEFF2DEC0BF0CE
:101520001200C00E6715F66E6651F76E400E766FAC
:1015300008D0C00E6115F66E6051F76EF86A400E65
:10154000766FF86AEACF6EF0E9CF6DF001EE00F049
:101550000900F550EE6E762FFBD76DC0E9FF6EC027
:10156000EAFF1200F86A60C0F7FF61C0F6FF100ED4
:10157000766FE7D7F86A60C0F7FF61C0F6FF080E24
:10158000766FDFD7070E72151D6E696F1D46EA0E66
:101590001D24686FA96EBDEC08F0606F666FA92A04
:1015A000BDEC08F0616F676F606701D0010C61519D
:1015B000F66E6051F76EF86A496A0900F5506F637C
:1015C000492A0900F5507063492A0900F5507163F2
:1015D000492A0900F5507263492A496606D06151CB
:1015E0005BEC0BF0080EE926000C0900F550606F6B
:1015F0000900F550616FD8D7200E156E000EF66EFB
:10160000300EF76EF86A0DEC0BF0152E01D01200BB
:10161000400EF626000EF722F6D7A68EA69CA684CC
:10162000A688F2CF0DF0F26A550EA76EAA0EA76E2D
:10163000A6820000000000000DC0F2FF120001EEC3
:1016400000F0400E766FEE6A762FFDD71200C00EC6
:101650006715F66E6651F76E05D0C00E6115F66E11
:101660006051F76EF86A0DEC0BF001EE00F0020E1F
:10167000776F1F0E766FEE50F56E0D00762FFBD74D
:10168000EE50F56E0C004BEC0BF0F62A000EF72234
:10169000772FEFD71200A68EA69CA698A684F2CF2D
:1016A0000DF0F26A550EA76EAA0EA76EA682000074
:1016B0000DC0F2FF1200E83A030BE86603D001EE1A
:1016C00000F01200E806E86603D001EE10F0120008
:1016D000E806E86603D001EE20F0120001EE30F0DB
:1016E0001200C2EC0AF0000803E0746B736B08D0C0
:1016F000B2EC0AF001EE08F07351EB50746F732BEB
:10170000D30E556E00C156F001C157F002C158F01A
:1017100003C159F073C05AF074C05BF0070E206E1D
:101720005BEC0CF012001D6A050EA96EBDEC08F012
:1017300000082CE05C6A080E4A6EEA0EA96EBDEC49
:1017400008F0606FA92ABDEC08F0616F606704D0F3
:101750004A0620E0A92AF3D7BAEC0AF05C2A00C1B5
:1017600058F001C159F002C15AF003C15BF0F20E0A
:10177000556E080E206E57EC0CF0C2EC10F0C2EC67
:1017800010F004C160F005C161F0E0D7070E27EC4E
:101790000DF012001200696B4A6A4B6A6951BE0F64
:1017A000A96EBDEC08F0000F05E04B264B507561AB
:1017B00001D004D04BC04AF0692BF0D76945EA0F3D
:1017C000A96EBDEC08F0606FA92ABDEC08F0616F4E
:1017D00075514A6012004A2ABAEC0AF004C160F05E
:1017E00005C161F0F5D7050EA96EBDEC08F0000843
:1017F0001FE075511DE07507050EA96EBDEC08F0E0
:10180000756116D0CBEC0BF0BAEC0AF000C158F0C1
:1018100001C159F002C15AF003C15BF0752B75C0CC
:101820005CF0F20E556E080E206E57EC0CF01200B4
:10183000070E27EC0DF01200050EA96EBDEC08F0A6
:101840000008F6E07551F4E07507050EA96EBDECD1
:1018500008F07561EDD773511AE07307020E7361DA
:1018600016D0CBEC0BF0B2EC0AF001EE08F073519D
:10187000EBCF5AF0732B752BB50E556E75C058F023
:1018800073C059F0060E206E57EC0CF01200060ED5
:1018900027EC0DF01200040EA96EBDEC08F0586E96
:1018A000700E556E040E206E57EC0CF0120011C035
:1018B00056F012C057F02050546E0F0E5016B00E56
:1018C00050120A0E1B6E4CEC08F012001150425CD4
:1018D00004E11250435C01E1000C010C200E156E76
:1018E000D8901546154602EE00F0060EA96EA680A9
:1018F000A850EE6EA92A152EFAD7200E156ED89094
:10190000154602EE80F0860EA96EA680A850EE6EF7
:10191000A92A152EFAD71200200E156E01EE80F0BE
:10192000CA0EA96EA680A850EE6EA92A152EFAD767
:10193000040E156E00EE37F0C60EA96EA680A850F4
:10194000EE6EA92A152EFAD71200EF0E556E200E54
:10195000F66E080EF76E00EE56F0070E156EA68EA8
:101960000900F5CFEEFF152EFBD7A69E080E206EC0
:101970005BEC0CF01200E20E556E100EF66E080EC7
:10198000F76E00EE56F0070E156EA68E0900F5CF25
:10199000EEFF152EFBD7A69E080E206E5BEC0CF01A
:1019A00012004450000821E00E0E44C01DF01D0638
:1019B0001D6026D09B0E556E070E1D6204D004ECF0
:1019C0000DF0596E0BD0200EF66E080EF76EF86A09
:1019D0004404F626A68E0800F5CF59F044C058F00E
:1019E000050E206E57EC0CF012009B0E556E0E0E7D
:1019F000596E44C058F0050E206E57EC0CF01200E2
:101A00000A0E27EC0DF01200010E14B204091D6E2F
:101A10001D861D501200CBEC10F0B60E556EA50EB3
:101A2000586E0B0E596E04EC0DF05A6E060E206EB9
:101A300057EC0CF0120027EC0DF0E0EF06F027EC6D
:101A40000DF0AFEF07F027EC0DF0AEEF07F0586E9A
:101A50006F0E556E040E206E57EC0CF01200080E3F
:101A6000156E01EE81F010EE8EF0EECFE6FF030E64
:101A7000E926152EFAD7120021EE80F0200E156E01
:101A8000CA0EA96EDE50C2EC08F0A92A152EFAD7AC
:101A900020EE37F0040E156EC60EA96EDE50C2ECB5
:101AA00008F0A92A152EFAD71C9E590E97EC08F0BB
:101AB0001200920FF66E220EF76E000EF72209004A
:101AC000F550120021EE80F010EE8EF025A06FEFA1
:101AD0000DF025903180329033903C0E296E33B05A
:101AE000C2EF0DF024A09BEF0DF0030EDB5059EC7C
:101AF0000DF0156ED8A480EF0DF0010EDB50E76EEF
:101B0000010EDBCF27F0E750275CD8B4C1EF0DF012
:101B1000D8A093EF0DF0152E90EF0DF0C2EF0DF061
:101B2000E72A80EF0DF0152E98EF0DF0C2EF0DF0C3
:101B3000E70680EF0DF0020EDB5059EC0DF0156E4C
:101B4000D8A4A6EF0DF0000EDBCFE7FF000EDBCF31
:101B500027F0E750275CD8B4C1EF0DF0D8A0B9EF5B
:101B60000DF0152EB6EF0DF0C2EF0DF0E72AA6EF3F
:101B70000DF0152EBEEF0DF0C2EF0DF0E706A6EF4B
:101B80000DF0328010EE8FF025A2CDEF0DF02592F2
:101B90003182329233923C0E2A6E33B220EF0EF035
:101BA00024A2F9EF0DF0070EDB5059EC0DF0156E85
:101BB000D8A4DEEF0DF0050EDBCFE7FF050EDBCF7F
:101BC00027F0E750275CD8B41FEF0EF0D8A0F1EF54
:101BD0000DF0152EEEEF0DF020EF0EF0E72ADEEF00
:101BE0000DF0152EF6EF0DF020EF0EF0E706DEEF0C
:101BF0000DF0060EDB5059EC0DF0156ED8A404EF75
:101C00000EF0040EDBCFE7FF040EDBCF27F0E7502A
:101C1000275CD8B41FEF0EF0D8A017EF0EF0152EEA
:101C200014EF0EF020EF0EF0E72A04EF0EF0152E61
:101C30001CEF0EF020EF0EF0E70604EF0EF03282FC
:101C400010EE90F025A42BEF0EF025943184329401
:101C500033943C0E2B6E33B47EEF0EF024A457EF7A
:101C60000EF00B0EDB5059EC0DF0156ED8A43CEFC6
:101C70000EF0090EDBCFE7FF090EDBCF27F0E750B0
:101C8000275CD8B47DEF0EF0D8A04FEF0EF0152EE4
:101C90004CEF0EF07EEF0EF0E72A3CEF0EF0152E23
:101CA00054EF0EF07EEF0EF0E7063CEF0EF00A0E5A
:101CB000DB5059EC0DF0156ED8A462EF0EF0080E53
:101CC000DBCFE7FF080EDBCF27F0E750275CD8B467
:101CD0007DEF0EF0D8A075EF0EF0152E72EF0EF01E
:101CE0007EEF0EF0E72A62EF0EF0152E7AEF0EF07F
:101CF0007EEF0EF0E70662EF0EF0328410EE91F008
:101D000025A689EF0EF025963186329633963C0E45
:101D10002C6E33B6DCEF0EF024A6B5EF0EF00F0EEE
:101D2000DB5059EC0DF0156ED8A49AEF0EF00D0EA5
:101D3000DBCFE7FF0D0EDBCF27F0E750275CD8B4F1
:101D4000DBEF0EF0D8A0ADEF0EF0152EAAEF0EF0DF
:101D5000DCEF0EF0E72A9AEF0EF0152EB2EF0EF040
:101D6000DCEF0EF0E7069AEF0EF00E0EDB5059ECAA
:101D70000DF0156ED8A4C0EF0EF00C0EDBCFE7FF10
:101D80000C0EDBCF27F0E750275CD8B4DBEF0EF06A
:101D9000D8A0D3EF0EF0152ED0EF0EF0DCEF0EF042
:101DA000E72AC0EF0EF0152ED8EF0EF0DCEF0EF0A4
:101DB000E706C0EF0EF0328610EE92F025A8E7EFAE
:101DC0000EF025983188329833983C0E2D6E33B83A
:101DD0003AEF0FF024A813EF0FF0130EDB5059EC7D
:101DE0000DF0156ED8A4F8EF0EF0110EDB50E76E73
:101DF000110EDBCF27F0E750275CD8B439EF0FF096
:101E0000D8A00BEF0FF0152E08EF0FF03AEF0FF000
:101E1000E72AF8EF0EF0152E10EF0FF03AEF0FF063
:101E2000E706F8EF0EF0120EDB5059EC0DF0156ED0
:101E3000D8A41EEF0FF0100EDBCFE7FF100EDBCFA4
:101E400027F0E750275CD8B439EF0FF0D8A031EF76
:101E50000FF0152E2EEF0FF03AEF0FF0E72A1EEFDE
:101E60000FF0152E36EF0FF03AEF0FF0E7061EEFEA
:101E70000FF0328810EE93F025AA45EF0FF0259A67
:101E8000318A329A339A3C0E2E6E33BA98EF0FF0A5
:101E900024AA71EF0FF0170EDB5059EC0DF0156E00
:101EA000D8A456EF0FF0150EDB50E76E150EDBCF02
:101EB00027F0E750275CD8B497EF0FF0D8A069EF70
:101EC0000FF0152E66EF0FF098EF0FF0E72A56EFA0
:101ED0000FF0152E6EEF0FF098EF0FF0E70656EFAC
:101EE0000FF0160EDB5059EC0DF0156ED8A47CEFF8
:101EF0000FF0140EDBCFE7FF140EDBCF27F0E75017
:101F0000275CD8B497EF0FF0D8A08FEF0FF0152E05
:101F10008CEF0FF098EF0FF0E72A7CEF0FF0152E03
:101F200094EF0FF098EF0FF0E7067CEF0FF0328A96
:101F300010EE94F025ACA3EF0FF0259C318C329C71
:101F4000339C3C0E2F6E33BCF6EF0FF024ACCFEF7A
:101F50000FF01B0EDB5059EC0DF0156ED8A4B4EF4A
:101F60000FF0190EDB50E76E190EDBCF27F0E750AC
:101F7000275CD8B4F5EF0FF0D8A0C7EF0FF0152EFF
:101F8000C4EF0FF0F6EF0FF0E72AB4EF0FF0152EC5
:101F9000CCEF0FF0F6EF0FF0E706B4EF0FF01A0EEC
:101FA000DB5059EC0DF0156ED8A4DAEF0FF0180ED7
:101FB000DBCFE7FF180EDBCF27F0E750275CD8B464
:101FC000F5EF0FF0D8A0EDEF0FF0152EEAEF0FF0C0
:101FD000F6EF0FF0E72ADAEF0FF0152EF2EF0FF021
:101FE000F6EF0FF0E706DAEF0FF0328C10EE95F017
:101FF00025AE01EF10F0259E318E329E339E3C0EB1
:10200000306E33BE54EF10F024AE2DEF10F01F0EE3
:10201000DB5059EC0DF0156ED8A412EF10F01D0E28
:10202000DB50E76E1D0EDBCF27F0E750275CD8B4FE
:1020300053EF10F0D8A025EF10F0152E22EF10F07E
:1020400054EF10F0E72A12EF10F0152E2AEF10F0DF
:1020500054EF10F0E70612EF10F01E0EDB5059ECB3
:102060000DF0156ED8A438EF10F01C0EDBCFE7FF93
:102070001C0EDBCF27F0E750275CD8B453EF10F0ED
:10208000D8A04BEF10F0152E48EF10F054EF10F0E1
:10209000E72A38EF10F0152E50EF10F054EF10F043
:1020A000E70638EF10F0328E32A05FEF10F031808B
:1020B000292E5FEF10F0329034B03190338032A28D
:1020C0006AEF10F031822A2E6AEF10F0329234B2A9
:1020D0003192338232A475EF10F031842B2E75EFDC
:1020E00010F0329434B43194338432A680EF10F07F
:1020F00031862C2E80EF10F0329634B6319633862E
:1021000032A88BEF10F031882D2E8BEF10F0329823
:1021100034B83198338832AA96EF10F0318A2E2ED7
:1021200096EF10F0329A34BA319A338A32ACA1EF7A
:1021300010F0318C2F2EA1EF10F0329C34BC319C6A
:10214000338C32AEACEF10F0318E302EACEF10F09D
:10215000329E34BE319E338E1200386601D012009A
:1021600038C01DF01D9E366A36801D4E02D03646A0
:10217000FCD736C04CF04E6A416A38AE4180386AAE
:1021800038EF08F00A0E166E186A182EC5EF10F018
:10219000162EFAD71200640E176EC2EC10F0172E2E
:1021A000FCD71200E1CF5EF0E2CF5FF0136A132A92
:1021B0005D6A5D8010EE80F0E72804E1080E1326CA
:1021C000E12AFAD75D50E71403E05D36132AFAD707
:1021D000630E1360F1EC10F05EC0E1FF5FC0E2FF40
:1021E0001200070E27EC0DF01368139E120014A2C4
:1021F0001200C60E4424A96EA906BDEC08F0596E63
:1022000044C058F0970E556E050E206E57EC0CF03A
:1022100012001CB804D0020E27EC0DF012001C8E28
:10222000445004081CE221EE80F0050E445C45C0D9
:10223000DBFF236EE842E842070B356A3580E85041
:1022400001E103D03546E806FAD723B21200355033
:10225000256E246E336E331E44B0246A120020EEC5
:1022600037F0440445C0DBFF37C034F01200F70EEE
:10227000556EEACF58F0E9CF59F04CC05AF04EC035
:102280005BF05C6A080E206E57EC0CF0CBEC10F0A3
:0A2290001200000B09070504030209
:020000040030CA
:0300010006061ED2
:020005008081F8
:060008000FC00FE00F40E5
:0200000400F00A
:060000007F00000000007B
:0A0086000000000000000000000070
:100090000000000000000000000000000000000060
:1000A0000000000000000000000000000000000050
:1000B0000000000000000000000000000000000040
:1000C000000000000000FF0000007F7F00007F7F35
:1000D00000007F7F00007F7F00007F7F00007F7F28
:1000E00000007F7F00007F7F000000000000000014
:0C00F00000000000000000000000000004
:0200FE00000000
:00000001FF
