:020000040000FA
:040000001FD00ED02F
:0400080004EF04F00D
:040018000CEF04F0F5
:10002000A66E05A01200550EA76EAA0EA76EA68298
:100030000000A6B2FED712000A26D8B00B2A120082
:10004000A66AA968AA68A680A83C00EF04F0066A20
:100050001C0E056E0F019394000E006F080E016FC9
:10006000E81E056F000E026F070E036FFF0E186F7C
:10007000EB0E196FFF0E1A6FF80E1B6F030E706EEA
:100080009E0E716E030E726E200E736E6F6A0E0EF0
:10009000C16E939E939C818E818C609E040060AEA5
:1000A000FDD70FEE66F065500F0B096EF46EF5E0AC
:1000B00064B02BD010EE01F0EECFE6FFF42EFCD7AB
:1000C0000650EBE0010AD8A407D0A968AA68A86A7C
:1000D000040EA6DF819CFF000650020A05E10B6AB0
:1000E0000A6A0C900C6AD9D70650030A0AE1075035
:1000F0000A2606E108500B2203E10CB001D073D0B0
:1001000076D00650040AC9E176D00350F86EF00BA1
:10011000F36E0250F76EAA6E0150F66EA96E05A638
:1001200005D009500126E86A02220322300EF3604E
:1001300001D008D0F350300A01E12AD0F350F00A80
:10014000ACE132D005A405D0F6503F0B02E1940E8D
:1001500067DF05B2A2D7F650070B9FE1080EF46ED9
:10016000EE50F56E69DF0D00F42EFAD7080EF46E2E
:100170000A00ED50F42EFCD7840E52DF080EF46E08
:100180000900F550EE18D8A40C80F42EF9D785D7C5
:10019000EF50F56E51DF0C00C40E42DF0900F55040
:1001A000EE18F42EF5D779D7EF50A86E45DF040E80
:1001B00037DFA66AA680A850EE18D8A40C80A94AFA
:1001C000AA2AF42EF1D769D740B7FED7800E416F27
:1001D000080E426F000E436F040E446F448164A00A
:1001E000449140875AD7010E466F456FEDD7466B55
:1001F000010E456FE9D7020E466F010E456FE4D739
:060800000000C0EF08F04B
:04080800CFEF04F03A
:08081000414343352020200084
:040818001DEF05F0DB
:10082000A5550280030C020B010100080000000026
:080830000000010000000000BF
:08083800140010080000CF01BC
:1008400063EC04F0796F7A6F7C6B12001AA217D0F8
:1008500063EC04F0795D03E179C07AF010D07B514C
:100860007A5D05E07BC07AF0200E7C6F08D07C07B3
:1008700006E17A5179197AC079F076EC04F0120029
:10088000080E316E2A6A2A1E4EEC04F006E0312A68
:10089000C80E1C6E2FEC0FF0F7D712002A50FF087D
:1008A0000FE131C07CF079C07BF0010E7A6F070E4A
:1008B0007C5F7C4F02D07A47FCD77A5176EC04F00B
:1008C0000F0E315C12007B6B81A07B8181A27B8348
:1008D00081A87B8581AA7B8780A27B8980A07B8B76
:1008E00080A67B8D80AA7B8F7B5112007A6F090EC8
:1008F0007C6FD8907A3302E27B330DD07B3302E3F6
:10090000900E01D0910E396E3C6A7CC03DF0050E10
:10091000246E9FEC0AF07C2B160E7C65EAD779C01A
:100920007AF01200C1EC04F0D8B48FD3F0EC0AF0E6
:100930002B0E80147D6F0A0809E07D51080808E03D
:100940007D51030805E07D51010814E17D8301D04C
:100950007D93EAEC0CF0000809E1C1EC0CF02A50A0
:10096000EE127DB3EF1255EC0DF009D039EC0BF01F
:100970000008F5E07D51000802E1A2EC0BF0B8EFB1
:1009800008F0130E8114226E236E234223400C0BB9
:100990002212221E0F0E221601E022061200006E05
:1009A000D8CF01F06FCF0FF06ECF10F0FACF03F079
:1009B000FA6AE9CF05F0EACF06F0E1CF07F0E2CF1F
:1009C00008F0090EFA6E10500E0BF92618D006D05A
:1009D00016D015D014D013D012D011D00F0130ABD7
:1009E00008D0205206E0202E04D030973F0E311759
:1009F0003087509F0001609E749E749C01D0609E61
:100A0000A46A6F50F10B0F106F6E03C0FAFF05C0A0
:100A1000E9FF06C0EAFF07C0E1FF08C0E2FF00509F
:100A200001C0D8FF100021B212001AA212000F015B
:100A300020B7FED7208700011200006ED8CF01F04A
:100A4000E0CF02F0EACF06F0E9CF05F0E2CF08F000
:100A5000E1CF07F000019EA043D0E00ECE6E9E6A6B
:100A6000416A426A655105E0652F03D0418080C02C
:100A700065F0665105E0662F03D0418281C066F0C3
:100A8000675105E0672F03D0418482C067F0685149
:100A900005E0682F03D0418683C068F0695105E006
:100AA000692F03D0418884C069F06A5105E06A2F3C
:100AB00003D0418A85C06AF06B5105E06B2F03D0EB
:100AC000418C86C06BF06C5105E06C2F03D0418ED9
:100AD00087C06CF0416601D0CBD04150821AC8D09B
:100AE000A192A0920A0EFA6E3150E846F9260FD074
:100AF00012D016D01AD01ED022D026D02AD02ED076
:100B00002DD02CD02BD02AD029D028D027D030508F
:100B10002A142EE1312A304630502A1439E1312A84
:100B2000304630502A1444E1312A304630502A14DD
:100B30004FE1312A304630502A145AE1312A3046EA
:100B400030502A1465E1312A304630502A1470E1C1
:100B5000312A304630502A147BE1312A4EEC04F021
:100B600001E186D0312A7551B26AB36EA08280D07D
:100B70006DAFD0D730502F1403E16DBD01D005D03B
:100B80006DBD03D050EC10F0EDD753EC10F0EAD768
:100B90006EAFC5D730502F1403E16EBD01D005D024
:100BA0006EBD03D050EC10F0DDD753EC10F0DAD767
:100BB0006FAFBAD730502F1403E16FBD01D005D00D
:100BC0006FBD03D050EC10F0CDD753EC10F0CAD766
:100BD00070AFAFD730502F1403E170BD01D005D0F6
:100BE00070BD03D050EC10F0BDD753EC10F0BAD765
:100BF00071AFA4D730502F1403E171BD01D005D0DF
:100C000071BD03D050EC10F0ADD753EC10F0AAD763
:100C100072AF99D730502F1403E172BD01D005D0C7
:100C200072BD03D050EC10F09DD753EC10F09AD762
:100C300073AF8ED730502F1403E173BD01D005D0B0
:100C400073BD03D050EC10F08DD753EC10F08AD761
:100C500074AF83D730502F1403E174BD01D005D099
:100C600074BD03D050EC10F07DD753EC10F07AD760
:100C700006C0EAFF05C0E9FF08C0E2FF07C0E1FFC8
:100C800002C0E0FF005001C0D8FF100021B019D011
:100C900074BE01D016D06F500F0B0F6E7750F00B53
:100CA0000F10776E62B60CD065AC03D013EC05F074
:100CB00007D0655201E104D0F2EC0FF0218001D0A1
:100CC000609E1AB201D00DD0F2A40BD021A401D0A5
:100CD000817CF29421A605D01F2E03D00A0E1F6E30
:100CE000520E80B467D0640E1B6E1C6A1D6A1D2EE6
:100CF00077EF06F021A404D0F2A402D0817CF29414
:100D00001C2E77EF06F080B440D01B2E77EF06F054
:100D10001AA255D0216A819C818EF26A010E196E49
:100D2000010EA96E000E8CEC0AF0510E61EC0AF077
:100D3000166A176A80A4FED736EC0FF080A4FAD7A3
:100D4000020EA96E000E8CEC0AF0A92A000E8CECA3
:100D50000AF01AA20DD0010EA96E000E8CEC0AF05A
:100D6000216A1A92819C818EC00EF26E46EF06F0C7
:100D7000010EA96E010E8CEC0AF01A8272EC0FF0D3
:100D8000219260EC0AF021841DD021A40CD0219482
:100D9000818C520E61EC0AF0010EA96E080E216ED4
:100DA0008CEC0AF007D0218472EC0FF0219260ECF9
:100DB0000AF008D021A206D02192218403D02182FA
:100DC000819EB8D726EC04F021A060D745D021A899
:100DD000C7D0218AF2EC0FF06FD121A8C1D0F2EC7C
:100DE0000FF0605103E06007030E606110D1218CA9
:100DF00063D1AEEC0AF0000803E1F8EC0AF0B0D0E1
:100E0000F8EF07F0AEEC0AF0000807E169CF62F0F6
:100E10006ACF60F044EC0EF0A3D0F8EF07F021EFBA
:100E200008F021A49DD07FEC0EF09AD021A498D098
:100E300095EC0EF095D016501724D8A4F3EC0EF0D4
:100E40008FD05C6A5D6AFDD032EF08F03BEF08F0AE
:100E500042EF08F0E7EF06F0900E5B5CE0E0910EE9
:100E60005B5CDDE0920E5B5CDAE0980E5B5CE9E0D7
:100E7000990E5B5CE6E09A0E5B5CD1E05C0E5B5C1D
:100E800050E0730E5B5C5DE01AA26AD0420E5B5CC0
:100E90006BE00D0E5B5CCFE0100E5B5CC2E0110EF0
:100EA0005B5CC4E0530E5B5C37E0540E5B5C2EE091
:100EB000550E5B5C29E0560E5B5C7AE0710E5B5C64
:100EC000C5E0960E5B5CC0E0D20E5B5C21E0950E47
:100ED0005B5CC0E0B20E5B5C80E0570E5B5CB8E030
:100EE000720E5B5C17E0580E5B5C18E09C0E5B5C5E
:100EF00089E05D0E5B5C04E0750E5B5C03E030D066
:100F000011EF08F0C2EF07F0E8EF07F0E1EF07F0AC
:100F1000FCEF07F00AEF08F0DAEF07F0F9EF06F060
:100F20001FD01AA20AD0AEEC0AF0000861E1FF0E51
:100F3000A96EFF0E8CEC0AF0FF005C505D2458E1B6
:100F4000F6D71AA207D0AEEC0AF0000851E1ABECDC
:100F50000EF006D05C505D244BE1ABEC0EF000D0FF
:100F6000609E219046EF06F021A4FAD72AEC0AF001
:100F7000219421860A0E1F6E520E61EC0AF0818CBC
:100F8000819EEED7AEEC0AF0000832E15EC019F0A7
:100F9000BFEC0FF0520E61EC0AF0B0EF07F021A4A5
:100FA000DFD7500E396E030E246E9FEC0AF0D8D7AF
:100FB00054EF08F0AEEC0AF000081AE12188818CA9
:100FC000CFD7AEEC0AF0000813E12198219AC8D7D8
:100FD000AEEC0AF000080CE121A80BD050EC0CF0AC
:100FE00081EC10F032EC10F0590E61EC0AF0EED703
:100FF000B7D7020E19EF0FF021A8B2D7F2EC0FF01D
:10100000605105E06007030E606101D055D0060E07
:1010100019EF0FF0AEEC0AF00008EAE11BEC0EF05D
:101020009FD7AEEC0AF000080AE172EC0FF0520E06
:1010300061EC0AF0609E080E216EB0EF07F0F8EF49
:1010400007F0F2EC0FF01AA205D0EAEC0CF0000861
:1010500020E086D780AA66D480A22ED0F6D7030ED1
:1010600019EF0FF0AEEC0AF00008C2E13DEC0FF012
:1010700032EC10F075D7AEEC0AF00008B9E14CEC98
:101080000FF06ED7AEEC0AF00008B2E1BBEC0DF049
:1010900067D7C1EC0CF0EECF2AF0EECF2CF0EECFFC
:1010A0002DF055EC09F05CD7AEEC0AF00008A0E199
:1010B00073EC0EF055D700D0EAEC0CF000081FE0FE
:1010C0001AB209D080A054D004EC0BF0000816E04E
:1010D000040E1DEF0FF021BC0ED021BA48D0020E35
:1010E000605D02E10DEC10F004EC0BF0000806E08E
:1010F000040E21EF0FF0050E21EF0FF039D01AB2D8
:1011000005D080B014D0A2EC0BF031D021BC17D0A8
:1011100021AA0DD0C1EC0CF0020EEBCF2DF072EC39
:1011200010F0A2EC0BF0590E61EC0AF020D0020E88
:10113000605D02E10DEC10F004EC0BF0DFD7C1ECC8
:101140000CF060C03EF03E2A6051EBCF3FF0D30E72
:10115000396E5CC03AF05DC03BF05EC03CF05FC0F1
:101160003DF0070E246EA3EC0AF001D02198219CDB
:10117000609E2190FA6AB0EF07F0060E21EF0FF0A3
:1011800000EE00F0EE6AE9AEFDD7F26AC26A0F0E19
:10119000C16E2F0E926E3B0E936E819E819C818458
:1011A000000E946E826AD08EE06AA66A216A206A76
:1011B0006F8EB00E776E778A7750126E0F01F86BD4
:1011C000606A506B206B306B406B506B606B706B68
:1011D0000001030E706E9E0E716E030E726E200E75
:1011E000736E240E606E0FEE18F0EE6A200EE96248
:1011F000FCD76F6ABD6A840ED56EA10ECD6EB10E9E
:10120000CF6EE00ECE6E336A230EA56E9F6AA26A81
:10121000A06A010E9D6E010E196EF16AF06A200E31
:10122000A36E9E6AA16A609E749E749CA46A19EC67
:101230000CF01A6A010EA96E87EC0AF0216E000804
:1012400001E119D01A823DEC0AF032EC10F0900E58
:101250005B6E77C02AF076C02CF0761D2F14E81E46
:101260002C122D6A55EC09F0C00EF26E819E818C15
:10127000219046EF06F01A92166A176A80BA05D0D6
:101280002B0E8014020805E006D080A24BEF09F077
:1012900080A050EC0CF032EC10F020EC04F0C00E0A
:1012A000F26E819C818E46EF06F05BB279D0030E20
:1012B0002D14030A6AE02AC02BF02CC047F02B1C27
:1012C00082142B6E2A502C1A5BA005D02A502C18A1
:1012D0002B10456E04D02A502C142B10456EF20EA4
:1012E000A96E87EC0AF02F6E2A1C2F1645502F107E
:1012F0002F6E8CEC0AF0010E306E316A7551FF08CA
:10130000B36EB26A9D900000486A010E496E00EE0D
:1013100065F010EE80F0471C2A14466E49502A14DE
:1013200029E0E60E4824A96E87EC0AF02B6EE89EB1
:10133000E86601D01CD0E82A226E2BAE08D05BB044
:1013400014D0485022C0EBFF22C0E3FF13D05BB0A3
:1013500004D0495047140BE103D04950471407E02B
:10136000485022C0EBFFE36A05D0491C451648509F
:10137000EB6AE36A482A4936D1E32A1C82164550B3
:1013800082129D80A082B1801200010E306E316AFF
:101390007551FF08B36EB26A2A68A082B18012004C
:1013A000E9CF0BF0EACF0CF0E1CF0DF0E2CF0EF079
:1013B0002DAE12001C0E2D142E6E040E1E6E10EE9D
:1013C0003AF000EE5CF0EECFE6FF1E2EFCD72E507A
:1013D000E842E8421E6E1E2A306A30801E2E01D07E
:1013E00002D03046FBD730502F1408E15BB603D053
:1013F000940E396E0FD09E0E396E07D05BB603D0B7
:10140000930E396E07D09D0E396E050E246E9FEC3B
:101410000AF004D0050E246EA3EC0AF00BC0E9FF1D
:101420000CC0EAFF0DC0E1FF0EC0E2FF120000EEAB
:1014300033F01FEE30F00F0130B7FED70001EE5051
:10144000E66E410EE962FBD70F0130B7FED7308759
:10145000000112005CC016F05DC017F0020EA96E0C
:101460005C508CEC0AF0A92A5D508CEC0AF0010E5D
:10147000A96E080E8CEC0AF01200000EA96EA68070
:10148000A850136E6BEC0AF0F00E341614503412A0
:101490001550356E020EA96E87EC0AF0166EA92A59
:1014A00087EC0AF0176E0F0120B7FED7216B14509E
:1014B000216F1550226FB00E2113256B0001120011
:1014C000500E396E16C03AF017C03BF0030E246E72
:1014D0009FEC0AF0120013C015F0153A1544E00B0A
:1014E000156E13C014F01442144214400F0B146E06
:1014F000120062CF15F0153A1540070B156E61CF3B
:1015000014F0144614461444780B15101200A69ECD
:10151000A69CA680A8501200A86EA69EA69CA68493
:10152000F2CF11F0F26A550EA76EAA0EA76EA68230
:10153000A6B2FED7A198A69411C0F2FF120016C061
:101540003AF017C03BF02450386E0F0E3416B00E30
:1015500034120A0E206E17EC0AF0120016505C5C72
:1015600004E117505D5C01E1000C010C200E1B6EC4
:10157000D8901B461B4602EE00F0060EA96EA68010
:10158000A850EE6EA92A1B2EFAD7200E1B6ED890FB
:101590001B4602EE80F0860EA96EA680A850EE6E65
:1015A000A92A1B2EFAD71200C20E1B6E040EA96EBA
:1015B000000E8CEC0AF0A92A1B2EFAD7800E1B6EA7
:1015C00002EE00F0EE6A1B2EFDD71200130E8114FE
:1015D000226E236E23422340040B2210070B226E3F
:1015E000010E2A6E225203E02A462206FBD7120081
:1015F000050EA96E87EC0AF03C6E740E396E040E6F
:10160000246E9FEC0AF012001AB203D080A0000CE6
:1016100002D021BA000CEAEC0CF0000825E1C1EC84
:101620000CF058B002D01AA20BD0605161C0EBFF91
:1016300055EC0DF058B0000C590E61EC0AF0000C9E
:10164000E6EC0AF02AC02BF02B50EF10EE6E2A6E5B
:1016500081BA07D02B50EF12EFCF2CF055EC0DF0E4
:10166000000C2B1CEF16F8D739EC0BF00008D9E072
:10167000010C040EA96E87EC0AF0000801E1010CD0
:10168000DE0EA96E87EC0AF04C6EDF0EA96E87ECB9
:101690000AF04D6E526601D00DD0B9EC0CF05350EB
:1016A00083EC0DF0060EE9264CC0EEFF4DC0EEFFB8
:1016B0004FEC0DF0C1EC0CF04D5083EC0DF0040E2E
:1016C000E926DE0EA96EEE508CEC0AF0DF0EA96E54
:1016D000EE508CEC0AF054C0A9FF4C508CEC0AF090
:1016E000A92A4D508CEC0AF04D5083EC0DF05CC0F3
:1016F000EEFF5DC0EEFF5EC0EEFF5FC0EEFF52C0CA
:10170000EEFF53C0EEFFEE6AEE6A080E636F000E46
:10171000EB6AE82A632FFCD75550D60FA96E87ECE9
:101720000AF0E82A8CEC0AF0050EA96E87EC0AF0A4
:10173000010F8CEC0AF0A90687EC0AF0E8068CECA5
:101740000AF0000CEAEC0CF0000801E01200DE0EDA
:10175000A96E87EC0AF0566EDF0EA96E87EC0AF0D0
:10176000576EC1EC0CF04D5083EC0DF0040EE926E1
:10177000EFCF50F056C0EEFFEFCF51F057C0EEFF65
:10178000EFCF4EF0EE6AEFCF4FF0EE6ADE0EA96EAD
:101790004C508CEC0AF0DF0EA96E4D508CEC0AF028
:1017A00055EC0DF04E6601D011D04EC04CF04FC03C
:1017B0004DF0C1EC0CF04D5083EC0DF0040EE92619
:1017C00050C0EEFF51C0EEFF55EC0DF054C0A9FF24
:1017D00050508CEC0AF0A92A51508CEC0AF050665B
:1017E00001D011D050C04CF051C04DF0C1EC0CF004
:1017F0004D5083EC0DF0060EE9264EC0EEFF4FC0B3
:10180000EEFF55EC0DF05550D60FA96E87EC0AF09F
:10181000E8068CEC0AF0050EA96E87EC0AF0E806E3
:101820008CEC0AF0A90687EC0AF0010F8CEC0AF0A8
:101830001200586A040EA96E87EC0AF0226EA92ADB
:1018400087EC0AF02226800E226201D01200B6EC4C
:101850000AF0050EA96E87EC0AF0266E50EC0CF02B
:10186000266601D01200588012EE00F022EE80F0C1
:10187000E6CF5CF0E6CF5DF0E6CF5EF0E6CF5FF05E
:10188000000E606FDECF61F00BEC0BF0010E606FAD
:10189000DECF61F00BEC0BF0262EEAD7586A12006F
:1018A000050EA96E000E8CEC0AF0800EA9068CECD9
:1018B0000AF0100E1B6EC60EA96E000E8CEC0AF01C
:1018C000A92A1B2EFAD7080E1B6ED60EA96E000E83
:1018D0008CEC0AF0A92A1B2EFAD724EC0DF0DE0EB0
:1018E000A96E300E4C6E8CEC0AF0DF0EA96E000E65
:1018F0004D6E8CEC0AF047EC0DF04E6A4F6A800E8C
:101900001B6E4DC022F04CC023F0225083EC0DF032
:10191000100E2226000E2322EE6AEE6AEE6AEE6AAE
:101920001B061BE023C0EEFF22C0EEFF4EC0EEFF01
:101930004FC0EEFF4CC04EF04DC04FF01B50030B9C
:1019400005E0100E4D26000E4C22DFD755EC0DF0B1
:10195000100E4D26000E4C22D4D7226A22C0EEFF74
:1019600022C0EEFF4EC0EEFF4FC0EEFF55EC0DF073
:101970001200C00E5314F66E5250F76E400E636F95
:1019800008D0C00E4D14F66E4C50F76EF86A400E3B
:10199000636FF86AEACF5AF0E9CF59F001EE00F030
:1019A0000900F550EE6E632FFBD759C0E9FF5AC00E
:1019B000EAFF1200F86A4CC0F7FF4DC0F6FF100EA8
:1019C000636FE7D7F86A4CC0F7FF4DC0F6FF080E0B
:1019D000636FDFD7070E5F14226E556E2246C60E68
:1019E0002224546EA96E87EC0AF04C6E526EA92A1E
:1019F00087EC0AF04D6E536E4C6601D0010C4D50D1
:101A0000F66E4C50F76EF86A256A0900F5505C6274
:101A1000252A0900F5505D62252A0900F5505E620D
:101A2000252A0900F5505F62252A256606D04D500B
:101A300083EC0DF0080EE926000C0900F5504C6E01
:101A40000900F5504D6ED8D7200E1B6E000EF66EB5
:101A5000300EF76EF86A35EC0DF01B2E01D0120037
:101A6000400EF626000EF722F6D7A68EA69CA68478
:101A7000A688F2CF11F0F26A550EA76EAA0EA76ED5
:101A8000A68200000000000011C0F2FF120001EE6B
:101A900000F0400E636FEE6A632FFDD71200C00E98
:101AA0005314F66E5250F76E05D0C00E4D14F66EFC
:101AB0004C50F76EF86A35EC0DF001EE00F0020EB6
:101AC000646F1F0E636FEE50F56E0D00632FFBD732
:101AD000EE50F56E0C0073EC0DF0F62A000EF722B6
:101AE000642FEFD71200A68EA69CA698A684F2CFEC
:101AF00011F0F26A550EA76EAA0EA76EA68200001C
:101B000011C0F2FF1200E83A030BE86603D001EEC1
:101B100000F01200E806E86603D001EE10F01200B3
:101B2000E806E86603D001EE20F0120001EE30F086
:101B30001200EAEC0CF0000803E0616B606B08D067
:101B4000DAEC0CF001EE08F06051EB50616F602BA5
:101B5000D30E396E00C13AF001C13BF002C13CF036
:101B600003C13DF060C03EF061C03FF0070E246E3F
:101B7000A3EC0AF01200226A050EA96E87EC0AF0A7
:101B800000082CE0406A080E266EC60EA96E87EC8F
:101B90000AF04C6EA92A87EC0AF04D6E4C6604D010
:101BA000260620E0A92AF3D7E2EC0CF0402A00C177
:101BB0003CF001C13DF002C13EF003C13FF0F20E26
:101BC000396E080E246E9FEC0AF02DEC0FF02DEC10
:101BD0000FF004C14CF005C14DF0E0D7070E25EC25
:101BE0000FF012001200556A266A276A5550D60F68
:101BF000A96E87EC0AF0000F05E0272627506261E6
:101C000001D004D027C026F0552AF0D75544C60F7E
:101C1000A96E87EC0AF04C6EA92A87EC0AF04D6E8B
:101C2000625126601200262AE2EC0CF004C14CF04E
:101C300005C14DF0F5D7050EA96E87EC0AF0000836
:101C40001FE062511DE06207050EA96E87EC0AF0E5
:101C5000626116D0F3EC0DF0E2EC0CF000C13CF048
:101C600001C13DF002C13EF003C13FF0622B62C0F2
:101C700040F0F20E396E080E246E9FEC0AF012004E
:101C8000070E25EC0FF01200050EA96E87EC0AF086
:101C90000008F6E06251F4E06207050EA96E87ECD9
:101CA0000AF06261EDD760511AE06007030E6061CF
:101CB00016D0F3EC0DF0DAEC0CF001EE08F0605108
:101CC000EBCF3EF0602B622BB50E396E62C03CF05C
:101CD00060C03DF0060E246E9FEC0AF01200060E66
:101CE00025EC0FF01200040EA96E87EC0AF03C6E92
:101CF000700E396E040E246E9FEC0AF01200EF0E87
:101D0000396E200EF66E080EF76E00EE3AF0070EF2
:101D10001B6EA68E0900F5CFEEFF1B2EFBD7A69EED
:101D2000080E246EA3EC0AF01200E20E396E100EBB
:101D3000F66E080EF76E00EE3AF0070E1B6EA68EDA
:101D40000900F5CFEEFF1B2EFBD7A69E080E246ED2
:101D5000A3EC0AF012005E5000082FE0140E5EC0E3
:101D600022F02206226034D09B0E396E070E2262CA
:101D700004D0ECEC0EF03D6E19D00E0E226204D0B1
:101D800003EC0FF03D6E12D00F0E226204D007EC70
:101D90000FF03D6E0BD0200EF66E080EF76EF86A4F
:101DA0005E04F626A68E0800F5CF3DF05EC03CF03E
:101DB000050E246E9FEC0AF012009B0E396E140E75
:101DC0003D6E5EC03CF0050E246E9FEC0AF01200E2
:101DD0000A0E25EC0FF01200010E1AB20409226E51
:101DE00022862250120036EC0FF0B60E396EA50E88
:101DF0003C6E020E3D6EECEC0EF03E6E060E246E56
:101E00009FEC0AF012000BEC0FF0F35012000BECF9
:101E10000FF0F45012003F0EF86EFF0EF76EFE0E3C
:101E2000F66EA68E0900F5CFF3FF0800F5CFF4FF9C
:101E3000120025EC0FF0B0EF07F025EC0FF0B8EF33
:101E400008F025EC0FF0B7EF08F03C6E6F0E396E1E
:101E5000040E246E9FEC0AF012000A0E1C6E1B6A20
:101E60001B2E30EF0FF01C2EFAD71200640E1D6EE1
:101E70002DEC0FF01D2EFCD712000D0E5E6012002F
:101E80005E5009E0E806E60FA96E5F508CEC0AF0A0
:101E9000590E61EC0AF012000D0E5E6015E05E5006
:101EA00013E0E806E60FA96E87EC0AF03D6E5EC00F
:101EB0003CF05CC03AF05DC03BF0970E396E050E09
:101EC000246EA3EC0AF012003C6A3D6AF2D7080EB9
:101ED0001B6EE60EA96E000E8CEC0AF0A92A1B2ED2
:101EE000FAD71200E1CF4AF0E2CF4BF021820E0E7A
:101EF0001B6E00EE88F0EE6A1B2EFDD7A0923C0E02
:101F0000B36EAF0EB26EB10EB16EA1920F01BF0EE5
:101F1000316FE00E326F400E356F30B7FED730872D
:101F200030B7FED7356B0001A1B215D074BE01D019
:101F3000FBD76F500F0B0F6E7750F00B0F10776EB3
:101F400062B607D021A205D0655203E1D5EC0FF0AF
:101F500000D0609EE9D7B190A192196A192A496A06
:101F6000498010EE88F0E72804E1080E1926E12ADE
:101F7000FAD74950E71403E04936192AFAD7640E14
:101F800019600DD0000EA96E19508CEC0AF0195092
:101F90003DEC0AF04AC0E1FF4BC0E2FF1200070E21
:101FA00025EC0FF01968199EEDD7656612006138AF
:101FB000E832780B226E6238E842070B2210196E65
:101FC00010EE88F0496A4980080E196403D0195E42
:101FD000E12AFBD7194E02D04946FCD74950E712F7
:101FE000609E120066CF5BF067CF5CF068CF5DF05B
:101FF00069CF5EF06ACF5FF06BCF60F06CCF61F0BD
:10200000980E665C07E0990E665C04E09A0E665CCA
:1020100001E012005C6A5D6A120061AF120061C0EB
:102020002AF061511C0B060FA96E5C508CEC0AF073
:10203000A92A5D508CEC0AF0A92A5E508CEC0AF0BB
:10204000A92A5F508CEC0AF02A501C0BE842E842A7
:10205000860FA96E2A508CEC0AF02AC061F032EC8F
:1020600010F01200080E1B6E860EA96E10EE6DF0B9
:1020700087EC0AF0E66EA92A1B2EFAD7EE0EA96E9F
:10208000040E1B6E10EE75F087EC0AF0E66EA92ABE
:102090001B2EFAD7F20EA96E87EC0AF02F6E1200F3
:1020A000900E396E02D0910E396E00EE3AF0060EA7
:1020B000A96E3150E846E846A926040E1E6E050EAC
:1020C000246E87EC0AF0EE6EA92A1E2EFAD73A5239
:1020D00006E13B5204E139869FEC0AF01200A3ECC2
:1020E0000AF012002D50E8AE12001C0BE842E84244
:1020F0002A6E860FA96EE86A8CEC0AF032EC10F0BA
:102100001200860EA96E080E1B6EE86A8CEC0AF0AF
:08211000A92A1B2EFAD71200C8
:020000040030CA
:0100010006F8
:0100020006F7
:010003001EDE
:01000500807A
:010006008178
:010008000FE8
:01000900C036
:01000A000FE6
:01000B00E014
:01000C000FE4
:01000D0040B2
:0200000400F00A
:060000007F00000000007B
:0A0086000000000000000000000070
:060090000000000000006A
:0A00C6000000000000000000000030
:1000D0000000000000000000000000000000000020
:1000E00000000000000000000000000000000A0006
:0400F000FFFF00000E
:0200FE00000000
:00000001FF
