:020000040000FA
:040000001FD00ED02F
:0400080004EF04F00D
:040018000CEF04F0F5
:100020007F6E05A01200550E7E6EAA0E7E6E7F8238
:1000300000007FB2FED712000A26D8B00B2A1200A9
:100040007F6A746875687F80733C00EF04F0066A0D
:100050001C0E056E0E019394000EE06F080EE16F0A
:10006000E81EE56F000EE26F070EE36FFF0EF86FFC
:10007000EB0EF96FFF0EFA6FF80EFB6F030E436F76
:100080009E0E446F030E456F0F015D6B5C6B200E7F
:10009000706E6F6A939E939C8A8E8A8C609E040019
:1000A00060AEFDD70FEE66F065500F0B096EF46E73
:1000B000F5E064B02BD010EE01F0EECFE6FFF42EA9
:1000C000FCD70650EBE0010AD8A407D07468756825
:1000D000736A040EA5DF8A9CFF000650020A05E140
:1000E0000B6A0A6A0C900C6AD9D70650030A0AE117
:1000F00007500A2606E108500B2203E10CB001D09C
:1001000073D076D00650040AC9E176D00350F86E59
:10011000F00BF36E0250F76E756E0150F66E746E52
:1001200005A605D009500126E86A02220322300EF6
:10013000F36001D008D0F350300A01E12AD0F35027
:10014000F00AACE132D005A405D0F6503F0B02E135
:10015000940E66DF05B2A2D7F650070B9FE1080E9A
:10016000F46EEE50F56E68DF0D00F42EFAD7080E2F
:10017000F46E0A00ED50F42EFCD7840E51DF080E09
:10018000F46E0900F550EE18D8A40C80F42EF9D7BF
:1001900085D7EF50F56E50DF0C00C40E41DF09002B
:1001A000F550EE18F42EF5D779D7EF50736E44DF83
:1001B000040E36DF7F6A7F807350EE18D8A40C805F
:1001C000744A752AF42EF1D769D720B7FED7800E6E
:1001D000216F080E226F000E236F040E246F2481FE
:1001E00064A0249120875AD7010E266F256FEDD782
:1001F000266B010E256FE9D7020E266F010E256FC3
:02020000E4D741
:06080000000091EF0BF077
:0408080020EF04F0E9
:040818006DEF04F08C
:10082000A56809000000040A0D010008000000008E
:080830000000010000000000BF
:080838001400825100002202AD
:100840006FCF13F06ECF14F0E9CF05F0EACF06F0CA
:10085000E1CF07F0E2CF08F0080EFA6E14500E0B4D
:10086000F92624D006D022D021D020D01FD01ED0EF
:100870001DD00F0110AB05D00FEE10F010EE27F0D9
:1008800006D020AB0DD00FEE20F010EE26F0E75290
:1008900007E0E72E05D0EF963F0EEC16E906EF864F
:1008A000609E0001719E719C000101D0609E776A7C
:1008B0006F50F10B13106F6E05C0E9FF06C0EAFF21
:1008C00007C0E1FF08C0E2FF11003AA012000F01CB
:1008D00000B7FED7008700011200006ED8CF01F0EC
:1008E000E9CF0BF0EACF0CF0E1CF0DF0E2CF0EF044
:1008F000D9CF0FF0DACF10F0E0CF02F0F294232E30
:1009000008D0040E236E3AB8A0EC11F03ABC24ECE7
:100910000DF002C0E0FF0BC0E9FF0CC0EAFF0DC004
:10092000E1FF0EC0E2FF0FC0D9FF10C0DAFF005098
:1009300001C0D8FF10001DB012D0B7AE04D0B79ED2
:10094000225201E0220680B606D01DB604D0356AD8
:10095000366A4F841D8680A607D01D9605D0A1A2B9
:1009600003D0A192FDEC0EF09EA00CD09E904FAE55
:1009700005D0CD90CA944F9E1CEF06F0252E02D0D4
:10098000CA94CD909EA205D09F0ECB6E9E928B7482
:1009900004004FB0CCEF08F071BE01D014D06F50FE
:1009A0000F0B136E7250F00B1310726E62B60AD0FA
:1009B00065AC03D065EC04F005D0655201E102D0CE
:1009C0004F8001D0609E3BA819D0010E366E355283
:1009D00031E13B983A9E4FBC04D04BEC17F082ECCF
:1009E00011F04FBC27D04FA625D0C1EC16F04FA870
:1009F00021D02AEC17F0E8EC16F01CD004004FA42C
:100A000019D03A9A365214E13AAE07D0010E366E3A
:100A10003A9E4FBC0FD0D3EC0EF03BB002D042EC6C
:100A20000DF04FA605D0C1EC16F04FB8E8EC16F06B
:100A300082EC11F01DB062D008D00001FF00FF0071
:100A40000001010000FF00FF0100030E2D162D46DE
:100A50002D46060E8014E8422D12F86A3A0E2D2417
:100A6000F66E0A0E01E3002AF76E7F8E08007F9E65
:100A7000F5502C2643E0030E2C1440E1040E2C5CB0
:100A80001DE12C6A2250E842E842E842E842E82AA6
:100A90000F0B38B203D038A003D0E846E846E8464A
:100AA000352401E77F0E356E3F0E226E35C036F0DD
:100AB0007F0E365C01E0362A4F8420D0040E2C24B1
:100AC0001CE12C6A2250E842E842E842E842E82A67
:100AD0000F0B38B203D038A003D0E846E846E8460A
:100AE000355C01E7E86A356E3F0E226E35C036F0A0
:100AF000355201E0362A4F8401D02C6A33B019D028
:100B00002FBE06D067EC0EF02FBE2FC030F013D7EB
:100B100074EC18F0E852FBE067EC0EF02FBE03D047
:100B20002F6A9BEF04F02F50305C34E02F6A9BEF6C
:100B300004F069AF06D0D5EC17F0E85202E09BEF65
:100B400004F033B210D067EC0EF02FBE9BEF04F030
:100B50003382F1D669AFF3D7000E67B3B0EC11F072
:100B6000696B676BECD774EC18F0E85201E1E3D6DF
:100B700067EC0EF02FAE02D03392DDD6336A3BA085
:100B80009BEF04F04FB69BEF04F03BA6E3D7699FC1
:100B90003B96E0D70C0E746E30507F0B74262CEC15
:100BA0000EF0306E090E3064DBD10A0E305C21E0AD
:100BB0000B0E305C21E00C0E305C21E00D0E305C41
:100BC00060E00E0E305C0DE00F0E305C0CE0100E9D
:100BD000305C0BE0110E305C0AE0338000009BEFCC
:100BE00004F0C3EF06F0FDEF06F073EF07F0A2EF9D
:100BF00007F021EC14F0F1D731EC14F0EED74FB63A
:100C000012D03ABEEAD774B528D03BB406D03BA088
:100C1000E4D74F8CA7EC12F0E0D74F8C3B943B8A83
:100C2000C3EC12F0DAD75652D8E04FA848EC0FF0D8
:100C30004F8861EC18F0D1D754EC08F04F7A2AECC9
:100C400017F04FBE03D07EEC14F0C7D7320ECD6E36
:100C5000CA944F9E7EEC14F0C0D774B108D0749340
:100C60007481BBEC10F0510EF76E6E0E07D07483DA
:100C70007491BBEC10F0520EF76E980EEFEC0EF084
:100C8000ACD7D3EC0EF04F9C726B736B746B3C6AF9
:100C90003BBC6BD03AAE12D03A9E3A9A3BA01CD0E5
:100CA00000EC10F0400E45EC17F0500EF76E740E8D
:100CB000EFEC0EF005D042EC0DF08FD73BB8F0D73B
:100CC0004FB633D03BB016D03BB214D03BB412D0A9
:100CD0003BBA10D03BBC0ED0D3EC0EF020EE43F06C
:100CE000200E3F6E406E416E426E42EC0DF04F9C06
:100CF000476A73D7476A3BB43CD03BBA3AD03BBC57
:100D000038D03BA207D03B923B80729D4F9C4BEC6E
:100D100017F063D73B823B90D3EC0EF000EC10F061
:100D2000C7EC0EF0355016E11CD03BA00BD03B8039
:100D30003B924BEC17F04F965C0E746E4F5032ECBA
:100D40000EF04BD74F965C0E746E4F5032EC0EF097
:100D50006CEF06F0510EF76E5E0EEFEC0EF04F8C5E
:100D60003CD7500EF76E880EF8D73B9C4BEC17F033
:100D700034D73B803B943B9A3B9C726B736B4F9C8C
:100D80004BEC17F02AD74FAC37EF08F074A504D01E
:100D9000030E741523E121D774B973D7739B72BF07
:100DA000FAEC15F03AA081EC0DF0330EB16E3BA0D9
:100DB0007EEC14F03A963BB253D03BB46CD03BBAC5
:100DC0007FD03BBC97D33BB029D147520FE04FB601
:100DD00009D047C048F01BEC0FF0000EEDEC0FF00F
:100DE0004F9CFBD64FB854EC08F0F8D7F6D672BD3E
:100DF000F4D6728FB8EC15F0F0D64FB6EED63ABEF8
:100E0000ECD672B91DD03BA0F2D73BBCEDEF05F09C
:100E10006BA106D06B91D3EC0EF000EC10F0DDD698
:100E20006B816B933BB8D9D6400E45EC17F0500E52
:100E3000F76E920EEFEC0EF0200EAAEC0EF0CDD66F
:100E400072A1CBD67351E82A030B73B5E884736F94
:100E5000080E746E735132EC0EF0DBEC10F0BDD660
:100E60003A98210EAF6F39C0B0F0020E2E6E56ECDC
:100E70000DF0040E986F040E9A6FFF0E5AEC0EF0F0
:100E80003B903B92D59E49EC18F04F90609E74B910
:100E900052D54F9CF6D6D5EC12F0000803E0A7EC33
:100EA00012F09BD6450EAF6F39C0B0F06EC0B1F0F6
:100EB0003BAEB18F030E2E6E56EC0DF03B94D0D7A7
:100EC000450EAF6F39C0B0F0000EB16F030E2E6E3D
:100ED00056EC0DF03B9A3B943B80D3EC0EF000ECCB
:100EE00010F04F9C7AD64FB678D63ABEEDEF05F0AB
:100EF00072B91DD03BA071D63BBC6FD66BA306D098
:100F00006B93D3EC0EF000EC10F067D66B836B9113
:100F10003BB8EDEF05F0400E45EC17F0500EF76EC4
:100F20009C0EEFEC0EF0200EAAEC0EF056D672A13D
:100F300054D67375080E746E735132EC0EF0DBEC00
:100F400010F04BD63ABE08D0739B590E3B1405E007
:100F50003B8C4F8C04EC13F040D6728D6DEF08F093
:100F60004FBC02D04FB620D04F8C73BB36D63BA0BF
:100F700008D03BAC54D03BB452D072B766D072B1FB
:100F80003DD0040E475C0FE030C0DEFF472A3050F2
:100F9000300F3E6E050ED95E3EC0DFFFD9268B8630
:100FA0003E50AAEC0EF019D64FA806D04F98C1ECCF
:100FB00016F0476A20EE57F0040E475CF4E030C0AC
:100FC000DEFF472A3050300F3E6E060ED95E3EC01F
:100FD000DFFFD9268B86430E45EC17F0D9CF5BF0A7
:100FE00020EE52F047C04AF047C056F0DE50AAEC5F
:100FF0000EF04A2EFBD75BC0D9FFEFD5070E735D0D
:10100000D2E0040E475CCFE030C0DEFF472A30500C
:10101000300F3E6E8B863E50AAEC0EF0DED53BB212
:10102000DCD53BB406D0698F010EB0EC11F04F9CBB
:10103000D4D5030E475CB7E030C0DEFF472A3050FE
:101040008B86300FAAEC0EF0AED773A702D0040E39
:1010500001D0030E475CA7E030C0DEFF472A47C03F
:101060004CF030508B86300FAAEC0EF09CD73AA093
:1010700081EC0DF0330EB16E3ABEEDEF05F04FA6E8
:1010800004D04FB80DD0C1EC16F04F864FB808D041
:10109000C1EC16F0566A476A20EE57F0EDEF05F006
:1010A000E8EC16F0EDEF05F04FA81200980EAF6FC8
:1010B0004FAAAF81B06BB16B50C0B2F051C0B3F06A
:1010C000050E2E6E56EC0DF07EEC14F0120054EF6F
:1010D0000AF013EF0BF023EF09F072BF7ED53CB49A
:1010E0002FD03CB23CD03CB002D03C8076D53C8284
:1010F0003C84D3EC0EF0510EF76E8C0EEFEC0EF03C
:10110000C7EC0EF0500EF76E5A0EEFEC0EF0000E1C
:10111000C82516E01A6E640E1A5C04E21A52540EC8
:10112000AAEC0EF01A50300FAAEC0EF0C951AAEC3E
:101130000EF0000ECA2503E0300FAAEC0EF04DD5DC
:101140003C94D3EC0EF0520EF76E5A0EEFEC0EF00C
:10115000C7EC0EF0500EF76E000EF66E10D096C073
:10116000F7FF95C0F6FF0800F55002E10B00FCD731
:10117000520EF7600DD0D3EC0EF0CDEC0EF0F65021
:10118000EFEC0EF03C82F7CF96F0F6CF95F025D538
:10119000D40EF660DFD7EFD7070E665C74E04C0E16
:1011A000665C95E0850E665C94E0730E665C44E0D8
:1011B0000D0E665C03E1A5EC16F061D0E30E665CF3
:1011C00003E1B6EC16F05BD05C0E665C84E00A0EC0
:1011D000665C25E0060E665C22E0630E665C02E15A
:1011E00003EF0AF03BA016D0470E665C0DE0490EF7
:1011F000665C06E04A0E665C03E0600E665C0AE12F
:101200003950675C3CE13BD03950675C38E1E7EC32
:1012100009F035D03AB247D03AB445D047D035EC92
:1012200014F07EEC14F086EC18F07EEC14F04FAC69
:101230004DEC14F03A8E23D028EC16F000081FE194
:1012400044EC16F01CD028EC16F0000818E1FF0E54
:10125000746E3F0E756EFF0E32EC0EF0D3EC0EF096
:10126000CDEC0EF0520EF76E6E0EEFEC0EF0C7ECFA
:101270000EF0520EF76E780EEFEC0EF0FF004F906E
:10128000609E9BEF04F08A9C3A6A040E986F040EED
:101290009A6FFF0E5AEC0EF039685DEF0CF0DDEF3F
:1012A0000CF05EEF0BF0E10E665C10E0980E665CF1
:1012B000F8E0990E665CF5E09D0E665CF2E09E0E2D
:1012C000665CEFE04F90609E9BEF04F03AA431D053
:1012D0003950675CE4E14D50685CE1E14E50695C77
:1012E000DEE140EC11F00FEE6AF0DDEC09F06ACFC0
:1012F00036F0369E0A0E746E2CEC0EF0386E3B8083
:10130000729D7EEC14F0D58E3A88330EB16E04ECEB
:1013100011F04FA6E1EC0EF000EC10F03A943A9286
:10132000010E365C03E01DA004D03FD031EC14F078
:101330003CD067CF39F06BCF61F06CCF62F06DCFEE
:1013400063F068CF4DF069CF4EF040EC11F0B4EC93
:1013500017F0040E746E675032EC0EF0742A742A83
:101360004D5032EC0EF0742A4E5032EC0EF03A92A0
:1013700005EC16F06A507F0B1DA004D003E167EC6A
:1013800014F0000E366EE85201E0E806356E0FEEFE
:101390006AF0DDEC09F004EC11F0DBEC0EF04FA686
:1013A000E1EC0EF000EC10F03B803A88D58E4F90C7
:1013B000609E82EC11F09BEF04F0EFBE04D03B9EE8
:1013C0008A9E8A8C03D03B8E8A9C8A8E12000FEEF6
:1013D00068F0DDEC09F07F0EEF14010804E13B98A2
:1013E00031EC14F012001DB012007F0EEF14366EB7
:1013F00001E0E806356E04EC11F04FA6E1EC0EF0CA
:1014000000EC10F01200030E695C2EE0080E695C1F
:101410002BE03AA26AD04D50675C67E14E50685CA1
:1014200064E1010E695C04E0020E695C07E00ED025
:10143000BBEC10F0500EF76E000E0BD074854F8C85
:10144000BBEC10F0500EF76EF60E03D0BBEC10F0B4
:101450002E0EEFEC0EF07EEC14F03A923A983B90A0
:101460004F90609E9BEF04F03950675C3EE13AB4C8
:10147000A4D23BA03AD0D3EC0EF0520EF76EA20EDF
:10148000EFEC0EF0C7EC0EF0080E695C04E0520EB3
:10149000F76EB60E03D0520EF76EAC0EEFEC0EF0F8
:1014A00074894F8C3A98E5D43950675C1BE173A975
:1014B00019D068502B6E16E003080FE173A70DD00A
:1014C00073BF03D0B9EC14F011D073BD03D0C9ECD5
:1014D00014F00CD080EC17F005D026EC10F0E8509A
:1014E00001E003D07397739D739F73994F90609E33
:1014F0009BEF04F072B526D072B34FD072B726D0EE
:1015000072B111D072917285AAEC0FF0000811E14E
:10151000110E765D03E073979BEF04F03F0E731797
:1015200073879BEF04F0070E735DECE1A7EC15F0F9
:10153000EDD7100E721773977EEC14F004EC13F0D5
:10154000EDEF05F03EEC13F0EDEF05F073A703D0DF
:101550001BEC0FF002D0EEEC12F00008EAE175533C
:1015600006E1010E765D03E17FAF01D0E2D772B9EB
:1015700010D088EC14F0726B3B9CD3EC0EF000ECB6
:1015800010F03B804F9CEDEF05F07EEC14F072976D
:10159000D9D797EC14F0EDEF05F087EC0FF00008C9
:1015A0003EE1820EAF6F39C0B0F0B16B110EB26F79
:1015B0008BC0B3F0B38DB38F050E2E6E56EC0DF0CD
:1015C00086EC18F0120EB26F8CC0B3F056EC0DF032
:1015D00086EC18F0830EAF6F1D0EB26FFD0EB36F69
:1015E00056EC0DF086EC18F0210EAF6F3950B06F4D
:1015F000020E2E6E56EC0DF03B90400EAF6F8BC07E
:10160000B0F0B08DB08F8CC0B1F0030E2E6E3A8268
:1016100056EC0DF0726B3B9C4F9CEDEF05F0729514
:101620000000EDEF05F073B706D004EC15F04F9015
:10163000609EEDEF05F0C00E731528E16ABA0CD07C
:101640007397C6EC13F07399110E766FE8EC14F0F3
:101650004F90609EEDEF05F0D3EC0EF0500EF76E5C
:10166000CC0EEFEC0EF0C7EC0EF08B863D0EAAEC24
:101670000EF0200EAAEC0EF0738D110E766F4F90C7
:10168000609E7399E8EC14F0EDEF05F073BF0ED097
:101690006ACF85F0120E766F4F90609E7399738FAC
:1016A000E8EC14F04F90609EEDEF05F06ACF86F005
:1016B0002DEC15F04F90609EEDEF05F04FA82DD06A
:1016C0006950505C2AE16A50515C27E14FAE02D06C
:1016D00066B406D066B002D04F9A08D04F8A06D0C2
:1016E000CD9066B202D04F9A01D04F8A4FA615D046
:1016F000470E45EC17F02B0E4FBA03D0AAEC0EF0B4
:1017000003D02D0EAAEC0EF05C0E746E4F50E890D4
:1017100032EC0EF04FBE1CEF06F04F90609EEDEFE6
:1017200005F004000F019B8CF26A00EE00F0EE6AF7
:10173000E966FDD70F015D6B5C6B5F6B5E6BB06A3A
:10174000F16AF19E5B6900010E0E926E0E0E806EC4
:1017500086EC18F01D6A8050E8B211D01D800B0E87
:10176000926E040E896E010EC26E000EC16E3E0EA8
:10177000C06E92800F01010E5D6F5C6B00018B6A81
:101780003B0E936E816A8184000E946E826A1B68A0
:101790001C683968BB6A030ECA6E9F0ECB6E040EBE
:1017A000326E080E746E000E32EC0EF0736BD08E3B
:1017B000E06A7F6A266A276A716A6F886F8EB00E48
:1017C000726E728A7250156E0E017D6B606A306B9C
:1017D000806B906BA06BB06BC06BD06B0F0E436FC8
:1017E0009E0E446F030E456F0001200E706E240E96
:1017F000606E0F01240E306FE16BE56B00010EEEA1
:10180000F8F0EE6A000EE962FCD76F6A200E786E7F
:101810009F6AA26AA06AF16AF06AB06A200E766EC8
:101820009E6AA16AA46AB76A776A756A3A6A609E14
:101830000F01109720970097000104008B96330E3C
:10184000AAEC0EF0320EAAEC0EF0280EAAEC0EF066
:10185000280EAAEC0EF0060EAAEC0EF00C0EAAEC66
:101860000EF0010EAAEC0EF07CEC18F00400400E15
:10187000296E580EF76E000EF66E8B962950AAEC64
:101880000EF08B860900F550AAEC0EF0292A400EC6
:10189000F662F3D78B96800EAAEC0EF08B86080EBC
:1018A0001F6E00EE4FF05C0E746E2CEC0EF0EE6EC0
:1018B000742A1F2EFAD7380E4F16A96B010E1E6E12
:1018C0003B6A726B3A6A736B3C6A746B20EE43F04E
:1018D000476A200E3F6E406E416E426E00EEC8F0C9
:1018E000CC0EEE6AE962FDD70A0E746E2CEC0EF097
:1018F000386E0DE0FC0B05E13850030A02E0388E2B
:1019000006D0386A0A0E746E385032EC0EF0070EAC
:10191000665C04E08B9E000081BA1ED0D3EC0EF012
:10192000CDEC0EF08B86520EF76E8E0EEFEC0EF0B5
:101930007CEC18F081AAFCD7D3EC0EF0CDEC0EF0C5
:101940008B8E040E986F040E9A6FFF0E5AEC0EF0F9
:1019500039684F90609E31D08B8E8B9A000081B099
:1019600002D056EC18F08B8A040E746E2CEC0EF03C
:101970001A6E010F22E01AC039F0060E746E2CECBC
:101980000EF04D6E742A2CEC0EF04E6E01EC0EF043
:101990003A6A3A80E00E776AF26E3A843B6A3B8E8E
:1019A000220EAF6F39C0B0F0020E2E6E56EC0DF065
:1019B0004FA82FD0E8EC16F02CD0F26A3968080E48
:1019C0001F6E5C0E746E00EE4FF0E86A32EC0EF0A3
:1019D000742AEE6A1F2EF9D749EC18F03B8E3A6A4A
:1019E000D3EC0EF08B86500EF76E500EEFEC0EF02F
:1019F000C7EC0EF08B86500EF76E5A0EEFEC0EF021
:101A0000040E300FAAEC0EF0680EAAEC0EF03A8C21
:101A10008A8E6B6B616B626B636B646B656B696BFE
:101A2000476A6E6B356A336AD76AD66A870ED56E97
:101A3000776AF294040E236E7F0E886E330EB16EB9
:101A4000E00EF26E9BEF04F038BE04D042EC0DF0D5
:101A50003A9C1200389ED3EC0EF07CEC18F0520E3B
:101A6000F76ECA0EEFEC0EF0C7EC0EF038A004D003
:101A7000510EF76E4E0E03D0510EF76E480EEFEC7E
:101A80000EF01200D3EC0EF07CEC18F08B86500EAA
:101A9000F76E600EEFEC0EF0C7EC0EF08B863D0E8D
:101AA000AAEC0EF0200EAAEC0EF0120000EEA9F047
:101AB0001FEE10F02EC0AEF00A0E276E06D000EE1C
:101AC0009BF01FEE20F00A0E266EEF6A0F0EEC164A
:101AD000B00EEF12E9066EEC0DF01200716A040010
:101AE000E7B6FDD7E9500E0FEECFE6FFE962FCD76F
:101AF0000E0EE15E020EE3960B0EE76EE7B6FED722
:101B00001200E1CFB8F0E2CFB9F04F820E0E1F6E97
:101B100000EEBAF0EE6A1F2EFDD7A092A192040E3D
:101B2000246E320EB16EB36AB26AB1800F01BF0E7D
:101B3000116FE00E126F400E156F10B7FED71087B1
:101B400010B7FED7156B0001A1B215D071BE01D040
:101B5000FBD76F500F0B136E7250F00B1310726E99
:101B600062B607D04FA205D0655203E1E4EC0DF058
:101B700000D0609EE9D7A192242EE6D7040E246EF1
:101B8000B1901E6A1E2AB76BB78110EEBAF0E72833
:101B900004E1080E1E26E12AFAD7B751E71403E044
:101BA000B7371E2AFAD7640E1E6030EC16F0000E0E
:101BB000746E1E5032EC0EF01E5001EC0EF0B8C0E8
:101BC000E1FFB9C0E2FF1200656612006138E83239
:101BD000780B286E6238E842070B28101E6E10EE54
:101BE000BAF0B76BB781080E1E6403D01E5EE12AFF
:101BF000FBD71E4E02D0B747FCD7B751E712609E05
:101C00001200000E746E7F807350176E1EEC0EF083
:101C1000F00EAA179C171850AA139C131950AB6FFB
:101C20009D6F0F010097016B1850016F1950026FE3
:101C3000B00E0113056B00013A80120017C019F0B5
:101C4000193A1944E00B196E17C018F018421842DF
:101C500018400F0B186E12007F9E7F9C7F80000043
:101C600073501200206A1A6E736E7F9E7F9C7F8471
:101C7000F2CF16F0F26A550E7E6EAA0E7E6E7F824D
:101C80007FB2FED7B79C7F942CEC0EF01A6203D083
:101C900016C0F2FF1200202A20A40AD0D3EC0EF0C6
:101CA0007CEC18F08B86520EF76EC00EEFEC0EF047
:101CB0001A50DAD700EE98F0EECF74FFEE6E32ECE9
:101CC0000EF0ED0603E0ED50EF2AF6D712002F6A72
:101CD000F50E8B16F10E8B128B9095EC0EF08B801F
:101CE0002FAE01D01200040E2F268B9895EC0EF02B
:101CF0008B882FAE01D01200040E2F268B9A95EC04
:101D00000EF08B8A2FAE02D01200040E2F268B9C71
:101D100095EC0EF08B8C2FAE01D01200040E2F2606
:101D20008B9E95EC0EF08B8E120081B003D0000ECE
:101D30002F260ED081B203D0010E2F2609D081B8F4
:101D400003D0020E2F2604D081BA1200030E2F26D4
:101D50002F8E1200286E0F0E8B16F00E28148B1289
:101D60008DEC18F08B828DEC18F08B920F0E8B1689
:101D7000283AF00E28148B128DEC18F08B828DEC23
:101D800018F08B927CEC18F0283A285012008B96B1
:101D9000C00EAAEC0EF08B8612008B96020EAAECF7
:101DA0000EF08B8612008B96010EAAEC0EF07CECE6
:101DB00018F08B861200000E45EC17F0E7EC0EF0E1
:101DC0001200400E45EC17F0E7EC0EF01200080E82
:101DD0003D6E200EAAEC0EF03D2EFCD712008B8635
:101DE000F66E080E216E7F8E0900F55004E0AAEC15
:101DF0000EF02106F9E17F9E1200C282C2B2FED728
:101E00004F94C4CF34F0345007E0344A3406344A97
:101E100034063442349E3450355C0CE034C035F026
:101E2000345006E034C036F0362A36BE360601D0CD
:101E3000366A4F8412004D6A4E6AD906475227E02F
:101E400047B44D8EDDCF4EF0470618E00A0EDD0296
:101E5000F3504E26470612E0640EDD02F3504E2684
:101E6000F4504D2247060AE0E80EDF02F3504E26FA
:101E7000F4504D22030EDF02F3504D26DC5004E0F7
:101E80004D5202E14EAE12004D8E4D8C000C010CF5
:101E90009DEC17F0506A516AD906DDCF51F0470624
:101EA00018E00A0EDD02F3505126470612E0640ED8
:101EB000DD02F3505126F450502247060AE0E80EA6
:101EC000DF02F3505126F4505022030EDF02F3508C
:101ED00050265D0E746E505032EC0EF0742A515044
:101EE00032EC0EF0742A525032EC0EF0742A535039
:101EF00032EC0EF0742A545032EC0EF0742A555025
:101F000032EC0EF0742A565032EC0EF012004752AA
:101F100020E08B6B8C6BD906DDCF8CF0470618E088
:101F20000A0EDD02F3508C27470612E0640EDD0234
:101F3000F3508C27F4508B2347060AE0E80EDF02AB
:101F4000F3508C27F4508B23030EDF02F3508B27C2
:101F5000000C010C806B816B826B475233E047C0F1
:101F60004BF047C049F0766B756BD906DDCF76F044
:101F7000470618E00A0EDD02F3507627470612E006
:101F8000640EDD02F3507627F450752347060AE00D
:101F9000E80EDF02F3507627F4507523030EDF02BC
:101FA000F3507527755302E176530CE0040E75610A
:101FB00009D073A3000C73B10AD0755303E1080E66
:101FC0007665000C7B6B7C6B7D6B7E6B010C7553B7
:101FD000F9E1630E7665000C010C000905E0B26FB3
:101FE000610EAF6F040E03D0400EAF6F030E2E6E66
:101FF0004DC0B0F04EC0B1F03A8256EC0DF0120078
:10200000DBEC0EF0CDEC0EF08B863F50AAEC0EF020
:102010004050AAEC0EF04150AAEC0EF04250AAEC4F
:102020000EF0200EAAEC0EF017EC10F0120004ECEB
:1020300011F0050E45EC17F05E50AAEC0EF05F5063
:10204000AAEC0EF06051AAEC0EF0120073A7C6ECD9
:1020500013F0010E2B5C0DE0020E2B5C18E0030E5A
:102060002B5C1EE0040E2B5C74E0050E2B5C7AE00A
:10207000000C73A703D0420E45EC17F0510EF76E1B
:10208000140EEFEC0EF07EEC14F0738B000C510E7E
:10209000F76E1E0EEFEC0EF07EEC14F0738B000C5E
:1020A00073B7010CD3EC0EF0030E7315E8A22CD01D
:1020B000E8B00AD0520EAAEC0EF0650EAAEC0EF0B3
:1020C000670EAAEC0EF026D0510EF76E380EEFEC2C
:1020D0000EF0C7EC0EF03D0EAAEC0EF0200EAAECAE
:1020E0000EF04BC049F0F9EC13F0200EAAEC0EF004
:1020F000200EAAEC0EF0510EF76E240EEFEC0EF04F
:102100007EEC14F0738B000C430EAAEC0EF0560E0E
:10211000AAEC0EF0200EAAEC0EF04BC049F0F9EC40
:1021200013F0C7EC0EF03D0EAAEC0EF0200EAAEC58
:102130000EF04CC049F010EC14F0200EAAEC0EF09A
:10214000510EF76E240EEFEC0EF07EEC14F0738B54
:10215000000C510EF76E280EEFEC0EF07EEC14F032
:10216000738B000C510EF76E2E0EEFEC0EF07EEC22
:1021700014F0738B000CD3EC0EF0CDEC0EF08B86CC
:102180004C0EAAEC0EF06F0EAAEC0EF0630EAAEC49
:102190000EF02E0EAAEC0EF03F50AAEC0EF04050BE
:1021A000AAEC0EF04150AAEC0EF04250AAEC0EF050
:1021B000C7EC0EF012007B6B7C6B7D6B7E6BD3ECFF
:1021C0000EF0080E746E2CEC0EF00A0D500EF76E29
:1021D000F350000FEFEC0EF0C7EC0EF073B306D027
:1021E000500EF76EE40EEFEC0EF0120073B106D055
:1021F000500EF76EEA0EEFEC0EF01200500EF76E76
:10220000F00EEFEC0EF0120035C037F0010E385C26
:1022100023E0020E385C2BE0300E5E6E5F6E606F66
:10222000640E375C03E3376E310E5E6E300E5E5C1B
:1022300002E1200E5E6E0A0E375C03E3376E5F2A02
:10224000FAD7310E5E5C05E0300E5F5C02E1200ED5
:102250005F6E3750601312003742379E3742379E09
:102260003742379E0E0E3764D7D73706D5D7374259
:10227000379E3742379E1C0E3764CED7376ECCD789
:102280003F0E4D145C6E4EC05DF0476A300E3F6EDF
:10229000406E416E426EE80E5D5E030E5C5A02E6D1
:1022A0003F2AF9D7E80E5D26030E5C22640E5D5EC0
:1022B000000E5C5A02E6402AF9D7640E5D260A0E2B
:1022C0005D5E02E6412AFBD70A0E5D2442264DBE22
:1022D000120040C03FF041C040F042C041F0200E2B
:1022E000426E300E3F5C0DE140C03FF041C040F017
:1022F000200E416E300E3F5C04E140C03FF0200EE6
:10230000406E12004F943BA012003BB21200470EE9
:10231000AF6F39C0B0F036C0B1F03BBEB18F030E25
:102320002E6E56EC0DF036040AE04FBC12003BBC9A
:1023300012003BB412003BBA120017EC10F012006E
:10234000230EA16F39C0A2F0020EA06F5FEC0DF05A
:1023500012000A0EAF6F010E2E6E56EC0DF0120039
:10236000686F030E6B150AE06BA104D00A0E3024CF
:10237000666F06D0140E3024666F02D030C066F04F
:10238000A6EC17F0676F67A30CD068B105D0679112
:102390006751ACEC17F00AD067816751ACEC17F0CD
:1023A00005D0010E671B6751ACEC17F06B5331E1A0
:1023B000200E3024746E2CEC0EF06A6F6AAD0DD0D6
:1023C000020EB16F0F0E6A1567B103D0E81E6217D7
:1023D00001D0621362C0B2F061D06AAF0DD0030EBB
:1023E000B16F0F0E6A1567B103D0E81E631701D0F5
:1023F000631363C0B2F052D0010EB16F1F0E6A15A5
:1024000067B103D0E81E611701D0611361C0B2F05B
:1024100045D06BB328D0030E305C13E72A0E30246E
:10242000746E2CEC0EF06A6F030EB16F0F0E6A150E
:1024300067B103D0E81E631701D0631363C0B2F025
:102440002DD02E0E3024746E030E745E2CEC0EF024
:1024500067B103D0E81E641701D0641364C0B2F002
:10246000040EB16F1BD0090E305C01E11200305236
:1024700003E10A0E306EE5D7360E3024E806746E9E
:102480002CEC0EF067B103D0E81E651701D0651380
:1024900065C0B2F0050EB16F20EE65F0600EAF6F53
:1024A00039C0B0F0040E2E6E56EC0DF0900E67A100
:1024B000910EAF6F1BC0B0F01CC0B1F0B26B66C024
:1024C000B3F0050E2E6E56EC0DF0400E45EC17F0F5
:1024D000460EAAEC0EF0030E6B1505E0310E6BB341
:1024E000320EAAEC0EF00A0E305C01E101D0305041
:1024F000300FAAEC0EF0200EAAEC0EF0AAEC0EF0B3
:1025000067A110D067A307D0440E45EC17F0520E18
:10251000F76E820E19D0440E45EC17F0510EF76E8F
:10252000E60E12D067A30AD0440E45EC17F0520E07
:10253000F76E880E09D03B963B921200440E45EC94
:1025400017F0510EF76EEC0EEFEC0EF012003B9A06
:1025500016D0D3EC0EF0CDEC0EF0500EF76EAE0EA2
:10256000EFEC0EF0C7EC0EF03D0EAAEC0EF0200ED4
:10257000AAEC0EF03B8420EE6FF0476A12006F6BFE
:10258000706B716BE6D7D3EC0EF0CDEC0EF0500E05
:10259000F76EAE0EEFEC0EF0C7EC0EF0500EF76ECD
:1025A000B80EEFEC0EF03B901200D906475215E042
:1025B000DDCF6EF0470610E00A0EDD02F3506E2705
:1025C00047060AE0640EDD02F3506E27F4506E23D6
:1025D00004E2800E6E6101D0000C010CD906475256
:1025E00012E0DDCF7FF047060DE00A0EDD02F3506A
:1025F0007F27470607E0640EDD02F3507F2703E2E2
:10260000F45201E1000C010C476AEF0E721519E15A
:1026100000007B6B7C6B7D6B7E6B72B979D0D3ECE9
:102620000EF0500EF76EC20EEFEC0EF0C7EC0EF08F
:10263000500EF76EE00EEFEC0EF020EE7BF07281A4
:10264000120072B965D072A113D072917283D3EC6B
:102650000EF0500EF76ECC0EEFEC0EF0C7EC0EF055
:10266000500EF76EE00EEFEC0EF020EE91F012003F
:1026700072A304D072A969D07293C6D772B913D06D
:10268000D3EC0EF0500EF76ED60EEFEC0EF0C7EC5A
:102690000EF0500EF76EE00EEFEC0EF020EE80F034
:1026A00072957287120073B56AD0D3EC0EF073A3E3
:1026B00005D073A116D094EC15F0120073B717D0A3
:1026C000510EF76E0A0EEFEC0EF0C7EC0EF0F9ECBF
:1026D00013F03D0EAAEC0EF020EE80F0729572879A
:1026E0001200500EF76E140EEFEC0EF0EED7D3EC96
:1026F0000EF0500EF76ECC0EEFEC0EF0C7EC0EF0B5
:102700008B863D0EAAEC0EF0200EAAEC0EF0E4D75C
:10271000DBEC10F020EE7BF072817297120020EE5D
:1027200080F0010E7B6F496E729772831200DE504B
:10273000300FAAEC0EF0492EFAD73D0EAAEC0EF09F
:1027400020EE80F072957287120072897281729306
:102750007385080E746E735132EC0EF0D3EC0EF0EC
:10276000500EF76E280EEFEC0EF0C7EC0EF0500E88
:10277000F76EE40EEFEC0EF020EE7BF01200C6ECEC
:1027800013F0DFEC14F0100E72171200D3EC0EF001
:1027900073A315D073B10DD0520EAAEC0EF0650ED6
:1027A000AAEC0EF0670EAAEC0EF0200EAAEC0EF0CA
:1027B00011D0510EF76E380EEFEC0EF00FD073B74C
:1027C00016D0430EAAEC0EF0560EAAEC0EF0200E18
:1027D000AAEC0EF04BC049F0F9EC13F0C7EC0EF088
:1027E0003D0EAAEC0EF0200EAAEC0EF01200000036
:1027F00012007B51300FAAEC0EF0494E12007C51B2
:10280000300FAAEC0EF0494E12007D51300FAAECA9
:102810000EF0494E12007E51300FAAEC0EF012005D
:102820008051300FAAEC0EF0494E12008151300F4A
:10283000AAEC0EF0494E12008251300FAAEC0EF0B5
:1028400012003BA00DD03BAE06D03B9E8A9E8A8CE8
:1028500082EC11F005D03B8E8A9C8A8E82EC11F0BE
:1028600012003BB817D03ABA15D03BA011D0010ED8
:10287000366E7EEC14F082EC11F04FBC08D0400EA6
:1028800045EC17F0500EF76E740EEFEC0EF03B882F
:102890003A8A1200A9EC11F03A8E7EEC14F086EC24
:1028A00018F07EEC14F04FBC1200D3EC0EF03BB0ED
:1028B00003D0C7EC0EF002D000EC10F0400E45EC57
:1028C00017F0500EF76E7E0EEFEC0EF012000400C3
:1028D000CA849EA204D09F0ECB6E9E928B74FDEC98
:1028E0000EF0020E3460F3D7CA943B8034C036F049
:1028F000366AD3EC0EF000EC10F01200320ECD6E02
:102900009E90CF6ACE6A040E256ECD80CA841200D6
:10291000820EAF6F39C0B0F075C0B1F076C0B2F0C2
:102920007FC0B3F0050E2E6E56EC0DF0120073B79B
:102930001AD0A20EAF6F39C0B0F075C0B1F076C03A
:10294000B2F0B36B020E731504E0030E7315010FA2
:10295000B36F7FC0B4F0060E2E6E56EC0DF0100E65
:10296000726F7389120073BD04D04DC07FF0738DF8
:10297000E0D773BF0ED0762B4EC07FF0030E7315D9
:1029800003E1738F739DD5D7738D738FD2D77389FE
:102990001200A20EAF6F39C0B0F075C0B1F01D0EBD
:1029A000B26F010EB36FFD0EB46F060E2E6E738DF7
:1029B000738F100E726F738956EC0DF0120073B79F
:1029C0001DD0755305E1110E765D02E117D012009E
:1029D000840EAF6F39C0B0F075C0B1F076C0B2F000
:1029E00073957351030B010FB36F050E2E6E56ECEA
:1029F0000DF0100E726F7385738912007387739DCB
:102A0000739F1D0E766FE4D73950675C01E01200AA
:102A100072A912006ACF84F0300E876F886F896FB9
:102A2000640E845D03E3846F872BFAD70A0E845DFE
:102A300003E3846F882BFAD7845189138B868751DF
:102A4000AAEC0EF08851AAEC0EF08951AAEC0EF017
:102A50007EEC14F07399738B12003950675C01E0BF
:102A6000120072A9120072A912003F0E85155C6E49
:102A700086C05DF0476A300E876F886F896F8A6FF6
:102A8000E80E5D5E030E5C5A02E6872BF9D7E80E6E
:102A90005D26030E5C22640E5D5E000E5C5A02E64B
:102AA000882BF9D7640E5D260A0E5D5E02E6892B3F
:102AB000FBD70A0E5D248A278B868751AAEC0EF07D
:102AC0008851AAEC0EF08951AAEC0EF08A51AAECBA
:102AD0000EF07EEC14F07399738B739F739D739754
:102AE0001200A96BBA6BBB6BBC6BBD6BBE6BBF6BD3
:102AF000C06BC16BC26BC36BC46BC56BC66BC76B62
:102B00007CEC18F0BF0EAA6FE00EAB6F400E2E6E7D
:102B1000040E246E320EB16EB36AB26AB1804F8277
:102B200056EC0DF0AE6B1200A20EAF6F39C0B0F0D4
:102B3000B16B010EB26F030EB36F76C0B4F0060E28
:102B40002E6E56EC0DF0726B728973891200840E32
:102B5000AF6F39C0B0F0B16B010EB26F030EB36F3F
:102B6000050E2E6E56EC0DF0726B72897389120091
:102B70004F8C72BB38D0728B000E385C07E0010EB0
:102B8000385C13E0020E385C1FE01200D3EC0EF04C
:102B9000500EF76E6A0EEFEC0EF0C7EC0EF0510E11
:102BA000F76E420EEFEC0EF01200D3EC0EF0500E6A
:102BB000F76E6A0EEFEC0EF0C7EC0EF0510EF76EEA
:102BC0004E0EEFEC0EF01200D3EC0EF0500EF76E3E
:102BD0006A0EEFEC0EF0C7EC0EF0510EF76E480ED9
:102BE000EFEC0EF01200382A030E385CD8A4C4D7DC
:102BF000386AC2D70A0E746E385032EC0EF0729BEF
:102C0000729F4F9C42EC0DF01200440EAF6F39C022
:102C1000B0F038C0B1F038B2B181030E2E6E56EC70
:102C20000DF01200EF0EAF6F200EF66E080EF76E6D
:102C300000EEB0F0070E1F6E7F8E0900F5CFEEFF9D
:102C40001F2EFBD77F9E080E2E6E56EC0DF0120045
:102C50001B50675C04E11C50685C01E1000C010C36
:102C6000FF0E1E6ED3EC0EF0510EF76E540EF66E84
:102C7000EFEC0EF0C7EC0EF0510EF76E000EF66E94
:102C8000EFEC0EF03A6A12006950000833E0140EBF
:102C900069CF28F0280628603CD09B0EAF6F070E46
:102CA000286204D08AEC16F0B36F19D00E0E286299
:102CB00004D08FEC16F0B36F12D00F0E286204D040
:102CC00093EC16F0B36F0BD0200EF66E080EF76E75
:102CD000F86A6904F6267F8E0800F5CFB3F069CF55
:102CE000B2F0050E2E6E1BC0B0F01CC0B1F056EC59
:102CF0000DF012009B0EAF6F140EB36F69CFB2F0E0
:102D0000050E2E6E1BC0B0F01CC0B1F056EC0DF0DD
:102D100012001200000E286E28862850120097EC30
:102D200016F0F350120097EC16F0F45012003F0E1C
:102D3000F86EFF0EF76EFE0EF66E7F8E0900F5CF71
:102D4000F3FF0800F5CFF4FF1200B60EAF6F1B5073
:102D5000B06F1C50B16FA50EB26F090EB36F0A0EA3
:102D6000B46F060E2E6E56EC0DF012000FEE6BF0E7
:102D700010EEC8F0EECFE6FFEECFE6FFEECFE6FFB7
:102D80001200400E45EC17F0520EF76E380EEFECC5
:102D90000EF0500EF76EE00EEFEC0EF0470E45EC25
:102DA00017F0200EAAEC0EF0430E45EC17F0200EA3
:102DB000AAEC0EF0200EAAEC0EF0200EAAEC0EF0FB
:102DC000200EAAEC0EF0430E45EC17F04F9A1200BD
:102DD000400E45EC17F0520EF76E380EEFEC0EF089
:102DE000500EF76EE00EEFEC0EF0470E45EC17F0CC
:102DF0004FBA04D02B0EAAEC0EF003D02D0EAAEC85
:102E00000EF0430E45EC17F0200EAAEC0EF0200E4B
:102E1000AAEC0EF0200EAAEC0EF0200EAAEC0EF09A
:102E2000430E45EC17F056C02AF05652BDE0525002
:102E3000AAEC0EF02A060DE05350AAEC0EF02A067A
:102E400008E05450AAEC0EF02A0603E05550AAEC14
:102E50000EF012008B96C70EAAEC0EF08B864FBABE
:102E600004D02B0EAAEC0EF003D02D0EAAEC0EF01F
:102E70008B96430E4724E88EAAEC0EF08B865C0EF0
:102E8000746E4F5032EC0EF012008B96E88EAAEC66
:102E90000EF08B861200D3EC0EF03BA00FD000ECAE
:102EA00010F03BA816D03ABE09D0400E45EC17F002
:102EB000500EF76E740EEFEC0EF012003ABE1200D8
:102EC000400E45EC17F0500EF76E7E0EEFEC0EF054
:102ED0001200030E6B1513E06BB309D0400E45ECE6
:102EE00017F0500EF76E920EEFEC0EF01200400E3F
:102EF00045EC17F0500EF76E9C0EEFEC0EF0120042
:102F0000400E45EC17F08051300FAAEC0EF08151C5
:102F1000300FAAEC0EF08251300FAAEC0EF0835164
:102F2000300FAAEC0EF0200EAAEC0EF04F0EAAEC19
:102F30000EF04B0EAAEC0EF012008B96C70EAAEC08
:102F40000EF08B86200EAAEC0EF012003E0E6625C7
:102F5000746E2CEC0EF01200286E3E0E6625746E18
:102F6000285032EC0EF0120000EE61F0666B0400A7
:102F7000A6EC17F0286E200E6625746E2CEC0EF071
:102F8000EF1402E0288001D028902850ACEC17F014
:102F9000662B130E665D08E0050E665D03E0090E04
:102FA000665DE5E1002AE3D7120069B10BD069B58F
:102FB00023D08B9A000081A002D08B8A000C8B8AD0
:102FC0006981010C8B9A000081A002D08B8A000CD1
:102FD0008B8A040074EC18F0E85201E1010C8B9A22
:102FE000000081A002D08B8A000C8B8A69831CECC4
:102FF00018F069856991010C69B109D08B9A0000BC
:1030000081B002D08B8A010C8B8A6981010C8B9A6A
:10301000000081B002D08B8A000C8B8A040074EC13
:1030200018F0E85201E1010C8B9A000081B002D047
:103030008B8A010C8B8A000C3E0E6625746E2CEC7C
:103040000EF0676F67B315D06783675132EC0EF0EF
:10305000440E45EC17F067A106D0520EF76E820EB3
:10306000EFEC0EF015D0520EF76E880EEFEC0EF06E
:103070000FD067936791675132EC0EF0440E45EC28
:1030800017F0510EF76EEC0EEFEC0EF0B0EC11F005
:1030900012003E0E746E04002CEC0EF0E89032EC40
:1030A0000EF0742A5A0E74601200F5D73E0E746E3C
:1030B0000400000E32EC0EF0742A5A0E74601200F6
:1030C000F7D79A0EAF6FB06BB16B50C0B2F051C072
:1030D000B3F0050E2E6E56EC0DF04F8E220ECD6E17
:1030E000CF6ACE6ACD8012000400312E000C322E41
:1030F000000C040E326E010C280E206E1F6A0400B4
:103100001F2E7FEF18F0202EF9D71200640E216ECB
:103110007CEC18F0212EFCD712000000000000000B
:043120000000120099
:1050000050726F6720446972000050726F672050C1
:105010006167000050726F67205265670000507230
:105020006F672041647200005265616420446972B8
:105030000000526561642050616700005265616440
:10504000205265670000526561642041647200006F
:105050004D455247204341420000566572200000F2
:1050600053454C204C4F434F000053454C20535464
:105070004550000053544F5021202020000053542D
:105080004F5020414C4C000052454C454153453F48
:10509000000046723120202020200000467232207D
:1050A0002020202000002020202020460000436FE8
:1050B0006E73697374000000636C6561723F000079
:1050C000000043566E756D62657200004C6F6E672E
:1050D00020416472000043562056616C75650000E3
:1050E0003D20000043563D2000005265673D2000F2
:1050F0004164723D200054414B454E0000000000C9
:1051000046554C4C00000000000050726F67204371
:10511000560000004E6F2041636B000000004F7688
:10512000657200004F4B00004275737900004572B4
:10513000726F720000000000416464726573730056
:1051400000007331323800007332382000007331B0
:10515000342000005365676D656E74000000447371
:1051600070617463683F0000537065656400537438
:1051700065616C3F0000000053455455500000002D
:10518000000043414200000000000000434D442065
:1051900053544E0000004C696D697400000000001B
:1051A0004C4541524E00000000004C4541524E49D2
:1051B0004E470000446F20776861743F00004D4FF8
:1051C0004E49544F5200000043757272656E740070
:1051D0000000464C694D2053657400004E6F6465B5
:1051E0002069643F00004F6E202000004F6666205B
:1051F000000053696C656E740000000053746F709A
:1052000032726576000057616C6B54696D65000001
:1052100052636E742053697A00004576656E74732C
:105220000000000044434300000000000000414C27
:105230004C0000000000000041430000526576650C
:105240007273616C0000466F727761726473000064
:105250004261636B77617264000054657374696EB8
:105260006700000008090A0B0C0D0E0F00004669CC
:10527000726D77617265000055706461746500003D
:1052800000004D6F6D2B00004D6F6D2D00005265BD
:10529000736574000000000053686172653F000090
:1052A000000053455353494F4E00000043414E43C5
:1052B000454C454400004C4F535400000000000092
:1052C0004572722045457772000053706420537414
:0452D0006570000005
:1058000008040E010F110F0008040E111F100E00E6
:1058100002040E111F100E00040A0E1111110E00C9
:10582000040A111111130D00040A0E111F100E00AD
:1058300008041E101C101E0002041E101C101E0066
:020000040030CA
:0100000015EA
:0100010002FC
:010002006697
:010003007C80
:010005008971
:010006008178
:010008000FE8
:01000900C036
:01000A000FE6
:01000B00E014
:01000C000FE4
:01000D0040B2
:0200000400F00A
:100000007F00FFFFFF000000000000000A01020364
:100010000B0405060C070809FF0D000EFF0F101159
:1000200010010204084142444881828488FF010291
:1000300004081020408001020408102040800000C5
:1000400000000000000000000000000000000000B0
:1000500000000000000000000000000000000000A0
:04006000000000009C
:0203FE000000FD
:00000001FF
