:020000040000FA
:040000001FD00ED02F
:0400080004EF04F00D
:040018000CEF04F0F5
:10002000A66E05A01200550EA76EAA0EA76EA68298
:100030000000A6B2FED712000A26D8B00B2A120082
:10004000A66AA968AA68A680A83C00EF04F0066A20
:100050001C0E056E0F019394000E006F080E016FC9
:10006000E81E056F000E026F070E036FFF0E186F7C
:10007000EB0E196FFF0E1A6FF80E1B6F030E706EEA
:100080009E0E716E030E726E200E736E6F6A0E0EF0
:10009000C16E939E939C818E818C609E040060AEA5
:1000A000FDD70FEE66F065500F0B096EF46EF5E0AC
:1000B00064B02BD010EE01F0EECFE6FFF42EFCD7AB
:1000C0000650EBE0010AD8A407D0A968AA68A86A7C
:1000D000040EA6DF819CFF000650020A05E10B6AB0
:1000E0000A6A0C900C6AD9D70650030A0AE1075035
:1000F0000A2606E108500B2203E10CB001D073D0B0
:1001000076D00650040AC9E176D00350F86EF00BA1
:10011000F36E0250F76EAA6E0150F66EA96E05A638
:1001200005D009500126E86A02220322300EF3604E
:1001300001D008D0F350300A01E12AD0F350F00A80
:10014000ACE132D005A405D0F6503F0B02E1940E8D
:1001500067DF05B2A2D7F650070B9FE1080EF46ED9
:10016000EE50F56E69DF0D00F42EFAD7080EF46E2E
:100170000A00ED50F42EFCD7840E52DF080EF46E08
:100180000900F550EE18D8A40C80F42EF9D785D7C5
:10019000EF50F56E51DF0C00C40E42DF0900F55040
:1001A000EE18F42EF5D779D7EF50A86E45DF040E80
:1001B00037DFA66AA680A850EE18D8A40C80A94AFA
:1001C000AA2AF42EF1D769D740B7FED7800E416F27
:1001D000080E426F000E436F040E446F448164A00A
:1001E000449140875AD7010E466F456FEDD7466B55
:1001F000010E456FE9D7020E466F010E456FE4D739
:06080000000011EF08F0FA
:0408080020EF04F0E9
:0C081000534552564F38430000EF05F0EE
:10082000A55513800325020B0101000800000000FC
:100830000000010000000000140010080000F90191
:10084000FA50306E080EFA6EDACF0AF0D9CF09F0FE
:10085000F2942444F92612D013D019D01FD025D0F9
:100860002DD033D03BD041D049D04FD057D05DD0E0
:1008700065D06BD073D079D081D087D0CAEF04F027
:10088000C30ED56E0A0ED66E242ACAEF04F039B014
:1008900082800A0ED66E242ACAEF04F020EE8EF073
:1008A000DF50D66E242ACAEF04F039B0829039B2F4
:1008B00082820A0ED66E242ACAEF04F020EE8FF050
:1008C000DF50D66E242ACAEF04F039B2829239B4CE
:1008D00082840A0ED66E242ACAEF04F020EE90F02D
:1008E000DF50D66E242ACAEF04F039B4829439B6A8
:1008F00082860A0ED66E242ACAEF04F020EE91F00A
:10090000DF50D66E242ACAEF04F039B6829639B881
:1009100082880A0ED66E242ACAEF04F020EE92F0E6
:10092000DF50D66E242ACAEF04F039B8829839BA5B
:10093000828A0A0ED66E242ACAEF04F020EE93F0C3
:10094000DF50D66E242ACAEF04F039BA829A39BC35
:10095000828C0A0ED66E242ACAEF04F020EE94F0A0
:10096000DF50D66E242ACAEF04F039BC829C39BE0F
:10097000828E0A0ED66E242ACAEF04F020EE95F07D
:10098000DF50D66E242ACAEF04F039BE829E246A54
:10099000CAEF04F00AC0DAFF09C0D9FF3050FA6E7E
:0209A000110044
:100A0000006ED8CF01F06FCF0BF06ECF0CF0FACFA5
:100A100003F0FA6AE9CF05F0EACF06F0E1CF07F07C
:100A2000E2CF08F00A0EFA6E0C500E0BF92618D021
:100A300006D016D015D014D013D012D011D00F017B
:100A400030AB08D01E5206E01E2E04D030973F0E69
:100A500031173087509F0001609E749E749C01D0B6
:100A6000609EA46A6F50F10B0B106F6E03C0FAFF0B
:100A700005C0E9FF06C0EAFF07C0E1FF08C0E2FFCA
:100A8000005001C0D8FF10001FB2120016A21200C1
:100A90000F0120B7FED72087000112001FB017D02A
:100AA00074BE01D014D06F500F0B0B6E7750F00B4B
:100AB0000B10776E62B60AD065AC03D044EC05F03B
:100AC00005D0655201E102D01F8001D0609E16B2B0
:100AD00001D011D09EA00FD09E901FA405D01C2E37
:100AE0000AD0817C040E1C6E1FA605D01D2E03D0DB
:100AF0000A0E1D6E520E80B478D0640E176E186AFE
:100B0000196A040E1C6E192E83EF05F01FA408D07D
:100B10009EA006D01C2E04D0817C040E1C6E9E90DC
:100B2000182E83EF05F080B447D0172E83EF05F021
:100B300016A265D01F6A819C818EF26A010E156E25
:100B4000010EA96E000E36EC0AF0510E0BEC0AF005
:100B5000126A136A80A4FED7FDEC14F080A4FAD7C1
:100B6000020EA96E000E36EC0AF0A92A000E36EC31
:100B70000AF016A20DD0010EA96E000E36EC0AF096
:100B80001F6A1692819C818EE00EF26E4EEF05F088
:100B9000010EA96E010E36EC0AF01682E00EF26E1E
:100BA000B4EC15F01F920AEC0AF01F84010EA96E36
:100BB000040E36EC0AF026D016A270D71FA66ED708
:100BC0001FA40CD01F94818C520E0BEC0AF0010E66
:100BD000A96E080E1F6E36EC0AF007D01F84B4EC25
:100BE00015F01F920AEC0AF00DD01FA20BD01F8443
:100BF0001F92010EA96E040E36EC0AF003D01F827C
:100C0000819EA8D71FA001D05ED01FA647D7D58E42
:100C1000F184E00EF26E245201E040D7A1A219D077
:100C2000A192610EB36EDF0EB26E910EB16E49509D
:100C3000485C09E02B6607D0EA0EA96E485036ECF6
:100C40000AF048C049F01FBED5EC14F0B3EC0EF02A
:100C5000242A4EEF05F01FA8DCD01F8A69EC07F0AC
:100C60008BD11FA8D6D069EC07F06A5103E06A0760
:100C7000030E6A6122D11F8C7FD1C0EC0DF00008F9
:100C80000EE149EC0AF0C5D0C0EC0DF0000807E118
:100C900069CF6CF06ACF6AF076EC0DF0BAD04EEF07
:100CA00007F084EF07F01FA4B4D003EC0EF0B1D02E
:100CB0001FA4AFD019EC0EF0ACD012501324D8A45E
:100CC00069EC0EF0A6D0900E665CEBE0910E665CCF
:100CD000E8E0920E665CE5E0980E665CE2E0990E54
:100CE000665CDFE09A0E665CDCE0960E665C5BE0BC
:100CF0005C0E665C5EE05D0E665C43E0730E665CF7
:100D000068E0750E665C4BE0420E665C2EE00D0EF0
:100D1000665CD3E0100E665CC6E0110E665CC8E04F
:100D2000530E665C6FE0540E665C62E0550E665CC6
:100D300026E0560E665C1BE0D20E665C1AE0950E4D
:100D4000665C89E0B20E665C8CE0570E665C2DE056
:100D5000720E665C10E0580E665C0FE09C0E665CDE
:100D600093E0710E665C23E054D00DEF07F03EEF88
:100D700007F052EF07F060EF07F03DEF06F040EFAD
:100D800007F0C0EC0DF000080CE1B4EC15F0520EC9
:100D90000BEC0AF0609E080E1F6E09EF07F028EFBB
:100DA00007F04EEF07F09FEF07F098EF07F08DEF99
:100DB00007F016A20AD0C0EC0DF000086FE1FF0E9C
:100DC000A96EFF0E36EC0AF0FF006750682466E15A
:100DD000F6D716A207D0C0EC0DF000085FE12FECAB
:100DE0000EF017D06750682459E12FEC0EF011D0A7
:100DF000C0EC0DF0000852E11F981F9A1FBE8DEC49
:100E00000EF007D0C0EC0DF0000848E11F88818C7F
:100E100000D0609E1F904EEF05F01FA4FAD7D4ECCF
:100E200009F0010EA96E080E36EC0AF01F921F940D
:100E30001F860A0E1D6E520E0BEC0AF0818C819EED
:100E4000610EB36EDF0EB26E910EB16E9DEF08F0C3
:100E5000C0EC0DF0000822E169CF15F000EC16F0AF
:100E6000520E0BEC0AF009EF07F01FA4D2D7500E78
:100E7000A46F030E236EB1EC0DF0CBD7B4EF07F0E7
:100E8000C0EC0DF000080AE11FA809D082EC0BF0BD
:100E900051EC16F0590E0BEC0AF0AFD7BAD7020E90
:100EA00079EF0EF01FA8B5D769EC07F06A5105E09D
:100EB0006A07030E6A6101D05FD0060E79EF0EF06B
:100EC000C0EC0DF00008EAE169CF6CF04DEC0DF0DC
:100ED000A0D766CF65F067CF66F068CF67F069CFBF
:100EE00068F06ACF69F06BCF6AF06CCF6BF0980E48
:100EF000665C07E0990E665C04E09A0E665C01E0B1
:100F00001200666B676B120069EC07F016A281D7BE
:100F10001CEC0CF000081BE07CD7C0EC0DF00008C6
:100F2000BDE104EC15F009EF07F0030E79EF0EF0C8
:100F3000C0EC0DF00008B2E1EDEC0CF06AD7C0ECAB
:100F40000DF0000802E116EC15F009EF07F0F3ECE4
:100F50000BF0EECF4EF0EECF50F0EECF51F0EECFE3
:100F600052F0A3EC08F055D7C0EC0DF0000896E164
:100F7000A5EC0DF04ED700D016A209EF07F01CEC3F
:100F80000CF0000814E01FBC0ED01FBA41D0020EB6
:100F90006A5D02E15EEC15F055EC0AF0000806E02F
:100FA000040E81EF0EF0050E81EF0EF031D01FBC64
:100FB00017D01FAA0DD0F3EC0BF0020EEBCF51F0BF
:100FC00033EC16F0D4EC0AF0590E0BEC0AF020D0FA
:100FD000020E6A5D02E15EEC15F055EC0AF018D0E5
:100FE000F3EC0BF06AC0A9F0A92B6A51EBCFAAF081
:100FF000D30EA46F66C0A5F067C0A6F068C0A7F0C6
:1010000069C0A8F0070E236EB5EC0DF001D01F9853
:101010001F9C609E1F90FA6A09EF07F0060E81EF91
:101020000EF0C26A0F0EC16E8B68000E946E00EE59
:1010300000F0EE6AE966FDD7F26A070E926E3B0E8B
:10104000936E819C819E8184D08EE06AA66A1F6A1D
:101050001E6A6F8EB00E776E778A77500E6E0F0114
:10106000F86B606A506B206B306B406B506B606B41
:10107000706B0001030E706E9E0E716E030E726E29
:10108000200E736E240E606E0FEE18F0EE6A200EC6
:10109000E962FCD76F6ABD6AB10ECD6E000ECF6EED
:1010A000430ED56E9E6B000EA56E9F6AA26AA06A63
:1010B000316A326A336A346A3E6A3F6A2A6A2B6A44
:1010C0003A6A3B6A2D6A010E156EF16AF06A200ECB
:1010D000A36E9E6AA16A609E749E749CA46A246A30
:1010E000E5EC0DF0BAEC14F04BEC0BF0476A166A25
:1010F000010EA96E31EC0AF01F6E080805E0000E23
:101100001F6E36EC0AF012D01682E7EC09F01FB41D
:1011100006D0610EB36EDF0EB26E910EB16E819E7F
:101120001FA4818C609E1F909DEF08F01692126A9A
:10113000136A819C818E4EEF05F007EC14F0FF0ED0
:101140002C6E4EEF05F0920E655D08E09A0E655D1F
:1011500005E0830E5114E8AE03D0120041EF09F010
:10116000030801E116D04E5065A1E81E5018206E0C
:101170004E5020164E1C28142010276E28182912B5
:1011800027C028F02950E81E4E1401E112002A6EF3
:1011900012002B661200EA0EA96E31EC0AF01B6EEB
:1011A0003C901BB03C80010E426E80EC15F0F4ECDC
:1011B00014F0010E77EC14F0F4EC14F03C901BB238
:1011C0003C80020E426E80EC15F0F4EC14F0020E3E
:1011D00077EC14F0F4EC14F03C901BB43C80030E5C
:1011E000426E80EC15F0F4EC14F0030E77EC14F082
:1011F000F4EC14F03C901BB63C80040E426E80EC84
:1012000015F0F4EC14F0040E77EC14F0F4EC14F098
:101210003C901BB83C80050E426E80EC15F0F4EC5F
:1012200014F0050E77EC14F0F4EC14F03C901BBABB
:101230003C80060E426E80EC15F0F4EC14F0060EC5
:1012400077EC14F0F4EC14F03C901BBC3C80070EDF
:10125000426E80EC15F0F4EC14F0070E77EC14F00D
:10126000F4EC14F03C901BBE3C80080E426E80EC07
:1012700015F0F4EC14F0080E77EC14F0F4EC14F024
:1012800012005140E842070B176E186A175204E02B
:10129000100E18261706FAD792EC09F0176A178075
:1012A000E85003E01746E804FBD7010E51141DE097
:1012B00017503F140DE0920E655D05E1940EA46F8A
:1012C000B5EC0DF012009E0EA46FB1EC0DF0120003
:1012D000920E655D05E1930EA46FB5EC0DF0120062
:1012E0009D0EA46FB1EC0DF0120017503E140DE0EE
:1012F000920E655D05E1940EA46FB5EC0DF0120041
:101300009E0EA46FB1EC0DF01200920E655D05E12A
:10131000930EA46FB5EC0DF012009D0EA46FB1EC0E
:101320000DF01200060E1824A96E5150030B176E13
:10133000E86A175203E0040F1706FBD7A92631EC21
:101340000AF0A56FA92A31EC0AF0A66FA92A31ECA0
:101350000AF0A76FA92A31EC0AF0A86F050E236ED8
:101360001200E1CF07F0E2CF08F0E9CF05F0EACFB5
:1013700006F000EE9EF01FEE30F00F0130B7FED702
:101380000001EE50E66EAC0EE962FBD70F0130B7FC
:10139000FED73087000107C0E1FF08C0E2FF05C0AB
:1013A000E9FF06C0EAFF120067CF12F068CF13F022
:1013B000020EA96E675036EC0AF0A92A685036EC86
:1013C0000AF0010EA96E080E36EC0AF01200000EAB
:1013D000A96EA680A8500F6E15EC0AF0F00E9F17AC
:1013E00010509F131150A06F020EA96E31EC0AF03D
:1013F000126EA92A31EC0AF0136E0F0120B7FED746
:10140000216B1050216F1150226FB00E2113256BEC
:1014100000011200500EA46F12C0A5F013C0A6F078
:10142000030E236EB1EC0DF012000FC011F0113A53
:101430001144E00B116E0FC010F01042104210402A
:101440000F0B106E120062CF11F0113A1140070B12
:10145000116E61CF10F0104610461044780B111039
:101460001200A69EA69CA680A8501200A86EA69E5A
:10147000A69CA684F2CF0DF0F26A550EA76EAA0EB6
:10148000A76EA682A6B2FED7A198A6940DC0F2FFC1
:101490001200050EA96E31EC0AF0A76F740EA46F4E
:1014A000040E236EB1EC0DF0120000D01FBA000C38
:1014B0001CEC0CF000080FE1F3EC0BF062B100D073
:1014C0006A516BC0EBFF87EC0CF062B1000C590E57
:1014D0000BEC0AF0000C040EA96E31EC0AF00008C7
:1014E00001E1010CFC0EA96E31EC0AF0566EFD0E06
:1014F000A96E31EC0AF0576E5C6601D00DD0EBECB2
:101500000BF05D50B5EC0CF0060EE92656C0EEFF70
:1015100057C0EEFF81EC0CF0F3EC0BF05750B5EC3C
:101520000CF0040EE926FC0EA96EEE5036EC0AF023
:10153000FD0EA96EEE5036EC0AF05EC0A9FF5650C3
:1015400036EC0AF0A92A575036EC0AF05750B5ECA1
:101550000CF066C0EEFF67C0EEFF68C0EEFF69C02A
:10156000EEFF5CC0EEFF5DC0EEFFEE6AEE6A080EB5
:101570006D6F000EEB6AE82A6D2FFCD75F50BE0F2F
:10158000A96E31EC0AF0E82A36EC0AF0050EA96ED5
:1015900031EC0AF0010F36EC0AF0A90631EC0AF042
:1015A000E80636EC0AF08AD71CEC0CF0000801E0E3
:1015B0001200FC0EA96E31EC0AF0606FFD0EA96EF0
:1015C00031EC0AF0616FF3EC0BF05750B5EC0CF016
:1015D000040EE926EFCF5AF060C0EEFFEFCF5BF0CC
:1015E00061C0EEFFEFCF58F0EE6AEFCF59F0EE6A30
:1015F000FC0EA96E565036EC0AF0FD0EA96E57503F
:1016000036EC0AF087EC0CF0586601D011D058C0C7
:1016100056F059C057F0F3EC0BF05750B5EC0CF006
:10162000040EE9265AC0EEFF5BC0EEFF87EC0CF01B
:101630005EC0A9FF5A5036EC0AF0A92A5B5036EC7E
:101640000AF05A6601D011D05AC056F05BC057F06C
:10165000F3EC0BF05750B5EC0CF0060EE92658C031
:10166000EEFF59C0EEFF87EC0CF05F50BE0FA96E85
:1016700031EC0AF0E80636EC0AF0050EA96E31EC02
:101680000AF0E80636EC0AF0A90631EC0AF0010F80
:1016900036EC0AF01200626B040EA96E31EC0AF00F
:1016A000206EA92A31EC0AF02026800E206201D09B
:1016B0001200C8EC0DF0050EA96E31EC0AF04C6E6C
:1016C00082EC0BF04C6601D01200628112EE00F049
:1016D00022EE80F0E6CF66F0E6CF67F0E6CF68F066
:1016E000E6CF69F0000E6A6FDECF6BF058EC0AF0BF
:1016F000010E6A6FDECF6BF058EC0AF04C2EEAD781
:10170000626B1200050EA96E000E36EC0AF0800E18
:10171000A90636EC0AF0100E176EEC0EA96E000E3C
:1017200036EC0AF0A92A172EFAD7080E176EBE0E4D
:10173000A96E000E36EC0AF0A92A172EFAD756EC3D
:101740000CF0FC0EA96E300E566E36EC0AF0FD0E53
:10175000A96E000E576E36EC0AF079EC0CF0586A60
:10176000596A800E176E57C020F056C021F02050E5
:10177000B5EC0CF0100E2026000E2122EE6AEE6A67
:10178000EE6AEE6A17061BE021C0EEFF20C0EEFFF6
:1017900058C0EEFF59C0EEFF56C058F057C059F080
:1017A0001750030B05E0100E5726000E5622DFD708
:1017B00087EC0CF0100E5726000E5622D4D7206A64
:1017C00020C0EEFF20C0EEFF58C0EEFF59C0EEFF74
:1017D00087EC0CF01200C00E5D14F66E5C50F76ED4
:1017E000400E6D6F08D0C00E5714F66E5650F76E4F
:1017F000F86A400E6D6FF86AEACF64F0E9CF63F0E3
:1018000001EE00F00900F550EE6E6D2FFBD763C0BE
:10181000E9FF64C0EAFF1200F86A56C0F7FF57C03C
:10182000F6FF100E6D6FE7D7F86A56C0F7FF57C086
:10183000F6FF080E6D6FDFD7070E6915206E5F6E1D
:101840002046EC0E20245E6EA96E31EC0AF0566E36
:101850005C6EA92A31EC0AF0576E5D6E566601D0B7
:10186000010C5750F66E5650F76EF86A4B6A090035
:10187000F55066634B2A0900F55067634B2A09004F
:10188000F55068634B2A0900F55069634B2A4B6693
:1018900006D05750B5EC0CF0080EE926000C0900F4
:1018A000F550566E0900F550576ED8D7200E176EBA
:1018B000000EF66E300EF76EF86A67EC0CF0172E1D
:1018C00001D01200400EF626000EF722F6D7A68EA3
:1018D000A69CA684A688F2CF0DF0F26A550EA76EDC
:1018E000AA0EA76EA6820000000000000DC0F2FF45
:1018F000120001EE00F0400E6D6FEE6A6D2FFDD705
:101900001200C00E5D14F66E5C50F76E05D0C00E6E
:101910005714F66E5650F76EF86A67EC0CF001EE4D
:1019200000F0020E6E6F1F0E6D6FEE50F56E0D0023
:101930006D2FFBD7EE50F56E0C00A5EC0CF0F62ADF
:10194000000EF7226E2FEFD71200A68EA69CA69847
:10195000A684F2CF0DF0F26A550EA76EAA0EA76EFE
:10196000A68200000DC0F2FF1200E83A030BE86601
:1019700003D001EE00F01200E806E86603D001EEA5
:1019800010F01200E806E86603D001EE20F0120025
:1019900001EE30F012001CEC0CF0000803E06B6B61
:1019A0006A6B08D00CEC0CF001EE08F06A51EB50B9
:1019B0006B6F6A2BD30EA46F00C1A5F001C1A6F016
:1019C00002C1A7F003C1A8F06AC0A9F06BC0AAF0D9
:1019D000070E236EB5EC0DF01200206A050EA96EFD
:1019E00031EC0AF000082CE0AB6B080E4C6EEC0EEC
:1019F000A96E31EC0AF0566EA92A31EC0AF0576E46
:101A0000566604D04C0620E0A92AF3D714EC0CF05B
:101A1000AB2B00C1A7F001C1A8F002C1A9F003C11E
:101A2000AAF0F20EA46F080E236EB1EC0DF0EBECF1
:101A300014F0EBEC14F004C156F005C157F0E0D7F8
:101A4000070E85EC0EF0120012005F6A4C6A4D6AB8
:101A50005F50BE0FA96E31EC0AF0000F05E04D2675
:101A60004D506C6101D004D04DC04CF05F2AF0D7CE
:101A70005F44EC0FA96E31EC0AF0566EA92A31ECE6
:101A80000AF0576E6C514C6012004C2A14EC0CF0AA
:101A900004C156F005C157F0F5D7050EA96E31EC1B
:101AA0000AF000081FE06C511DE06C07050EA96EDE
:101AB00031EC0AF06C6116D025EC0DF014EC0CF052
:101AC00000C1A7F001C1A8F002C1A9F003C1AAF0AA
:101AD0006C2B6CC0ABF0F20EA46F080E236EB1EC51
:101AE0000DF01200070E85EC0EF01200050EA96E27
:101AF00031EC0AF00008F6E06C51F4E06C07050EDA
:101B0000A96E31EC0AF06C61EDD76A511AE06A07F0
:101B1000030E6A6116D025EC0DF00CEC0CF001EE12
:101B200008F06A51EBCFA9F06A2B6C2BB50EA46FAD
:101B30006CC0A7F06AC0A8F0060E236EB1EC0DF0E1
:101B40001200060E85EC0EF01200040EA96E31ECA8
:101B50000AF0A76F700EA46F040E236EB1EC0DF0A7
:101B6000120012C0A5F013C0A6F02350A36F0F0EF1
:101B70009F17B00E9F130A0E1E6EB1EC09F01200F3
:101B80001250675C04E11350685C01E1000C010C29
:101B9000200E176ED8901746174602EE00F0060E7C
:101BA000A96EA680A850EE6EA92A172EFAD7200E8D
:101BB000176ED89002EE80F0860EA96EA680A8500F
:101BC000EE6EA92A172EFAD71200200E176E01EE1C
:101BD00080F0CA0EA96EA680A850EE6EA92A172E14
:101BE000FAD7A680A850496E040E176E00EE43F097
:101BF000C60EA96EA680A850EE6EA92A172EFAD797
:101C000043C03DF01200EF0EA46F200EF66E080EDA
:101C1000F76E00EEA5F0070E176EA68E0900F5CF41
:101C2000EEFF172EFBD7A69E080E236EB5EC0DF027
:101C30001200E20EA46F100EF66E080EF76E00EEA4
:101C4000A5F0070E176EA68E0900F5CFEEFF172E32
:101C5000FBD7A69E080E236EB5EC0DF0120069505E
:101C6000000821E0140E69CF20F02006206026D065
:101C70009B0EA46F070E206204D062EC0EF0A86FDA
:101C80000BD0200EF66E080EF76EF86A6904F62681
:101C9000A68E0800F5CFA8F069CFA7F0050E236E39
:101CA000B1EC0DF012009B0EA46F140EA86F69CF5B
:101CB000A7F0050E236EB1EC0DF012000A0E85ECB4
:101CC0000EF01200010E16B20409206E208620507C
:101CD0001200FDEC14F0B60EA46FA50EA76F130E44
:101CE000A86F62EC0EF0A96F060E236EB1EC0DF03A
:101CF000120085EC0EF009EF07F085EC0EF009EF0D
:101D000008F085EC0EF008EF08F0A76F6F0EA46FD7
:101D1000040E236EB1EC0DF0120021EE80F0200EC7
:101D2000176ECA0EA96EDE5036EC0AF0A92A172EDD
:101D3000FAD720EE43F0040E176EC60EA96EDE50E1
:101D400036EC0AF0A92A172EFAD71F9E590E0BEC73
:101D50000AF01200CC0FF66E2C0EF76E000EF72272
:101D60000900F55012003C6A21EE80F010EE8EF072
:101D70002DB005D045B002D029903B802D8029A000
:101D8000D7EF0EF046A004D02BB002D02B668BD03C
:101D9000299039803A903B902B8028B03C803E902F
:101DA0003F90010E426E4AEC14F01E0E316E2AA0D6
:101DB00002D02A906AD03BB053EF0FF028A011EF69
:101DC0000FF03C80030EDB50AAEC0EF0AC6F010E5E
:101DD000426E010EDBCF2FF02CB080EC15F02C9072
:101DE000E750965DD8B480EC15F0E7502F5CD8B47E
:101DF00041EF0FF0D8A007EF0FF0AC6703EF0FF043
:101E0000E72A53EF0FF0AC07E72AE7EF0EF0AC67D5
:101E10000DEF0FF0E70653EF0FF0AC07E706E7EF23
:101E20000EF03C90020EDB50AAEC0EF0AC6F010EEF
:101E3000426E000EDBCF2FF02CB080EC15F02C9012
:101E4000E750965DD8B480EC15F0E7502F5CD8B41D
:101E500041EF0FF0D8A037EF0FF0AC6733EF0FF082
:101E6000E72A53EF0FF0AC07E72A17EF0FF0AC6744
:101E70003DEF0FF0E70653EF0FF0AC07E70617EF63
:101E80000FF03AB010D03A802B903C6A489028B0BE
:101E9000488028B03C8028A002D03F8001D03E80FE
:101EA000010E77EC14F010EE8FF02DB205D045B294
:101EB00002D029923B822D8229A274EF0FF046A214
:101EC00004D02BB202D02B668BD0299239823A9261
:101ED0003B922B8228B23C803E923F92020E426E91
:101EE0004AEC14F01E0E326E2AA202D02A926AD058
:101EF0003BB2F0EF0FF028A2AEEF0FF03C80070EE0
:101F0000DB50AAEC0EF0AD6F020E426E050EDBCF79
:101F10002FF02CB280EC15F02C92E750975DD8B4DE
:101F200080EC15F0E7502F5CD8B4DEEF0FF0D8A0AE
:101F3000A4EF0FF0AD67A0EF0FF0E72AF0EF0FF07E
:101F4000AD07E72A84EF0FF0AD67AAEF0FF0E706C1
:101F5000F0EF0FF0AD07E70684EF0FF03C90060EB0
:101F6000DB50AAEC0EF0AD6F020E426E040EDBCF1A
:101F70002FF02CB280EC15F02C92E750975DD8B47E
:101F800080EC15F0E7502F5CD8B4DEEF0FF0D8A04E
:101F9000D4EF0FF0AD67D0EF0FF0E72AF0EF0FF0BE
:101FA000AD07E72AB4EF0FF0AD67DAEF0FF0E70601
:101FB000F0EF0FF0AD07E706B4EF0FF03AB210D034
:101FC0003A822B923C6A489228B2488228B23C80DE
:101FD00028A202D03F8201D03E82020E77EC14F09C
:101FE00010EE90F02DB405D045B402D029943B8476
:101FF0002D8429A411EF10F046A404D02BB402D0F4
:102000002B668BD0299439843A943B942B8428B442
:102010003C803E943F94030E426E4AEC14F01E0E38
:10202000336E2AA402D02A946AD03BB48DEF10F00C
:1020300028A44BEF10F03C800B0EDB50AAEC0EF006
:10204000AE6F030E426E090EDBCF2FF02CB480EC86
:1020500015F02C94E750985DD8B480EC15F0E7505B
:102060002F5CD8B47BEF10F0D8A041EF10F0AE6732
:102070003DEF10F0E72A8DEF10F0AE07E72A21EFD1
:1020800010F0AE6747EF10F0E7068DEF10F0AE07E7
:10209000E70621EF10F03C900A0EDB50AAEC0EF0A0
:1020A000AE6F030E426E080EDBCF2FF02CB480EC27
:1020B00015F02C94E750985DD8B480EC15F0E750FB
:1020C0002F5CD8B47BEF10F0D8A071EF10F0AE67A2
:1020D0006DEF10F0E72A8DEF10F0AE07E72A51EF11
:1020E00010F0AE6777EF10F0E7068DEF10F0AE0757
:1020F000E70651EF10F03AB410D03A842B943C6AC2
:10210000489428B4488428B43C8028A402D03F8452
:1021100001D03E84030E77EC14F010EE91F02DB652
:1021200005D045B602D029963B862D8629A6AEEF6E
:1021300010F046A604D02BB602D02B668BD0299681
:1021400039863A963B962B8628B63C803E963F963B
:10215000040E426E4AEC14F01E0E346E2AA602D013
:102160002A966AD03BB62AEF11F028A6E8EF10F0C5
:102170003C800F0EDB50AAEC0EF0AF6F040E426EE7
:102180000D0EDBCF2FF02CB680EC15F02C96E7501F
:10219000995DD8B480EC15F0E7502F5CD8B418EFF7
:1021A00011F0D8A0DEEF10F0AF67DAEF10F0E72AF9
:1021B0002AEF11F0AF07E72ABEEF10F0AF67E4EFA8
:1021C00010F0E7062AEF11F0AF07E706BEEF10F0B8
:1021D0003C900E0EDB50AAEC0EF0AF6F040E426E78
:1021E0000C0EDBCF2FF02CB680EC15F02C96E750C0
:1021F000995DD8B480EC15F0E7502F5CD8B418EF97
:1022000011F0D8A00EEF11F0AF670AEF11F0E72A36
:102210002AEF11F0AF07E72AEEEF10F0AF6714EFE7
:1022200011F0E7062AEF11F0AF07E706EEEF10F026
:102230003AB610D03A862B963C6A489628B648861D
:1022400028B63C8028A602D03F8601D03E86040EE8
:1022500077EC14F010EE92F02DB805D045B802D00E
:1022600029983B882D8829A84BEF11F046A804D067
:102270002BB802D02B668BD0299839883A983B9896
:102280002B8828B83C803E983F98050E426E4AEC59
:1022900014F01E0E356E2AA802D02A986AD03BB8D8
:1022A000C7EF11F028A885EF11F03C80130EDB502A
:1022B000AAEC0EF0B06F050E426E110EDBCF2FF0C0
:1022C0002CB880EC15F02C98E7509A5DD8B480ECCF
:1022D00015F0E7502F5CD8B4B5EF11F0D8A07BEF24
:1022E00011F0B06777EF11F0E72AC7EF11F0B007F0
:1022F000E72A5BEF11F0B06781EF11F0E706C7EF57
:1023000011F0B007E7065BEF11F03C90120EDB50C6
:10231000AAEC0EF0B06F050E426E100EDBCF2FF060
:102320002CB880EC15F02C98E7509A5DD8B480EC6E
:1023300015F0E7502F5CD8B4B5EF11F0D8A0ABEF93
:1023400011F0B067A7EF11F0E72AC7EF11F0B0075F
:10235000E72A8BEF11F0B067B1EF11F0E706C7EF96
:1023600011F0B007E7068BEF11F03AB810D03A88B9
:102370002B983C6A489828B8488828B83C8028A8F8
:1023800002D03F8801D03E88050E77EC14F010EEA5
:1023900093F02DBA05D045BA02D0299A3B8A2D8AEE
:1023A00029AAE8EF11F046AA04D02BBA02D02B6676
:1023B0008BD0299A398A3A9A3B9A2B8A28BA3C8040
:1023C0003E9A3F9A060E426E4AEC14F01E0E366E8E
:1023D0002AAA02D02A9A6AD03BBA64EF12F028AA3D
:1023E00022EF12F03C80170EDB50AAEC0EF0B16F1A
:1023F000060E426E150EDBCF2FF02CBA80EC15F0D6
:102400002C9AE7509B5DD8B480EC15F0E7502F5C18
:10241000D8B452EF12F0D8A018EF12F0B16714EF51
:1024200012F0E72A64EF12F0B107E72AF8EF11F093
:10243000B1671EEF12F0E70664EF12F0B107E7068E
:10244000F8EF11F03C90160EDB50AAEC0EF0B16FD5
:10245000060E426E140EDBCF2FF02CBA80EC15F076
:102460002C9AE7509B5DD8B480EC15F0E7502F5CB8
:10247000D8B452EF12F0D8A048EF12F0B16744EF91
:1024800012F0E72A64EF12F0B107E72A28EF12F002
:10249000B1674EEF12F0E70664EF12F0B107E706FE
:1024A00028EF12F03ABA10D03A8A2B9A3C6A489A2E
:1024B00028BA488A28BA3C8028AA02D03F8A01D08C
:1024C0003E8A060E77EC14F010EE94F02DBC05D089
:1024D00045BC02D0299C3B8C2D8C29AC85EF12F099
:1024E00046AC04D02BBC02D02B668BD0299C398CF7
:1024F0003A9C3B9C2B8C28BC3C803E9C3F9C070E0E
:10250000426E4AEC14F01E0E376E2AAC02D02A9CA2
:102510006AD03BBC01EF13F028ACBFEF12F03C8057
:102520001B0EDB50AAEC0EF0B26F070E426E190EB6
:10253000DBCF2FF02CBC80EC15F02C9CE7509C5D81
:10254000D8B480EC15F0E7502F5CD8B4EFEF12F060
:10255000D8A0B5EF12F0B267B1EF12F0E72A01EFA1
:1025600013F0B207E72A95EF12F0B267BBEF12F053
:10257000E70601EF13F0B207E70695EF12F03C9083
:102580001A0EDB50AAEC0EF0B26F070E426E180E58
:10259000DBCF2FF02CBC80EC15F02C9CE7509C5D21
:1025A000D8B480EC15F0E7502F5CD8B4EFEF12F000
:1025B000D8A0E5EF12F0B267E1EF12F0E72A01EFE1
:1025C00013F0B207E72AC5EF12F0B267EBEF12F093
:1025D000E70601EF13F0B207E706C5EF12F03ABCC9
:1025E00010D03A8C2B9C3C6A489C28BC488C28BC58
:1025F0003C8028AC02D03F8C01D03E8C070E77EC9B
:1026000014F010EE95F02DBE05D045BE02D0299EE7
:102610003B8E2D8E29AE22EF13F046AE04D02BBE9A
:1026200002D02B668BD0299E398E3A9E3B9E2B8EF4
:1026300028BE3C803E9E3F9E080E426E4AEC14F03F
:102640001E0E386E2AAE02D02A9E6AD03BBE9EEF86
:1026500013F028AE5CEF13F03C801F0EDB50AAECA9
:102660000EF0B36F080E426E1D0EDBCF2FF02CBEA6
:1026700080EC15F02C9EE7509D5DD8B480EC15F0F1
:10268000E7502F5CD8B48CEF13F0D8A052EF13F0C2
:10269000B3674EEF13F0E72A9EEF13F0B307E72A74
:1026A00032EF13F0B36758EF13F0E7069EEF13F025
:1026B000B307E70632EF13F03C901E0EDB50AAEC96
:1026C0000EF0B36F080E426E1C0EDBCF2FF02CBE47
:1026D00080EC15F02C9EE7509D5DD8B480EC15F091
:1026E000E7502F5CD8B48CEF13F0D8A082EF13F032
:1026F000B3677EEF13F0E72A9EEF13F0B307E72AE4
:1027000062EF13F0B36788EF13F0E7069EEF13F064
:10271000B307E70662EF13F03ABE10D03A8E2B9E55
:102720003C6A489E28BE488E28BE3C8028AE02D017
:102730003F8E01D03E8E080E77EC14F03AA0ABEF3E
:1027400013F03980312EABEF13F03A903DA002D058
:10275000399082803B803AA2B8EF13F03982322E52
:10276000B8EF13F03A923DA202D0399282823B82B6
:102770003AA4C5EF13F03984332EC5EF13F03A9421
:102780003DA402D0399482843B843AA6D2EF13F060
:102790003986342ED2EF13F03A963DA602D0399600
:1027A00082863B863AA8DFEF13F03988352EDFEFBB
:1027B00013F03A983DA802D0399882883B883AAA0B
:1027C000ECEF13F0398A362EECEF13F03A9A3DAA6B
:1027D00002D0399A828A3B8A3AACF9EF13F0398CED
:1027E000372EF9EF13F03A9C3DAC02D0399C828C25
:1027F0003B8C3AAE06EF14F0398E382E06EF14F00B
:102800003A9E3DAE02D0399E828E3B8E1200EA0E79
:10281000A96E31EC0AF0496E4410276E286E20EE46
:102820008EF0CA0EA96E28B0A92A31EC0AF0DE6E2D
:10283000CE0EA96E28B2A92A31EC0AF0DE6ED20EB5
:10284000A96E28B4A92A31EC0AF0DE6ED60EA96E64
:1028500028B6A92A31EC0AF0DE6EDA0EA96E28B885
:10286000A92A31EC0AF0DE6EDE0EA96E28BAA92A7A
:1028700031EC0AF0DE6EE20EA96E28BCA92A31EC1A
:102880000AF0DE6EE60EA96E28BEA92A31EC0AF027
:10289000DE6E1200E806176EE86A175203E0040FB6
:1028A0001706FBD7146E860FA96E3CA0A92A31EC3F
:1028B0000AF0516EE8AE12001450E846E8463CA01B
:1028C000040F9FEC14F0E8B009D0990E51BCE80653
:1028D000A46FEBEC14F0B1EC0DF01200910E51BCB2
:1028E000E806A46FEBEC14F0B5EC0DF01200E8066E
:1028F000176EE86A175203E0040F1706FBD7146E31
:10290000860FA96E3CB0A92A31EC0AF04E6EE8AEF3
:102910001200144614443CB0040F9FEC14F0E8B0CD
:1029200007D0980E4EBCE82AA46FB1EC0DF012004F
:10293000900E4EBCE82AA46FB5EC0DF01200060F05
:10294000A96E31EC0AF0A56FA92A31EC0AF0A66F46
:10295000A92A31EC0AF0A76FA92A31EC0AF0A86F76
:10296000050E236E000EA55303E1A65301E11200EC
:10297000E880120011EE80F020EE96F0080E176E3F
:10298000E650206EE65CD8B007D0E81EE82AE842A0
:10299000E89E205CDE6E04D0E842E89E2024DE6ED5
:1029A000E12AE12A172EECD71200476601D0120067
:1029B00047C020F0209E416A4180204E02D041460F
:1029C000FCD741C04EF0506A516A656B47AE6581D5
:1029D000476AA3EF08F00A0E186E1A6A1A2EEEEF75
:1029E00014F0182EFAD71200C80E186E1A6A1A2E92
:1029F000F7EF14F0182EFAD71200640E196EEBECF4
:102A000014F0192EFCD7120016A21200C60E69246B
:102A1000A96EA90631EC0AF0A86F69CFA7F0970E4E
:102A2000A46F050E236EB1EC0DF012001FB804D098
:102A3000020E85EC0EF012001F8E6950040824E28D
:102A4000250E696203D06ACF47F0120021EE80F0B4
:102A5000050E695C6ACFDBFF266EE842E842070B91
:102A6000406A4080E85001E103D04046E806FAD7CA
:102A700026B212004050296E286E3B6E3B1E69B094
:102A8000286ABAEC14F0120020EE43F069046ACF11
:102A9000DBFF43C03DF01200F70EA46FEACFA7F0B2
:102AA000E9CFA8F04EC0A9F050C0AAF0AB6B080E59
:102AB000236EB1EC0DF0FDEC14F012006BAF1200C0
:102AC0006BC04EF06B476B457C0B060FA96E6651D1
:102AD00036EC0AF0A92A675136EC0AF0A92A6851A7
:102AE00036EC0AF0A92A695136EC0AF04E501F0B59
:102AF000860FA96E4E5036EC0AF04EC06BF01200F5
:102B00004204176EE86A175203E0040F1706FBD75A
:102B1000146E860FA96EA92AA92A31EC0AF04E6E0E
:102B2000E8AE12001450E846E846080F9FEC14F097
:102B3000E8B00DD03CA007D0990E4EBAE806A46FBD
:102B4000B1EC0DF01200980E4EBAE82AF8D73CA06E
:102B500007D0910E4EBAE806A46FB5EC0DF0120046
:102B6000900E4EBAE82AF8D7E1CF54F0E2CF55F0F4
:102B70001F820E0E176E00EE80F0EE6A172EFDD744
:102B80003C0EB36EAF0EB26EB10EB16EA1920F01DC
:102B9000BF0E316FE00E326F400E356F30B7FED78B
:102BA000308730B7FED7356B0001A1B215D074BEA7
:102BB00001D0FBD76F500F0B0B6E7750F00B0B1043
:102BC000776E62B607D01FA205D0655203E116ECFE
:102BD00016F000D0609EE9D7B190A192156A152A2F
:102BE000536A538010EE80F0E72804E1080E1526A2
:102BF000E12AFAD75350E71403E05336152AFAD7DF
:102C0000640E15600DD0000EA96E155036EC0AF05A
:102C10001550E7EC09F054C0E1FF55C0E2FF120087
:102C2000070E85EC0EF01568159EEDD7656612004F
:102C30006138E832780B206E6238E842070B2010CA
:102C4000156E10EE80F0536A5380080E156403D0A1
:102C5000155EE12AFBD7154E02D05346FCD75350E0
:102C6000E712609E12005150E8AE12001F0B4E6E2C
:102C7000860FA96EE86A36EC0AF04E464E44060FFF
:102C8000A96EE86A36EC0AF0E86AA92A36EC0AF07E
:102C9000E86AA92A36EC0AF0E86AA92A36EC0AF0B2
:102CA0001200060EA96E800E176EE86A36EC0AF066
:102CB000A92A172EFAD7860EA96E200E176EE86A7B
:102CC00036EC0AF0A92A172EFAD71200140A0705C3
:042CD00003020100FA
:020000040030CA
:0300010006061ED2
:020005008081F8
:060008000FC00FE00F40E5
:0200000400F00A
:060000007F00000000007B
:0A0086000000000000000000000070
:100090000000000000000000000000000000000060
:0600A0000000000000005A
:0200BE00000040
:1000C000000000000000FF00FFFF7F7F00007F7F37
:1000D00000007F7F00007F7F00007F7F00007F7F28
:1000E00000007F7F00007F7F0000FF000000000015
:1000F0000000000000000000000000000000000000
:00000001FF
