:020000040000FA
:040000001FD00ED02F
:0400080004EF04F00D
:040018000CEF04F0F5
:100020007F6E05A01200550E7E6EAA0E7E6E7F8238
:1000300000007FB2FED712000A26D8B00B2A1200A9
:100040007F6A746875687F800000733C00EF04F07D
:10005000066A1C0E056E0E01000EE06F080EE16FC1
:10006000E81EE56F000EE26F070EE36FFF0EF86FFC
:10007000EB0EF96FFF0EFA6FF80EFB6F030E436F76
:100080009E0E446F030E456F0F015D6B5C6B200E7F
:10009000706E6F6A939E939C8A8E8A8C609E040019
:1000A00060AEFDD70FEE66F065500F0B096EF46E73
:1000B000F5E064B02BD010EE01F0EECFE6FFF42EA9
:1000C000FCD70650EBE0010AD8A407D07468756825
:1000D000736A040EA5DF8A9CFF000650020A05E140
:1000E0000B6A0A6A0C900C6AD9D70650030A0AE117
:1000F00007500A2606E108500B2203E10CB001D09C
:1001000074D077D00650040AC9E177D00350F86E56
:10011000F00BF36E0250F76E756E0150F66E746E52
:1001200005A605D009500126E86A02220322300EF6
:10013000F36001D008D0F350300A01E12AD0F35027
:10014000F00AACE132D005A405D0F6503F0B02E135
:10015000940E66DF05B2A2D7F650070B9FE1080E9A
:10016000F46EEE50F56E68DF0D00F42EFAD7080E2F
:10017000F46E0A00ED50F42EFCD7840E51DF080E09
:10018000F46E0900F550EE18D8A40C80F42EF9D7BF
:1001900085D7EF50F56E50DF0C00C40E41DF09002B
:1001A000F550EE18F42EF5D779D7EF50736E44DF83
:1001B000040E36DF7F6A7F8000007350EE18D8A4EB
:1001C0000C80744A752AF42EF0D768D720B7FED772
:1001D000800E216F080E226F000E236F040E246F15
:1001E000248164A02491208759D7010E266F256FA2
:1001F000EDD7266B010E256FE9D7020E266F010E93
:04020000256FE4D7AB
:06080000000054EF08F0B7
:0408080094EF04F075
:080810004D494F2D53564F00D6
:040818003DEF05F0BB
:10082000A55332800325040B0D01000800000000D1
:080830000000010000000000BF
:08083800140010080000240266
:1008400065EC04F0B46FB56FB76BB96B120016A20C
:1008500017D065EC04F0B45D03E1B4C0B5F010D07E
:10086000B651B55D05E0B6C0B5F0640EB76F08D0FF
:10087000B70706E1B551B419B5C0B4F078EC04F08F
:100880001200080EB86F4E6A4E1EB96951EC04F0A2
:1008900006E0B82BC80E186E2BEC15F0F7D7B96B25
:1008A0001200B95111E0B8C0B7F0B4C0B6F0010EF3
:1008B000B56F070EB75FB74F02D0B547FCD7B5513C
:1008C00078EC04F00F0EB85D1200B66B81A0B68113
:1008D00081A2B68381A8B68581AAB68780A2B6898F
:1008E00080A0B68B80A6B68D80AAB68FB6511200B6
:1008F000B56F090EB76FD890B53302E2B6330DD09D
:10090000B63302E3900E01D0910EA46FA76BB7C06F
:10091000A8F0050E236EF6EC0DF0B72B160EB7659A
:10092000EAD7B4C0B5F01200FA50306E090EFA6E74
:10093000DACF0AF0D9CF09F0F2942444F92612D084
:1009400013D019D01ED024D02BD031D038D03ED0E7
:1009500045D04BD052D058D05FD065D06CD072D03B
:1009600079D07FD036EF05F0C50ED56E0A0ED66E63
:10097000242A36EF05F08B800A0ED66E242A36EF35
:1009800005F020EE8EF0DF50D66E242A36EF05F00B
:1009900039B08B908B820A0ED66E242A36EF05F082
:1009A00020EE8FF0DF50D66E242A36EF05F039B2F4
:1009B0008B928B840A0ED66E242A36EF05F020EE39
:1009C00090F0DF50D66E242A36EF05F039B48B94C0
:1009D0008B860A0ED66E242A36EF05F020EE91F0B3
:1009E000DF50D66E242A36EF05F039B68B968B8809
:1009F0000A0ED66E242A36EF05F020EE92F0DF5074
:100A0000D66E242A36EF05F039B88B988B8A0A0EF9
:100A1000D66E242A36EF05F020EE93F0DF50D66E26
:100A2000242A36EF05F039BA8B9A8B8C0A0ED66ED3
:100A3000242A36EF05F020EE94F0DF50D66E242AFB
:100A400036EF05F039BC8B9C8B8E0A0ED66E242AAD
:100A500036EF05F020EE95F0DF50D66E242A36EF03
:100A600005F039BE8B9E246A36EF05F00AC0DAFF26
:100A700009C0D9FF3050FA6E1100006ED8CF01F0D6
:100A80006FCF0BF06ECF0CF0FACF03F0FA6AE9CF1C
:100A900005F0EACF06F0E1CF07F0E2CF08F00A0E4A
:100AA000FA6E0C500E0BF92618D006D016D015D0C1
:100AB00014D013D012D011D00F0110AB08D01E5299
:100AC00006E01E2E04D010973F0E11171087309F9E
:100AD0000001609E719E719C01D0609E776A6F508C
:100AE000F10B0B106F6E03C0FAFF05C0E9FF06C0E3
:100AF000EAFF07C0E1FF08C0E2FF005001C0D8FFD5
:100B000010001FB2120016A212000F0100B7FED78C
:100B10000087000112001FB017D071BE01D014D0A1
:100B20006F500F0B0B6E7250F00B0B10726E62B6A3
:100B30000AD065AC03D081EC05F005D0655201E127
:100B400002D01F8001D0609E16B201D011D09EA0AD
:100B50000FD09E901FA405D01C2E0AD08A7C100EA8
:100B60001C6E1FA605D01D2E03D00A0E1D6E520E40
:100B700080B477D0FF0E176E186A196A100E1C6EBB
:100B8000192EC0EF05F01FA408D09EA006D01C2E81
:100B900004D08A7C100E1C6E9E90182EC0EF05F0BB
:100BA00080B446D0172EC0EF05F016A264D01F6A9D
:100BB0008A9C8A8E010E156E010E746E000E8FECEB
:100BC0000AF0510E63EC0AF0126A136A80A4FED791
:100BD0003BEC15F080A4FAD7020E746E000E8FEC79
:100BE0000AF0742A000E8FEC0AF016A20DD0010E46
:100BF000746E000E8FEC0AF01F6A16928A9C8A8E21
:100C0000E00EF26E8BEF05F0010E746E010E8FECAC
:100C10000AF01682E00EF26E16EC16F01F9262ECED
:100C20000AF01F84010E746E040E8FEC0AF026D0B9
:100C300016A271D71FA66FD71FA40CD01F948A8C41
:100C4000520E63EC0AF0010E746E080E1F6E8FECEC
:100C50000AF007D01F8416EC16F01F9262EC0AF01F
:100C60000DD01FA20BD01F841F92010E746E040EB4
:100C70008FEC0AF003D01F828A9EA8D727EC04F0DD
:100C80001FA001D05ED01FA646D7D58EF184E00EFE
:100C9000F26E245201E03FD7A1A219D0A192610EB9
:100CA000B36EDF0EB26E330EB16E4950485C09E090
:100CB0002B6607D0AC0E746E48508FEC0AF048C01B
:100CC00049F01FBE13EC15F0FAEC0EF0242A8BEF5E
:100CD00005F01FA8DED01F8AA9EC07F08DD11FA850
:100CE000D8D0A9EC07F06B5103E06B07030E6B61E2
:100CF00024D11F8C81D105EC0EF000080EE1EAEC46
:100D00000DF0C7D005EC0EF0000807E169CF6DF0DB
:100D10006ACF6BF0AFEC0DF0BCD08EEF07F0C4EFF4
:100D200007F01FA4B6D04AEC0EF0B3D01FA4B1D088
:100D300060EC0EF0AED012501324D8A4B0EC0EF03C
:100D4000A8D0900E665CEBE0910E665CE8E0920E37
:100D5000665CE5E0980E665CE2E0990E665CDFE0BA
:100D60009A0E665CDCE0960E665C5BE05C0E665C90
:100D70005EE05D0E665C43E0730E665C6AE0750ED5
:100D8000665C4BE0420E665C2EE00D0E665CD3E0C6
:100D9000100E665CC6E0110E665CC8E0530E665C21
:100DA00071E0540E665C64E0550E665C26E0560EFB
:100DB000665C1BE0D20E665C1AE0950E665C89E00C
:100DC000B20E665C8CE0570E665C2DE0720E665CBF
:100DD00010E0580E665C0FE09C0E665C93E0710EAE
:100DE000665C23E056D04DEF07F07EEF07F092EF00
:100DF00007F0A0EF07F07BEF06F080EF07F005ECBF
:100E00000EF000080CE116EC16F0520E63EC0AF03E
:100E1000609E080E1F6E49EF07F068EF07F08EEF37
:100E200007F0DFEF07F0D8EF07F0CDEF07F016A2DD
:100E30000CD005EC0EF0000871E1FF0E746E3F0E51
:100E4000756EFF0E8FEC0AF0FF006750682466E1B4
:100E5000F4D716A207D005EC0EF000085FE176EC9F
:100E60000EF017D06750682459E176EC0EF011D0DF
:100E700005EC0EF0000852E11F981F9A1FBED4EC3B
:100E80000EF007D005EC0EF0000848E11F888A8CB0
:100E900000D0609E1F908BEF05F01FA4FAD72CECBA
:100EA0000AF0010E746E080E8FEC0AF01F921F9468
:100EB0001F860A0E1D6E520E63EC0AF08A8C8A9E03
:100EC000610EB36EDF0EB26E330EB16EF4EF08F04A
:100ED00005EC0EF0000822E169CF15F068EC16F081
:100EE000520E63EC0AF049EF07F01FA4D2D7500E60
:100EF000A46F030E236EF6EC0DF0CBD7F4EF07F0E2
:100F000005EC0EF000080AE11FA809D0B1EC0BF0C7
:100F1000A6EC16F0590E63EC0AF0AFD7BAD7020E62
:100F2000C0EF0EF01FA8B5D7A9EC07F06B5105E094
:100F30006B07030E6B6101D05FD0060EC0EF0EF0A1
:100F400005EC0EF00008EAE169CF6DF086EC0DF0DB
:100F5000A0D766CF66F067CF67F068CF68F069CF3B
:100F600069F06ACF6AF06BCF6BF06CCF6CF0980EC3
:100F7000665C07E0990E665C04E09A0E665C01E030
:100F80001200676B686B1200A9EC07F016A281D7FC
:100F900054EC0CF000081BE07CD705EC0EF00008C8
:100FA000BDE142EC15F049EF07F0030EC0EF0EF083
:100FB00005EC0EF00008B2E126EC0DF06AD705EC66
:100FC0000EF0000802E154EC15F049EF07F023ECB5
:100FD0000CF0EECF4EF0EECF50F0EECF51F0EECF62
:100FE00052F0FAEC08F055D705EC0EF0000896E147
:100FF000DEEC0DF04ED700D016A249EF07F054EC0E
:101000000CF0000817E01FBC0ED01FBA44D0020E2F
:101010006B5D02E19CEC15F0A2EC0AF0000806E022
:10102000040EC8EF0EF0050EC8EF0EF0590E63EC7B
:101030000AF031D01FBC17D01FAA0DD023EC0CF042
:10104000020EEBCF51F09BEC16F029EC0BF0590E91
:1010500063EC0AF020D0020E6B5D02E19CEC15F00F
:10106000A2EC0AF0E3D723EC0CF06BC0A9F0A92B9B
:101070006B51EBCFAAF0D30EA46F67C0A5F068C088
:10108000A6F069C0A7F06AC0A8F0070E236EFAECBC
:101090000DF001D01F981F9C609E1F90FA6A49EFC7
:1010A00007F0060EC8EF0EF00F019B8C5D6B5C6BBA
:1010B0005F6B5E6B5B690001D56A8B68000E946E96
:1010C00000EE00F0EE6AE966FDD7F26A2F0E926E2E
:1010D0003B0E936E8A9C8A9E8184D08EE06A7F6AE2
:1010E0001F6A1E6A6F8EB00E726E728A72500E6E1A
:1010F0000E017D6B606A306B806B906BA06BB06B88
:10110000C06BD06B0F0E436F9E0E446F030E456F86
:101110000001200E706E000E0EEEF8F0EE6AE9622D
:10112000FDD76F6ABB6AAA6A000ECF6ECE6E330E11
:10113000CD6EC50EE89ED56E9E6B000E786E9F6AD2
:10114000A26AA06A000EFB6E316A326A336A346AA0
:101150003E6A3F6A2A6A2B6A3A6A3B6A2D6A010E26
:10116000156EF26AF16AF06AB06A9D6AA06AA36AB3
:10117000B66A200E766E9E6AA16AA46AB76A776A1A
:10118000609E719E719C756AA1EC0BF0246A2CEC38
:101190000EF0F8EC14F020EC04F0476A166A010E29
:1011A000746E89EC0AF01F6E080805E0000E1F6ED1
:1011B0008FEC0AF012D016823FEC0AF01FB406D072
:1011C000610EB36EDF0EB26E330EB16E8A9E1FA437
:1011D0008A8C609E1F90F4EF08F01692126A136AD0
:1011E0008A9C8A8E8BEF05F046EC14F0FF0E2C6E75
:1011F0008BEF05F0920E665D08E09A0E665D05E0E5
:10120000830E5114E8AE03D012009AEF09F00308E0
:1012100001E116D04E5066A1E81E5018206E4E50C7
:1012200020164E1C28142010276E2818291227C0BB
:1012300028F02950E81E4E1401E112002A6E120017
:1012400041EC04F02B661200AC0E746E89EC0AF0CF
:101250001B6E3C901BB03C80010E426EE2EC15F020
:1012600032EC15F0010EB6EC14F032EC15F03C90B7
:101270001BB23C80020E426EE2EC15F032EC15F02F
:10128000020EB6EC14F032EC15F03C901BB43C802E
:10129000030E426EE2EC15F032EC15F0030EB6ECE4
:1012A00014F032EC15F03C901BB63C80040E426EFC
:1012B000E2EC15F032EC15F0040EB6EC14F032EC62
:1012C00015F03C901BB83C80050E426EE2EC15F028
:1012D00032EC15F0050EB6EC14F032EC15F03C9043
:1012E0001BBA3C80060E426EE2EC15F032EC15F0B3
:1012F000060EB6EC14F032EC15F03C901BBC3C80B2
:10130000070E426EE2EC15F032EC15F0070EB6EC6B
:1013100014F032EC15F03C901BBE3C80080E426E7F
:10132000E2EC15F032EC15F0080EB6EC14F032ECED
:1013300015F012005140E842070B176E186A175259
:1013400004E0100E18261706FAD7EBEC09F0176A1E
:101350001780E85003E01746E804FBD7010E51144C
:101360001DE017503F140DE0920E665D05E1940EEE
:10137000A46FFAEC0DF012009E0EA46FF6EC0DF0C7
:101380001200920E665D05E1930EA46FFAEC0DF06B
:1013900012009D0EA46FF6EC0DF0120017503E14D3
:1013A0000DE0920E665D05E1940EA46FFAEC0DF06F
:1013B00012009E0EA46FF6EC0DF01200920E665D08
:1013C00005E1930EA46FFAEC0DF012009D0EA46FD0
:1013D000F6EC0DF01200500EF76E000E1824F66EAB
:1013E0005150030B176EE86A175203E0040F1706FB
:1013F000FBD7F6260900F550A56F0900F550A66F3A
:101400000900F550A76F0900F550A86F050E236E6F
:10141000000CE1CF07F0E2CF08F0E9CF05F0EACF0A
:1014200006F000EE9EF01FEE10F00F0110B7FED791
:101430000001EE50E66EAC0EE962FBD70F0110B76B
:10144000FED71087000107C0E1FF08C0E2FF05C01A
:10145000E9FF06C0EAFF120067CF12F068CF13F071
:10146000020E746E67508FEC0AF0742A68508FEC8D
:101470000AF0010E746E080E8FEC0AF01200000ED6
:10148000746E89EC0AF00F6E6DEC0AF0F00E9F1787
:1014900010509F131150A06F020E746E89EC0AF069
:1014A000126E742A89EC0AF0136E0F0100B7FED792
:1014B000016B1050016F1150026FB00E0113056BDC
:1014C00000011200500EA46F12C0A5F013C0A6F0C8
:1014D000030E236EF6EC0DF012000FC011F0113A5E
:1014E0001144E00B116E0FC010F01042104210407A
:1014F0000F0B106E120062CF11F0113A1140070B62
:10150000116E61CF10F0104610461044780B111088
:1015100012007F9E7F9C7F80000073501200736ECC
:101520007F9E7F9C7F84F2500D6EF26A550E7E6E18
:10153000AA0E7E6E7F827FB2FED7A19C7F940D5053
:10154000F26E120000D01FBA000C54EC0CF0000830
:101550000FE123EC0CF063B100D06B516CC0EBFFDA
:10156000C1EC0CF063B1000C590E63EC0AF0000CF6
:10157000BDEC0AF00008EFE0010C756A040E746E11
:1015800089EC0AF0000801E1010C756A260E746E00
:1015900089EC0AF0576E270E746E89EC0AF0586ECB
:1015A0005D6601D00DD01BEC0CF05E50E8EC0CF049
:1015B000060EE92657C0EEFF58C0EEFFBBEC0CF05C
:1015C00023EC0CF05850E8EC0CF0040EE926756A98
:1015D000260E746EEE508FEC0AF0270E746EEE50ED
:1015E0008FEC0AF05FC074FF57508FEC0AF0742A3A
:1015F00058508FEC0AF05850E8EC0CF067C0EEFF42
:1016000068C0EEFF69C0EEFF6AC0EEFF5DC0EEFF8E
:101610005EC0EEFFEE6AEE6A080E6E6F000EEB6AB9
:10162000E82A6E2FFCD76051680F746E89EC0AF0BF
:10163000E82A8FEC0AF0050E746E89EC0AF0010FAF
:101640008FEC0AF0740689EC0AF0E8068FEC0AF0D9
:10165000000C54EC0CF0000801E01200756A260E34
:10166000746E89EC0AF0616F270E746E89EC0AF0D3
:10167000626F23EC0CF05850E8EC0CF0040EE926F5
:10168000EFCF5BF061C0EEFFEFCF5CF062C0EEFF2A
:10169000EFCF59F0EE6AEFCF5AF0EE6A260E746E75
:1016A00057508FEC0AF0270E746E58508FEC0AF0EA
:1016B000C1EC0CF0596601D011D059C057F05AC096
:1016C00058F023EC0CF05850E8EC0CF0040EE9262E
:1016D0005BC0EEFF5CC0EEFFC1EC0CF05FC074FFBE
:1016E0005B508FEC0AF0742A5C508FEC0AF05B665A
:1016F00001D011D05BC057F05CC058F023EC0CF067
:101700005850E8EC0CF0060EE92659C0EEFF5AC01E
:10171000EEFFC1EC0CF06051680F746E89EC0AF0BA
:10172000E8068FEC0AF0050E746E89EC0AF0E80604
:101730008FEC0AF0740689EC0AF0010F8FEC0AF0C6
:101740001200636B756A260E746E89EC0AF0206EC7
:10175000742A89EC0AF02024E8661200B1EC0BF040
:101760001200756A050E746E000E8FEC0AF0800E82
:1017700074068FEC0AF0400E176E280E746E000E81
:101780008FEC0AF0742A172EFAD7200E176E680E07
:10179000746E000E8FEC0AF0742A172EFAD790ECB4
:1017A0000CF0260E746E300E576E8FEC0AF0270E7A
:1017B000746E000E586E8FEC0AF0B3EC0CF0596AA0
:1017C0005A6A800E176E58C020F057C021F0205082
:1017D000E8EC0CF0100E2026000E2122EE6AEE6AD4
:1017E000EE6AEE6A17061BE021C0EEFF20C0EEFF96
:1017F00059C0EEFF5AC0EEFF57C059F058C05AF01A
:101800001750030B05E0100E5826000E5722DFD7A5
:10181000C1EC0CF0100E5826000E5722D4D7206AC7
:1018200020C0EEFF20C0EEFF59C0EEFF5AC0EEFF11
:10183000C1EC0CF01200C00E5E14F66E5D50F76E37
:10184000400E6E6F08D0C00E5814F66E5750F76EEB
:10185000F86A400E6E6FF86AEACF65F0E9CF64F07F
:1018600001EE00F00900F550EE6E6E2FFBD764C05C
:10187000E9FF65C0EAFF1200F86A57C0F7FF58C0D9
:10188000F6FF100E6E6FE7D7F86A57C0F7FF58C023
:10189000F6FF100E6E6FDFD7F86A57C0F7FF58C01B
:1018A000F6FF080E6E6FD7D768516A191F0B206EAE
:1018B000606F2046756A280E20245F6E746E89EC76
:1018C0000AF0576E5D6E742A89EC0AF0586E5E6EEF
:1018D000576601D0010C5850F66E5750F76EF86AF3
:1018E0004B6A0900F55067634B2A0900F55068639D
:1018F0004B2A0900F55069634B2A0900F5506A63C9
:101900004B2A4B6606D05850E8EC0CF0080EE9263E
:10191000000C0900F550576E0900F550586ED8D7E5
:10192000200E176E000EF66E300EF76EF86AA1EC00
:101930000CF0172E01D01200400EF626000EF722F2
:10194000F6D77F8E7F9C7F847F88F2CF0DF0F26A7E
:10195000550E7E6EAA0E7E6E7F8200000000000093
:101960000DC0F2FF120001EE00F0400E6E6FEE6A45
:101970006E2FFDD71200C00E5E14F66E5D50F76E2E
:1019800005D0C00E5814F66E5750F76EF86AA1ECE9
:101990000CF001EE00F03F0E6E6FEE50F56E0D0094
:1019A0006E2FFBD7EE50F56E0C00D8EC0CF0120049
:1019B0007F8E7F9C7F987F84F2CF0DF0F26A550E68
:1019C0007E6EAA0E7E6E7F8200000DC0F2FF1200B6
:1019D000E83A030BE86603D001EE00F01200E806D7
:1019E000E86603D001EE10F01200E806E86603D0C6
:1019F00001EE20F0120001EE30F0120054EC0CF079
:101A0000000803E06C6B6B6B0ED06B5152E06B0700
:101A1000030E6B614ED03CEC0CF001EE08F06B5104
:101A2000EB506C6F6B2BD30EA46F00C1A5F001C1FE
:101A3000A6F002C1A7F003C1A8F06BC0A9F06CC06A
:101A4000AAF0070E236EFAEC0DF01200206A050EC4
:101A5000746E89EC0AF000082CE0AB6B200E4C6E23
:101A6000280E746E89EC0AF0576E742A89EC0AF01D
:101A7000586E576604D04C0620E0742AF3D74CEC1D
:101A80000CF0AB2B00C1A7F001C1A8F002C1A9F076
:101A900003C1AAF0F20EA46F080E236EF6EC0DF04F
:101AA00029EC15F029EC15F004C157F005C158F0E8
:101AB000E0D7070ECCEC0EF012001200606B4C6AFF
:101AC0004D6A6051680F746E89EC0AF0000F05E0F2
:101AD0004D264D506D6101D004D04DC04CF0602BAF
:101AE000F0D76045280F746E89EC0AF0576E742A9F
:101AF00089EC0AF0586E6D514C6012004C2A4CEC87
:101B00000CF004C157F005C158F0F5D7050E746EFE
:101B100089EC0AF000081FE06D511DE06D07050E0D
:101B2000746E89EC0AF06D6116D05EEC0DF04CEC31
:101B30000CF000C1A7F001C1A8F002C1A9F003C1D7
:101B4000AAF06D2B6DC0ABF0F20EA46F080E236EE1
:101B5000F6EC0DF01200070ECCEC0EF01200050EA4
:101B6000746E89EC0AF00008F6E06D51F4E06D0740
:101B7000050E746E89EC0AF06D61EDD76B511AE0B9
:101B80006B07030E6B6116D05EEC0DF03CEC0CF0B5
:101B900001EE08F06B51EBCFA9F06B2B6D2BB50E5E
:101BA000A46F6DC0A7F06BC0A8F0060E236EF6EC14
:101BB0000DF01200060ECCEC0EF01200040E746E46
:101BC00089EC0AF0A76F700EA46F040E236EF6EC7A
:101BD0000DF01200050E746E89EC0AF0A76F740EFA
:101BE000A46F040E236EF6EC0DF0120012C0A5F0E7
:101BF00013C0A6F02350A36F0F0E9F17B00E9F13B4
:101C00000A0E1E6E09EC0AF012001250675C04E125
:101C10001350685C01E1000C010C200E176ED89087
:101C20001746174602EE00F0500EF76E000EF66EE5
:101C30000900F5CFEEFF172EFBD7756A200E176E41
:101C4000D89002EE80F0060E746E89EC0AF0EE6E0B
:101C5000742A172EFAD71200200E176E01EE80F0AC
:101C60008C0E746E89EC0AF0EE6E742A172EFAD779
:101C700089EC0AF0496E040E176E00EE43F0880EF0
:101C8000746E89EC0AF0EE6E742A172EFAD743C0F0
:101C90003DF01200EF0EA46F200EF66E080EF76EE8
:101CA00000EEA5F0070E176E7F8E0900F5CFEEFF50
:101CB000172EFBD77F9E080E236EFAEC0DF0120054
:101CC000E20EA46F100EF66E080EF76E00EEA5F091
:101CD000070E176E7F8E0900F5CFEEFF172EFBD78C
:101CE0007F9E080E236EFAEC0DF01200695000087A
:101CF00021E0140E69CF20F02006206026D09B0E34
:101D0000A46F070E206204D0A9EC0EF0A86F0BD0D0
:101D1000200EF66E080EF76EF86A6904F6267F8EBE
:101D20000800F5CFA8F069CFA7F0050E236EF6ECFA
:101D30000DF012009B0EA46F140EA86F69CFA7F0D0
:101D4000050E236EF6EC0DF012000A0ECCEC0EF030
:101D50001200010E16B20409206E208620501200D7
:101D60003BEC15F0B60EA46FA50EA76F320EA86F50
:101D7000A9EC0EF0A96F060E236EF6EC0DF0120022
:101D8000CCEC0EF049EF07F0CCEC0EF04CEF08F085
:101D9000CCEC0EF04BEF08F0A76F6F0EA46F040EA3
:101DA000236EF6EC0DF0120021EE80F0200E176E7F
:101DB0008C0E746EDE508FEC0AF0742A172EFAD750
:101DC00020EE43F0040E176E880E746EDE508FEC1A
:101DD0000AF0742A172EFAD71F9E590E63EC0AF0E8
:101DE00012007A0FF66E2D0EF76E000EF722090024
:101DF000F55012003C6A21EE80F010EE8EF02DB00E
:101E000005D045B002D029903B802D8029A01EEF3F
:101E10000FF046A004D02BB002D02B668BD02990B7
:101E200039803A903B902B8028B03C803E903F9088
:101E3000010E426E89EC14F01E0E316E2AA002D003
:101E40002A906AD03BB09AEF0FF028A058EF0FF01D
:101E50003C80030EDB50F1EC0EF0AC6F010E426ED5
:101E6000010EDBCF2FF02CB0E2EC15F02C90E750F8
:101E7000965DD8B4E2EC15F0E7502F5CD8B488EF4B
:101E80000FF0D8A04EEF0FF0AC674AEF0FF0E72A43
:101E90009AEF0FF0AC07E72A2EEF0FF0AC6754EF84
:101EA0000FF0E7069AEF0FF0AC07E7062EEF0FF002
:101EB0003C90020EDB50F1EC0EF0AC6F010E426E66
:101EC000000EDBCF2FF02CB0E2EC15F02C90E75099
:101ED000965DD8B4E2EC15F0E7502F5CD8B488EFEB
:101EE0000FF0D8A07EEF0FF0AC677AEF0FF0E72A83
:101EF0009AEF0FF0AC07E72A5EEF0FF0AC6784EFC4
:101F00000FF0E7069AEF0FF0AC07E7065EEF0FF071
:101F10003AB010D03A802B903C6A489028B0488064
:101F200028B03C8028A002D03F8001D03E80010E26
:101F3000B6EC14F010EE8FF02DB205D045B202D001
:101F400029923B822D8229A2BBEF0FF046A204D03A
:101F50002BB202D02B668BD0299239823A923B92D7
:101F60002B8228B23C803E923F92020E426E89EC58
:101F700014F01E0E326E2AA202D02A926AD03BB210
:101F800037EF10F028A2F5EF0FF03C80070EDB5082
:101F9000F1EC0EF0AD6F020E426E050EDBCF2FF0AE
:101FA0002CB2E2EC15F02C92E750975DD8B4E2EC3D
:101FB00015F0E7502F5CD8B425EF10F0D8A0EBEF68
:101FC0000FF0AD67E7EF0FF0E72A37EF10F0AD073E
:101FD000E72ACBEF0FF0AD67F1EF0FF0E70637EF31
:101FE00010F0AD07E706CBEF0FF03C90060EDB508C
:101FF000F1EC0EF0AD6F020E426E040EDBCF2FF04F
:102000002CB2E2EC15F02C92E750975DD8B4E2ECDC
:1020100015F0E7502F5CD8B425EF10F0D8A01BEFD7
:1020200010F0AD6717EF10F0E72A37EF10F0AD07AB
:10203000E72AFBEF0FF0AD6721EF10F0E70637EF6F
:1020400010F0AD07E706FBEF0FF03AB210D03A827E
:102050002B923C6A489228B2488228B23C8028A23F
:1020600002D03F8201D03E82020EB6EC14F010EE98
:1020700090F02DB405D045B402D029943B842D8432
:1020800029A458EF10F046A404D02BB402D02B663C
:102090008BD0299439843A943B942B8428B43C8087
:1020A0003E943F94030E426E89EC14F01E0E336E84
:1020B0002AA402D02A946AD03BB4D4EF10F028A40A
:1020C00092EF10F03C800B0EDB50F1EC0EF0AE6F97
:1020D000030E426E090EDBCF2FF02CB4E2EC15F0AC
:1020E0002C94E750985DD8B4E2EC15F0E7502F5CE3
:1020F000D8B4C2EF10F0D8A088EF10F0AE6784EF2C
:1021000010F0E72AD4EF10F0AE07E72A68EF10F0DE
:10211000AE678EEF10F0E706D4EF10F0AE07E706DB
:1021200068EF10F03C900A0EDB50F1EC0EF0AE6F51
:10213000030E426E080EDBCF2FF02CB4E2EC15F04C
:102140002C94E750985DD8B4E2EC15F0E7502F5C82
:10215000D8B4C2EF10F0D8A0B8EF10F0AE67B4EF6B
:1021600010F0E72AD4EF10F0AE07E72A98EF10F04E
:10217000AE67BEEF10F0E706D4EF10F0AE07E7064B
:1021800098EF10F03AB410D03A842B943C6A4894FB
:1021900028B4488428B43C8028A402D03F8401D0CD
:1021A0003E84030EB6EC14F010EE91F02DB605D07F
:1021B00045B602D029963B862D8629A6F5EF10F06C
:1021C00046A604D02BB602D02B668BD02996398632
:1021D0003A963B962B8628B63C803E963F96040E58
:1021E000426E89EC14F01E0E346E2AA602D02A9696
:1021F0006AD03BB671EF11F028A62FEF11F03C80AA
:102200000F0EDB50F1EC0EF0AF6F040E426E0D0EB0
:10221000DBCF2FF02CB6E2EC15F02C96E750995D51
:10222000D8B4E2EC15F0E7502F5CD8B45FEF11F0B2
:10223000D8A025EF11F0AF6721EF11F0E72A71EF79
:1022400011F0AF07E72A05EF11F0AF672BEF11F0A0
:10225000E70671EF11F0AF07E70605EF11F03C90CC
:102260000E0EDB50F1EC0EF0AF6F040E426E0C0E52
:10227000DBCF2FF02CB6E2EC15F02C96E750995DF1
:10228000D8B4E2EC15F0E7502F5CD8B45FEF11F052
:10229000D8A055EF11F0AF6751EF11F0E72A71EFB9
:1022A00011F0AF07E72A35EF11F0AF675BEF11F0E0
:1022B000E70671EF11F0AF07E70635EF11F03AB618
:1022C00010D03A862B963C6A489628B6488628B69F
:1022D0003C8028A602D03F8601D03E86040EB6EC94
:1022E00014F010EE92F02DB805D045B802D0299820
:1022F0003B882D8829A892EF11F046A804D02BB86E
:1023000002D02B668BD0299839883A983B982B8835
:1023100028B83C803E983F98050E426E89EC14F038
:102320001E0E356E2AA802D02A986AD03BB80EEF4E
:1023300012F028A8CCEF11F03C80130EDB50F1EC2A
:102340000EF0B06F050E426E110EDBCF2FF02CB8E1
:10235000E2EC15F02C98E7509A5DD8B4E2EC15F059
:10236000E7502F5CD8B4FCEF11F0D8A0C2EF11F009
:10237000B067BEEF11F0E72A0EEF12F0B007E72AC0
:10238000A2EF11F0B067C8EF11F0E7060EEF12F000
:10239000B007E706A2EF11F03C90120EDB50F1EC13
:1023A0000EF0B06F050E426E100EDBCF2FF02CB882
:1023B000E2EC15F02C98E7509A5DD8B4E2EC15F0F9
:1023C000E7502F5CD8B4FCEF11F0D8A0F2EF11F079
:1023D000B067EEEF11F0E72A0EEF12F0B007E72A30
:1023E000D2EF11F0B067F8EF11F0E7060EEF12F040
:1023F000B007E706D2EF11F03AB810D03A882B9820
:102400003C6A489828B8488828B83C8028A802D058
:102410003F8801D03E88050EB6EC14F010EE93F024
:102420002DBA05D045BA02D0299A3B8A2D8A29AA0D
:102430002FEF12F046AA04D02BBA02D02B668BD015
:10244000299A398A3A9A3B9A2B8A28BA3C803E9A32
:102450003F9A060E426E89EC14F01E0E366E2AAAC2
:1024600002D02A9A6AD03BBAABEF12F028AA69EFE1
:1024700012F03C80170EDB50F1EC0EF0B16F060E3F
:10248000426E150EDBCF2FF02CBAE2EC15F02C9A31
:10249000E7509B5DD8B4E2EC15F0E7502F5CD8B460
:1024A00099EF12F0D8A05FEF12F0B1675BEF12F076
:1024B000E72AABEF12F0B107E72A3FEF12F0B1675E
:1024C00065EF12F0E706ABEF12F0B107E7063FEF5A
:1024D00012F03C90160EDB50F1EC0EF0B16F060ED0
:1024E000426E140EDBCF2FF02CBAE2EC15F02C9AD2
:1024F000E7509B5DD8B4E2EC15F0E7502F5CD8B400
:1025000099EF12F0D8A08FEF12F0B1678BEF12F0B5
:10251000E72AABEF12F0B107E72A6FEF12F0B167CD
:1025200095EF12F0E706ABEF12F0B107E7066FEF99
:1025300012F03ABA10D03A8A2B9A3C6A489A28BAD2
:10254000488A28BA3C8028AA02D03F8A01D03E8A15
:10255000060EB6EC14F010EE94F02DBC05D045BC80
:1025600002D0299C3B8C2D8C29ACCCEF12F046ACD0
:1025700004D02BBC02D02B668BD0299C398C3A9C82
:102580003B9C2B8C28BC3C803E9C3F9C070E426EA3
:1025900089EC14F01E0E376E2AAC02D02A9C6AD049
:1025A0003BBC48EF13F028AC06EF13F03C801B0E49
:1025B000DB50F1EC0EF0B26F070E426E190EDBCF5E
:1025C0002FF02CBCE2EC15F02C9CE7509C5DD8B4AD
:1025D000E2EC15F0E7502F5CD8B436EF13F0D8A03A
:1025E000FCEF12F0B267F8EF12F0E72A48EF13F0B1
:1025F000B207E72ADCEF12F0B26702EF13F0E7064A
:1026000048EF13F0B207E706DCEF12F03C901A0E29
:10261000DB50F1EC0EF0B26F070E426E180EDBCFFE
:102620002FF02CBCE2EC15F02C9CE7509C5DD8B44C
:10263000E2EC15F0E7502F5CD8B436EF13F0D8A0D9
:102640002CEF13F0B26728EF13F0E72A48EF13F0EE
:10265000B207E72A0CEF13F0B26732EF13F0E70688
:1026600048EF13F0B207E7060CEF13F03ABC10D0B6
:102670003A8C2B9C3C6A489C28BC488C28BC3C80EB
:1026800028AC02D03F8C01D03E8C070EB6EC14F083
:1026900010EE95F02DBE05D045BE02D0299E3B8E92
:1026A0002D8E29AE69EF13F046AE04D02BBE02D0BA
:1026B0002B668BD0299E398E3A9E3B9E2B8E28BE50
:1026C0003C803E9E3F9E080E426E89EC14F01E0E2A
:1026D000386E2AAE02D02A9E6AD03BBEE5EF13F0D8
:1026E00028AEA3EF13F03C801F0EDB50F1EC0EF090
:1026F000B36F080E426E1D0EDBCF2FF02CBEE2EC46
:1027000015F02C9EE7509D5DD8B4E2EC15F0E75033
:102710002F5CD8B4D3EF13F0D8A099EF13F0B367C0
:1027200095EF13F0E72AE5EF13F0B307E72A79EF07
:1027300013F0B3679FEF13F0E706E5EF13F0B3076D
:10274000E70679EF13F03C901E0EDB50F1EC0EF033
:10275000B36F080E426E1C0EDBCF2FF02CBEE2ECE6
:1027600015F02C9EE7509D5DD8B4E2EC15F0E750D3
:102770002F5CD8B4D3EF13F0D8A0C9EF13F0B36730
:10278000C5EF13F0E72AE5EF13F0B307E72AA9EF47
:1027900013F0B367CFEF13F0E706E5EF13F0B307DD
:1027A000E706A9EF13F03ABE10D03A8E2B9E3C6A92
:1027B000489E28BE488E28BE3C8028AE02D03F8E60
:1027C00001D03E8E080EB6EC14F03AA0F1EF13F0F3
:1027D0003980312EF1EF13F03A903DA001D03990BD
:1027E0003B803AA2FDEF13F03982322EFDEF13F059
:1027F0003A923DA201D039923B823AA409EF14F0FB
:102800003984332E09EF14F03A943DA401D0399461
:102810003B843AA615EF14F03986342E15EF14F0E8
:102820003A963DA601D039963B863AA821EF14F09E
:102830003988352E21EF14F03A983DA801D0399807
:102840003B883AAA2DEF14F0398A362E2DEF14F07A
:102850003A9A3DAA01D0399A3B8A3AAC39EF14F042
:10286000398C372E39EF14F03A9C3DAC01D0399CAD
:102870003B8C3AAE45EF14F0398E382E45EF14F00C
:102880003A9E3DAE01D0399E3B8E1200AC0E746E66
:1028900089EC0AF0496E4410276E286E20EE8EF007
:1028A0008C0E746E28B0742A89EC0AF0DE6E900EDD
:1028B000746E28B2742A89EC0AF0DE6E940E746E7F
:1028C00028B4742A89EC0AF0DE6E980E746E28B66D
:1028D000742A89EC0AF0DE6E9C0E746E28B8742A95
:1028E00089EC0AF0DE6EA00E746E28BA742A89ECA8
:1028F0000AF0DE6EA40E746E28BC742A89EC0AF00D
:10290000DE6EA80E746E28BE742A89EC0AF0DE6EA4
:102910001200E806176EE86A175203E0040F170664
:10292000FBD7146E060F746E3CA0742A89EC0AF073
:10293000516EE8AE12001450E846E8463CA0040F81
:10294000DEEC14F0E8B009D0990E51BCE806A46F93
:1029500029EC15F0F6EC0DF01200910E51BCE806D2
:10296000A46F29EC15F0FAEC0DF01200E806176ED2
:10297000E86A175203E0040F1706FBD7146E060F20
:10298000746E3CB0742A89EC0AF04E6EE8AE120008
:10299000144614443CB0040FDEEC14F0E8B007D049
:1029A000980E4EBCE82AA46FF6EC0DF01200900EC3
:1029B0004EBCE82AA46FFAEC0DF01200F66AF62677
:1029C000500EF76E0900F5CFA5F00900F5CFA6F07F
:1029D0000900F5CFA7F00900F5CFA8F0050E236E8A
:1029E000000EA55303E1A65301E11200E880120096
:1029F00011EE80F020EE96F0080E176EE650206E75
:102A0000E65CD8B007D0E81EE82AE842E89E205CE1
:102A1000DE6E04D0E842E89E2024DE6EE12AE12A40
:102A2000172EECD71200476601D0120047C020F0E5
:102A3000209E416A4180204E02D04146FCD741C0D1
:102A40004EF0506A516A666B47AE6681476AFAEF8C
:102A500008F00A0E186E1A6A1A2E2CEF15F0182EAE
:102A6000FAD71200C80E186E1A6A1A2E35EF15F032
:102A7000182EFAD71200640E196E29EC15F0192ED3
:102A8000FCD7120016A21200880E6924746E740618
:102A900089EC0AF0A86F69CFA7F0970EA46F050E16
:102AA000236EF6EC0DF012001FB804D0020ECCEC31
:102AB0000EF012001F8E6950040824E2250E696290
:102AC00003D06ACF47F0120021EE80F0050E695C5A
:102AD0006ACFDBFF266EE842E842070B406A40807F
:102AE000E85001E103D04046E806FAD726B21200CA
:102AF0004050296E286E3B6E3B1E69B0286AF8EC88
:102B000014F0120020EE43F069046ACFDBFF43C0EB
:102B10003DF01200F70EA46FEACFA7F0E9CFA8F0BE
:102B20004EC0A9F050C0AAF0AB6B080E236EF6ECB5
:102B30000DF03BEC15F012006CAF12006CC04EF0C3
:102B4000500E576E6C511F0B0F0818E6586A23EC95
:102B50000CF001EE00F010EE67F06C51E846E8462C
:102B60007C0BE926E6CFEEFFE6CFEEFFE6CFEEFFE9
:102B7000E6CFEEFF586AC1EC0CF01AD0400E586E4A
:102B800023EC0CF001EE00F010EE67F0100E6C5D1F
:102B9000E846E8467C0BE926E6CFEEFFE6CFEEFFFF
:102BA000E6CFEEFFE6CFEEFF400E586EC1EC0CF024
:102BB0004E501F0B060F746E4E508FEC0AF04EC035
:102BC0006CF012004204176EE86A175203E0040F1B
:102BD0001706FBD7146E060F746E742A742A89ECDC
:102BE0000AF04E6EE8AE12001450E846E846080FB0
:102BF000DEEC14F0E8B00DD03CA007D0990E4EBA30
:102C0000E806A46FF6EC0DF01200980E4EBAE82A12
:102C1000F8D73CA007D0910E4EBAE806A46FFAECA4
:102C20000DF01200900E4EBAE82AF8D7E1CF55F019
:102C3000E2CF56F0C00EF26E1F820E0E176E00EE3F
:102C400080F0EE6A172EFDD7B36AB26A010E536E9A
:102C5000330EB16EA1920F01BF0E116FE00E126F15
:102C6000400E156F10B7FED7108710B7FED7156B43
:102C70000001A1A204D0A192532E01D015D071BEA3
:102C800001D0F7D76F500F0B0B6E7250F00B0B107B
:102C9000726E62B607D01FA205D0655203E17EECCA
:102CA00016F000D0609EE5D7B190A192156A152A62
:102CB000546A548010EE80F0E72804E1080E1526CF
:102CC000E12AFAD75450E71403E05436152AFAD70C
:102CD000640E15600DD0000E746E15508FEC0AF066
:102CE00015503FEC0AF055C0E1FF56C0E2FF12005C
:102CF000070ECCEC0EF01568159EEDD76566120038
:102D00006138E832780B206E6238E842070B2010F9
:102D1000156E10EE80F0546A5480080E156403D0CE
:102D2000155EE12AFBD7154E02D05446FCD754500D
:102D3000E712609E12005150E8AE12001F0B4E6E5B
:102D4000060F746EE86A8FEC0AF01200000E746EC3
:102D50007580800E176EE86A8FEC0AF0742A172EC1
:102D6000FAD7060E746E756A200E176EE86A8FEC3D
:102D70000AF0742A172EFAD71200140A0705030264
:022D8000010050
:020000040030CA
:0100000015EA
:0100010003FB
:010002006697
:010003007C80
:010005008971
:010006008178
:010008000FE8
:01000900C036
:01000A000FE6
:01000B00E014
:01000C000FE4
:01000D0040B2
:0200000400F00A
:060000007F00000000007B
:0A00060000000000000000000000F0
:1000100000000000000000000000000000000000E0
:06002000000000000000DA
:0A00260000000000000000000000D0
:1000300000000000000000000000000000000000C0
:1000400000000000000000000000000000000000B0
:1000500000000000000000000000000000000000A0
:100060000000000000000000000000000000000090
:100070000000000000000000000000000000000080
:100080000000000000000000FF00FFFF7F7F000075
:100090007F7F00007F7F00007F7F00007F7F000068
:0E00A0007F7F00007F7F00007F7F0000FF0059
:0203FE000000FD
:00000001FF
