:020000040000FA
:040000001FD00ED02F
:0400080004EF04F00D
:040018000CEF04F0F5
:10002000A66E05A01200550EA76EAA0EA76EA68298
:100030000000A6B2FED712000A26D8B00B2A120082
:10004000A66AA968AA68A680A83C00EF04F0066A20
:100050001C0E056E0F019394000E006F080E016FC9
:10006000E81E056F000E026F070E036FFF0E186F7C
:10007000EB0E196FFF0E1A6FF80E1B6F030E706EEA
:100080009E0E716E030E726E200E736E6F6A0E0EF0
:10009000C16E939E939C818E818C609E040060AEA5
:1000A000FDD70FEE66F065500F0B096EF46EF5E0AC
:1000B00064B02BD010EE01F0EECFE6FFF42EFCD7AB
:1000C0000650EBE0010AD8A407D0A968AA68A86A7C
:1000D000040EA6DF819CFF000650020A05E10B6AB0
:1000E0000A6A0C900C6AD9D70650030A0AE1075035
:1000F0000A2606E108500B2203E10CB001D073D0B0
:1001000076D00650040AC9E176D00350F86EF00BA1
:10011000F36E0250F76EAA6E0150F66EA96E05A638
:1001200005D009500126E86A02220322300EF3604E
:1001300001D008D0F350300A01E12AD0F350F00A80
:10014000ACE132D005A405D0F6503F0B02E1940E8D
:1001500067DF05B2A2D7F650070B9FE1080EF46ED9
:10016000EE50F56E69DF0D00F42EFAD7080EF46E2E
:100170000A00ED50F42EFCD7840E52DF080EF46E08
:100180000900F550EE18D8A40C80F42EF9D785D7C5
:10019000EF50F56E51DF0C00C40E42DF0900F55040
:1001A000EE18F42EF5D779D7EF50A86E45DF040E80
:1001B00037DFA66AA680A850EE18D8A40C80A94AFA
:1001C000AA2AF42EF1D769D740B7FED7800E416F27
:1001D000080E426F000E436F040E446F448164A00A
:1001E000449140875AD7010E466F456FEDD7466B55
:1001F000010E456FE9D7020E466F010E456FE4D739
:0608000000005FEF08F0AC
:04080800CEEF04F03B
:0C081000414345384D494F004AEF05F0C8
:10082000A57121200209020B01010008000000004F
:100830000000010000000000140010080000A601E4
:1008400063EC04F0736F746F766B120026A217D0FE
:1008500063EC04F0735D03E173C074F010D0755164
:10086000745D05E075C074F0200E766F08D07607D1
:1008700006E17451731974C073F076EC04F0120041
:10088000080E776F3F6A3F1E4EEC04F006E0772BB0
:10089000C80E156E1EEC0EF0F7D712003F50FF0881
:1008A0000FE177C076F073C075F0010E746F070E1C
:1008B000765F764F02D07447FCD7745176EC04F023
:1008C0000F0E775D1200756B81A0758181A2758313
:1008D00081A8758581AA758780A2758980A0758B8E
:1008E00080A6758D80AA758F75511200746F090EE0
:1008F000766FD890743302E275330DD0753302E30E
:10090000900E01D0910E4E6E516A76C052F0050ED7
:10091000256E1BEC0CF0762B160E7665EAD773C0AD
:1009200074F0120080AA19D0020EA96EA1EC09F091
:10093000106EA92AA1EC09F0116E000806E1105012
:10094000000803E1106A810E116E010EA96EA1EC80
:1009500009F02690A8B2268011D0C0EC04F0192826
:10096000106A116EF7EC08F0010EA96E2690000EC9
:1009700080B202D02680020EA6EC09F02692120068
:10098000130E8114196E1A6E1A421A400C0B1912AA
:10099000191E0F0E191601E0190612006FCF0AF08A
:1009A0006ECF0BF0E9CF05F0EACF06F0E1CF07F00C
:1009B000E2CF08F0090EFA6E0B500E0BF92637D075
:1009C00012D035D034D033D002D006D030D0A4925B
:1009D00000EE27F004EF05F0A49013B23FD000EE34
:1009E00027F004EF05F00F0130AB08D0185206E0F5
:1009F000182E04D030973F0E31173087509F0001DA
:100A0000609E749E749C14D06F50F10B6F6E0B50EF
:100A10000E0B6F121FEE60F0E650EE6E6E0EE1628E
:100A2000FBD7609E2CBC12D02C5201E01380609E3C
:100A3000A46A6F50F10B0A106F6E05C0E9FF06C083
:100A4000EAFF07C0E1FF08C0E2FF110013B2EFD7D1
:100A50000F0120B7FED720870001E9D76566E7D7E9
:100A60006138E832780B196E6238E842070B1910CA
:100A7000126E10EE5AF0566A5680080E126403D0B9
:100A8000125EE12AFBD7124E02D05646FCD75650D2
:100A9000E712CDD7006ED8CF01F0E0CF02F0C00E44
:100AA000CE6E9E6A825101E0820782506B197819DE
:100AB00042E0796F781B79A106D06D5178B16E5103
:100AC0006CA1020E7A6F79A306D06D5178B36E5186
:100AD0006CA3020E7B6F79A506D06D5178B56E516F
:100AE0006CA5020E7C6F79A706D06D5178B76E5158
:100AF0006CA7020E7D6F79A906D06D5178B96E5141
:100B00006CA9020E7E6F79AB06D06D5178BB6E5129
:100B10006CAB020E7F6F79AD06D06D5178BD6E5112
:100B20006CAD020E806F79AF06D06D5178BF6E51FB
:100B30006CAF020E816F7A5105E07A2F03D01B90C3
:100B400078B11B807B5105E07B2F03D01B9278B3DB
:100B50001B827C5105E07C2F03D01B9478B51B844D
:100B60007D5105E07D2F03D01B9678B71B867E5103
:100B700005E07E2F03D01B9878B91B887F5105E0D4
:100B80007F2F03D01B9A78BB1B8A805105E0802FF2
:100B900003D01B9C78BD1B8C815105E0812F03D0B5
:100BA0001B9E78BF1B8E02C0E0FF005001C0D8FF23
:100BB000100026B205D0A1A202D0817EA1920DD054
:100BC000F2A40BD013A401D0817CF29413A605D01B
:100BD000172E03D00A0E176E520E80B467D0640E23
:100BE000146E156A166A162EF3EF05F013A404D0DE
:100BF000F2A402D0817CF294152EF3EF05F080B4BC
:100C000040D0142EF3EF05F026A255D0136A819C34
:100C1000818EF26A010E126E010EA96E000EA6EC14
:100C200009F0510E3FEC09F0106A116A80A4FED75A
:100C300025EC0EF080A4FAD7020EA96E000EA6ECE9
:100C400009F0A92A000EA6EC09F026A20DD0010E8B
:100C5000A96E000EA6EC09F0136A2692819C818E83
:100C6000C00EF26ED9EF05F0010EA96E010EA6ECD2
:100C700009F02682D1EC0DF013923EEC09F01384BA
:100C80001DD013A40CD01394818C520E3FEC09F0AC
:100C9000010EA96E080E136EA6EC09F007D013849E
:100CA000D1EC0DF013923EEC09F008D013A206D05F
:100CB0001392138403D01382819EB8D726EC04F0DC
:100CC00013B034D0F2D13CEF07F013A897D0138AB9
:100CD00018D113A893D0138C14D158EC0CF0000841
:100CE00021E1EAEC0CF08AD013A488D0500E4E6EAD
:100CF000030E256E1BEC0CF081D058EC0CF00008B4
:100D000011E1F6EC0CF07AD013A478D039EC0DF0A8
:100D100075D010501124D8A4ADEC0DF06FD02E6A10
:100D20002F6AAAD038EF07F050EF07F0900E2D5C35
:100D3000CAE0910E2D5CC7E0920E2D5CC4E0980EC7
:100D40002D5CEDE0990E2D5CEAE09A0E2D5CE7E05B
:100D50005C0E2D5C49E0730E2D5C53E00D0E2D5C96
:100D6000D8E026A24BD0420E2D5C5FE0100E2D5C29
:100D7000DBE0110E2D5CC8E0530E2D5C66E0540ED6
:100D80002D5C69E0550E2D5C6DE0560E2D5C5BE030
:100D9000D20E2D5C7BE0950E2D5C97E0B20E2D5CA3
:100DA00098E0710E2D5C1CE0960E2D5C7FE0570ED6
:100DB0002D5C18E0720E2D5C6CE0580E2D5C0AE084
:100DC0009C0E2D5C9AE05D0E2D5C08E0750E2D5C8E
:100DD00003E014D06DEF06F008EF07F0ADEF07F079
:100DE0005FEF07F066EF07F058EC0CF0000840E109
:100DF000FF0EA96EFF0EA6EC09F0FF001390D9EFCD
:100E000005F058EC0CF0000833E14FEC0DF0F6D78C
:100E100058EC0CF000082CE130C012F007EC0EF09A
:100E2000520E3FEC09F0FEEF06F013A4E7D7F3EC07
:100E300008F013941386819E0A0E176E520E3FEC33
:100E400009F0818CDBD770EF07F058EC0CF000084C
:100E50000FE11388D3D758EC0CF0000809E1139880
:100E6000139ACCD758EC0CF0000802E170EC0CF0AF
:100E7000C5D7020EBDEF0DF026A205D07EEC0AF01C
:100E800000082BE0BBD780A83CD0F8D713B839D0E6
:100E9000B5D758EC0CF00008EBE1C3EC0CF0AED782
:100EA00013B401D0ABD723EC0DF0A8D758EC0CF05D
:100EB0000008DEE12AEC0CF067EC09F09FD758EC53
:100EC0000CF00008D5E13CEC0CF098D758EC0CF095
:100ED0000008CEE192EC0CF091D7BCEC0AF08ED772
:100EE00058EC0CF00008C4E1050EA96EA1EC09F065
:100EF0002008516E700E4E6E040E256E1BEC0CF029
:100F00007DD726A20AD0D20E2D5C07E0950E2D5C6F
:100F100004E0B20E2D5E01E078D07EEC0AF000080D
:100F200015E026B207D080AA70D041EC0AF0000884
:100F30003BE06BD013BC27D013BA66D041EC0AF06B
:100F4000000832E0040EC9EC0DF05ED026B202D0EB
:100F500080AA65D013AA2FD062D058EC0CF00008FC
:100F600009E1D1EC0DF0520E3FEC09F0080E136EC2
:100F7000FEEF06F038EF07F03FC053F0532AA6808B
:100F8000A8CF54F002D0536A546AD30E4E6E2EC0CE
:100F90004FF02FC050F030C051F031C052F0070E6A
:100FA000256E1FEC0CF030D026B211D0050EA96EC4
:100FB000A680A8043A6E26B20FD03A44860FA96ED6
:100FC000A6808EEC0CF03F50A6EC09F01ED0050E6A
:100FD000A96EA680A8043A6E32C03FF03F5219E0D5
:100FE0003F06020E3F6015D033C041F03A44860FF1
:100FF000A96E3F50A92613BCBFD74150A6EC09F0FB
:1010000049EC09F002D01398139C1390FA6AFEEF92
:1010100006F0536A546A060EC9EC0DF0B6D7050EF9
:10102000A96EA680A8CF3CF0A8CF3DF03C463C4638
:10103000060E3C26040E3C263A463A460A0E3A2450
:10104000A96EA680A850A906A906A906A906A6EC1D
:1010500009F0050EA9263C50A962F3D73A423D4655
:10106000860E3D26020E3D26880E3A24A96EA680E5
:10107000A850A906A906A6EC09F0030EA9263D5022
:10108000A962F5D7050EA96EA680A850196E19049D
:10109000A6EC09F060EC0CF026B203D0B190A1925E
:1010A000819E139A49EC09F0AED726A204D013A66C
:1010B00004D013B402D0B9EC09F0D9EF05F0F26A0C
:1010C000C26A0F0EC16E3F0E926E3B0E936E819CF4
:1010D000819E8184FF0E946ED08EE06AA66A136AA8
:1010E000186A776A6F8E030E706E9E0E716E030E15
:1010F000726E200E736E240E606E0F01200E506F04
:10110000016B056B00010FEE18F0EE6A200EE9622C
:10111000FCD76F6ABD6A840ED56E810ECD6E630EEC
:10112000CF6E486A230EA56E9F6AA26AA06A010E5E
:101130009D6E010E126EF16AF06A230EA36E9E6A16
:10114000A16A0F01509F0001609E749E749CA46A66
:1011500067EC09F082506B19236E1E6E786F796F01
:101160001C6E1B6E1D6A1F6AC80E826F266A010EF6
:10117000A96EA1EC09F0136E13A00ED026821CEC10
:1011800009F060EC0CF067EC09F0C00EF26E819E85
:10119000818C1390D9EF05F092EC04F006EC09F085
:1011A0002B0E8014020802E170EC0CF060EC0CF0E5
:1011B00020EC04F0C00EF26E819C818ED9EF05F018
:1011C00000EE48F01FEE30F00F0130B7FED70001FF
:1011D000EE50E66E560EE962FBD70F0130B7FED730
:1011E0003087000112002EC010F02FC011F0020E47
:1011F000A96E1050A6EC09F0A92A1150A6EC09F02E
:10120000010EA96E090EA6EC09F012000D6E4BEC52
:1012100009F0F00E49160E5049120F504A6E0F0198
:1012200020B7FED7216B0E50216F0F50226FB00EEA
:101230002113256B00011200000EA96EA680A85094
:101240000D6E4BEC09F0F00E49160E5049120F507E
:101250004A6E020EA96EA1EC09F0106EA92AA1EC4B
:1012600009F0116E0F012097216B0E50216F0F5066
:10127000226FB00E2113256B00011200500E4E6E2E
:1012800010C04FF011C050F0030E256E1BEC0CF097
:101290001200590EF4D70DC00FF00F3A0F44E00BB7
:1012A0000F6E0DC00EF00E420E420E400F0B0E6E72
:1012B000120029C00FF00F3A0F40070B0F6E28C025
:1012C0000EF00E460E460E44780B0F101200C60E9E
:1012D000A96EA680A8506A6FA92AA680A8506B6F35
:1012E000A92AA680A8506C6FA92AA680A8506D6F65
:1012F0006D4B6D07020E6D656D6FA92AA680A85013
:101300006E6F6E4B6E07020E6E656E6FA92AA68019
:10131000A8506F6FA92AA680A850706FA92AA6802E
:10132000A850716FA92AA680A850726FA92A7A6B5B
:101330007B6B7C6B7D6B7E6B7F6B806B816B126AD2
:101340001200A69EA69CA680A8501200A86EA69E7B
:10135000A69CA684F2CF0CF0F26A550EA76EAA0ED8
:10136000A76EA682A6B2FED7A198A6940CC0F2FFE3
:101370001200F2CF0CF0F26A1BC01CF00CC0F2FF9E
:101380001C5023187DE01F6E231A1C50E81E6F1599
:101390001F141D1A1C506F151F14E81E1F161D5018
:1013A000E81E6F151E6E6F51E81E1C141E1282512E
:1013B00067E170511AE0900E4E6E702906E0705190
:1013C0001F1413E01E1401E04E2A1C50526E020E30
:1013D000516E10C04FF011C050F0050E256E0A0E70
:1013E000186E1BEC0CF01CEC0EF0216A206A2080B9
:1013F00026A467EC09F026846AC022F026B203D046
:10140000226A26B0221ED8901F3204E2212A2036FA
:1014100037E2F9D72050A9EC0AF0000821E021C0FA
:1014200052F0522A516A900E4E6E1E50201404E063
:10143000225020140FE14E8010C04FF011C050F028
:10144000050E256E0F0E4916B00E49120A0E186EC3
:101450001BEC0CF0212A203613E21CEC0EF0D3D743
:10146000060EA96ED8903A463A44020FA926A1EC7E
:1014700009F0516EA92AA1EC09F0526E980ED4D74A
:10148000120026B202D080AA1200050EA96EA68014
:10149000A8503A6E200E3A60010C01EE00F03A4678
:1014A0003A463A502EC0EBFF010F2FC0EBFF010F61
:1014B00030C0EBFF010F31C0EBFF060E3A24A96EDE
:1014C0002E50A6EC09F0A92A2F50A6EC09F0A92A63
:1014D0003050A6EC09F0A92A3150A6EC09F0050E0F
:1014E000A96EA680A850010F196EA6EC09F026B2CD
:1014F00004D0200E195C01E1010C000C01EE00F09B
:10150000050EA96EA680A850146E145221E03A6A06
:10151000386AEE502E62382AEE502F62382AEE508A
:101520003062382AEE503162382A38660CD03A449C
:10153000860FA96EA990A680A8503F6EA92AA68002
:10154000A850416E000C145203E014063A2AE0D76A
:10155000010C21C046F046863A6A200E146E860EB3
:10156000A96EA1EC09F0465C06E03A2AA92AA92A4C
:10157000142EF7D7010C000C3FB621D1910E2D5C33
:1015800009E0990E2D5C06E0000E3F5C06E0010EBE
:101590003F5C01E01200BBEF0BF01CEC0EF0216A87
:1015A000050E256E2D50366E920E365C06E09A0EB4
:1015B000365C06E1900E366E05D0930E366E02D084
:1015C000900E366E36C04EF0516A21C052F0522A4B
:1015D0001EB04E2AA9EC0AF0006E02E17EEC0CF07F
:1015E000212A71B10AD06FB108D06AA102D01EB011
:1015F00004D01BEC0CF01CEC0EF0516A36C04EF01F
:101600001EB24E2A21C052F0522AA9EC0AF0006EF6
:1016100002E17EEC0CF0212A71B30AD06FB308D03E
:101620006AA302D01EB204D01BEC0CF01CEC0EF02E
:10163000516A36C04EF01EB44E2A21C052F0522AD2
:10164000A9EC0AF0006E02E17EEC0CF0212A71B5E3
:101650000AD06FB508D06AA502D01EB404D01BEC26
:101660000CF01CEC0EF0516A36C04EF01EB64E2A3D
:1016700021C052F0522AA9EC0AF0006E02E17EEC81
:101680000CF0212A71B70AD06FB708D06AA702D030
:101690001EB604D01BEC0CF01CEC0EF0516A36C0E8
:1016A0004EF01EB84E2A21C052F0522AA9EC0AF080
:1016B000006E02E17EEC0CF0212A71B90AD06FB9FC
:1016C00008D06AA902D01EB804D01BEC0CF01CECA8
:1016D0000EF0516A36C04EF01EBA4E2A21C052F0AA
:1016E000522AA9EC0AF0006E02E17EEC0CF0212AED
:1016F00071BB0AD06FBB08D06AAB02D01EBA04D04F
:101700001BEC0CF01CEC0EF0516A36C04EF01EBC07
:101710004E2A21C052F0522AA9EC0AF0006E02E1D2
:101720007EEC0CF0212A71BD0AD06FBD08D06AADE5
:1017300002D01EBC04D01BEC0CF01CEC0EF0516A65
:1017400036C04EF01EBE4E2A21C052F0522AA9ECDD
:101750000AF0006E02E17EEC0CF071BF08D06FBFA2
:1017600006D06AAF02D01EBE02D01BEC0CF01D6A80
:1017700040EC04F012002D50366E900E365C13E0F3
:10178000980E365C03E1900E366E0DD0920E365CEC
:1017900003E1930E366E07D09A0E365C02E0FEEF40
:1017A00006F0930E366E36C04EF0010E516E785133
:1017B000526E050E256E1BEC0CF0519012009A0E25
:1017C0002D5C23E0920E2D5C1FE0010E416E3F5018
:1017D000070B13E04146E80410E04146E8040DE041
:1017E0004146E8040AE04146E80407E04146E804CF
:1017F00004E04146E80401E041462DB003D04150E9
:101800001D121200411C1D1612003F96010E576E4C
:101810003F5203E03F065746FBD75750781503E089
:101820009E0E4E6E02D09D0E4E6E30C051F031C0F5
:1018300052F0050E256E10C04FF011C050F025502B
:101840004D6E0F0E4916B00E49120A0E186EE0ECDE
:1018500008F012000A0E30600BD0305009E0E806A4
:10186000C60FA96E3150A6EC09F049EC09F0120040
:101870000A0EC9EC0DF012000A0E306015E030506F
:1018800013E0E806C60FA96EA1EC09F0526E30C055
:1018900051F02EC04FF02FC050F0970E4E6E050E37
:1018A000256E1FEC0CF012000A0EC9EC0DF01200B0
:1018B00010502E5C04E111502F5C01E1000C010C72
:1018C000200E146ED8901446144601EE00F0060E59
:1018D000A96EA680A850EE6EA92A142EFAD712007F
:1018E000C20E146E040EA96E000EA6EC09F0A92A11
:1018F000142EFAD726B249EC09F01200060EA96E92
:10190000D8903A463A44020FA926A1EC09F0516E4C
:10191000A92AA1EC09F04E86526E12000F0E801417
:101920003F6E1200196A050EA96EA1EC09F03E6E19
:10193000000824E0010E556E060EA96EA1EC09F018
:10194000516EA92AA1EC09F0526EA92AA1EC09F066
:10195000536EA92AA1EC09F0546EA92AF20E4E6E1C
:10196000080E256E1BEC0CF01CEC0EF055520AE034
:10197000192A3E50195C06E0552AE0D7070EC9EC3B
:101980000DF012001200050EA96EA1EC09F03E6EDA
:101990000008F4E030063060F1D7E846E846060F6C
:1019A000A96EA1EC09F0516EA92AA1EC09F0526EC2
:1019B000A92AA1EC09F0536EA92AA1EC09F0546EF2
:1019C000302A30C055F0F20E4E6E080E256E1BEC1C
:1019D0000CF01200050EA96EA1EC09F0516E740E08
:1019E0004E6E040E256E1BEC0CF0120030500008F9
:1019F000C5E0050EA96EA1EC09F030C019F019067A
:101A00001960BCD71950020D3150000818E031C0E0
:101A10001AF01A06020E1A6012D01A50F324860F1A
:101A2000A96EA1EC09F0536EB50E4E6E30C051F0A8
:101A300031C052F0060E256E1BEC0CF01200060EA3
:101A4000C9EC0DF01200EF0E4E6E080EF76E200E70
:101A5000F66E00EE4FF0070E146EA68E0900F5CF5D
:101A6000EEFF142EFBD7A69E080E256E1FEC0CF081
:101A70001200E20E4E6E100EF66E080EF76E00EEBD
:101A80004FF0070E146EA68E0900F5CFEEFF142E50
:101A9000FBD7A69E080E256E1FEC0CF012003050EE
:101AA00000082FE0140E30C019F01906196034D068
:101AB0009B0E4E6E070E196204D090EC0DF0526E24
:101AC00019D00E0E196204D097EC0DF0526E12D0A0
:101AD0000F0E196204D09BEC0DF0526E0BD0200E4D
:101AE000F66E080EF76EF86A3004F626A68E080029
:101AF000F5CF52F030C051F0050E256E1BEC0CF006
:101B000012009B0E4E6E140E526E30C051F0050E38
:101B1000256E1BEC0CF012000A0EC9EC0DF0120041
:101B2000030E26B20409196E1986195012009FEC93
:101B30000DF0F35012009FEC0DF0F45012003F0E28
:101B4000F86EFF0EF76EFE0EF66EA68E0900F5CF4C
:101B5000F3FF0800F5CFF4FF120025EC0EF0B60EEF
:101B60004E6EA50E516E210E526E90EC0DF0536E1E
:101B7000060E256E1BEC0CF01200C9EC0DF0FEEF0A
:101B800006F0C9EC0DF005EF08F0C9EC0DF004EF1C
:101B900008F0516E6F0E4E6E040E256E1BEC0CF0AD
:101BA0001200E1CF58F0E2CF59F0C00EF26E13826E
:101BB000486A0E0E146E00EE5AF0EE6A142EFDD72F
:101BC000BF0E496EE00E4A6E400E256E3C0EB36E9F
:101BD000AF0EB26EB10EB16E0A0E186E1FEC0CF0A5
:101BE0004D6AA1A2FED7B190A192126A122A566A3A
:101BF000568010EE5AF0E72804E1080E1226E12A7A
:101C0000FAD75650E71403E05636122AFAD7640E74
:101C100012600CD0000EA96E1250A6EC09F01CEC5C
:101C200009F058C0E1FF59C0E2FF1200070EC9ECED
:101C30000DF01268129EEED70A0E156E146A142E5D
:101C40001FEF0EF0152EFAD71200640E166E1CEC64
:081C50000EF0162EFCD7120065
:020000040030CA
:0300010006061ED2
:020005008081F8
:060008000FC00FE00F40E5
:0200000400F00A
:060000007F00000000007B
:0A0086000000000000000000000070
:100090000000000000000000000000000000000060
:1000A0000000000000000000000000000000000050
:1000B0000000000000000000000000000000000040
:1000C0000000000000000000000A0A00000000001C
:0600D0000000000000002A
:0200FE00000000
:00000001FF
