:020000040000FA
:040000001FD00ED02F
:0400080004EF04F00D
:040018000CEF04F0F5
:10002000A66E05A01200550EA76EAA0EA76EA68298
:100030000000A6B2FED712000A26D8B00B2A120082
:100040000F01030E706EA66AA968AA68A680000058
:10005000A83C00EF04F0066A1C0E056E000E006F4F
:10006000080E016FE81E056F000E026F070E036F8A
:10007000FF0E186FEB0E196FFF0E1A6FF80E1B6F45
:100080009E0E716E030E726E200E736E6F6A9490E8
:10009000949482908294939E939C818E818C609E96
:1000A000040060AEFDD70FEE66F065500F0B096ED1
:1000B000F46EF5E064B02CD010EE01F0EECFE6FF68
:1000C000F42EFCD70650EBE0010AD8A408D0A968AA
:1000D000AA68A86A040EA4DF8280819CFF000650F3
:1000E000020A05E10B6A0A6A0C900C6AD8D706501E
:1000F000030A0AE107500A2606E108500B2203E131
:100100000CB001D074D077D00650040AC8E177D083
:100110000350F86EF00BF36E0250F76EAA6E0150AA
:10012000F66EA96E05A605D009500126E86A0222DE
:100130000322300EF36001D008D0F350300A01E101
:100140002AD0F350F00AABE132D005A405D0F65026
:100150003F0B02E1940E64DF05B2A1D7F650070B06
:100160009EE1080EF46EEE50F56E66DF0D00F42E83
:10017000FAD7080EF46E0A00ED50F42EFCD7840E68
:100180004FDF080EF46E0900F550EE18D8A40C806D
:10019000F42EF9D784D7EF50F56E4EDF0C00C40E65
:1001A0003FDF0900F550EE18F42EF5D778D7EF5061
:1001B000A86E42DF040E34DFA66AA6800000A850B5
:1001C000EE18D8A40C80A94AAA2AF42EF0D767D733
:1001D00040B7FED7800E416F080E426F000E436F8E
:1001E000040E446F448164A04491408758D7010EA7
:1001F000466F456FEDD7466B010E456FE9D7020E8E
:08020000466F010E456FE4D7C3
:080800000000D3EF1DF012000F
:0808080007ED04F012000600E8
:0608100002EF06F01200E9
:020818001200CC
:10082000A5621FFF0A50010B05010008000000002F
:100830000000010200000000140040080000F8025F
:0608400050616E656C00C2
:100850000200567F000022040000070000006A0822
:0A086000000029040000020000005F
:02086A0001008B
:10087000D9CFE6FFE1CFD9FF120EE12664C0E6FF33
:1008800065C0E6FF66C0E6FF67C0E6FF68C0E6FF3A
:1008900069C0E6FF6AC0E6FF6BC0E6FF06D9146ECA
:1008A000080EE15E1450E5EC1AF0020E06C0DBFF04
:1008B000030E07C0DBFF040E08C0DBFF050E09C0F6
:1008C000DBFF00016491656B00016451010B01E0E5
:1008D0008CD0020EDBCF18F0030EDBCF19F0040E24
:1008E000DBCF1AF0050EDBCF1BF018C0E6FF19C0F6
:1008F000E6FF1AC0E6FF1BC0E6FFE5EC1AF0E55282
:10090000E7CF1BF0E552E7CF1AF0E552E7CF19F039
:10091000E552E7CF18F000011850065C146E19502C
:100920000758156E1A500858166E1B500958176E46
:100930007EC0F6FF7FC0F7FF0800F5CF1CF01D6AF0
:100940001E6A6A0E0C6E180E0D6E0E6A1CC007F041
:100950001DC008F01EC009F05FEC3EF004C01CF0A2
:1009600005C01DF006C01EF0480E1C26E80E1D2214
:10097000010E1E221F6A1EBE1F6814501C5C1550FB
:100980001D5816501E5817501F582FE20001648141
:100990007EC0F6FF7FC0F7FF0800F550000807E2B1
:1009A000810EE66EE66AD7EC15F0E552E5527EC0A0
:1009B000F6FF7FC0F7FF050EF626000EF7220800AF
:1009C000F550080B12E000010B0E836F7EC0F6FF9E
:1009D0007FC0F7FF050EF626000EF7220800F5503F
:1009E000070BE8B4F8090001656F020E0001655DB0
:1009F00002E0000E01D0010EE66E82D8E552000141
:100A00006B6F9AEC0FF00C0E0001835D22E10B0E70
:100A1000836F0001652B060E655D04E1010E656FB5
:100A2000666B676BE66A72EC29F0E55271EC2AF0AE
:100A30000001696BE5EC1AF0060E06C0DBFF070E3D
:100A400007C0DBFF080E08C0DBFF090E09C0DBFF93
:100A500009D00D0E835D06E10001010E6A6F0001F1
:100A60000B0E836F0B0E0001835D02E188EC08F032
:100A7000000164A117D07CEC06F0E76E010EE7CF11
:100A8000DBFFDB50FF080EE0010EE66EDBCFE6FF7A
:100A9000E66AE668E668E66A73EC0DF0146E060E28
:100AA000E15E145022EC3EF00FD7D9CFE6FFE1CF44
:100AB000D9FFE65219EC3FF059EC06F081EC08F052
:100AC00047EC08F07EC0F6FF7FC0F7FF040EF62665
:100AD000000EF7220800F550E66E2FEC29F0E552E3
:100AE000F28E0001830502E0000E01D0010EE66ED9
:100AF000F7EC3DF0E552E552E552E7CFD9FF1200A1
:100B0000D9CFE6FFE1CFD9FF170EE126D950010F6B
:100B1000E66E000EDA20E66EE66AD1EC0CF0E552E5
:100B2000E552E552DF6EDF505FE0FE0EDB5052E033
:100B3000070EDB50E00BE838E840010FE76E150EBA
:100B4000E7CFDBFFDB50040805E2040EF36E150E61
:100B5000F3CFDBFF160EDB6A150EDB50F36E160EBD
:100B6000DBCFF4FFF350F45C1BE2160EDB50E824FD
:100B7000E66ED950010F146EDACF15F0160EDB5069
:100B8000060F0F011424E96E000EDA20EA6EEF5012
:100B9000E66E64EC2BF0E552E552160EDB2ADCD74C
:100BA000150EDB50020D160EF3CFDBFF080EF36EB1
:100BB000160EDBCFF4FFF350F45C16E2160EDBCF1B
:100BC000E6FF200EE66E7FEC2BF0E552E552160EA6
:100BD000DB2AECD7D950010FE66E000EDA20E66E64
:100BE00003EC11F0E552E552DF50146E170EE15C94
:100BF00002E2E16AE552E16E1450E552E7CFD9FF17
:100C000012001200D8CFE4FFE0CFE4FFE46EDACFA9
:100C1000E4FFE2CFDAFFE9CFE4FFEACFE4FFF6CF6B
:100C2000E4FFF7CFE4FFF5CFE4FFF3CFE4FFF4CF29
:100C3000E4FFFACFE4FF00EE00F0140EE80403E353
:100C4000EECFE4FFFBD700EE14F00C0EE80403E354
:100C5000EECFE4FFFBD7E6523BEC1BF09AEC3DF005
:100C6000E55200EE1FF00C0EE80403E3E5CFEDFFC4
:100C7000FBD700EE13F0140EE80403E3E5CFEDFF1D
:100C8000FBD7E5CFFAFFE5CFF4FFE5CFF3FFE5CFE4
:100C9000F5FFE5CFF7FFE5CFF6FFE5CFEAFFE5CFBC
:100CA000E9FFE5CFDAFFE550E5CFE0FFE5CFD8FF7C
:100CB0001000D9CFE6FFE1CFD9FFE6520401006B67
:100CC000DF6A080EDF5C09E2DF50EA6A060FE96EB0
:100CD000040EEA22EF68DF2AF4D78B6893809382B0
:100CE0009388938A938A928A928692829280E5521E
:100CF000E552E7CFD9FF1200D9CFE6FFE1CFD9FF08
:100D0000130EE126030EDB6A040EDB6A050EDB6AB6
:100D1000060EDB6A070EDB6A080EDB6A090EDB6A69
:100D20000A0EDB6A0C0EDB6A0D0EDB6A0F0EDB6A45
:100D30000E0EDB6A100EDB68DF6A080EDF5C01E373
:100D400098D0010EDF5206E0DFCFF3FFE846FE0B3E
:100D5000F306FCE1E81CE76E010EE7CFDBFFF25083
:100D6000800B01E0010EE76E120EE7CFDBFFF29E73
:100D70008B68010EDB508B16020EDB6AD950020F16
:100D8000E96EDACFEAFF8150010B02E0EF8001D07B
:100D9000EF90D950020FE96EDACFEAFF8150020BD3
:100DA00002E0EF8201D0EF92D950020FE96EDACF64
:100DB000EAFF8150100B02E0EF8401D0EF94D9508C
:100DC000020FE96EDACFEAFF8150200B02E0EF86D6
:100DD00001D0EF96D950020FE96EDACFEAFF8050CA
:100DE000200B02E0EF8801D0EF98D950020FE96E96
:100DF000DACFEAFF8050080B02E0EF8A01D0EF9AC9
:100E0000D950020FE96EDACFEAFF8050020B02E000
:100E1000EF8C01D0EF9CD950020FE96EDACFEAFFD8
:100E20008050010B02E0EF8E01D0EF9E120EDB50DE
:100E3000E8B0F28EE8A0F29E020EDB50FF0809E057
:100E40000F0EDFCFDBFF020EDB1CE76E100EE7CFCD
:100E5000DBFFD950030F146EDACF15F0DF501424E6
:100E6000E96E000EDA20EA6E020EDBCFEFFFDF2A1A
:100E700064D70B0EDB68040100A5B5D0D950030F71
:100E8000E96EDACFEAFFEE500E196EE1EE500F195F
:100E90006BE1EE50101968E1EE50111965E164E163
:100EA000D950070FE96EDACFEAFFEE5012195CE174
:100EB000EE50131959E1EE50141956E1EE50151980
:100EC00053E152E1E5EC1AF004010251065C146EA4
:100ED00003510758156E04510858166E05510958EC
:100EE000176ED880E20E1454040E1554000E1654DA
:100EF000000E175401E3BDD00EC406F40FC407F46E
:100F000010C408F411C409F412C40AF413C40BF495
:100F100014C40CF415C40DF40095100EDB5001E15F
:100F2000A8D0100EDB50FF0801E1A3D0110EDB6A40
:100F3000100EDB50010B01080AE0100EDBCFF3FFAF
:100F4000F390F342F3CFDBFF110EDB2AF1D70F0E44
:100F5000DBCFE6FF110EDB38F00BE552E724E76E3E
:100F60000B0EE7CFDBFF85D0D950030FE96EDACF48
:100F7000EAFFEE5006191EE1EE5007191BE1EE5094
:100F8000081918E1EE50091915E114E1D950070FBD
:100F9000E96EDACFEAFFEE500A190CE1EE500B19B8
:100FA00009E1EE500C1906E1EE500D1903E102E1E2
:100FB00000955FD0030EDBCF0EF4040EDBCF0FF4F1
:100FC000050EDBCF10F4060EDBCF11F4070EDBCFDE
:100FD00012F4080EDBCF13F4090EDBCF14F40A0E63
:100FE000DBCF15F43CD0D950030FE96EDACFEAFF1E
:100FF000EE5006191BE1EE50071918E1EE500819E2
:1010000015E1EE50091912E111E1D950070FE96E0F
:10101000DACFEAFFEE500A1908E1EE500B1905E1AC
:10102000EE500C1902E1EE500D1923E0030EDBCF58
:101030000EF4040EDBCF0FF4050EDBCF10F4060E1A
:10104000DBCF11F4070EDBCF12F4080EDBCF13F465
:10105000090EDBCF14F40A0EDBCF15F40085E5ECA6
:101060001AF006C002F407C003F408C004F409C073
:1010700005F40B0EDB50146E130EE15C02E2E16A24
:10108000E552E16E1450E552E7CFD9FF1200D9CFF7
:10109000E6FFE1CFD9FFE652810EE66EE66A79EC13
:1010A0000FF0E552E5520001CE0E896F3B0E8A6FBC
:1010B00089C07EF0E8CF7FF000011E0E8B6F3C0EE2
:1010C0008C6F0001806B826BE552E552E7CFD9FF50
:1010D0001200D9CFE6FFE1CFD9FFE65200018151DE
:1010E00003E082C0DFFF03D0FE0EDB50DF6EDF5077
:1010F00002E0010E01D0000EE552E552E7CFD9FF24
:1011000012000001656B666B676B686B696B1200A0
:10111000D9CFE6FFE1CFD9FF0C0EE12600016551E2
:10112000050A01E118D2010A01E179D1070A01E1BA
:101130004BD1020A01E092D26A5103E0666B676B01
:101140006A6B060E661901E1675101E101D1050ED6
:10115000661901E1675101E1C2D0040E661901E18F
:10116000675101E19DD0030E661901E1675158E016
:10117000020E661901E1675136E0010E661901E1C0
:1011800067510EE0665101E069D2675101E066D215
:1011900071EC2AF0010EE66E72EC29F0E552C9D02E
:1011A000E5EC1AF004011A51065C146E1B51075845
:1011B000156E1C510858166E1D510958176ED880AF
:1011C000B40E1454C40E1554040E1654000E1754C5
:1011D00001E344D2E66A72EC29F0E55271EC2AF0A0
:1011E00036EC2CF0A6D0E5EC1AF004011A51065C9E
:1011F000146E1B510758156E1C510858166E1D5160
:101200000958176ED880B40E1454C40E1554040E29
:101210001654000E175401E321D274EC2CF089D03F
:10122000E5EC1AF004011A51065C146E1B510758C4
:10123000156E1C510858166E1D510958176ED8802E
:10124000B40E1454C40E1554040E1654000E175444
:1012500001E304D271EC2AF0E66AE66A3AEC2BF07C
:10126000E552E552010EE66EE66E3AEC2BF0E552E1
:10127000E552020EE66E230EE66E64EC2BF0E552AC
:10128000E552E66A040EE66EE66E670EE66E450E01
:10129000E66E00EC2BF0146E050EE15E145049D0A2
:1012A000E5EC1AF004011A51065C146E1B51075844
:1012B000156E1C510858166E1D510958176ED880AE
:1012C000B40E1454C40E1554040E1654000E1754C4
:1012D00001E3C4D171EC2AF038EC2AF02AD0E5EC15
:1012E0001AF004011A51065C146E1B510758156E52
:1012F0001C510858166E1D510958176ED880B40E2F
:101300001454C40E1554040E1654000E175401E361
:10131000A5D11E691F690001686B1EC4E6FF1FC4CA
:10132000E6FFDAEC29F0E552E552F3CF1EF4F4CFF4
:101330001FF4E5EC1AF006C01AF407C01BF408C04D
:101340001CF409C01DF40001662B000E672386D132
:10135000E5EC1AF004011A51065C146E1B51075893
:10136000156E1C510858166E1D510958176ED880FD
:10137000120E14547A0E1554000E1654000E175403
:1013800001E36CD11E511F1108E10001682B020E10
:10139000685D03E3666B676B61D11EC4E6FF1FC423
:1013A000E6FFDAEC29F0E552E552F3CF1EF4F4CF74
:1013B0001FF4E5EC1AF006C01AF407C01BF408C0CD
:1013C0001CF409C01DF44AD16A5108E06A6B696BCC
:1013D0000001DF6B0001E36B0001E16B00016B5169
:1013E00002E0692B6B6BE66A69C0E6FF64EC2BF0E8
:1013F000E552E552020EE66EDFC0E6FF64EC2BF02C
:10140000E552E552040EE66EE3C0E6FF64EC2BF015
:10141000E552E552060EE66EE1C0E6FF99D069514D
:1014200011E1666B676B7EC0F6FF7FC0F7FF070EAA
:10143000F626000EF7220800F5500401206F216BFC
:101440000001692B6A5117E06A6B666B676B692B49
:101450007EC0F6FF7FC0F7FF050EF626000EF722CE
:101460000800F550200B07E0010E0401D89020374A
:101470002137E806FBE1040120510001665D04010B
:1014800021510001675949E2E5EC1AF004011A51B3
:10149000065C146E1B510758156E1C510858166EC9
:1014A0001D510958176E7EC0F6FF7FC0F7FF080E6A
:1014B000F626000EF7220800F550060DF3CF18F0BF
:1014C000196A1A6A1B6A1450F35C155019581650A1
:1014D0001A5817501B5821E2010EE66E000166C033
:1014E00014F067C015F0662B000E672314C0E6FFEA
:1014F00015C0E6FFE668E668E66A73EC0DF0166E66
:10150000060EE15E1650E5EC1AF006C01AF407C0AC
:101510001BF408C01CF409C01DF4E66A66C0E6FFAF
:1015200064EC2BF0E552E552020EE66EDEC0E6FFFB
:1015300064EC2BF0E552E552040EE66EE2C0E6FFE5
:1015400064EC2BF0E552E552060EE66EE0C0E6FFD5
:1015500064EC2BF081D06A5103E1695101E07ED047
:10156000010E696F6A6BD750000EF350D624E66EF9
:10157000E66A76EC3FF0E552E552DF6A080EDF5C82
:101580005FE27DEC3FF0F3CF16F0F4CF17F0070EDB
:101590001616000E1716310E1626000E1722D950F9
:1015A000020F146EDACF15F0DF500F011424E96E2C
:1015B000000EDA20EA6E16C0EFFF010EF36E0B0E7E
:1015C000F3CFDBFF010EDB6A0B0EDBCFE6FFDF5054
:1015D000F36E010EDBCFF4FFF350F45C02E3000E78
:1015E00001D0010EE552E71426E0D950020F156E26
:1015F000DACF16F0DF501524E96E000EDA20EA6E1D
:10160000EFCF14F0D950020F176EDACF18F0010E99
:10161000DB501724E96E000EDA20EA6EEF50145CFE
:1016200002E1000E01D0010EE76E0B0EE7CFDBFFEB
:10163000010EDB2AC9D70B0EDB50A3E0DF2A9ED7B1
:101640000A0EDB6AE66AD950020FE66E000EDA2057
:10165000E66EB6EC2BF0E552E552E5520C0EE15C7D
:1016600002E2E16AE552E16EE552E7CFD9FF1200EE
:10167000D9CFE6FFE1CFD9FF0C0EE126010E8BC0DA
:10168000DBFF020E8CC0DBFFFE0EDB50110D0001F4
:101690008B51F324F66E8C51F420F76E0800F55050
:1016A000080B01E14BD1DF6A010EF36E0B0EF3CF95
:1016B000DBFF0B0EDB5001E141D1010EDBCF16F059
:1016C000020EDBCF17F0FE0EDB50110D1650F32487
:1016D000F66E1750F420F76E070EF626000EF7226E
:1016E000F6CF14F0F7CF15F0DF50020D1450F324AD
:1016F000F66E1550F420F76E0800030EF5CFDBFFF1
:10170000060EE76EFC0EDBCFE9FFFD0EDBCFEAFF36
:10171000E750E926000EEA22EF50010B010802E033
:10172000000E01D0010EE76E090EE7CFDBFFDB50A4
:1017300008E0D950030FE96EDACFEAFFEF50080B4B
:101740000DE1090EDB5001E0A4D0D950030FE96E82
:10175000DACFEAFFEF50100B01E19BD0D950030F15
:10176000E96EDACFEAFFEF50040B01E0FF0EF36EF3
:10177000090EDB50F35C02E1000E01D0010EE76EB2
:101780000A0EE7CFDBFFD950030FE96EDACFEAFF8D
:10179000EF50010B0BE0D950030FE96EDACFEAFFEF
:1017A000EF50020B03E00A0EDB5002E1000E01D005
:1017B000010EE76E080EE7CFDBFFD950030FE96E8D
:1017C000DACFEAFFEF50010B0BE0D950030FE96EBF
:1017D000DACFEAFFEF50020B03E10A0EDB5002E121
:1017E000000E01D0010EE76E060EE7CFDBFFD950E9
:1017F000030FE96EDACFEAFFEF50020B03E00A0EA7
:10180000DB5002E0000E01D0010EE76E070EE7CFBD
:10181000DBFF010EDBCF16F0020EDBCF17F0FE0E62
:10182000DB50110D1650F324F66E1750F420F76EAE
:10183000070EF626000EF722F6CF14F0F7CF15F0BC
:10184000DF50020D1450F324F66E1550F420F76E9D
:10185000F62A000EF7220800050EF5CFDBFF080E72
:10186000DB5006E0050EDBCFE6FFCFEC2AF010D010
:10187000060EDB5003E0010EE66E04D0070EDB50CF
:1018800008E0E66A050EDBCFE6FFA7EC2AF0E5529A
:10189000E552D950030FE96EDACFEAFFEF50800B23
:1018A000800A01E0010EE76E0B0EE7CFDBFFDB5095
:1018B00001E1FFD6020EDF26DF50146E156A050E19
:1018C000145C000E155801E2F4D6FE0EDB50110D2B
:1018D00000018B51F324F66E8C51F420F76E080052
:1018E000F550010B01E0FF0EE76E0B0EE7CFDBFFBB
:1018F000DB5001E1DED6FE0EDBCFE6FF25EC1AF071
:10190000E552E76EFE0EE7CFDBFFDF6ADB500EE04D
:10191000FE0EDB50110D00018B51F324F66E8C513D
:10192000F420F76E0800F550020B02E1000E01D022
:10193000010EE76E0B0EE7CFDBFFBBD6146E0C0E6D
:10194000E15C02E2E16AE552E16E1450E552E7CF54
:10195000D9FF1200D9CFE6FFE1CFD9FFBAEC1AF0D8
:10196000FC0EE66E030EE66E4BEC1DF0E552E55202
:10197000F3CFF0F1F4CFF1F10101F31C08E1F11D17
:1019800006E1FD0EDBCFF0F1FE0EDBCFF1F1E66AF2
:10199000E66A00EC38F0E552E552E552E7CFD9FFB0
:1019A0001200D9CFE6FFE1CFD9FFFE0EDB500AE1EE
:1019B000FC0EDBCFE6FFFD0EDBCFE6FFF4EC3AF0EA
:1019C000E552E552E552E7CFD9FF1200D9CFE6FF45
:1019D000E1CFD9FFFD0EDBCFF8F1F20EE66E010E7E
:1019E000E66EFE0EDBCFE6FFDDD9E552E552E552AD
:1019F000E552E7CFD9FF1200D9CFE6FFE1CFD9FFFB
:101A0000060EE76EFB0EDBCFE9FFFC0EDBCFEAFF35
:101A1000E750E926000EEA22FD0EDBCFEFFFFB0EBA
:101A2000DBCFE6FFFC0EDBCFE6FFFE0EDBCFE6FFF3
:101A30002ED9E552E552E552E552E7CFD9FF120023
:101A4000D9CFE6FFE1CFD9FF060EE76EF90EDBCF67
:101A5000E9FFFA0EDBCFEAFFE750E926000EEA22A3
:101A6000FD0EDBCFEFFFF90EDBCFE6FFFA0EDBCF8B
:101A7000E6FFFB0EDBCFE6FFFC0EDBCFE6FFFE0E44
:101A8000DBCFE6FF3CD9146E050EE15E1450E55243
:101A9000E7CFD9FF1200D9CFE6FFE1CFD9FF0A0E79
:101AA000E126E66AD9CFE6FFDACFE6FFFB0EDBCF11
:101AB000E6FFFC0EDBCFE6FFFD0EDBCFE6FFE668C0
:101AC000E668FE0EDBCFE6FF3AD8146E090EE15E43
:101AD00014500A0EE15C02E2E16AE552E16EE55261
:101AE000E7CFD9FF1200D9CFE6FFE1CFD9FF0A0E29
:101AF000E126E66AD9CFE6FFDACFE6FFF90EDBCFC3
:101B0000E6FFFA0EDBCFE6FFFB0EDBCFE6FFFC0EB7
:101B1000DBCFE6FFFD0EDBCFE6FFFE0EDBCFE6FF01
:101B20000ED8146E090EE15E14500A0EE15C02E25A
:101B3000E16AE552E16EE552E7CFD9FF1200D9CF55
:101B4000E6FFE1CFD9FF060EE76EF70EDBCFE9FF28
:101B5000F80EDBCFEAFFE750E926000EEA22900EEE
:101B6000EF6ED950FC0FE96EFF0EDA20EA6EEE50F0
:101B7000ED1013E1060EE76EF70EDBCFE9FFF80E6E
:101B8000DBCFEAFFE750E926000EEA22EF86FC0EE3
:101B9000F0C1DBFFFD0EF1C1DBFFF90EDB500DE103
:101BA000060EE76EF70EDBCFE9FFF80EDBCFEAFF9C
:101BB000E750E926000EEA22EF80F60EDB5000081F
:101BC00011E2F60EDB50200D060EE76EF70EDBCFAE
:101BD000E9FFF80EDBCFEAFFE750E926000EEA2224
:101BE000F350EF12FA0EFB0EDBCF15F015C014F018
:101BF000156A090EE76EF70EDBCFE9FFF80EDBCFB3
:101C0000EAFFE750E926000EEA2214C0EFFFFF0EBC
:101C1000E76EFA0EDBCF14F0FB0EE7501416156AD0
:101C20000A0EE76EF70EDBCFE9FFF80EDBCFEAFF17
:101C3000E750E926000EEA2214C0EFFFF70EDBCFD3
:101C4000E6FFF80EDBCFE6FFFC0EDBCFE6FFFD0E76
:101C5000DBCFE6FFFE0EDBCFE6FF51D8146E050E9C
:101C6000E15E1450FE0EDB5004E0FE0EDB50FF0878
:101C70000AE1F70EDBCFE6FFF80EDBCFE6FF46EC1E
:101C80003AF0E552E552E552E7CFD9FF1200D9CF3D
:101C9000E6FFE1CFD9FFF1C114F0156A070EE76E38
:101CA000FC0EDBCFE9FFFD0EDBCFEAFFE750E926B4
:101CB000000EEA22F1C1EFFF0101F051E66E080EBD
:101CC000E76EFC0EDBCFE9FFFD0EDBCFEAFFE7504E
:101CD000E926000EEA22E552E750EF6EFC0EDBCF5C
:101CE000E6FFFD0EDBCFE6FFFE0EDBCFE6FF5AD8A8
:101CF000E552E552E552E552E7CFD9FF1200D9CFC0
:101D0000E6FFE1CFD9FFE150FC0FE96EFF0EDA20CC
:101D1000EA6EFF0EEE1809E1FF0EED1806E1FC0E6B
:101D2000F0C1DBFFFD0EF1C1DBFFFC0EFD0EDBCFD2
:101D300015F015C014F0156A070EE76EFA0EDBCF2A
:101D4000E9FFFB0EDBCFEAFFE750E926000EEA22AF
:101D500014C0EFFFFF0EE76EFC0EDBCF14F0FD0E9C
:101D6000E7501416156A080EE76EFA0EDBCFE9FF8E
:101D7000FB0EDBCFEAFFE750E926000EEA2214C093
:101D8000EFFFFA0EDBCFE6FFFB0EDBCFE6FFFE0E2A
:101D9000DBCFE6FF07D8E552E552E552E552E7CF43
:101DA000D9FF1200D9CFE6FFE1CFD9FFFE0EDB50FD
:101DB00004E0FE0EDB50FF081DE1060EE76EFC0E90
:101DC000DBCFE9FFFD0EDBCFEAFFE750E926000E8F
:101DD000EA22EF50E00BE838E840010FE66EFC0E17
:101DE000DBCFE6FFFD0EDBCFE6FF04EC39F0E5527A
:101DF000E552E552E552E7CFD9FF1200D9CFE6FF11
:101E0000E1CFD9FF0E0EE126F60EF36E060EF3CFEC
:101E1000DBFFFA0EDBCFE9FFFB0EDBCFEAFF090E9B
:101E2000EFCFDBFF010EE76EFA0EDBCFE9FFFB0E13
:101E3000DBCFEAFFE750E926000EEA220A0EEFCFD9
:101E4000DBFF020EE76EFA0EDBCFE9FFFB0EDBCF06
:101E5000EAFFE750E926000EEA220B0EEFCFDBFF88
:101E6000030EE76EFA0EDBCFE9FFFB0EDBCFEAFFD6
:101E7000E750E926000EEA220C0EEFCFDBFF040E3E
:101E8000E76EFA0EDBCFE9FFFB0EDBCFEAFFE75090
:101E9000E926000EEA220D0EEFCFDBFFD9CFE6FFD9
:101EA000DACFE6FFFC0EDBCFE6FFFD0EDBCFE6FF71
:101EB000FE0EDBCFE6FF23DF146E050EE15E14504D
:101EC000FE0EDB5004E0FE0EDB50FF0808E1D9CF28
:101ED000E6FFDACFE6FF46EC3AF0E552E5520E0EA9
:101EE000E15C02E2E16AE552E16EE552E7CFD9FF3B
:101EF0001200D9CFE6FFE1CFD9FF46EC1BF0FB0E75
:101F0000E66E030EE66EFCEC1CF0E552E5520001B5
:101F1000836F846F3BEC16F0FD0EDBCFE6FFFE0E09
:101F2000DBCFE6FFAAEC0CF0E552E552E552E7CF35
:101F3000D9FF1200000183510A0A01E1D4D0010A3D
:101F400001E1C2D0020A01E19CD00D0A01E195D065
:101F5000070A5CE0010A16E0030A03E0010A01E057
:101F6000120080B420D183C084F0020E836FE5ECB0
:101F70001AF006C085F007C086F008C087F009C0D7
:101F800088F0120080B420D0E5EC1AF000018551F1
:101F9000065C146E86510758156E87510858166EE8
:101FA00088510958176ED880900E1454D00E1554CD
:101FB000030E1654000E175428E2030E836FE66AD0
:101FC00011EC3EF0E552120084051DE1E5EC1AF03B
:101FD00000018551065C146E86510758156E8751B5
:101FE0000858166E88510958176ED8806A0E145416
:101FF000180E1554000E1654000E175404E2040E69
:10200000836FD4EF10F084C083F0120080A40AD054
:10201000845104E1040E836FD4EF10F0836BE3D896
:10202000EDEF3DF0E5EC1AF000018551065C146E11
:1020300086510758156E87510858166E88510958F1
:10204000176ED880200E1454A10E1554070E165486
:10205000000E175401E3A7D00A0E836FE5EC1AF0C7
:1020600006C085F007C086F008C087F009C088F078
:10207000010EE66E11EC3EF05BD080B494D0090EF8
:1020800026D080A490D0E5EC1AF000018551065CC2
:10209000146E86510758156E87510858166E885170
:1020A0000958176ED8806A0E1454180E1554000E75
:1020B0001654000E175406E284C083F0830532E103
:1020C000010E33D0040E6BD080B46DD00A0E836F36
:1020D000E5EC1AF006C085F007C086F008C087F06E
:1020E00009C088F0120080A45ED0E5EC1AF000016F
:1020F0008551065C146E86510758156E8751085835
:10210000166E88510958176ED880900E1454D00E50
:102110001554030E1654000E17540CE284C083F0BD
:10212000830502E0000E01D0010EE66EF7EC3DF0F3
:10213000E5521200E5EC1AF000018551065C146EC0
:1021400086510758156E87510858166E88510958E0
:10215000176ED880240E1454F40E1554000E165425
:10216000000E175402E20C0E1AD0E5EC1AF0000132
:102170008551065C146E86510758156E87510858B4
:10218000166E88510958176ED8806A0E1454180EAE
:102190001554000E1654000E175403E20D0E836FF3
:1021A00012000B0E836F1200D9CFE6FFE1CFD9FFEB
:1021B000090EE126D9CFE6FFDACFE6FFE668E6684A
:1021C000500EE66EE66820EC0DF0146E060EE15E31
:1021D0001450090EE15C02E2E16AE552E16EE5525B
:1021E000E7CFD9FF1200F20EE66E010EE66EE6684A
:1021F000E668510EE66EE66820EC0DF0146E060EF1
:10220000E15E14501200D9CFE6FFE1CFD9FFFD0EF9
:10221000DBCFE6FFFE0EDBCFE6FF88EC19F0E552E0
:10222000E552000909E1FD0EDBCFE6FFFE0EDBCF34
:10223000E6FF06D8E552E552E552E7CFD9FF120096
:10224000D9CFE6FFE1CFD9FF0C01006B070E0001EB
:10225000835D01E041D10C01010E006F060EE76EB7
:10226000FD0EDBCFE9FFFE0EDBCFEAFFE750E926EC
:10227000000EEA22EF50B20A01E1D8D0470A01E18C
:1022800074D0270A62E0470A19E0C00A01E124D1AC
:10229000010A10E0070A01E01ED1FD0EDBCFE6FFC8
:1022A000FE0EDBCFE6FF8EEC15F0E552E55200099D
:1022B00001E012D10001010E836F0ED10A0EE76E0C
:1022C000FD0EDBCFE9FFFE0EDBCFEAFFE750E9268C
:1022D000000EEA22EFCF14F0090EE76EFD0EDBCF01
:1022E000E9FFFE0EDBCFEAFFE750E926000EEA2207
:1022F000EF50000EF3501424E66EE66A080EE76E07
:10230000FD0EDBCFE9FFFE0EDBCFEAFFE750E9264B
:10231000000EEA22EFCF15F0070EE76EFD0EDBCFC1
:10232000E9FFFE0EDBCFEAFFE750E926000EEA22C6
:10233000EF50000EF3501524E66EE66ABCEC16F082
:10234000E552E552E552E552C7D00C0EE76EFD0EA0
:10235000DBCFE9FFFE0EDBCFEAFFE750E926000EF8
:10236000EA22EF50E66E0B0E0FD00D0EE76EFD0E5B
:10237000DBCFE9FFFE0EDBCFEAFFE750E926000ED8
:10238000EA22EF50E66E0C0EE76EFD0EDBCFE9FFA2
:10239000FE0EDBCFEAFFE750E926000EEA22EF50FF
:1023A000E66E0A0EE76EFD0EDBCFE9FFFE0EDBCF19
:1023B000EAFFE750E926000EEA22EFCF14F0090EFB
:1023C000E76EFD0EDBCFE9FFFE0EDBCFEAFFE75045
:1023D000E926000EEA22EF50000EF3501424E66EB8
:1023E000E66A080EE76EFD0EDBCFE9FFFE0EDBCFDF
:1023F000EAFFE750E926000EEA22EFCF15F0070EBC
:10240000E76EFD0EDBCFE9FFFE0EDBCFEAFFE75004
:10241000E926000EEA22EF50000EF3501524E66E76
:10242000E66AE9EC17F0166E060E52D00B0EE76E58
:10243000FD0EDBCFE9FFFE0EDBCFEAFFE750E9261A
:10244000000EEA22EF50E66E0A0EE76EFD0EDBCFBD
:10245000E9FFFE0EDBCFEAFFE750E926000EEA2295
:10246000EFCF14F0090EE76EFD0EDBCFE9FFFE0E95
:10247000DBCFEAFFE750E926000EEA22EF50000E1C
:10248000F3501424E66EE66A080EE76EFD0EDBCF0D
:10249000E9FFFE0EDBCFEAFFE750E926000EEA2255
:1024A000EFCF15F0070EE76EFD0EDBCFE9FFFE0E56
:1024B000DBCFEAFFE750E926000EEA22EF50000EDC
:1024C000F3501524E66EE66A6AEC17F0166E050EF8
:1024D000E15E165001D0006B0C01005101E07ED08E
:1024E000FD0EDBCFE6FFFE0EDBCFE6FF17DBE5528E
:1024F000E552000973E00C01010E006F060EE76E55
:10250000FD0EDBCFE9FFFE0EDBCFEAFFE750E92649
:10251000000EEA22EF509C0A5DE00A0A3BE0E70A5F
:1025200029E0290A24E00F0A1FE0010A1AE0050A3F
:1025300012E0200A52E1090EE76EFD0EDBCFE9FF43
:10254000FE0EDBCFEAFFE750E926000EEA22EF504D
:10255000E66EDAD83DD00001830540E1070E836FB7
:102560003DD08BEC16F03AD0A3EC16F037D0A4ECAB
:1025700016F034D0090EE76EFD0EDBCFE9FFFE0E3C
:10258000DBCFEAFFE750E926000EEA22EF50E66EC5
:1025900044D91ED00A0EE76EFD0EDBCFE9FFFE0E1A
:1025A000DBCFEAFFE750E926000EEA22EF50E66EA5
:1025B000090EE76EFD0EDBCFE9FFFE0EDBCFEAFF73
:1025C000E750E926000EEA22EF50E66E49D9E552BF
:1025D000E55204D069EC17F001D0006B0C010051FA
:1025E00013E1060EE76EFD0EDBCFE9FFFE0EDBCF3B
:1025F000EAFFE750E926000EEA22EF500D0804E159
:1026000034D80C01010E006F005129E1040E0001C5
:10261000835D25E10C01010E006F060EE76EFD0ED5
:10262000DBCFE9FFFE0EDBCFEAFFE750E926000E25
:10263000EA22EF50420A08E0530A04E0010A0EE1E0
:1026400045D90DD092D90BD0FD0EDBCFE6FFFE0EA3
:10265000DBCFE6FF01DAE552E55201D0006B0C0159
:102660000051E552E7CFD9FF1200D9CFE6FFE1CF05
:10267000D9FF020EE126200EDE6E080EDD6E01018E
:10268000B60EF86FDECFF6FFDDCFF7FF0800F5CF0F
:10269000FBF1DECFF6FFDDCFF7FF020EF626000ED0
:1026A000F7220800F5CFFCF1DECFF6FFDDCFF7FF14
:1026B000070EF626000EF7220800F5CFFDF1F20E08
:1026C000E66E010EE66EE668E668E6687FEC0EF000
:1026D000146E050EE15E1450020EE15C02E2E16A46
:1026E000E552E16EE552E7CFD9FF1200F20EE66E39
:1026F000010EE66E520EE66EE66AFCEC0CF0E55258
:10270000E552E552E5521200D9CFE6FFE1CFD9FFFD
:10271000020EE126200EDE6E080EDD6EFE0EDBCF11
:1027200014F0380EF66E080EF76E0900F5CF15F0AE
:102730000800F5CF16F01450155C000E16585DE336
:1027400001019B0EF86FFE0EDBCFFBF1DB5004E1C5
:10275000380EF66E080E36D00F0EF36EFE0EDBCF7F
:10276000F4FFF350F45C1FE3130EF36EFE0EDBCFA9
:10277000F4FFF350F45C17E258DAF3CF16F0F4CF1D
:1027800017F0FE0EDB50F10F080DF35016C014F0D9
:1027900017C015F005E0D89015321432E804FBE1BB
:1027A00014C0FCF113D0DECFF6FFDDCFF7FFF6CF7C
:1027B00014F0F7CF15F0FE0EDB040F011424F66EB3
:1027C000000E1520F76E0800F5CFFCF1FE0EDB5071
:1027D000080805E10001830502E10101FC85F20E14
:1027E000E66E010EE66EE668E668E6687FEC0EF0DF
:1027F000146E050EE15E145006D0090EE66EE66A10
:1028000072D9E552E552020EE15C02E2E16AE5525C
:10281000E16EE552E7CFD9FF1200D9CFE6FFE1CF55
:10282000D9FF0101970EF86FFE0EDBCFFBF1DB063F
:10283000DB500001F76A8925F66E8A51F7220800FD
:10284000F5CFFCF1F20EE66E010EE66EE66A47EC9D
:102850000EF0E552E552E552E552E7CFD9FF1200FE
:10286000D9CFE6FFE1CFD9FF020EE12689C0DEFF16
:102870008AC0DDFFFE0EDB50DE26000EDD22DF0605
:10288000010E01E2DB06FD0EDBCFE6FFDECFE6FF49
:10289000DDCFE6FF78EC1CF0E552E552E552F20E92
:1028A000E66E010EE66E590EE66EE66AFCEC0CF082
:1028B000E552E552E552E552020EE15C02E2E16AC0
:1028C000E552E16EE552E7CFD9FF1200D9CFE6FF1E
:1028D000E1CFD9FF030EE126200EDE6E080EDD6E7D
:1028E0000101EF0EF86F070EF36E020EF3CFDBFF60
:1028F000DB500D0821E3DECFF6FFDDCFF7FFF6CF8B
:1029000014F0F7CF15F0020EDB50F90F0F0114246D
:10291000F66E000E1520F76E0800F550E66E020EFA
:10292000DB50EA6AF20FE96E010EEA22E552E75047
:10293000EF6E020EDB2ADCD70001830502E1020103
:102940000085F20EE66E010EE66EE66AD2EC0EF03F
:10295000E552E552E552030EE15C02E2E16AE5521E
:10296000E16EE552E7CFD9FF1200D9CFE6FFE1CF04
:10297000D9FF080EE1263A0EF66E080EF76E040E29
:102980000900F5CFDBFF050E0900F5CFDBFF060ED2
:102990000900F5CFDBFF070E0900F5CFDBFF040EC2
:1029A000DBCF08F0050EDBCF09F0020E08C0DBFF1D
:1029B000030E09C0DBFF0101E20EF86FDF6A020EB1
:1029C000DBCFF6FF030EDBCFF7FF0800F55018E072
:1029D000020EDBCFF6FFDB2A030EDBCFF7FF01E3AE
:1029E000DB2A0800F550E66E070EDF24EA6AF20FD4
:1029F000E96E010EEA22E552E750EF6EDF2ADFD7DB
:102A0000010EDFCFDBFF070EF36E010EDBCFF4FF0D
:102A1000F350F45C0DE2010EDB50070FEA6AF20F8F
:102A2000E96E010EEA22200EEF6E010EDB2AEBD7D3
:102A3000F20EE66E010EE66EE66AD2EC0EF0E5529C
:102A4000E552E552080EE15C02E2E16AE552E16E10
:102A5000E552E7CFD9FF1200D9CFE6FFE1CFD9FF8A
:102A6000070EE76EFD0EDBCFE9FFFE0EDBCFEAFFC0
:102A7000E750E926000EEA22EF500101F16BF16FF9
:102A8000F06B080EE76EFD0EDBCFE9FFFE0EDBCF2D
:102A9000EAFFE750E926000EEA22EF50146E156AAD
:102AA000E850F0271550F1230001010E836FE66E08
:102AB000F0C1E6FFF1C1E6FF94D8E552E552E552D8
:102AC000F20EE66E010EE66E520EE66EE66AFCEC63
:102AD0000CF0E552E552E552E552F2EC3DF0E552DC
:102AE000E7CFD9FF1200D9CFE6FFE1CFD9FF01012F
:102AF0006F0EF86FFD0EDBCFFBF1F20EE66E010EEE
:102B0000E66EE668E668E6687FEC0EF0146E050E89
:102B1000E15E1450E552E7CFD9FF1200D9CFE6FFAE
:102B2000E1CFD9FF060EE76EFD0EDBCFE9FFFE0E0B
:102B3000DBCFEAFFE750E926000EEA22EF50E00B78
:102B4000E838E840146E020E145C2CE3070EE76EC2
:102B5000FD0EDBCFE9FFFE0EDBCFEAFFE750E926F3
:102B6000000EEA22EFCF17F017C018F0176A080E10
:102B7000E76EFD0EDBCFE9FFFE0EDBCFEAFFE7508D
:102B8000E926000EEA22EF501724156E000E1820D9
:102B9000166E0101F051151805E1F151161802E108
:102BA000010E01D0000EE552E7CFD9FF1200D9CFB8
:102BB000E6FFE1CFD9FF010EE66EFD0EDBCFE6FFAB
:102BC000FE0EDBCFE6FF000EE66EE66AE66A73EC09
:102BD0000DF0146E060EE15E1450E552E7CFD9FFFA
:102BE0001200D9CFE6FFE1CFD9FFFD0EDBCFE6FF24
:102BF000FE0EDBCFE6FFFC0EE66E030EE66E9AECF1
:102C00001DF0E552E552E552E552FC0EDBCFE6FF42
:102C1000FB0EE66E030EE66E18EC1DF0E552E55273
:102C2000E552E552E7CFD9FF1200D9CFE6FFE1CF59
:102C3000D9FF020EE126F29EFE0EF66EF7683F0EF9
:102C4000F86E0900F5CFDEFF0A00F5CFDDFFF86A68
:102C5000F28EDECF14F0DDCF15F014C0F3FF15C0F7
:102C6000F4FF020EE15C02E2E16AE552E16EE55238
:102C7000E7CFD9FF120004012F6B1200D9CFE6FF76
:102C8000E1CFD9FFE652070E0001835D2FE1DF6A35
:102C9000DF50146E156AD890155004E6FF0E145CD0
:102CA000000E155806E2DFCFE6FF9DD8E552DF2A79
:102CB000EFD79DEC1BF0E66AFA0EE66E030EE66EA9
:102CC00018EC1DF0E552E552E552FE0EE66EF90EE7
:102CD000E66E030EE66E18EC1DF0E552E552E55285
:102CE000F20EE66E010EE66E590E08D00101020EDC
:102CF000FB6FF20EE66E010EE66E6F0EE66EE66A92
:102D0000FCEC0CF0E552E552E552E552E552E55295
:102D1000E7CFD9FF1200F90EE66E030EE66EFCEC6B
:102D20001CF0E552E5520101FB6FF20EE66E010E5A
:102D3000E66E700EE66EE66AFCEC0CF0E552E552CB
:102D4000E552E55212001200FA0EE66E030EE66E30
:102D5000FCEC1CF0E552E5520101FB6FF20EE66E51
:102D6000010EE66E740EE66EE66AFCEC0CF0E552BF
:102D7000E552E552E5521200D9CFE6FFE1CFD9FF87
:102D8000E652E66AFB0EDBCFE6FFFC0EDBCFE6FF8A
:102D9000FD0EDBCFE6FFFE0EDBCFE6FFB3D9146EF0
:102DA000050EE15E1450000902E1000E01D0010E93
:102DB000DF6EDF5013E0DFCFE6FF15D8E5529DEC64
:102DC0001BF0F20EE66E010EE66E590EE66EE66A36
:102DD000FCEC0CF0E552E552E552E552E552E552C5
:102DE000E7CFD9FF1200D9CFE6FFE1CFD9FF120E0E
:102DF000E12604012F512CE0FE0EDB50110D0001E5
:102E00008B51F324F66E8C51F420F76E020EF626E9
:102E1000000EF7220800F550E66E04012F51110D47
:102E200000018B51F324F66E8C51F420F76E020EE4
:102E3000F626000EF722F6CF14F0F7CF15F014C0E7
:102E4000E6FF15C0E6FF13EC1CF0E552E552E55233
:102E5000DE52010EDD6E040EDB6A050EDB6A060E25
:102E6000DB6A070EDB6ADF6A0A0EDF5C0DE2D9500F
:102E7000080F146EDF500F011424E96E000EDA20E3
:102E8000EA6EEF68DF2AF0D7110EE66ED950010F17
:102E9000E66E000EDA20E66EFE0EDB50110D00012C
:102EA0008B51F324146E8C51F420156E14C0E6FF80
:102EB000E66EC9EC1CF0166E050EE15E1650120EA1
:102EC000E15C02E2E16AE552E16EE552E7CFD9FF4B
:102ED00012001200D9CFE6FFE1CFD9FFE652E66A31
:102EE000FB0EDBCFE6FFFC0EDBCFE6FFFD0EDBCFFC
:102EF000E6FFFE0EDBCFE6FF05D9146E050EE15EA0
:102F00001450000902E1000E01D0010EDF6EDF5007
:102F10004BE0FB0EDBCF14F0FC0EDBCF15F015C041
:102F200014F0156A14C0FBF1FF0EE76EFB0EDBCF49
:102F300014F0FC0EDBCF15F0E7501416156A14C020
:102F4000FCF1FA0EDBCFFDF1DF50110D00018B51CA
:102F5000F324F66E8C51F420F76E070EF626000E61
:102F6000F722F6CF14F0F7CF15F0FA0EDB500F0171
:102F70001424F66E000E1520F76E0800F5CFFEF152
:102F8000F20EE66E010EE66EFD0EDBCFE6FFFE0EE4
:102F9000DBCFE6FFD30EE66EE66A20EC0DF0146E92
:102FA000060EE15E145010D00101070EFB6FF20E09
:102FB000E66E010EE66E6F0EE66EE66AFCEC0CF055
:102FC000E552E552E552E552E552E552E7CFD9FF29
:102FD0001200D9CFE6FFE1CFD9FF120EE126010E94
:102FE000E66EFB0EDBCFE6FFFC0EDBCFE6FFFD0E51
:102FF000DBCFE6FFFE0EDBCFE6FF84D8146E050EB6
:10300000E15E1450000902E1000E01D0010EDF6EF6
:10301000DF506EE0110EE66EE66ADF50110D000122
:103020008B51F324146E8C51F420156E14C0E6FFFE
:10303000E66ED950010FE66E000EDA20E66EC6ECA1
:103040003EF0166E060EE15E1650010EDB6AFD0EB6
:10305000DBCF08F0FE0EDBCF09F0040E08C0DBFF6B
:10306000050E09C0DBFFFB0EDBCF08F0FC0EDBCF4B
:1030700009F0060E08C0DBFF070E09C0DBFFD950C0
:10308000080F146EDACF15F0FA0EDB500F0114247E
:10309000E96E000EDA20EA6EF90EDBCFEFFF110EBB
:1030A000E66ED950010FE66E000EDA20E66EDF50B4
:1030B000110D00018B51F324146E8C51F420156E08
:1030C00014C0E6FFE66EC9EC1CF0166E050EE15E5C
:1030D00016509DEC1BF0F20EE66E010EE66E590ED8
:1030E000E66EE66AFCEC0CF0E552E552E552E5527C
:1030F000120EE15C02E2E16AE552E16EE552E7CFD1
:10310000D9FF1200D9CFE6FFE1CFD9FF030EE126A8
:1031100004012F6BFF0EE76EFB0EDBCF14F0E750C0
:103120001416156A1450E66EFF0EE76EFD0EDBCF27
:1031300016F0FE0EE7501616176A1650E66ECDD83A
:10314000E552E552DF6EDF50110D00018B51F32483
:10315000F66E8C51F420F76E0800F550040B5DE11B
:10316000DF50110D8B51F324F66E8C51F420F76E65
:10317000030EF626000EF7220900F5CF14F0080022
:10318000F5CF15F0FD0EDB50141820E1FE0EDB50DC
:1031900015181CE1DF50110D8B51F324F66E8C5184
:1031A000F420F76E050EF626000EF7220900F5CF83
:1031B00016F00800F5CF17F0FB0EDB50161806E1ED
:1031C000FC0EDB50171802E1000E01D0010EE76E75
:1031D000020EE7CFDBFFDB5020E0DF50110D8B51FB
:1031E000F324F66E8C51F420F76E020EF626000ED4
:1031F000F7220800F550A7E0DFCF2FF4DF50110DC4
:103200008B51F324F66E8C51F420F76E020EF626E5
:10321000000EF7220800F55095D7020EDB504CE067
:10322000FA0EDB5049E0010EDB6ADFCF2FF4DF2A14
:10323000DF50110D8B51F324F66E8C51F420F76E94
:103240000800F550040B09E1010EDBCFF3FFDB2A88
:10325000F350146EFF0EF35CEAE3DF50110D8B5157
:10326000F324F66E8C51F420F76E0800F55024E03C
:1032700004012F511FE0DF502F5D1CE0DFCFE6FF80
:103280002F51110D00018B51F324F66E8C51F42057
:10329000F76E020EF626000EF722F6CF14F0F7CFE7
:1032A00015F014C0E6FF15C0E6FF13EC1CF0E55264
:1032B000E552E552020EDB6A020EDB5001E0DF6AE6
:1032C000DF50146E030EE15C02E2E16AE552E16E4A
:1032D0001450E552E7CFD9FF1200D9CFE6FFE1CF76
:1032E000D9FFE652FD0EDB50080DF3507F0B146E34
:1032F000FE0EDB507F0B1424DF6EDF5003E1DF2A6C
:10330000DF5001D0DF50E552E552E7CFD9FF120080
:10331000D9CFE6FFE1CFD9FF020EE1260C01010E65
:10332000006F060EE76EFD0EDBCFE9FFFE0EDBCF72
:10333000EAFFE750E926000EEA22EF50900B9008D2
:103340000FE1060EE76EFD0EDBCFE9FFFE0EDBCFD1
:10335000EAFFE750E926000EEA22EF50000B02E1F7
:10336000000E01D0010EE76E010EE7CFDBFFDB5050
:103370005EE0E66A0A0EE76EFD0EDBCFE9FFFE0EA9
:10338000DBCFEAFFE750E926000EEA22EF50080FF4
:10339000146E090EE76EFD0EDBCFE9FFFE0EDBCFEC
:1033A000EAFFE750E926000EEA22EF50145204E04B
:1033B000E846FE0B1406FCE1E66EE66A080EE76ED0
:1033C000FD0EDBCFE9FFFE0EDBCFEAFFE750E9267B
:1033D000000EEA22EF50080F156E070EE76EFD0E85
:1033E000DBCFE9FFFE0EDBCFEAFFE750E926000E58
:1033F000EA22EF50155204E0E846FE0B1506FCE108
:10340000E66EE66A7FDE166E050EE15E1650DF6E32
:10341000DF500DE0FD0EDBCFE6FFFE0EDBCFE6FF5B
:10342000DFCFE6FF38EC0BF0E552E552E552010E36
:10343000DB50146E020EE15C02E2E16AE552E16EDD
:103440001450E552E7CFD9FF1200D9CFE6FFE1CF04
:10345000D9FF040EE126FE0EDB50110D00018B5149
:10346000F324F66E8C51F420F76E0800F550010B32
:1034700071E0FE0EDB50110D8B51F324F66E8C5172
:10348000F420F76E030EF626000EF7220900F5CFA2
:10349000DEFF0A00F5CFDDFFFE0EDB50110D8B5174
:1034A000F324F66E8C51F420F76E050EF626000E0E
:1034B000F7220900020EF5CFDBFF0A00030EF5CF5D
:1034C000DBFFFE0EDB50110D8B51F324F66E8C5199
:1034D000F420F76E020EF626000EF7220800FE0E0C
:1034E000F5CFDBFFDB5038E0FE0EDB50110D8B51CA
:1034F000F324F66E8C51F420F76E030EF626000EC0
:10350000F7220900F5CF14F00800F5CF15F0DF50D1
:103510001418D7E1DE52DD501518D3E1FE0EDB5052
:10352000110D8B51F324F66E8C51F420F76E050EBD
:10353000F626000EF7220900F5CF16F00800F5CFA9
:1035400017F0020EDB50161803E1030EDB501718BC
:1035500003E0B7D7FE0EDB6AFE0EDB50146E040EDE
:10356000E15C02E2E16AE552E16E1450E552E7CF18
:10357000D9FF1200D9CFE6FFE1CFD9FF020EE12635
:10358000A4EC3FF0DF6A010E7DC0DBFFDB500008DA
:1035900009E2DF2A010EDBCFF3FFF390F342F3CF12
:1035A000DBFFF4D7DF50D56EF184F294F28AD58E2A
:1035B00004012B6B2C6B020EE15C02E2E16AE55226
:1035C000E16EE552E7CFD9FF1200D9CFE6FFE1CF98
:1035D000D9FF060EE126020EDB6A030EDB6AF29AC1
:1035E000F250040B01E0010EE76E040EE7CFDBFFA3
:1035F000D650DF6E010ED7CFDBFFF250040B01E097
:10360000010EE76E050EE7CFDBFFDB50F36E040E15
:10361000DB50F35CE5E1040EDB50000806E2F294B7
:1036200004012B2B2B5101E12C2B020EDBCFE7FFEA
:1036300004012B51E726020EE7CFDBFF030EDBCFA1
:10364000E7FF2C51E726030EE7CFDBFFF28ADECF40
:1036500006F0DECF07F0DECF08F0DDCF09F0DD5257
:10366000DD52060EE15C02E2E16AE552E16EE552EE
:10367000E7CFD9FF1200F2A408D0F2AA06D0F29444
:1036800004012B2B2B5101E12C2B120000018D6B1F
:10369000CF69D0691200D9CFE6FFE1CFD9FF030E81
:1036A000E1268E0EDE6E000EDD6ECFC0F6FFD0C0BE
:1036B000F7FFF86ADECFE9FFDDCFEAFFF29E010EE9
:1036C000F36E020EF3CFDBFF020EDB50020817E3AE
:1036D0000001200ECE6FEE50F56E0D00CE07FBE11F
:1036E0000A00A68EA69CA698A684550EA76EAA0EC2
:1036F000A76EA682A6940900020EDB2AE5D7F28EF9
:10370000030EE15C02E2E16AE552E16EE552E7CFC9
:10371000D9FF1200CFC0F6FFD0C0F7FFF86AF29EC3
:10372000A68EA69CA684A688550EA76EAA0EA76E86
:10373000A682A694F28E4BEF1BF000018DA905D056
:103740008DAB02D08AEF1BF0A6DF1200D9CFE6FFC7
:10375000E1CFD9FF020EE12600018D51070B0508CC
:1037600003E00001050E8D6F000100018D51080B73
:1037700015E0FD0EDBCF14F0FE0EDBCF15F0C00E12
:103780001416FF0E151614500001CF1902E1155042
:10379000D01904E0D2DF0001050E8D6F00018DB756
:1037A00025D08E0EDE6E000EDD6EDECFE9FFDDCFA2
:1037B000EAFFFD0EDBCFCFF0FE0EDBCFD0F0C00E68
:1037C0000001CF17FF0E0001D017CFC0F6FFD0C009
:1037D000F7FFF86A800EA66E0001400ECE6F09005A
:1037E000F5CFEEFFCE07FBE100018D873F0EE76EC0
:1037F000FD0EDBCFE9FFFE0EDBCFEAFFE750E91657
:10380000EA6A8E0EE926000EEA22EF5000D0146E0E
:10381000020EE15C02E2E16AE552E16E1450E5520B
:10382000E7CFD9FF1200D9CFE6FFE1CFD9FF020ED3
:10383000E12600018D51070B050803E08D818D9372
:103840008D858D51080B10E0FD0EDBCF14F0FE0EC0
:10385000DBCF15F0C00E1416FF0E15161450CF193D
:1038600002E11550D01909E0FD0EDBCFE6FFFE0E98
:10387000DBCFE6FF6BDFE552E5523F0EE76EFD0E54
:10388000DBCF14F0FE0EE7501416156A8E0E1426C8
:10389000000E152214C0DEFF15C0DDFFDECFE9FFEC
:1038A000DDCFEAFFEF50F36EFC0EDB50F35C02E07D
:1038B00000018D89FC0EDBCFE6FFDECFE9FFDDCF17
:1038C000EAFFEF1CE552E71402E000018D8BDECF2A
:1038D000E9FFDDCFEAFFFC0EDBCFEFFF020EE15C7C
:1038E00002E2E16AE552E16EE552E7CFD9FF12004C
:1038F000D9CFE6FFE1CFD9FFFC0EDBCFE6FFFD0E0F
:10390000DBCFE6FFFE0EDBCFE6FF8DDFE552E552B3
:10391000E55213DFE552E7CFD9FF1200D9CFE6FF1A
:10392000E1CFD9FFFF0EE76EFB0EDBCF14F0E750BF
:103930001416156A1450E66EFD0EDBCFE6FFFE0E80
:10394000DBCFE6FF70DFE552E552E552FB0EDBCF41
:1039500014F0FC0EDBCF15F015C014F0156A1450EE
:10396000E66E010EE76EFD0EDBCF16F0FE0EDBCF2E
:1039700017F0E7501626000E172216C0E6FF17C0F4
:10398000E6FF51DFE552E552E552E552E7CFD9FFB8
:103990001200D9CFE6FFE1CFD9FFE652DF6AFA0E77
:1039A000DB50DF5C24E2DF50E76EFB0EDBCFE9FF8C
:1039B000FC0EDBCFEAFFE750E926000EEA22EF50CB
:1039C000E66EDF50E76EFD0EDBCF14F0FE0EDBCFB0
:1039D00015F0E7501426000E152214C0E6FF15C09E
:1039E000E6FF21DFE552E552E552DF2AD8D7E5525E
:1039F000E552E7CFD9FF1200D9CFE6FFE1CFD9FFDB
:103A0000FE0EDBCF15F015C014F01550AA6EFF0E98
:103A1000E76EFD0EDBCF14F0E75014161450A96EBC
:103A2000A69EA69CA680A850E552E7CFD9FF12001B
:103A3000D9CFE6FFE1CFD9FFFD0EDBCF14F0FE0EAC
:103A4000DBCF15F015C014F0156A1450AA6EFF0EE6
:103A5000E76EFD0EDBCF14F0FE0EDBCF15F0E75066
:103A60001416156A1450A96EFC0EDB50A86EA69EA3
:103A7000A69CA684F29E550EA76EAA0EA76EA682DD
:103A800000000000F28EA1A8FED7A198A694E552EE
:103A9000E7CFD9FF1200D9CFE6FFE1CFD9FF040E5F
:103AA000E126FD0EDBCFDEFFDBCFDDFFDFCF14F045
:103AB000DF2A010EDBCF15F001E3DB2A14C0E6FF9D
:103AC00015C0E6FF99DFE552E552E66ED950020FC8
:103AD000E96EDACFEAFFE552E750EE6EED6ADECF2F
:103AE000E6FFDDCFE6FF88DFE552E552176E166A86
:103AF000020EDB501610146E030EDB501710156EFD
:103B0000020E14C0DBFF030E15C0DBFF020EDBCF7D
:103B100014F0030EDBCF15F014C0F3FF15C0F4FF53
:103B2000040EE15C02E2E16AE552E16EE552E7CFA4
:103B3000D9FF1200D9CFE6FFE1CFD9FF020EE1266F
:103B4000FD0EDBCFDEFFDBCFDDFFFB0EDBCFE6FFC5
:103B5000DFCF14F0DF2A010EDBCF15F001E3DB2A03
:103B600014C0E6FF15C0E6FF63DFE552E552E552FB
:103B7000FB0EFC0EDBCF15F015C014F0156A1450C7
:103B8000E66EDECFE6FFDDCFE6FF52DFE552E5521F
:103B9000E552020EE15C02E2E16AE552E16EE552B5
:103BA000E7CFD9FF120012EE00F0800E006EA50ED6
:103BB000E66E002EFDD711EE00F021EE00F0F86A5F
:0E3BC000019C01EC06F038EC04F0FBD712007B
:023BCE000000F5
:103BD0000000080008080A00000000000000FFFFC5
:103BE00000000000000000000000000000000000D5
:103BF00000000000000000000000000000000000C5
:103C000000000000000000000000000000000000B4
:103C100000000000000000000000000000000000A4
:02525E00D9CFA6
:10526000E6FFE1CFD9FF020EE1269496949A949C32
:105270008B8C9E96C66AC78CC79E040EDF6EDE526C
:105280000C0EDD6EE66A070EE66EE4DBE552E552D3
:10529000200EE66E040EE66EDDDBE552E552E668B2
:1052A000030EE66ED7DBE552E552FE0EDB500F0B28
:1052B000E66E020EE66ECEDBE552E55212D9000133
:1052C0007C6B0D0EE66E040EE66EC4DBE552E55215
:1052D000020EE15C02E2E16AE552E16EE552E7CFDF
:1052E000D9FF1200D9CFE6FFE1CFD9FFFE0EDBCF09
:1052F000E6FF070EE66EAEDBE552E552E552E7CF7C
:10530000D9FF1200D9CFE6FFE1CFD9FF030EE12686
:10531000DF6AFE0EDB50DF5C43E2010EDB6A080E43
:10532000F36E010EDBCFF4FFF350F45C37E2800E36
:10533000F36E020EF3CFDBFF020EDB5024E0020E11
:10534000DBCFE6FF010EDB50600FE66E83DBE5523C
:10535000E552F40EE66E010EE66E21DBE552E552F3
:10536000020EDB50800802E1010E03D0020EDB507A
:10537000E824E76E020EE7CFDBFFDB508008DCE1BC
:10538000020EDB6AD9D7E66A010EDB50600FE66ECB
:1053900061DBE552E552010EDB2AC1D7DF2AB9D71E
:1053A000030EE15C02E2E16AE552E16EE552E7CF0D
:1053B000D9FF1200D9CFE6FFE1CFD9FF020EE126D7
:1053C000FD0EDBCF14F0FE0EDBCF15F0166A176A68
:1053D000E86814180DE1E86815180AE1E86816187D
:1053E00007E1E868171804E1DF6A010EDB6A10D0F4
:1053F000FE0EDB50DF6EFD0EDB50E76E010EE7CFD9
:10540000DBFFDB5005E1DF2ADF50070801E2DF6A3E
:10541000010EDB5002E1010E03D0010EDB50E82447
:10542000E76E010EE7CFDBFFDBCFE6FF600EDF2488
:10543000E66E10DBE552E552FE0EDFCFDBFF010E1C
:10544000DB50E76EFD0EE7CFDBFFDBCF14F0FE0E87
:10545000DBCF15F014C0F3FF15C0F4FF020EE15CC2
:1054600002E2E16AE552E16EE552E7CFD9FF1200B0
:10547000C00EE66E600EE66EEDDAE552E552210EE4
:10548000E66E610EE66EE6DAE552E552120EE66E63
:10549000620EE66EDFDAE552E5520C0EE66E630E42
:1054A000E66ED8DAE552E5520C0EE66E640EE66E54
:1054B000D1DAE552E552120EE66E650EE66ECADAF4
:1054C000E552E552210EE66E660EE66EC3DAE5524F
:1054D000E552C00EE66E670EE66EBCDAE552E552A6
:1054E0001200D9CFE6FFE1CFD9FF020EE126E66A2E
:1054F000010EE66EAFDAE552E552DF6A080EDF5CB8
:105500000EE2600EDF24E76E010EE7CFDBFFE66AF6
:10551000DBCFE6FF9FDAE552E552DF2AEFD7100E28
:10552000E66EE66AE66A6C0EE66E000EE66EF1EC7A
:105530003EF0146E050EE15E1450020EE15C02E2D4
:10554000E16AE552E16EE552E7CFD9FF1200D9CF0B
:10555000E6FFE1CFD9FF030EE126FE0EDB06DB50AE
:10556000F80BE842E842E842DF6EFE0EDB50070B24
:10557000E76E010EE7CFDBFF020EDBCFE6FF600E2A
:10558000DF24E66E67DAE552E552030EE15C02E2E3
:10559000E16AE552E16EE552E7CFD9FF1200D9CFBB
:1055A000E6FFE1CFD9FF040EE126FE0EDB06DB505D
:1055B000F80BE842E842E842DF6EFE0EDB50070BD4
:1055C000E76E010EE7CFDBFF020EDBCFE6FF200E1A
:1055D000DF24E66E3FDAE552E552030EDBCFE6FF4D
:1055E000400EDF24E66E36DAE552E552040EE15C49
:1055F00002E2E16AE552E16EE552E7CFD9FF12001F
:10560000D9CFE6FFE1CFD9FF020EE126FE0EDBCFB8
:1056100015F015C014F0156A14C0DEFF15C0DDFFCB
:10562000FC0EDBCFE6FFDFCFE6FF4ED8E552E552BA
:10563000FF0EE76EFD0EDBCF14F0FE0EDBCF15F094
:10564000E7501416156A14C0DEFF15C0DDFFFC0E0E
:10565000DB50020FE66EDFCFE6FF36D8E552E552AB
:10566000020EE15C02E2E16AE552E16EE552E7CF4B
:10567000D9FF1200D9CFE6FFE1CFD9FFFE0EDB98AC
:10568000DB9ADB9CDB9E010EF36EFD0EDB5004E02B
:10569000D890F336E806FCE1F35000017C137CC09F
:1056A000E6FF010EE66ED6D9E552E552FE0EDBCFDF
:1056B000E6FFFD0EDB50600FE66ECCD9E552E552F9
:1056C000E552E7CFD9FF1200D9CFE6FFE1CFD9FFEE
:1056D000FD0EDBCFE6FFFE0EDB380F0BE66ECADFFA
:1056E000E552E552FD0EDB28E66EFE0EDBCFE6FF4F
:1056F000C1DFE552E552E552E7CFD9FF1200D9CF1D
:10570000E6FFE1CFD9FFE652010EF36EFD0EDB504E
:1057100004E0D890F336E806FCE1F31C00017C17A6
:105720007CC0E6FF010EE66E95D9E552E552FE0E0D
:10573000DB50200802E1000E0AD0FE0EDB50D00F35
:10574000F76A960FF66E7E0EF7220800F550DF6EB0
:10575000DFCFE6FFFD0EDB50600FE66E7BD9E55232
:10576000E552E552E552E7CFD9FF1200D9CFE6FF67
:10577000E1CFD9FFE652DF6ADFCF14F014C0E6FFB5
:10578000FD0EDBCFE6FFFE0EDBCFE6FF0BEC3FF0BE
:10579000E552E552E552E7CF14F0F3CF15F0F4CF20
:1057A00016F0F350145C000EF45417E2FC0EDB50BC
:1057B000DF24E66EDF50E76EFD0EDBCFE9FFFE0E65
:1057C000DBCFEAFFE750E926000EEA22EF50E66E53
:1057D00096DFE552E552DF2ACFD7E552E552E7CF13
:1057E000D9FF1200D9CFE6FFE1CFD9FF020EE126A3
:1057F000FE0EDB50DF6EFD0EDBCF14F0FE0EDB5035
:10580000D880145402E2FD0EDB06FD0EDB5002E1EF
:10581000800E0AD0FD0EDB04146E010E145204E05B
:10582000E846FE0B1406FCE1E76E010EE7CFDBFF56
:10583000DECF14F0DDCF15F014C0F3FF15C0F4FF78
:10584000020EE15C02E2E16AE552E16EE552E7CF69
:10585000D9FF1200D9CFE6FFE552E7CFD9FF1200FA
:10586000D9CFE6FFE552E7CFD9FF1200D9CFE6FF47
:10587000E1CFD9FF090EE126480EDF6EDE52450E5C
:10588000DD6E4C0EF36E020EF3CFDBFF4C0EF36EAB
:10589000030EF3CFDBFF4F0EF36E040EF3CFDBFFEF
:1058A000200EF36E050EF3CFDBFF200EF36E060E17
:1058B000F3CFDBFF200EF36E070EF3CFDBFF080EF6
:1058C000DB6AE66AD9CFE6FFDACFE6FF4FDFE552C3
:1058D000E552E552090EE15C02E2E16AE552E16E51
:1058E000E552E7CFD9FF1200D9CFE6FFE1CFD9FFCC
:1058F000090EE126560EDF6EDE52200EDD6EF36ECF
:10590000020EF3CFDBFF200EF36E030EF3CFDBFFAF
:10591000200EF36E040EF3CFDBFF200EF36E050EA8
:10592000F3CFDBFF200EF36E060EF3CFDBFF200E6E
:10593000F36E070EF3CFDBFF080EDB6A310EF36E5A
:10594000020EF3CFDBFF620EF36E030EF3CFDBFF2D
:10595000570EF36E040EF3CFDBFF490EF36E050E08
:10596000F3CFDBFF500EF36E060EF3CFDBFF320EEC
:10597000F36E070EF3CFDBFFE66AD9CFE6FFDACF8F
:10598000E6FFF4DEE552E552E552090EE15C02E283
:10599000E16AE552E16EE552E7CFD9FF1200D9CFB7
:1059A000E6FFE1CFD9FF060EE12600017D51E66E4C
:1059B000D950040FE96EDACFEAFFE552E750EE6EF8
:1059C000ED6AD950040FE96EDACFEAFF320EEC022D
:1059D000F3CFEDFFEF02F3CFEEFFF450ED26DE6ADA
:1059E000DD6ADECF14F0DDCF15F0FD0EDBCF16F053
:1059F000FE0EDBCF17F01650145C1750155820E23E
:105A0000020EDB6A030EDB6A020EDBCF14F0030E1C
:105A1000DBCF15F0040EDBCF16F0050EDBCF17F051
:105A20001650145C1750155806E2020EDB2A030EBE
:105A3000EBE3DB2AE9D7DF2A010ED3E3DB2AD1D758
:105A4000060EE15C02E2E16AE552E16EE552E7CF63
:105A5000D9FF1200D9CFE6FFE1CFD9FF020EE12630
:105A6000F250400B01E0010EDF6EF29CC68A8B9C67
:105A7000FE0EDB50C96E9EA6FED79E96FD0EDB5035
:105A8000C96E9EA6FED79E968B8C8B9CC96A9EA6DD
:105A9000FED79E96C96A9EA6FED79E968B8CC69A06
:105AA000DF50E8B0F28CE8A0F29C020EE15C02E26A
:0E5AB000E16AE552E16EE552E7CFD9FF120040
:10700000D9CFE6FFE1CFD9FF0001DB6BDC6BDD6B95
:10701000DA6BD66BD76BD86BD96BDE6BDF6BE16B42
:10702000E06BD16BD26BD36BD46BE26BE36B800EF6
:107030006F6E6EAEFED7B00E776E0D01F86B030E5D
:10704000706E3F0E7014010F040DF3CF7DF09E0E95
:10705000716E030E726E200E736E0F01186B080EA8
:10706000196F1A6B1B6B1C6B1D6F1E6B1F6B800ED9
:10707000016F0D01E06BE16BE26BE36BE46BE56BC1
:10708000E66BE76BF06BF16BF26BF36B606A0F0111
:10709000506B0E01206B306B406B506B606B706BF4
:1070A0000D01FA6BFC85FC97FC996F6AFD0EDB50B5
:1070B00016E1FE0EE66E030EE66EFCEC1CF0E552E9
:1070C000E5520001FA6FE850146E156A0001E81CE1
:1070D00014E1151C12E10001700EFA6F0ED0FD0EC6
:1070E000DBCFFAF0FAC0E6FFFE0EE66E030EE66EA8
:1070F00018EC1DF0E552E552E5520F01406B40914E
:107100004093456B780E0001FA15E840E840E840EE
:107110001F0BB0090F01416F070E0001FA15200D7A
:10712000F3CF42FF0F01306B30913083400E356F4B
:10713000780E0001FA15E840E840E8401F0BB0095E
:107140000F01316F42CF32FF206B20812083256BEE
:10715000780E0001FA15E840E840E8401F0BB0093E
:107160000F01216F42CF22FF0001E96BE9C0E8F077
:10717000E5EC1AF006C0E4F007C0E5F008C0E6F060
:1071800009C0E7F0A380A38AE552E7CFD9FF120038
:10719000D9CFE6FFE1CFD9FFF00E0F014117FE0E68
:1071A000DB50780BE840E840E8401F0B4113FE0E2F
:1071B000DB50070B200DF3CF42FFF00E3117FE0E10
:1071C000DB50780BE840E840E8401F0B311342CF1A
:1071D00032FFF00E2117FE0EDB50780BE840E8403E
:1071E000E8401F0B211342CF22FFFE0EDBCFE6FF4C
:1071F000E66E030EE66E18EC1DF0E552E552E55220
:10720000E552E7CFD9FF1200D9CFE6FFE1CFD9FF92
:10721000E652050EE76EFD0EDBCFE9FFFE0EDBCF7B
:10722000EAFFE750E926000EEA22FC0EDBCFEFFF73
:10723000FD0EDBCFE6FFFE0EDBCFE6FF09D8E55201
:10724000E552DF6EDF50E552E552E7CFD9FF12007D
:10725000D9CFE6FFE1CFD9FF040EE126FD0EDBCF4B
:10726000E9FFFE0EDBCFEAFFEF6A0F0E146EFD0E94
:10727000DBCFE9FFFE0EDBCFEAFF050EE926000EAD
:10728000EA221450EF16780E0001FA15E840E840A3
:10729000E8401F0BB009E66EFD0EDBCFE9FFFE0EE6
:1072A000DBCFEAFF010EE926000EEA22E552E750A5
:1072B000EF6E070EFA15200DF350E66EFD0EDBCFD4
:1072C000E9FFFE0EDBCFEAFF020EE926000EEA22FE
:1072D000E552E750EF6EFD0EDBCFE9FFFE0EDBCF90
:1072E000EAFF050EE926000EEA22EF5008080CE23C
:1072F000FD0EDBCFE9FFFE0EDBCFEAFF050EE92630
:10730000000EEA22080EEF6EA398D151D25D02E082
:10731000DA5143E00F014051080B3FE1400EDE6EB1
:107320000F0EDD6EFD0EDBCFE9FFFE0EDBCFEAFFB9
:10733000050EE926000EEA22EF50060FE66EE66A19
:10734000FD0EDBCFE9FFFE0EDBCFEAFFE9CF14F045
:10735000EACF15F0E9CFE6FFEACFE6FFDECFE6FFA2
:10736000DDCFE6FFC6EC3EF0166E060EE15E16506F
:1073700000010A0ED56FE5EC1AF006C0D6F007C082
:10738000D7F008C0D8F009C0D9F00001DA6B0F01BE
:107390004087020EDB6AA38866D0FF0E0001D15D34
:1073A00002E0000E01D0010EE76E020EE7CFDBFF18
:1073B000DB503FE1FD0EDBCFE9FFFE0EDBCFEAFF46
:1073C000050EE926000EEA22EF50060FE66EE66A89
:1073D000FD0EDBCFE9FFFE0EDBCFEAFFE9CF14F0B5
:1073E000EACF15F0E9CFE6FFEACFE6FFD151100D65
:1073F000F3CFE9FFF4CFEAFF000EE926020EEA22FE
:10740000E9CF16F0EACF17F0E9CFE6FFEACFE6FFC3
:10741000C6EC3EF0186E060EE15E18500001D12B4E
:10742000100ED15D01E1D16BD151D25D03E1D16983
:1074300001D0E02BE22BD251D15D03E2100ED12519
:1074400001D0D151E76E030EE7CFDBFFDB50D880D0
:10745000D255146EDE51D880145405E2030EDB5071
:10746000D880D255DE6FA388020EDB5002E0000EFA
:1074700001D0010E146E040EE15C02E2E16AE552F5
:10748000E16E1450E552E7CFD9FF1200D9CFE6FFE5
:10749000E1CFD9FFA390FD0EDBCFE6FFFE0EDBCFE1
:1074A000E6FF48D9E552E552A380E552E7CFD9FF80
:1074B0001200D9CFE6FFE1CFD9FF020EE12600018D
:1074C000DA6BA4980F0140B75DD00001D66BD76B83
:1074D000D86BD96BD151D25D50E0400EDE6E0F0EED
:1074E000DD6ED251100DF3CFE9FFF4CFEAFF000EAD
:1074F000E926020EEA22050EE926000EEA22EF50E6
:10750000060FE66EE66AD251100DF3CFE9FFF4CF15
:10751000EAFF000EE926020EEA22E9CF14F0EACFD4
:1075200015F0E9CFE6FFEACFE6FFDECFE6FFDDCFDD
:10753000E6FFC6EC3EF0166E060EE15E1650000148
:10754000E2070A0ED56FE5EC1AF006C0D6F007C0C8
:10755000D7F008C0D8F009C0D9F00001DA6B0F01EC
:107560004087FF0E0001D15D02E1D2C0D1F0D22BE5
:10757000100ED25D08E1D26B06D00F01406BA498CB
:10758000A39802D0A498A388020EE15C02E2E16A0B
:10759000E552E16EE552E7CFD9FF12000001D65166
:1075A000D711D811D9111FE0E5EC1AF00001D6511E
:1075B000065C146ED7510758156ED8510858166ED0
:1075C000D9510958176ED880240E1454F40E15544E
:1075D000000E1654000E175406E2010EDA6FDD2B72
:1075E0000F01409766DF1200D9CFE6FFE1CFD9FF48
:1075F000030EE126A39034D90001D351D45D45E0B8
:10760000D451100DF3CFE9FFF4CFEAFF000EE926C5
:10761000030EEA22050EE926000EEA22EF50060FBD
:10762000E66EE66AD451100DF3CFE9FFF4CFEAFF1E
:10763000000EE926030EEA22E9CF14F0EACF15F096
:10764000E9CFE6FFEACFE6FFFD0EDBCFE9FFFE0E56
:10765000DBCFEAFFE9CF16F0EACF17F0E9CFE6FF7C
:10766000EACFE6FFC6EC3EF0186E060EE15E18505B
:107670000001E307D42B100ED45D01E3D46B010E9F
:10768000F36E020EF3CFDBFF46D0020EDB6A74AE60
:1076900042D0070E6F14E66E55DAE552F3CFDEFFE7
:1076A000F4CFDDFFA492DECFE6FFDDCFE6FF73D996
:1076B000E552E552E76E020EE7CFDBFFDB5024E038
:1076C000DECFE9FFDDCFEAFF050EE926000EEA2254
:1076D000EF50060FE66EE66ADECFE6FFDDCFE6FF8F
:1076E000FD0EDBCFE9FFFE0EDBCFEAFFE9CF14F0A2
:1076F000EACF15F0E9CFE6FFEACFE6FFC6EC3EF0B1
:10770000166E060EE15E1650A4BEA49EDECFE9FF03
:10771000DDCFEAFFEF9EA380020EDB50146E030E56
:10772000E15C02E2E16AE552E16E1450E552E7CF16
:10773000D9FF1200D9CFE6FFE1CFD9FFFD0EDBCF95
:10774000E9FFFE0EDBCFEAFF050EE926000EEA2276
:10775000EF50060FE66EE66AFD0EDBCFE6FFFE0E8B
:10776000DBCFE6FF0001D351100DF3CFE9FFF4CFDB
:10777000EAFF000EE926030EEA22E9CF14F0EACF71
:1077800015F0E9CFE6FFEACFE6FFC6EC3EF0166E55
:10779000060EE15E16500001E32BD32B100ED35DD5
:1077A00001E3D36BD451D35D07E1E12BD35103E166
:1077B0000F0ED36F01D0D307E552E7CFD9FF1200E8
:1077C000D9CFE6FFE1CFD9FF030EE12674AE3DD05D
:1077D000070E6F14E66EB6D9E552F3CFDEFFF4CF95
:1077E000DDFFA49274BC749CDECFE6FFDDCFE6FF24
:1077F000D2D8E552E552000907E0DECFE6FFDDCF43
:10780000E6FF98DFE552E552A4BEA49EDECFE9FF75
:10781000DDCFEAFFEF9E0001D451D35D03E2100EED
:10782000D32501D0D351E76E020EE7CFDBFFDB504B
:10783000D880D455146EDF51D8801454C7E2020E9C
:10784000DB50D880D455DF6FC1D7A490030EE15C24
:1078500002E2E16AE552E16EE552E7CFD9FF12009C
:10786000D9CFE6FFE1CFD9FF030EE1260001E851B1
:1078700038E0E5EC1AF00001E451065C146EE551C5
:107880000758156EE6510858166EE7510958176EDD
:10789000D880D40E1454300E1554000E1654000E19
:1078A00017541FE2DF6A100EDF5C09E2DF50EA6A5C
:1078B000EA0FE96E000EEA22EF6ADF2AF4D7000130
:1078C000010EEA6FE96FE86BE5EC1AF006C0E4F030
:1078D00007C0E5F008C0E6F009C0E7F00F01308707
:1078E00050D0E9514EE0E5EC1AF00001E451065C9D
:1078F000146EE5510758156EE6510858166EE7519B
:107900000958176ED8806A0E1454180E1554000EBC
:107910001654000E175435E2DF6ADF50EA6AEA0FA8
:10792000E96E000EEA22EF50FF0805E1100EDF5C61
:1079300002E2DF2AF2D7DF50EA6AEA0FE96E000EB0
:10794000EA22020EEFCFDBFFEF50FF0818E0080E2F
:10795000DF02010EF3CFDBFF020EDBA009D0DBCF8D
:10796000F3FFF390F342F3CFDBFF010EDB2AF4D7F2
:10797000010EDBCFFAF0FAC0E6FF0ADCE5520001A7
:10798000E96B030EE15C02E2E16AE552E16EE55269
:10799000E7CFD9FF1200D9CFE6FFE1CFD9FF020E22
:1079A000E126010EDB6AFD0EDBCFE9FFFE0EDBCF29
:1079B000EAFF020EE926000EEA22EF50E00BE8385B
:1079C000E840146EFD0EDBCFE9FFFE0EDBCFEAFFD1
:1079D000010EE926000EEA22EF50080DF3501424A0
:1079E000DF6E0001E95118E0070EDF14156E010E7D
:1079F000155204E0E846FE0B1506FCE1146EDF505C
:107A0000E840E840E8401F0BEA6AEA0FE96E000E22
:107A1000EA221450EF1211D0E8510FE1FA51DF5C65
:107A20000CE1010EE86FE5EC1AF006C0E4F007C0C7
:107A3000E5F008C0E6F009C0E7F0FD0EDBCFE9FF96
:107A4000FE0EDBCFEAFF050EE926000EEA22EF501C
:107A5000400B0DE00F012087E5EC1AF006C0E4F0C2
:107A600007C0E5F008C0E6F009C0E7F029D0FD0E38
:107A7000DBCFE9FFFE0EDBCFEAFF050EE926000EA5
:107A8000EA22EF500F0BE76E010EE7CFDBFFFD0E92
:107A9000DBCFE9FFFE0EDBCFEAFF050EE926000E85
:107AA000EA22EF5008080CE2FD0EDBCFE9FFFE0EE4
:107AB000DBCFEAFF050EE926000EEA22080EEF6E84
:107AC000010EDB50146E020EE15C02E2E16AE55247
:107AD000E16E1450E552E7CFD9FF12000F0140AB21
:107AE00015D00001D5510BE1010EDA6FD66BD76BC3
:107AF000D86BD96B0F0140970001DB2B07D0D5075E
:107B000005E10F0140973F0E411740870F0140A943
:107B10000BD00001010EDA6FD66BD76BD86BD96B27
:107B20000F0140970001DC2B0001DA5101E0C1DCBC
:107B3000A49A1200A4B044DEA4BAD0DFA4B8B9DC81
:107B4000CEEF3AF0D9CFE6FFE1CFD9FF020EE12622
:107B5000FE0EDB50060A24E0030A1EE0010A18E0CC
:107B6000070A12E0010A0CE0030A06E0010A1CE120
:107B7000600EDE6E0F0E1BD0500EDE6E0F0E17D095
:107B8000200EDE6E0E0E13D0300EDE6E0E0E0FD0F7
:107B9000400EDE6E0E0E0BD0500EDE6E0E0E07D0B7
:107BA000600EDE6E0E0E03D0700EDE6E0E0EDD6EFB
:107BB000DECF14F0DDCF15F014C0F3FF15C0F4FFD5
:107BC000020EE15C02E2E16AE552E16EE552E7CFC6
:047BD000D9FF1200C7
:0C7BD4000001FF6B12008A9C8A8E0001E9
:107BE000FF6B12008A8C8A9E0001FF6B1200D9CFB6
:107BF000E6FFE1CFD9FFFE0EDB5002E0F3DF01D05C
:107C0000ECDFE552E7CFD9FF12008A7CE5EC1AF0F1
:107C100006C0FBF007C0FCF008C0FDF009C0FEF094
:107C20001200D9CFE6FFE1CFD9FFFE0EDB5002E014
:107C3000020E01D0010E0001FF6FE7DFE552E7CF32
:107C4000D9FF12000001FF51020A1EE0030A01E001
:107C50001200E5EC1AF00001FB51065C146EFC51B9
:107C60000758156EFD510858166EFE510958176ECB
:107C7000D880120E14547A0E1554000E1654000EAD
:107C800017541CE205EF3EF0E5EC1AF00001FB5141
:107C9000065C146EFC510758156EFD510858166E9F
:107CA000FE510958176ED880B00E1454280E155482
:0E7CB000000E1654000E175401E2A7DF12005A
:027CBE0009C0FB
:107CC00013F008C012F007C011F007500C02F4CFF7
:107CD00005F0F3CF04F008500D02F4CF07F0F3CF16
:107CE00006F00C02F3500526F4500622E86A07223B
:107CF00011500D02F3500526F4500622E86A0722BF
:107D000009500C02F3500626F450072209500D02C8
:107D1000086AE86A0822F3500726F4500822115036
:107D20000E02F3500626F4500722096AE86A082278
:107D3000092212500E02F3500726F4500822E86A76
:107D4000092213500E02F3500826F4500922000CA9
:107D500008C012F008500D02F4CF07F0F3CF06F080
:107D600009500E02F4CF09F0F3CF08F00D02F350E2
:107D70000726F4500822E86A092212500E02F35036
:0C7D80000726F4500822E86A0922000CD3
:047D8C00D9CFE6FF66
:107D9000DACFE6FFFA0EE3CFD9FFFB0EE3CFDAFF2F
:107DA000FC0EE3CFE9FFFD0EE3CFEAFFE9CFF3FFDF
:107DB000EACFF4FFF80EE35003E1F90EE35008E0D8
:107DC000F80EE30602E2F90EE306DECFEEFFF2D78D
:107DD000FF0EE3CFDAFFE552FF0EE3CFD9FFE55206
:107DE0001200FE0EE3CFE9FFFF0EE3CFEAFFE9CF7B
:107DF000F3FFEACFF4FFFB0EE35003E1FC0EE35088
:107E000009E0FB0EE30602E2FC0EE306FD0EE35082
:107E1000EE6EF1D71200FE0EE3CFE9FFFF0EE3CFC7
:107E2000EAFFF36AF46AEE5203E0F34AF42AFBD75E
:027E300012003E
:0E7E3200F26AF16AA66A9F6AA26AA26AA56A4B
:107E40009D6AA06AA36A9E6AA16AA46AD08EC26A69
:107E50000F0EC16EC06A3F0E926E330E936E946A1F
:107E6000F19E8A9C8A9EEAEF3DF0D9CFE6FFE5526B
:107E7000E7CFD9FF1200D9CFE6FFE1CFD9FFE65215
:107E8000DF6ADF5002E0000E01D0010EE552E5523C
:067E9000E7CFD9FF12004C
:0A7E96007E306D79335B5F707F7BF7
:107EA00000000000000000771F4E3D4F475E1706A0
:107EB0003C070E76157E6773055B0F3E1C3F313B1A
:107EC0006D000000000000771F4E3D4F475E170613
:107ED0003C070E76157E6773055B0F3E1C3F313BFA
:0C7EE0006D000000000048454C4C4F00B5
:047EEC00FE0EE3CFD4
:107EF00029F4FF0EE3CF2AF412002AC409F029C4A2
:107F000008F0350E0D6E450E0E6EA8EC3EF0062AFA
:107F1000E86A0722079E07C02AF406C029F429C48C
:087F2000F3FF2AC4F4FF120074
:087F2800000EF36E00EE00F004
:107F30000D0E01D81200EA6002D0EE6AFCD7F350B1
:087F4000E9601200EE6AFCD7B3
:087F48003F0E7014010F040D3F
:067F5000F3CF7DF01200EA
:077F56000000000000000024
:020000040030CA
:0100010002FC
:010002001EDF
:0100030010EC
:01000500807A
:010006008079
:010008000FE8
:01000900C036
:01000A000FE6
:01000B00E014
:01000C000FE4
:01000D0040B2
:0200000400F00A
:1000000000000000000000000000000000000000F0
:1000100000000000000000000000000000000000E0
:1000200000000000000000000000000000000000D0
:1000300000000000000000000000000000000000C0
:1003F000000000000000000000FE0000820070000D
:00000001FF
