:020000040000FA
:040000001FD00ED02F
:0400080004EF04F00D
:040018000CEF04F0F5
:100020007F6E05A01200550E7E6EAA0E7E6E7F8238
:1000300000007FB2FED712000A26D8B00B2A1200A9
:100040000E010F0E436F7F6A746875687F80000031
:10005000733C00EF04F0066A1C0E056E000EE06FA4
:10006000080EE16FE81EE56F000EE26F070EE36F0A
:10007000FF0EF86FEB0EF96FFF0EFA6FF80EFB6FC5
:100080009E0E446F030E456F0F015D6B5C6B200E7F
:10009000706E6F6A9490949482908294939E939CD5
:1000A000818E818C609E040060AEFDD70FEE66F0FD
:1000B00065500F0B096EF46EF5E064B02CD010EEB5
:1000C00001F0EECFE6FFF42EFCD70650EBE0010A7C
:1000D000D8A408D074687568736A040EA1DF8280A2
:1000E000819CFF000650020A05E10B6A0A6A0C9027
:1000F0000C6AD8D70650030A0AE107500A2606E11F
:1001000008500B2203E10CB001D074D077D0065018
:10011000040AC8E177D00350F86EF00BF36E02507A
:10012000F76E756E0150F66E746E05A605D0095017
:100130000126E86A02220322300EF36001D008D0C3
:10014000F350300A01E12AD0F350F00AABE132D08B
:1001500005A405D0F6503F0B02E1940E61DF05B215
:10016000A1D7F650070B9EE1080EF46EEE50F56E27
:1001700063DF0D00F42EFAD7080EF46E0A00ED507E
:10018000F42EFCD7840E4CDF080EF46E0900F550F7
:10019000EE18D8A40C80F42EF9D784D7EF50F56E62
:1001A0004BDF0C00C40E3CDF0900F550EE18F42EB6
:1001B000F5D778D7EF50736E3FDF040E31DF7F6ADB
:1001C0007F8000007350EE18D8A40C80744A752A02
:1001D000F42EF0D767D720B7FED7800E216F080E18
:1001E000226F000E236F040E246F248164A02491DB
:1001F000208758D7010E266F256FEDD7266B010E8D
:0E020000256FE9D7020E266F010E256FE4D799
:02020E00D9CF46
:10021000E6FFDACFE6FFFA0EE3CFD9FFFB0EE3CF1E
:10022000DAFFFC0EE3CFE9FFFD0EE3CFEAFFE9CFF3
:10023000F3FFEACFF4FFF80EE35003E1F90EE350C9
:1002400008E0F80EE30602E2F90EE306DECFEEFF69
:10025000F2D7FF0EE3CFDAFFE552FF0EE3CFD9FF6F
:10026000E5521200FE0EE3CFE9FFFF0EE3CFEAFFF7
:10027000E9CFF3FFEACFF4FFFB0EE35003E1FC0EFE
:10028000E35009E0FB0EE30602E2FC0EE306FD0E7E
:10029000E350EE6EF1D71200FE0EE3CFE9FFFF0E42
:1002A000E3CFEAFFF36AF46AEE5203E0F34AF42A7A
:0402B000FBD7120066
:0C02B400F26AF16A7F6A9F6AA26AA26A7D
:1002C000A56A9D6AA06AA36A9E6AA16AA46AB86ABE
:1002D0007868B66A766AB76A776AD08EC26AC16A87
:1002E0000F015D6B5C6BC06A3F0E926E330E936EB6
:1002F000946AF19E5B6F916A8A9C8A9E0AEF2FF046
:10030000D9CFE6FFE552E7CFD9FF1200D9CFE6FFFC
:10031000E1CFD9FFE652DF6ADF5002E0000E01D0E4
:0C032000010EE552E552E7CFD9FF1200B4
:04032C007E306D7939
:10033000335B5F707F7B00000000000000771F4E82
:100340003D4F475E17063C070E76157E6773055BCB
:100350000F3E1C3F313B6D000000000000771F4E38
:100360003D4F475E17063C070E76157E6773055BAB
:100370000F3E1C3F313B6D000000000048454C4CD7
:020380004F002C
:0E038200FE0EE3CF29F4FF0EE3CF2AF41200A3
:100390002AC409F029C408F0350E0D6E450E0E6E04
:1003A000C8EC2FF0062AE86A0722079E07C02AF445
:0E03B00006C029F429C4F3FF2AC4F4FF12008A
:080800000000C7EF1DF012001B
:0808080007ED04F012000600E8
:0608100002EF06F01200E9
:020818001200CC
:10082000A5621FFF0A50010B0D0100080000000027
:100830000000010200000000140040080000000356
:0608400050616E656C00C2
:0708460000000000000000AB
:100850000200460800002204000007000000FC5FC0
:0A086000000029040000020000005F
:10087000D9CFE6FFE1CFD9FF120EE12664C0E6FF33
:1008800065C0E6FF66C0E6FF67C0E6FF68C0E6FF3A
:1008900069C0E6FF6AC0E6FF6BC0E6FF06D9146ECA
:1008A000080EE15E1450E5EC1AF0020E06C0DBFF04
:1008B000030E07C0DBFF040E08C0DBFF050E09C0F6
:1008C000DBFF00016491656B00016451010B01E0E5
:1008D0008CD0020EDBCF18F0030EDBCF19F0040E24
:1008E000DBCF1AF0050EDBCF1BF018C0E6FF19C0F6
:1008F000E6FF1AC0E6FF1BC0E6FFE5EC1AF0E55282
:10090000E7CF1BF0E552E7CF1AF0E552E7CF19F039
:10091000E552E7CF18F000011850065C146E19502C
:100920000758156E1A500858166E1B500958176E46
:100930007EC0F6FF7FC0F7FF0800F5CF1CF01D6AF0
:100940001E6A6A0E0C6E180E0D6E0E6A1CC007F041
:100950001DC008F01EC009F07FEC2FF004C01CF091
:1009600005C01DF006C01EF0480E1C26E80E1D2214
:10097000010E1E221F6A1EBE1F6814501C5C1550FB
:100980001D5816501E5817501F582FE20001648141
:100990007EC0F6FF7FC0F7FF0800F550000807E2B1
:1009A000810EE66EE66AD7EC15F0E552E5527EC0A0
:1009B000F6FF7FC0F7FF050EF626000EF7220800AF
:1009C000F550080B12E000010B0E836F7EC0F6FF9E
:1009D0007FC0F7FF050EF626000EF7220800F5503F
:1009E000070BE8B4F8090001656F020E0001655DB0
:1009F00002E0000E01D0010EE66E82D8E552000141
:100A00006B6F9AEC0FF00C0E0001835D22E10B0E70
:100A1000836F0001652B060E655D04E1010E656FB5
:100A2000666B676BE66A43EC38F0E55242EC39F0EE
:100A30000001696BE5EC1AF0060E06C0DBFF070E3D
:100A400007C0DBFF080E08C0DBFF090E09C0DBFF93
:100A500009D00D0E835D06E10001010E6A6F0001F1
:100A60000B0E836F0B0E0001835D02E188EC08F032
:100A7000000164A117D07CEC06F0E76E010EE7CF11
:100A8000DBFFDB50FF080EE0010EE66EDBCFE6FF7A
:100A9000E66AE668E668E66A73EC0DF0146E060E28
:100AA000E15E145042EC2FF00FD7D9CFE6FFE1CF33
:100AB000D9FFE6525AEC01F059EC06F081EC08F04F
:100AC00047EC08F07EC0F6FF7FC0F7FF040EF62665
:100AD000000EF7220800F550E66E00EC38F0E55203
:100AE000F28E0001830502E0000E01D0010EE66ED9
:100AF00017EC2FF0E552E552E552E7CFD9FF12008F
:100B0000D9CFE6FFE1CFD9FF170EE126D950010F6B
:100B1000E66E000EDA20E66EE66AD1EC0CF0E552E5
:100B2000E552E552DF6EDF505FE0FE0EDB5052E033
:100B3000070EDB50E00BE838E840010FE76E150EBA
:100B4000E7CFDBFFDB50040805E2040EF36E150E61
:100B5000F3CFDBFF160EDB6A150EDB50F36E160EBD
:100B6000DBCFF4FFF350F45C1BE2160EDB50E824FD
:100B7000E66ED950010F146EDACF15F0160EDB5069
:100B8000060F0F011424E96E000EDA20EA6EEF5012
:100B9000E66E35EC3AF0E552E552160EDB2ADCD76C
:100BA000150EDB50020D160EF3CFDBFF080EF36EB1
:100BB000160EDBCFF4FFF350F45C16E2160EDBCF1B
:100BC000E6FF200EE66E50EC3AF0E552E552160EC6
:100BD000DB2AECD7D950010FE66E000EDA20E66E64
:100BE00003EC11F0E552E552DF50146E170EE15C94
:100BF00002E2E16AE552E16E1450E552E7CFD9FF17
:100C000012001200D8CFE4FFE0CFE4FFE46EDACFA9
:100C1000E4FFE2CFDAFFE9CFE4FFEACFE4FFF6CF6B
:100C2000E4FFF7CFE4FFF5CFE4FFF3CFE4FFF4CF29
:100C3000E4FFFACFE4FF00EE00F0140EE80403E353
:100C4000EECFE4FFFBD700EE14F00C0EE80403E354
:100C5000EECFE4FFFBD7E6523BEC1BF0BAEC2EF0F4
:100C6000E55200EE1FF00C0EE80403E3E5CFEDFFC4
:100C7000FBD700EE13F0140EE80403E3E5CFEDFF1D
:100C8000FBD7E5CFFAFFE5CFF4FFE5CFF3FFE5CFE4
:100C9000F5FFE5CFF7FFE5CFF6FFE5CFEAFFE5CFBC
:100CA000E9FFE5CFDAFFE550E5CFE0FFE5CFD8FF7C
:100CB0001000D9CFE6FFE1CFD9FFE6520401006B67
:100CC000DF6A080EDF5C09E2DF50EA6A060FE96EB0
:100CD000040EEA22EF68DF2AF4D78B6893809382B0
:100CE0009388938A938A928A928692829280E5521E
:100CF000E552E7CFD9FF1200D9CFE6FFE1CFD9FF08
:100D0000130EE126030EDB6A040EDB6A050EDB6AB6
:100D1000060EDB6A070EDB6A080EDB6A090EDB6A69
:100D20000A0EDB6A0C0EDB6A0D0EDB6A0F0EDB6A45
:100D30000E0EDB6A100EDB68DF6A080EDF5C01E373
:100D400098D0010EDF5206E0DFCFF3FFE846FE0B3E
:100D5000F306FCE1E81CE76E010EE7CFDBFFF25083
:100D6000800B01E0010EE76E120EE7CFDBFFF29E73
:100D70008B68010EDB508B16020EDB6AD950020F16
:100D8000E96EDACFEAFF8150010B02E0EF8001D07B
:100D9000EF90D950020FE96EDACFEAFF8150020BD3
:100DA00002E0EF8201D0EF92D950020FE96EDACF64
:100DB000EAFF8150100B02E0EF8401D0EF94D9508C
:100DC000020FE96EDACFEAFF8150200B02E0EF86D6
:100DD00001D0EF96D950020FE96EDACFEAFF8050CA
:100DE000200B02E0EF8801D0EF98D950020FE96E96
:100DF000DACFEAFF8050080B02E0EF8A01D0EF9AC9
:100E0000D950020FE96EDACFEAFF8050020B02E000
:100E1000EF8C01D0EF9CD950020FE96EDACFEAFFD8
:100E20008050010B02E0EF8E01D0EF9E120EDB50DE
:100E3000E8B0F28EE8A0F29E020EDB50FF0809E057
:100E40000F0EDFCFDBFF020EDB1CE76E100EE7CFCD
:100E5000DBFFD950030F146EDACF15F0DF501424E6
:100E6000E96E000EDA20EA6E020EDBCFEFFFDF2A1A
:100E700064D70B0EDB68040100A5B5D0D950030F71
:100E8000E96EDACFEAFFEE500E196EE1EE500F195F
:100E90006BE1EE50101968E1EE50111965E164E163
:100EA000D950070FE96EDACFEAFFEE5012195CE174
:100EB000EE50131959E1EE50141956E1EE50151980
:100EC00053E152E1E5EC1AF004010251065C146EA4
:100ED00003510758156E04510858166E05510958EC
:100EE000176ED880E20E1454040E1554000E1654DA
:100EF000000E175401E3BDD00EC406F40FC407F46E
:100F000010C408F411C409F412C40AF413C40BF495
:100F100014C40CF415C40DF40095100EDB5001E15F
:100F2000A8D0100EDB50FF0801E1A3D0110EDB6A40
:100F3000100EDB50010B01080AE0100EDBCFF3FFAF
:100F4000F390F342F3CFDBFF110EDB2AF1D70F0E44
:100F5000DBCFE6FF110EDB38F00BE552E724E76E3E
:100F60000B0EE7CFDBFF85D0D950030FE96EDACF48
:100F7000EAFFEE5006191EE1EE5007191BE1EE5094
:100F8000081918E1EE50091915E114E1D950070FBD
:100F9000E96EDACFEAFFEE500A190CE1EE500B19B8
:100FA00009E1EE500C1906E1EE500D1903E102E1E2
:100FB00000955FD0030EDBCF0EF4040EDBCF0FF4F1
:100FC000050EDBCF10F4060EDBCF11F4070EDBCFDE
:100FD00012F4080EDBCF13F4090EDBCF14F40A0E63
:100FE000DBCF15F43CD0D950030FE96EDACFEAFF1E
:100FF000EE5006191BE1EE50071918E1EE500819E2
:1010000015E1EE50091912E111E1D950070FE96E0F
:10101000DACFEAFFEE500A1908E1EE500B1905E1AC
:10102000EE500C1902E1EE500D1923E0030EDBCF58
:101030000EF4040EDBCF0FF4050EDBCF10F4060E1A
:10104000DBCF11F4070EDBCF12F4080EDBCF13F465
:10105000090EDBCF14F40A0EDBCF15F40085E5ECA6
:101060001AF006C002F407C003F408C004F409C073
:1010700005F40B0EDB50146E130EE15C02E2E16A24
:10108000E552E16E1450E552E7CFD9FF1200D9CFF7
:10109000E6FFE1CFD9FFE652810EE66EE66A79EC13
:1010A0000FF0E552E5520001B60E896F3B0E8A6FD4
:1010B00089C07EF0E8CF7FF00001060E8B6F3C0EFA
:1010C0008C6F0001806B826BE552E552E7CFD9FF50
:1010D0001200D9CFE6FFE1CFD9FFE65200018151DE
:1010E00003E082C0DFFF03D0FE0EDB50DF6EDF5077
:1010F00002E0010E01D0000EE552E552E7CFD9FF24
:1011000012000001656B666B676B686B696B1200A0
:10111000D9CFE6FFE1CFD9FF0C0EE12600016551E2
:10112000050A01E118D2010A01E179D1070A01E1BA
:101130004BD1020A01E092D26A5103E0666B676B01
:101140006A6B060E661901E1675101E101D1050ED6
:10115000661901E1675101E1C2D0040E661901E18F
:10116000675101E19DD0030E661901E1675158E016
:10117000020E661901E1675136E0010E661901E1C0
:1011800067510EE0665101E069D2675101E066D215
:1011900042EC39F0010EE66E43EC38F0E552C9D06E
:1011A000E5EC1AF004011A51065C146E1B51075845
:1011B000156E1C510858166E1D510958176ED880AF
:1011C000B40E1454C40E1554040E1654000E1754C5
:1011D00001E344D2E66A43EC38F0E55242EC39F0E0
:1011E00007EC3BF0A6D0E5EC1AF004011A51065CBE
:1011F000146E1B510758156E1C510858166E1D5160
:101200000958176ED880B40E1454C40E1554040E29
:101210001654000E175401E321D245EC3BF089D05F
:10122000E5EC1AF004011A51065C146E1B510758C4
:10123000156E1C510858166E1D510958176ED8802E
:10124000B40E1454C40E1554040E1654000E175444
:1012500001E304D242EC39F0E66AE66A0BEC3AF0BC
:10126000E552E552010EE66EE66E0BEC3AF0E55201
:10127000E552020EE66E230EE66E35EC3AF0E552CC
:10128000E552E66A040EE66EE66E670EE66E450E01
:10129000E66ED1EC39F0146E050EE15E145049D0C3
:1012A000E5EC1AF004011A51065C146E1B51075844
:1012B000156E1C510858166E1D510958176ED880AE
:1012C000B40E1454C40E1554040E1654000E1754C4
:1012D00001E3C4D142EC39F009EC39F02AD0E5EC55
:1012E0001AF004011A51065C146E1B510758156E52
:1012F0001C510858166E1D510958176ED880B40E2F
:101300001454C40E1554040E1654000E175401E361
:10131000A5D11E691F690001686B1EC4E6FF1FC4CA
:10132000E6FFABEC38F0E552E552F3CF1EF4F4CF14
:101330001FF4E5EC1AF006C01AF407C01BF408C04D
:101340001CF409C01DF40001662B000E672386D132
:10135000E5EC1AF004011A51065C146E1B51075893
:10136000156E1C510858166E1D510958176ED880FD
:10137000120E14547A0E1554000E1654000E175403
:1013800001E36CD11E511F1108E10001682B020E10
:10139000685D03E3666B676B61D11EC4E6FF1FC423
:1013A000E6FFABEC38F0E552E552F3CF1EF4F4CF94
:1013B0001FF4E5EC1AF006C01AF407C01BF408C0CD
:1013C0001CF409C01DF44AD16A5108E06A6B696BCC
:1013D0000001DF6B0001E36B0001E16B00016B5169
:1013E00002E0692B6B6BE66A69C0E6FF35EC3AF008
:1013F000E552E552020EE66EDFC0E6FF35EC3AF04C
:10140000E552E552040EE66EE3C0E6FF35EC3AF035
:10141000E552E552060EE66EE1C0E6FF99D069514D
:1014200011E1666B676B7EC0F6FF7FC0F7FF070EAA
:10143000F626000EF7220800F5500401206F216BFC
:101440000001692B6A5117E06A6B666B676B692B49
:101450007EC0F6FF7FC0F7FF050EF626000EF722CE
:101460000800F550200B07E0010E0401D89020374A
:101470002137E806FBE1040120510001665D04010B
:1014800021510001675949E2E5EC1AF004011A51B3
:10149000065C146E1B510758156E1C510858166EC9
:1014A0001D510958176E7EC0F6FF7FC0F7FF080E6A
:1014B000F626000EF7220800F550060DF3CF18F0BF
:1014C000196A1A6A1B6A1450F35C155019581650A1
:1014D0001A5817501B5821E2010EE66E000166C033
:1014E00014F067C015F0662B000E672314C0E6FFEA
:1014F00015C0E6FFE668E668E66A73EC0DF0166E66
:10150000060EE15E1650E5EC1AF006C01AF407C0AC
:101510001BF408C01CF409C01DF4E66A66C0E6FFAF
:1015200035EC3AF0E552E552020EE66EDEC0E6FF1B
:1015300035EC3AF0E552E552040EE66EE2C0E6FF05
:1015400035EC3AF0E552E552060EE66EE0C0E6FFF5
:1015500035EC3AF081D06A5103E1695101E07ED067
:10156000010E696F6A6BD750000EF350D624E66EF9
:10157000E66AC1EC01F0E552E552DF6A080EDF5C75
:101580005FE2C8EC01F0F3CF16F0F4CF17F0070ECE
:101590001616000E1716310E1626000E1722D950F9
:1015A000020F146EDACF15F0DF500F011424E96E2C
:1015B000000EDA20EA6E16C0EFFF010EF36E0B0E7E
:1015C000F3CFDBFF010EDB6A0B0EDBCFE6FFDF5054
:1015D000F36E010EDBCFF4FFF350F45C02E3000E78
:1015E00001D0010EE552E71426E0D950020F156E26
:1015F000DACF16F0DF501524E96E000EDA20EA6E1D
:10160000EFCF14F0D950020F176EDACF18F0010E99
:10161000DB501724E96E000EDA20EA6EEF50145CFE
:1016200002E1000E01D0010EE76E0B0EE7CFDBFFEB
:10163000010EDB2AC9D70B0EDB50A3E0DF2A9ED7B1
:101640000A0EDB6AE66AD950020FE66E000EDA2057
:10165000E66E87EC3AF0E552E552E5520C0EE15C9D
:1016600002E2E16AE552E16EE552E7CFD9FF1200EE
:10167000D9CFE6FFE1CFD9FF0C0EE126010E8BC0DA
:10168000DBFF020E8CC0DBFFFE0EDB50110D0001F4
:101690008B51F324F66E8C51F420F76E0800F55050
:1016A000080B01E14BD1DF6A010EF36E0B0EF3CF95
:1016B000DBFF0B0EDB5001E141D1010EDBCF16F059
:1016C000020EDBCF17F0FE0EDB50110D1650F32487
:1016D000F66E1750F420F76E070EF626000EF7226E
:1016E000F6CF14F0F7CF15F0DF50020D1450F324AD
:1016F000F66E1550F420F76E0800030EF5CFDBFFF1
:10170000060EE76EFC0EDBCFE9FFFD0EDBCFEAFF36
:10171000E750E926000EEA22EF50010B010802E033
:10172000000E01D0010EE76E090EE7CFDBFFDB50A4
:1017300008E0D950030FE96EDACFEAFFEF50080B4B
:101740000DE1090EDB5001E0A4D0D950030FE96E82
:10175000DACFEAFFEF50100B01E19BD0D950030F15
:10176000E96EDACFEAFFEF50040B01E0FF0EF36EF3
:10177000090EDB50F35C02E1000E01D0010EE76EB2
:101780000A0EE7CFDBFFD950030FE96EDACFEAFF8D
:10179000EF50010B0BE0D950030FE96EDACFEAFFEF
:1017A000EF50020B03E00A0EDB5002E1000E01D005
:1017B000010EE76E080EE7CFDBFFD950030FE96E8D
:1017C000DACFEAFFEF50010B0BE0D950030FE96EBF
:1017D000DACFEAFFEF50020B03E10A0EDB5002E121
:1017E000000E01D0010EE76E060EE7CFDBFFD950E9
:1017F000030FE96EDACFEAFFEF50020B03E00A0EA7
:10180000DB5002E0000E01D0010EE76E070EE7CFBD
:10181000DBFF010EDBCF16F0020EDBCF17F0FE0E62
:10182000DB50110D1650F324F66E1750F420F76EAE
:10183000070EF626000EF722F6CF14F0F7CF15F0BC
:10184000DF50020D1450F324F66E1550F420F76E9D
:10185000F62A000EF7220800050EF5CFDBFF080E72
:10186000DB5006E0050EDBCFE6FFA0EC39F010D030
:10187000060EDB5003E0010EE66E04D0070EDB50CF
:1018800008E0E66A050EDBCFE6FF78EC39F0E552BA
:10189000E552D950030FE96EDACFEAFFEF50800B23
:1018A000800A01E0010EE76E0B0EE7CFDBFFDB5095
:1018B00001E1FFD6020EDF26DF50146E156A050E19
:1018C000145C000E155801E2F4D6FE0EDB50110D2B
:1018D00000018B51F324F66E8C51F420F76E080052
:1018E000F550010B01E0FF0EE76E0B0EE7CFDBFFBB
:1018F000DB5001E1DED6FE0EDBCFE6FF25EC1AF071
:10190000E552E76EFE0EE7CFDBFFDF6ADB500EE04D
:10191000FE0EDB50110D00018B51F324F66E8C513D
:10192000F420F76E0800F550020B02E1000E01D022
:10193000010EE76E0B0EE7CFDBFFBBD6146E0C0E6D
:10194000E15C02E2E16AE552E16E1450E552E7CF54
:10195000D9FF1200D9CFE6FFE1CFD9FFBAEC1AF0D8
:10196000FC0EE66E030EE66E3FEC1DF0E552E5520E
:10197000F3CFF0F1F4CFF1F10101F31C08E1F11D17
:1019800006E1FD0EDBCFF0F1FE0EDBCFF1F1E66AF2
:10199000E66A23EC29F0E552E552E552E7CFD9FF9C
:1019A0001200D9CFE6FFE1CFD9FFFE0EDB500AE1EE
:1019B000FC0EDBCFE6FFFD0EDBCFE6FF14EC2CF0D8
:1019C000E552E552E552E7CFD9FF1200D9CFE6FF45
:1019D000E1CFD9FFFD0EDBCFF8F1F20EE66E010E7E
:1019E000E66EFE0EDBCFE6FFDDD9E552E552E552AD
:1019F000E552E7CFD9FF1200D9CFE6FFE1CFD9FFFB
:101A0000060EE76EFB0EDBCFE9FFFC0EDBCFEAFF35
:101A1000E750E926000EEA22FD0EDBCFEFFFFB0EBA
:101A2000DBCFE6FFFC0EDBCFE6FFFE0EDBCFE6FFF3
:101A30002ED9E552E552E552E552E7CFD9FF120023
:101A4000D9CFE6FFE1CFD9FF060EE76EF90EDBCF67
:101A5000E9FFFA0EDBCFEAFFE750E926000EEA22A3
:101A6000FD0EDBCFEFFFF90EDBCFE6FFFA0EDBCF8B
:101A7000E6FFFB0EDBCFE6FFFC0EDBCFE6FFFE0E44
:101A8000DBCFE6FF3CD9146E050EE15E1450E55243
:101A9000E7CFD9FF1200D9CFE6FFE1CFD9FF0A0E79
:101AA000E126E66AD9CFE6FFDACFE6FFFB0EDBCF11
:101AB000E6FFFC0EDBCFE6FFFD0EDBCFE6FFE668C0
:101AC000E668FE0EDBCFE6FF3AD8146E090EE15E43
:101AD00014500A0EE15C02E2E16AE552E16EE55261
:101AE000E7CFD9FF1200D9CFE6FFE1CFD9FF0A0E29
:101AF000E126E66AD9CFE6FFDACFE6FFF90EDBCFC3
:101B0000E6FFFA0EDBCFE6FFFB0EDBCFE6FFFC0EB7
:101B1000DBCFE6FFFD0EDBCFE6FFFE0EDBCFE6FF01
:101B20000ED8146E090EE15E14500A0EE15C02E25A
:101B3000E16AE552E16EE552E7CFD9FF1200D9CF55
:101B4000E6FFE1CFD9FF060EE76EF70EDBCFE9FF28
:101B5000F80EDBCFEAFFE750E926000EEA22900EEE
:101B6000EF6ED950FC0FE96EFF0EDA20EA6EEE50F0
:101B7000ED1013E1060EE76EF70EDBCFE9FFF80E6E
:101B8000DBCFEAFFE750E926000EEA22EF86FC0EE3
:101B9000F0C1DBFFFD0EF1C1DBFFF90EDB500DE103
:101BA000060EE76EF70EDBCFE9FFF80EDBCFEAFF9C
:101BB000E750E926000EEA22EF80F60EDB5000081F
:101BC00011E2F60EDB50200D060EE76EF70EDBCFAE
:101BD000E9FFF80EDBCFEAFFE750E926000EEA2224
:101BE000F350EF12FA0EFB0EDBCF15F015C014F018
:101BF000156A090EE76EF70EDBCFE9FFF80EDBCFB3
:101C0000EAFFE750E926000EEA2214C0EFFFFF0EBC
:101C1000E76EFA0EDBCF14F0FB0EE7501416156AD0
:101C20000A0EE76EF70EDBCFE9FFF80EDBCFEAFF17
:101C3000E750E926000EEA2214C0EFFFF70EDBCFD3
:101C4000E6FFF80EDBCFE6FFFC0EDBCFE6FFFD0E76
:101C5000DBCFE6FFFE0EDBCFE6FF51D8146E050E9C
:101C6000E15E1450FE0EDB5004E0FE0EDB50FF0878
:101C70000AE1F70EDBCFE6FFF80EDBCFE6FF66ECFE
:101C80002BF0E552E552E552E7CFD9FF1200D9CF4C
:101C9000E6FFE1CFD9FFF1C114F0156A070EE76E38
:101CA000FC0EDBCFE9FFFD0EDBCFEAFFE750E926B4
:101CB000000EEA22F1C1EFFF0101F051E66E080EBD
:101CC000E76EFC0EDBCFE9FFFD0EDBCFEAFFE7504E
:101CD000E926000EEA22E552E750EF6EFC0EDBCF5C
:101CE000E6FFFD0EDBCFE6FFFE0EDBCFE6FF5AD8A8
:101CF000E552E552E552E552E7CFD9FF1200D9CFC0
:101D0000E6FFE1CFD9FFE150FC0FE96EFF0EDA20CC
:101D1000EA6EFF0EEE1809E1FF0EED1806E1FC0E6B
:101D2000F0C1DBFFFD0EF1C1DBFFFC0EFD0EDBCFD2
:101D300015F015C014F0156A070EE76EFA0EDBCF2A
:101D4000E9FFFB0EDBCFEAFFE750E926000EEA22AF
:101D500014C0EFFFFF0EE76EFC0EDBCF14F0FD0E9C
:101D6000E7501416156A080EE76EFA0EDBCFE9FF8E
:101D7000FB0EDBCFEAFFE750E926000EEA2214C093
:101D8000EFFFFA0EDBCFE6FFFB0EDBCFE6FFFE0E2A
:101D9000DBCFE6FF07D8E552E552E552E552E7CF43
:101DA000D9FF1200D9CFE6FFE1CFD9FFFE0EDB50FD
:101DB00004E0FE0EDB50FF081DE1060EE76EFC0E90
:101DC000DBCFE9FFFD0EDBCFEAFFE750E926000E8F
:101DD000EA22EF50E00BE838E840010FE66EFC0E17
:101DE000DBCFE6FFFD0EDBCFE6FF24EC2AF0E55269
:101DF000E552E552E552E7CFD9FF1200D9CFE6FF11
:101E0000E1CFD9FF0E0EE126F60EF36E060EF3CFEC
:101E1000DBFFFA0EDBCFE9FFFB0EDBCFEAFF090E9B
:101E2000EFCFDBFF010EE76EFA0EDBCFE9FFFB0E13
:101E3000DBCFEAFFE750E926000EEA220A0EEFCFD9
:101E4000DBFF020EE76EFA0EDBCFE9FFFB0EDBCF06
:101E5000EAFFE750E926000EEA220B0EEFCFDBFF88
:101E6000030EE76EFA0EDBCFE9FFFB0EDBCFEAFFD6
:101E7000E750E926000EEA220C0EEFCFDBFF040E3E
:101E8000E76EFA0EDBCFE9FFFB0EDBCFEAFFE75090
:101E9000E926000EEA220D0EEFCFDBFFD9CFE6FFD9
:101EA000DACFE6FFFC0EDBCFE6FFFD0EDBCFE6FF71
:101EB000FE0EDBCFE6FF23DF146E050EE15E14504D
:101EC000FE0EDB5004E0FE0EDB50FF0808E1D9CF28
:101ED000E6FFDACFE6FF66EC2BF0E552E5520E0E98
:101EE000E15C02E2E16AE552E16EE552E7CFD9FF3B
:101EF0001200D9CFE6FFE1CFD9FF46EC1BF0FB0E75
:101F0000E66E030EE66EF0EC1CF0E552E5520001C1
:101F1000836F846F3BEC16F0FD0EDBCFE6FFFE0E09
:101F2000DBCFE6FFAAEC0CF0E552E552E552E7CF35
:101F3000D9FF1200000183510A0A01E1D4D0010A3D
:101F400001E1C2D0020A01E19CD00D0A01E195D065
:101F5000070A5CE0010A16E0030A03E0010A01E057
:101F6000120080B420D183C084F0020E836FE5ECB0
:101F70001AF006C085F007C086F008C087F009C0D7
:101F800088F0120080B420D0E5EC1AF000018551F1
:101F9000065C146E86510758156E87510858166EE8
:101FA00088510958176ED880900E1454D00E1554CD
:101FB000030E1654000E175428E2030E836FE66AD0
:101FC00031EC2FF0E552120084051DE1E5EC1AF02A
:101FD00000018551065C146E86510758156E8751B5
:101FE0000858166E88510958176ED8806A0E145416
:101FF000180E1554000E1654000E175404E2040E69
:10200000836FD4EF10F084C083F0120080A40AD054
:10201000845104E1040E836FD4EF10F0836BE3D896
:102020000DEF2FF0E5EC1AF000018551065C146EFF
:1020300086510758156E87510858166E88510958F1
:10204000176ED880200E1454A10E1554070E165486
:10205000000E175401E3A7D00A0E836FE5EC1AF0C7
:1020600006C085F007C086F008C087F009C088F078
:10207000010EE66E31EC2FF05BD080B494D0090EE7
:1020800026D080A490D0E5EC1AF000018551065CC2
:10209000146E86510758156E87510858166E885170
:1020A0000958176ED8806A0E1454180E1554000E75
:1020B0001654000E175406E284C083F0830532E103
:1020C000010E33D0040E6BD080B46DD00A0E836F36
:1020D000E5EC1AF006C085F007C086F008C087F06E
:1020E00009C088F0120080A45ED0E5EC1AF000016F
:1020F0008551065C146E86510758156E8751085835
:10210000166E88510958176ED880900E1454D00E50
:102110001554030E1654000E17540CE284C083F0BD
:10212000830502E0000E01D0010EE66E17EC2FF0E1
:10213000E5521200E5EC1AF000018551065C146EC0
:1021400086510758156E87510858166E88510958E0
:10215000176ED880240E1454F40E1554000E165425
:10216000000E175402E20C0E1AD0E5EC1AF0000132
:102170008551065C146E86510758156E87510858B4
:10218000166E88510958176ED8806A0E1454180EAE
:102190001554000E1654000E175403E20D0E836FF3
:1021A00012000B0E836F1200D9CFE6FFE1CFD9FFEB
:1021B000090EE126D9CFE6FFDACFE6FFE668E6684A
:1021C000500EE66EE66820EC0DF0146E060EE15E31
:1021D0001450090EE15C02E2E16AE552E16EE5525B
:1021E000E7CFD9FF1200F20EE66E010EE66EE6684A
:1021F000E668510EE66EE66820EC0DF0146E060EF1
:10220000E15E14501200D9CFE6FFE1CFD9FFFD0EF9
:10221000DBCFE6FFFE0EDBCFE6FF88EC19F0E552E0
:10222000E552000909E1FD0EDBCFE6FFFE0EDBCF34
:10223000E6FF06D8E552E552E552E7CFD9FF120096
:10224000D9CFE6FFE1CFD9FF0901006B070E0001EE
:10225000835D01E041D10901010E006F060EE76EBA
:10226000FD0EDBCFE9FFFE0EDBCFEAFFE750E926EC
:10227000000EEA22EF50B20A01E1D8D0470A01E18C
:1022800074D0270A62E0470A19E0C00A01E124D1AC
:10229000010A10E0070A01E01ED1FD0EDBCFE6FFC8
:1022A000FE0EDBCFE6FF8EEC15F0E552E55200099D
:1022B00001E012D10001010E836F0ED10A0EE76E0C
:1022C000FD0EDBCFE9FFFE0EDBCFEAFFE750E9268C
:1022D000000EEA22EFCF14F0090EE76EFD0EDBCF01
:1022E000E9FFFE0EDBCFEAFFE750E926000EEA2207
:1022F000EF50000EF3501424E66EE66A080EE76E07
:10230000FD0EDBCFE9FFFE0EDBCFEAFFE750E9264B
:10231000000EEA22EFCF15F0070EE76EFD0EDBCFC1
:10232000E9FFFE0EDBCFEAFFE750E926000EEA22C6
:10233000EF50000EF3501524E66EE66ABCEC16F082
:10234000E552E552E552E552C7D00C0EE76EFD0EA0
:10235000DBCFE9FFFE0EDBCFEAFFE750E926000EF8
:10236000EA22EF50E66E0B0E0FD00D0EE76EFD0E5B
:10237000DBCFE9FFFE0EDBCFEAFFE750E926000ED8
:10238000EA22EF50E66E0C0EE76EFD0EDBCFE9FFA2
:10239000FE0EDBCFEAFFE750E926000EEA22EF50FF
:1023A000E66E0A0EE76EFD0EDBCFE9FFFE0EDBCF19
:1023B000EAFFE750E926000EEA22EFCF14F0090EFB
:1023C000E76EFD0EDBCFE9FFFE0EDBCFEAFFE75045
:1023D000E926000EEA22EF50000EF3501424E66EB8
:1023E000E66A080EE76EFD0EDBCFE9FFFE0EDBCFDF
:1023F000EAFFE750E926000EEA22EFCF15F0070EBC
:10240000E76EFD0EDBCFE9FFFE0EDBCFEAFFE75004
:10241000E926000EEA22EF50000EF3501524E66E76
:10242000E66AE9EC17F0166E060E52D00B0EE76E58
:10243000FD0EDBCFE9FFFE0EDBCFEAFFE750E9261A
:10244000000EEA22EF50E66E0A0EE76EFD0EDBCFBD
:10245000E9FFFE0EDBCFEAFFE750E926000EEA2295
:10246000EFCF14F0090EE76EFD0EDBCFE9FFFE0E95
:10247000DBCFEAFFE750E926000EEA22EF50000E1C
:10248000F3501424E66EE66A080EE76EFD0EDBCF0D
:10249000E9FFFE0EDBCFEAFFE750E926000EEA2255
:1024A000EFCF15F0070EE76EFD0EDBCFE9FFFE0E56
:1024B000DBCFEAFFE750E926000EEA22EF50000EDC
:1024C000F3501524E66EE66A6AEC17F0166E050EF8
:1024D000E15E165001D0006B0901005101E07ED091
:1024E000FD0EDBCFE6FFFE0EDBCFE6FF17DBE5528E
:1024F000E552000973E00901010E006F060EE76E58
:10250000FD0EDBCFE9FFFE0EDBCFEAFFE750E92649
:10251000000EEA22EF509C0A5DE00A0A3BE0E70A5F
:1025200029E0290A24E00F0A1FE0010A1AE0050A3F
:1025300012E0200A52E1090EE76EFD0EDBCFE9FF43
:10254000FE0EDBCFEAFFE750E926000EEA22EF504D
:10255000E66EDAD83DD00001830540E1070E836FB7
:102560003DD08BEC16F03AD0A3EC16F037D0A4ECAB
:1025700016F034D0090EE76EFD0EDBCFE9FFFE0E3C
:10258000DBCFEAFFE750E926000EEA22EF50E66EC5
:1025900044D91ED00A0EE76EFD0EDBCFE9FFFE0E1A
:1025A000DBCFEAFFE750E926000EEA22EF50E66EA5
:1025B000090EE76EFD0EDBCFE9FFFE0EDBCFEAFF73
:1025C000E750E926000EEA22EF50E66E49D9E552BF
:1025D000E55204D069EC17F001D0006B09010051FD
:1025E00013E1060EE76EFD0EDBCFE9FFFE0EDBCF3B
:1025F000EAFFE750E926000EEA22EF500D0804E159
:1026000034D80901010E006F005129E1040E0001C8
:10261000835D25E10901010E006F060EE76EFD0ED8
:10262000DBCFE9FFFE0EDBCFEAFFE750E926000E25
:10263000EA22EF50420A08E0530A04E0010A0EE1E0
:1026400045D90DD092D90BD0FD0EDBCFE6FFFE0EA3
:10265000DBCFE6FF01DAE552E55201D0006B09015C
:102660000051E552E7CFD9FF1200D9CFE6FFE1CF05
:10267000D9FF020EE126200EDE6E080EDD6E01018E
:10268000B60EF86FDECFF6FFDDCFF7FF0800F5CF0F
:10269000FBF1DECFF6FFDDCFF7FF020EF626000ED0
:1026A000F7220800F5CFFCF1DECFF6FFDDCFF7FF14
:1026B000070EF626000EF7220800F5CFFDF1F20E08
:1026C000E66E010EE66EE668E668E6687FEC0EF000
:1026D000146E050EE15E1450020EE15C02E2E16A46
:1026E000E552E16EE552E7CFD9FF1200F20EE66E39
:1026F000010EE66E520EE66EE66AFCEC0CF0E55258
:10270000E552E552E5521200D9CFE6FFE1CFD9FFFD
:10271000020EE126200EDE6E080EDD6EFE0EDBCF11
:1027200014F0380EF66E080EF76E0900F5CF15F0AE
:102730000800F5CF16F01450155C000E16585DE336
:1027400001019B0EF86FFE0EDBCFFBF1DB5004E1C5
:10275000380EF66E080E36D00F0EF36EFE0EDBCF7F
:10276000F4FFF350F45C1FE3130EF36EFE0EDBCFA9
:10277000F4FFF350F45C17E258DAF3CF16F0F4CF1D
:1027800017F0FE0EDB50F10F080DF35016C014F0D9
:1027900017C015F005E0D89015321432E804FBE1BB
:1027A00014C0FCF113D0DECFF6FFDDCFF7FFF6CF7C
:1027B00014F0F7CF15F0FE0EDB040F011424F66EB3
:1027C000000E1520F76E0800F5CFFCF1FE0EDB5071
:1027D000080805E10001830502E10101FC85F20E14
:1027E000E66E010EE66EE668E668E6687FEC0EF0DF
:1027F000146E050EE15E145006D0090EE66EE66A10
:1028000072D9E552E552020EE15C02E2E16AE5525C
:10281000E16EE552E7CFD9FF1200D9CFE6FFE1CF55
:10282000D9FF0101970EF86FFE0EDBCFFBF1DB063F
:10283000DB500001F76A8925F66E8A51F7220800FD
:10284000F5CFFCF1F20EE66E010EE66EE66A47EC9D
:102850000EF0E552E552E552E552E7CFD9FF1200FE
:10286000D9CFE6FFE1CFD9FF020EE12689C0DEFF16
:102870008AC0DDFFFE0EDB50DE26000EDD22DF0605
:10288000010E01E2DB06FD0EDBCFE6FFDECFE6FF49
:10289000DDCFE6FF6CEC1CF0E552E552E552F20E9E
:1028A000E66E010EE66E590EE66EE66AFCEC0CF082
:1028B000E552E552E552E552020EE15C02E2E16AC0
:1028C000E552E16EE552E7CFD9FF1200D9CFE6FF1E
:1028D000E1CFD9FF030EE126200EDE6E080EDD6E7D
:1028E0000101EF0EF86F070EF36E020EF3CFDBFF60
:1028F000DB500D0821E3DECFF6FFDDCFF7FFF6CF8B
:1029000014F0F7CF15F0020EDB50F90F0F0114246D
:10291000F66E000E1520F76E0800F550E66E020EFA
:10292000DB50EA6AF20FE96E010EEA22E552E75047
:10293000EF6E020EDB2ADCD70001830502E1020103
:102940000085F20EE66E010EE66EE66AD2EC0EF03F
:10295000E552E552E552030EE15C02E2E16AE5521E
:10296000E16EE552E7CFD9FF1200D9CFE6FFE1CF04
:10297000D9FF080EE1263A0EF66E080EF76E040E29
:102980000900F5CFDBFF050E0900F5CFDBFF060ED2
:102990000900F5CFDBFF070E0900F5CFDBFF040EC2
:1029A000DBCF08F0050EDBCF09F0020E08C0DBFF1D
:1029B000030E09C0DBFF0101E20EF86FDF6A020EB1
:1029C000DBCFF6FF030EDBCFF7FF0800F55018E072
:1029D000020EDBCFF6FFDB2A030EDBCFF7FF01E3AE
:1029E000DB2A0800F550E66E070EDF24EA6AF20FD4
:1029F000E96E010EEA22E552E750EF6EDF2ADFD7DB
:102A0000010EDFCFDBFF070EF36E010EDBCFF4FF0D
:102A1000F350F45C0DE2010EDB50070FEA6AF20F8F
:102A2000E96E010EEA22200EEF6E010EDB2AEBD7D3
:102A3000F20EE66E010EE66EE66AD2EC0EF0E5529C
:102A4000E552E552080EE15C02E2E16AE552E16E10
:102A5000E552E7CFD9FF1200D9CFE6FFE1CFD9FF8A
:102A6000070EE76EFD0EDBCFE9FFFE0EDBCFEAFFC0
:102A7000E750E926000EEA22EF500101F16BF16FF9
:102A8000F06B080EE76EFD0EDBCFE9FFFE0EDBCF2D
:102A9000EAFFE750E926000EEA22EF50146E156AAD
:102AA000E850F0271550F1230001010E836FE66E08
:102AB000F0C1E6FFF1C1E6FF94D8E552E552E552D8
:102AC000F20EE66E010EE66E520EE66EE66AFCEC63
:102AD0000CF0E552E552E552E55212EC2FF0E552CA
:102AE000E7CFD9FF1200D9CFE6FFE1CFD9FF01012F
:102AF0006F0EF86FFD0EDBCFFBF1F20EE66E010EEE
:102B0000E66EE668E668E6687FEC0EF0146E050E89
:102B1000E15E1450E552E7CFD9FF1200D9CFE6FFAE
:102B2000E1CFD9FF060EE76EFD0EDBCFE9FFFE0E0B
:102B3000DBCFEAFFE750E926000EEA22EF50E00B78
:102B4000E838E840146E020E145C2CE3070EE76EC2
:102B5000FD0EDBCFE9FFFE0EDBCFEAFFE750E926F3
:102B6000000EEA22EFCF17F017C018F0176A080E10
:102B7000E76EFD0EDBCFE9FFFE0EDBCFEAFFE7508D
:102B8000E926000EEA22EF501724156E000E1820D9
:102B9000166E0101F051151805E1F151161802E108
:102BA000010E01D0000EE552E7CFD9FF1200D9CFB8
:102BB000E6FFE1CFD9FF010EE66EFD0EDBCFE6FFAB
:102BC000FE0EDBCFE6FF000EE66EE66AE66A73EC09
:102BD0000DF0146E060EE15E1450E552E7CFD9FFFA
:102BE0001200D9CFE6FFE1CFD9FFFD0EDBCFE6FF24
:102BF000FE0EDBCFE6FFFC0EE66E030EE66E8EECFD
:102C00001DF0E552E552E552E552FC0EDBCFE6FF42
:102C1000FB0EE66E030EE66E0CEC1DF0E552E5527F
:102C2000E552E552E7CFD9FF1200D9CFE6FFE1CF59
:102C3000D9FF020EE126F29EFE0EF66EF7683F0EF9
:102C4000F86E0900F5CFDEFF0A00F5CFDDFFF86A68
:102C5000F28EDECF14F0DDCF15F014C0F3FF15C0F7
:102C6000F4FF020EE15C02E2E16AE552E16EE55238
:102C7000E7CFD9FF120004012F6B1200D9CFE6FF76
:102C8000E1CFD9FFE652070E0001835D2FE1DF6A35
:102C9000DF50146E156AD890155004E6FF0E145CD0
:102CA000000E155806E2DFCFE6FF9DD8E552DF2A79
:102CB000EFD791EC1BF0E66AFA0EE66E030EE66EB5
:102CC0000CEC1DF0E552E552E552FE0EE66EF90EF3
:102CD000E66E030EE66E0CEC1DF0E552E552E55291
:102CE000F20EE66E010EE66E590E08D00101020EDC
:102CF000FB6FF20EE66E010EE66E6F0EE66EE66A92
:102D0000FCEC0CF0E552E552E552E552E552E55295
:102D1000E7CFD9FF1200F90EE66E030EE66EF0EC77
:102D20001CF0E552E5520101FB6FF20EE66E010E5A
:102D3000E66E700EE66EE66AFCEC0CF0E552E552CB
:102D4000E552E55212001200FA0EE66E030EE66E30
:102D5000F0EC1CF0E552E5520101FB6FF20EE66E5D
:102D6000010EE66E740EE66EE66AFCEC0CF0E552BF
:102D7000E552E552E5521200D9CFE6FFE1CFD9FF87
:102D8000E652E66AFB0EDBCFE6FFFC0EDBCFE6FF8A
:102D9000FD0EDBCFE6FFFE0EDBCFE6FFB3D9146EF0
:102DA000050EE15E1450000902E1000E01D0010E93
:102DB000DF6EDF5013E0DFCFE6FF15D8E55291EC70
:102DC0001BF0F20EE66E010EE66E590EE66EE66A36
:102DD000FCEC0CF0E552E552E552E552E552E552C5
:102DE000E7CFD9FF1200D9CFE6FFE1CFD9FF120E0E
:102DF000E12604012F512CE0FE0EDB50110D0001E5
:102E00008B51F324F66E8C51F420F76E020EF626E9
:102E1000000EF7220800F550E66E04012F51110D47
:102E200000018B51F324F66E8C51F420F76E020EE4
:102E3000F626000EF722F6CF14F0F7CF15F014C0E7
:102E4000E6FF15C0E6FF07EC1CF0E552E552E5523F
:102E5000DE52010EDD6E040EDB6A050EDB6A060E25
:102E6000DB6A070EDB6ADF6A0A0EDF5C0DE2D9500F
:102E7000080F146EDF500F011424E96E000EDA20E3
:102E8000EA6EEF68DF2AF0D7110EE66ED950010F17
:102E9000E66E000EDA20E66EFE0EDB50110D00012C
:102EA0008B51F324146E8C51F420156E14C0E6FF80
:102EB000E66EBDEC1CF0166E050EE15E1650120EAD
:102EC000E15C02E2E16AE552E16EE552E7CFD9FF4B
:102ED00012001200D9CFE6FFE1CFD9FFE652E66A31
:102EE000FB0EDBCFE6FFFC0EDBCFE6FFFD0EDBCFFC
:102EF000E6FFFE0EDBCFE6FF05D9146E050EE15EA0
:102F00001450000902E1000E01D0010EDF6EDF5007
:102F10004BE0FB0EDBCF14F0FC0EDBCF15F015C041
:102F200014F0156A14C0FBF1FF0EE76EFB0EDBCF49
:102F300014F0FC0EDBCF15F0E7501416156A14C020
:102F4000FCF1FA0EDBCFFDF1DF50110D00018B51CA
:102F5000F324F66E8C51F420F76E070EF626000E61
:102F6000F722F6CF14F0F7CF15F0FA0EDB500F0171
:102F70001424F66E000E1520F76E0800F5CFFEF152
:102F8000F20EE66E010EE66EFD0EDBCFE6FFFE0EE4
:102F9000DBCFE6FFD30EE66EE66A20EC0DF0146E92
:102FA000060EE15E145010D00101070EFB6FF20E09
:102FB000E66E010EE66E6F0EE66EE66AFCEC0CF055
:102FC000E552E552E552E552E552E552E7CFD9FF29
:102FD0001200D9CFE6FFE1CFD9FF120EE126010E94
:102FE000E66EFB0EDBCFE6FFFC0EDBCFE6FFFD0E51
:102FF000DBCFE6FFFE0EDBCFE6FF84D8146E050EB6
:10300000E15E1450000902E1000E01D0010EDF6EF6
:10301000DF506EE0110EE66EE66ADF50110D000122
:103020008B51F324146E8C51F420156E14C0E6FFFE
:10303000E66ED950010FE66E000EDA20E66E07EC60
:1030400001F0166E060EE15E1650010EDB6AFD0EF3
:10305000DBCF08F0FE0EDBCF09F0040E08C0DBFF6B
:10306000050E09C0DBFFFB0EDBCF08F0FC0EDBCF4B
:1030700009F0060E08C0DBFF070E09C0DBFFD950C0
:10308000080F146EDACF15F0FA0EDB500F0114247E
:10309000E96E000EDA20EA6EF90EDBCFEFFF110EBB
:1030A000E66ED950010FE66E000EDA20E66EDF50B4
:1030B000110D00018B51F324146E8C51F420156E08
:1030C00014C0E6FFE66EBDEC1CF0166E050EE15E68
:1030D000165091EC1BF0F20EE66E010EE66E590EE4
:1030E000E66EE66AFCEC0CF0E552E552E552E5527C
:1030F000120EE15C02E2E16AE552E16EE552E7CFD1
:10310000D9FF1200D9CFE6FFE1CFD9FF030EE126A8
:1031100004012F6BFF0EE76EFB0EDBCF14F0E750C0
:103120001416156A1450E66EFF0EE76EFD0EDBCF27
:1031300016F0FE0EE7501616176A1650E66ECDD83A
:10314000E552E552DF6EDF50110D00018B51F32483
:10315000F66E8C51F420F76E0800F550040B5DE11B
:10316000DF50110D8B51F324F66E8C51F420F76E65
:10317000030EF626000EF7220900F5CF14F0080022
:10318000F5CF15F0FD0EDB50141820E1FE0EDB50DC
:1031900015181CE1DF50110D8B51F324F66E8C5184
:1031A000F420F76E050EF626000EF7220900F5CF83
:1031B00016F00800F5CF17F0FB0EDB50161806E1ED
:1031C000FC0EDB50171802E1000E01D0010EE76E75
:1031D000020EE7CFDBFFDB5020E0DF50110D8B51FB
:1031E000F324F66E8C51F420F76E020EF626000ED4
:1031F000F7220800F550A7E0DFCF2FF4DF50110DC4
:103200008B51F324F66E8C51F420F76E020EF626E5
:10321000000EF7220800F55095D7020EDB504CE067
:10322000FA0EDB5049E0010EDB6ADFCF2FF4DF2A14
:10323000DF50110D8B51F324F66E8C51F420F76E94
:103240000800F550040B09E1010EDBCFF3FFDB2A88
:10325000F350146EFF0EF35CEAE3DF50110D8B5157
:10326000F324F66E8C51F420F76E0800F55024E03C
:1032700004012F511FE0DF502F5D1CE0DFCFE6FF80
:103280002F51110D00018B51F324F66E8C51F42057
:10329000F76E020EF626000EF722F6CF14F0F7CFE7
:1032A00015F014C0E6FF15C0E6FF07EC1CF0E55270
:1032B000E552E552020EDB6A020EDB5001E0DF6AE6
:1032C000DF50146E030EE15C02E2E16AE552E16E4A
:1032D0001450E552E7CFD9FF1200D9CFE6FFE1CF76
:1032E000D9FFE652FD0EDB50080DF3507F0B146E34
:1032F000FE0EDB507F0B1424DF6EDF5003E1DF2A6C
:10330000DF5001D0DF50E552E552E7CFD9FF120080
:10331000D9CFE6FFE1CFD9FF020EE1260901010E68
:10332000006F060EE76EFD0EDBCFE9FFFE0EDBCF72
:10333000EAFFE750E926000EEA22EF50900B9008D2
:103340000FE1060EE76EFD0EDBCFE9FFFE0EDBCFD1
:10335000EAFFE750E926000EEA22EF50000B02E1F7
:10336000000E01D0010EE76E010EE7CFDBFFDB5050
:103370005EE0E66A0A0EE76EFD0EDBCFE9FFFE0EA9
:10338000DBCFEAFFE750E926000EEA22EF50080FF4
:10339000146E090EE76EFD0EDBCFE9FFFE0EDBCFEC
:1033A000EAFFE750E926000EEA22EF50145204E04B
:1033B000E846FE0B1406FCE1E66EE66A080EE76ED0
:1033C000FD0EDBCFE9FFFE0EDBCFEAFFE750E9267B
:1033D000000EEA22EF50080F156E070EE76EFD0E85
:1033E000DBCFE9FFFE0EDBCFEAFFE750E926000E58
:1033F000EA22EF50155204E0E846FE0B1506FCE108
:10340000E66EE66A7FDE166E050EE15E1650DF6E32
:10341000DF500DE0FD0EDBCFE6FFFE0EDBCFE6FF5B
:10342000DFCFE6FF38EC0BF0E552E552E552010E36
:10343000DB50146E020EE15C02E2E16AE552E16EDD
:103440001450E552E7CFD9FF1200D9CFE6FFE1CF04
:10345000D9FF040EE126FE0EDB50110D00018B5149
:10346000F324F66E8C51F420F76E0800F550010B32
:1034700071E0FE0EDB50110D8B51F324F66E8C5172
:10348000F420F76E030EF626000EF7220900F5CFA2
:10349000DEFF0A00F5CFDDFFFE0EDB50110D8B5174
:1034A000F324F66E8C51F420F76E050EF626000E0E
:1034B000F7220900020EF5CFDBFF0A00030EF5CF5D
:1034C000DBFFFE0EDB50110D8B51F324F66E8C5199
:1034D000F420F76E020EF626000EF7220800FE0E0C
:1034E000F5CFDBFFDB5038E0FE0EDB50110D8B51CA
:1034F000F324F66E8C51F420F76E030EF626000EC0
:10350000F7220900F5CF14F00800F5CF15F0DF50D1
:103510001418D7E1DE52DD501518D3E1FE0EDB5052
:10352000110D8B51F324F66E8C51F420F76E050EBD
:10353000F626000EF7220900F5CF16F00800F5CFA9
:1035400017F0020EDB50161803E1030EDB501718BC
:1035500003E0B7D7FE0EDB6AFE0EDB50146E040EDE
:10356000E15C02E2E16AE552E16E1450E552E7CF18
:10357000D9FF1200D9CFE6FFE1CFD9FF020EE12635
:10358000F6EC2FF0DF6A010E7DC0DBFFDB50000898
:1035900009E2DF2A010EDBCFF3FFF390F342F3CF12
:1035A000DBFFF4D7DF50D56EF184F294F28AD58E2A
:1035B00004012B6B2C6B020EE15C02E2E16AE55226
:1035C000E16EE552E7CFD9FF1200D9CFE6FFE1CF98
:1035D000D9FF060EE126020EDB6A030EDB6AF29AC1
:1035E000F250040B01E0010EE76E040EE7CFDBFFA3
:1035F000D650DF6E010ED7CFDBFFF250040B01E097
:10360000010EE76E050EE7CFDBFFDB50F36E040E15
:10361000DB50F35CE5E1040EDB50000806E2F294B7
:1036200004012B2B2B5101E12C2B020EDBCFE7FFEA
:1036300004012B51E726020EE7CFDBFF030EDBCFA1
:10364000E7FF2C51E726030EE7CFDBFFF28ADECF40
:1036500006F0DECF07F0DECF08F0DDCF09F0DD5257
:10366000DD52060EE15C02E2E16AE552E16EE552EE
:10367000E7CFD9FF1200F2A408D0F2AA06D0F29444
:1036800004012B2B2B5101E12C2B120000018D6B1F
:10369000CF69D0691200D9CFE6FFE1CFD9FF030E81
:1036A000E1268E0EDE6E000EDD6ECFC0F6FFD0C0BE
:1036B000F7FFF86ADECFE9FFDDCFEAFFF29E0001F7
:1036C000400ECE6FEE50F56E0D00CE07FBE10A0006
:1036D0007F8E7F9C7F987F84550E7E6EAA0E7E6EB5
:1036E0007F827F940900F28E030EE15C02E2E16AC0
:1036F000E552E16EE552E7CFD9FF1200CFC0F6FFE9
:10370000D0C0F7FFF86AF29E7F8E7F9C7F847F880F
:10371000550E7E6EAA0E7E6E7F827F94F28E4BEFE8
:103720001BF000018DA905D08DAB02D07EEF1BF000
:10373000B2DF1200D9CFE6FFE1CFD9FF020EE126BA
:1037400000018D51070B050803E00001050E8D6F88
:10375000000100018D51080B15E0FD0EDBCF14F0C8
:10376000FE0EDBCF15F0C00E1416FF0E151614500A
:103770000001CF1902E11550D01904E0D2DF000199
:10378000050E8D6F00018DB725D08E0EDE6E000EFA
:10379000DD6EDECFE9FFDDCFEAFFFD0EDBCFCFF040
:1037A000FE0EDBCFD0F0C00E0001CF17FF0E0001E0
:1037B000D017CFC0F6FFD0C0F7FFF86A800E7F6E3B
:1037C0000001400ECE6F0900F5CFEEFFCE07FBE102
:1037D00000018D873F0EE76EFD0EDBCFE9FFFE0E89
:1037E000DBCFEAFFE750E916EA6A8E0EE926000E03
:1037F000EA22EF5000D0146E020EE15C02E2E16AB0
:10380000E552E16E1450E552E7CFD9FF1200D9CF4F
:10381000E6FFE1CFD9FF020EE12600018D51070B33
:10382000050803E08D818D938D858D51080B10E087
:10383000FD0EDBCF14F0FE0EDBCF15F0C00E14161C
:10384000FF0E15161450CF1902E11550D01909E0DA
:10385000FD0EDBCFE6FFFE0EDBCFE6FF6BDFE552B2
:10386000E5523F0EE76EFD0EDBCF14F0FE0EE75083
:103870001416156A8E0E1426000E152214C0DEFFD3
:1038800015C0DDFFDECFE9FFDDCFEAFFEF50F36EBD
:10389000FC0EDB50F35C02E000018D89FC0EDBCFF7
:1038A000E6FFDECFE9FFDDCFEAFFEF1CE552E714CC
:1038B00002E000018D8BDECFE9FFDDCFEAFFFC0ED9
:1038C000DBCFEFFF020EE15C02E2E16AE552E16E5E
:1038D000E552E7CFD9FF1200D9CFE6FFE1CFD9FFFC
:1038E000FC0EDBCFE6FFFD0EDBCFE6FFFE0EDBCFEF
:1038F000E6FF8DDFE552E552E55213DFE552E7CFF3
:10390000D9FF1200D9CFE6FFE1CFD9FFFF0EE76E56
:10391000FB0EDBCF14F0E7501416156A1450E66E58
:10392000FD0EDBCFE6FFFE0EDBCFE6FF70DFE552DC
:10393000E552E552FB0EDBCF14F0FC0EDBCF15F0A9
:1039400015C014F0156A1450E66E010EE76EFD0EF8
:10395000DBCF16F0FE0EDBCF17F0E7501626000E79
:10396000172216C0E6FF17C0E6FF51DFE552E55209
:10397000E552E552E7CFD9FF1200D9CFE6FFE1CFFC
:10398000D9FFE652DF6AFA0EDB50DF5C24E2DF503B
:10399000E76EFB0EDBCFE9FFFC0EDBCFEAFFE75063
:1039A000E926000EEA22EF50E66EDF50E76EFD0ECC
:1039B000DBCF14F0FE0EDBCF15F0E7501426000E1F
:1039C000152214C0E6FF15C0E6FF21DFE552E552DF
:1039D000E552DF2AD8D7E552E552E7CFD9FF1200EA
:1039E000D9CFE6FFE1CFD9FFFE0EDBCF15F015C032
:1039F00014F01550756EFF0EE76EFD0EDBCF14F060
:103A0000E75014161450746E7F9E7F9C7F80735015
:103A1000E552E7CFD9FF1200D9CFE6FFE1CFD9FFBA
:103A2000FD0EDBCF14F0FE0EDBCF15F015C014F049
:103A3000156A1450756EFF0EE76EFD0EDBCF14F0A5
:103A4000FE0EDBCF15F0E7501416156A1450746E95
:103A5000FC0EDB50736E7F9E7F9C7F84F29E550E22
:103A60007E6EAA0E7E6E7F8200000000F28EB7ACE2
:103A7000FED7B79C7F94E552E7CFD9FF1200D9CF8C
:103A8000E6FFE1CFD9FF040EE126FD0EDBCFDEFF1E
:103A9000DBCFDDFFDFCF14F0DF2A010EDBCF15F027
:103AA00001E3DB2A14C0E6FF15C0E6FF99DFE5520B
:103AB000E552E66ED950020FE96EDACFEAFFE55221
:103AC000E750EE6EED6ADECFE6FFDDCFE6FF88DF82
:103AD000E552E552176E166A020EDB501610146E90
:103AE000030EDB501710156E020E14C0DBFF030E21
:103AF00015C0DBFF020EDBCF14F0030EDBCF15F099
:103B000014C0F3FF15C0F4FF040EE15C02E2E16AA9
:103B1000E552E16EE552E7CFD9FF1200D9CFE6FFBB
:103B2000E1CFD9FF020EE126FD0EDBCFDEFFDBCFBA
:103B3000DDFFFB0EDBCFE6FFDFCF14F0DF2A010E47
:103B4000DBCF15F001E3DB2A14C0E6FF15C0E6FF6A
:103B500063DFE552E552E552FB0EFC0EDBCF15F0BC
:103B600015C014F0156A1450E66EDECFE6FFDDCF07
:103B7000E6FF52DFE552E552E552020EE15C02E259
:103B8000E16AE552E16EE552E7CFD9FF120012EE8D
:103B900000F0800E006EA50EE66E002EFDD711EE31
:103BA00000F021EE00F0F86A019C01EC06F038EC20
:063BB00004F0FBD7120037
:0A3BB60000000000080008080A00E3
:103BC000000000000000FFFF0000000000000000F7
:103BD00000000000000000000000000000000000E5
:103BE00000000000000000000000000000000000D5
:103BF00000000000000000000000000000000000C5
:103C000000000000000000000000000000000000B4
:05524000000000000069
:0A524600D9CFE6FFE1CFD9FF000148
:10525000DB6BDC6BDD6BDA6BD66BD76BD86BD96B2A
:10526000DE6BDF6BE16BE06BD16BD26BD36BD46B1E
:10527000E26BE36B800E6F6E6EAEFED7B00E726E99
:105280000E017D6B0F0E436F3F0E4315010F040D92
:10529000F3CF7DF09E0E446F030E456F200E706EAF
:1052A000F86B080EF96FFA6BFB6BFC6BFD6FFE6B16
:1052B000FF6B800EE16F716B726B736B746B756B50
:1052C000766B776B786B796B7A6B7B6B7C6B606AD8
:1052D0000F01306B0E01806B906BA06BB06BC06BDD
:1052E000D06B7E6B7F857F977F996F6AFD0EDB5059
:1052F00016E1FE0EE66E030EE66EF0EC1CF0E552D3
:10530000E5520001FA6FE850146E156A0001E81CBE
:1053100014E1151C12E10001700EFA6F0ED0FD0EA3
:10532000DBCFFAF0FAC0E6FFFE0EE66E030EE66E85
:105330000CEC1DF0E552E552E5520F01206B209177
:105340002093256B780E0001FA15E840E840E8400C
:105350001F0BB0090F01216F070E0001FA15200D78
:10536000F3CF22FF0F01106B10911083400E156FC9
:10537000780E0001FA15E840E840E8401F0BB0093C
:105380000F01116F22CF12FF006B00810083056BAC
:10539000780E0001FA15E840E840E8401F0BB0091C
:1053A0000F01016F22CF02FF0001E96BE9C0E8F0B5
:1053B000E5EC1AF006C0E4F007C0E5F008C0E6F03E
:1053C00009C0E7F07680768AE552E7CFD9FF120070
:1053D000D9CFE6FFE1CFD9FFF00E0F012117FE0E66
:1053E000DB50780BE840E840E8401F0B2113FE0E2D
:1053F000DB50070B200DF3CF22FFF00E1117FE0E2E
:10540000DB50780BE840E840E8401F0B111322CF37
:1054100012FFF00E0117FE0EDB50780BE840E8405B
:10542000E8401F0B011322CF02FFFE0EDBCFE6FF89
:10543000E66E030EE66E0CEC1DF0E552E552E55209
:10544000E552E7CFD9FF1200D9CFE6FFE1CFD9FF70
:10545000E652050EE76EFD0EDBCFE9FFFE0EDBCF59
:10546000EAFFE750E926000EEA22FC0EDBCFEFFF51
:10547000FD0EDBCFE6FFFE0EDBCFE6FF09D8E552DF
:10548000E552DF6EDF50E552E552E7CFD9FF12005B
:10549000D9CFE6FFE1CFD9FF040EE126FD0EDBCF29
:1054A000E9FFFE0EDBCFEAFFEF6A0F0E146EFD0E72
:1054B000DBCFE9FFFE0EDBCFEAFF050EE926000E8B
:1054C000EA221450EF16780E0001FA15E840E84081
:1054D000E8401F0BB009E66EFD0EDBCFE9FFFE0EC4
:1054E000DBCFEAFF010EE926000EEA22E552E75083
:1054F000EF6E070EFA15200DF350E66EFD0EDBCFB2
:10550000E9FFFE0EDBCFEAFF020EE926000EEA22DB
:10551000E552E750EF6EFD0EDBCFE9FFFE0EDBCF6D
:10552000EAFF050EE926000EEA22EF5008080CE219
:10553000FD0EDBCFE9FFFE0EDBCFEAFF050EE9260D
:10554000000EEA22080EEF6E7698D151D25D02E08D
:10555000DA5143E00F012051080B3FE1200EDE6ECF
:105560000F0EDD6EFD0EDBCFE9FFFE0EDBCFEAFF97
:10557000050EE926000EEA22EF50060FE66EE66AF7
:10558000FD0EDBCFE9FFFE0EDBCFEAFFE9CF14F023
:10559000EACF15F0E9CFE6FFEACFE6FFDECFE6FF80
:1055A000DDCFE6FF07EC01F0166E060EE15E165049
:1055B00000010A0ED56FE5EC1AF006C0D6F007C060
:1055C000D7F008C0D8F009C0D9F00001DA6B0F019C
:1055D0002087020EDB6A768866D0FF0E0001D15D5F
:1055E00002E0000E01D0010EE76E020EE7CFDBFFF6
:1055F000DB503FE1FD0EDBCFE9FFFE0EDBCFEAFF24
:10560000050EE926000EEA22EF50060FE66EE66A66
:10561000FD0EDBCFE9FFFE0EDBCFEAFFE9CF14F092
:10562000EACF15F0E9CFE6FFEACFE6FFD151100D42
:10563000F3CFE9FFF4CFEAFF000EE926020EEA22DB
:10564000E9CF16F0EACF17F0E9CFE6FFEACFE6FFA1
:1056500007EC01F0186E060EE15E18500001D12B28
:10566000100ED15D01E1D16BD151D25D03E1D16961
:1056700001D0E02BE22BD251D15D03E2100ED125F7
:1056800001D0D151E76E030EE7CFDBFFDB50D880AE
:10569000D255146EDE51D880145405E2030EDB504F
:1056A000D880D255DE6F7688020EDB5002E0000E05
:1056B00001D0010E146E040EE15C02E2E16AE552D3
:1056C000E16E1450E552E7CFD9FF1200D9CFE6FFC3
:1056D000E1CFD9FF7690FD0EDBCFE6FFFE0EDBCFEC
:1056E000E6FF48D9E552E5527680E552E7CFD9FF8B
:1056F0001200D9CFE6FFE1CFD9FF020EE12600016B
:10570000DA6B77980F0120B75DD00001D66BD76BAD
:10571000D86BD96BD151D25D50E0200EDE6E0F0EEA
:10572000DD6ED251100DF3CFE9FFF4CFEAFF000E8A
:10573000E926020EEA22050EE926000EEA22EF50C3
:10574000060FE66EE66AD251100DF3CFE9FFF4CFF3
:10575000EAFF000EE926020EEA22E9CF14F0EACFB2
:1057600015F0E9CFE6FFEACFE6FFDECFE6FFDDCFBB
:10577000E6FF07EC01F0166E060EE15E1650000122
:10578000E2070A0ED56FE5EC1AF006C0D6F007C0A6
:10579000D7F008C0D8F009C0D9F00001DA6B0F01CA
:1057A0002087FF0E0001D15D02E1D2C0D1F0D22BE3
:1057B000100ED25D08E1D26B06D00F01206B7798F6
:1057C000769802D077987688020EE15C02E2E16A70
:1057D000E552E16EE552E7CFD9FF12000001D65144
:1057E000D711D811D9111FE0E5EC1AF00001D651FC
:1057F000065C146ED7510758156ED8510858166EAE
:10580000D9510958176ED880240E1454F40E15542B
:10581000000E1654000E175406E2010EDA6FDD2B4F
:105820000F01209766DF1200D9CFE6FFE1CFD9FF45
:10583000030EE126769034D90001D351D45D45E0C2
:10584000D451100DF3CFE9FFF4CFEAFF000EE926A3
:10585000030EEA22050EE926000EEA22EF50060F9B
:10586000E66EE66AD451100DF3CFE9FFF4CFEAFFFC
:10587000000EE926030EEA22E9CF14F0EACF15F074
:10588000E9CFE6FFEACFE6FFFD0EDBCFE9FFFE0E34
:10589000DBCFEAFFE9CF16F0EACF17F0E9CFE6FF5A
:1058A000EACFE6FF07EC01F0186E060EE15E185035
:1058B0000001E307D42B100ED45D01E3D46B010E7D
:1058C000F36E020EF3CFDBFF46D0020EDB6A71AE41
:1058D00042D0070E6F14E66E55DAE552F3CFDEFFC5
:1058E000F4CFDDFF7792DECFE6FFDDCFE6FF73D9A1
:1058F000E552E552E76E020EE7CFDBFFDB5024E016
:10590000DECFE9FFDDCFEAFF050EE926000EEA2231
:10591000EF50060FE66EE66ADECFE6FFDDCFE6FF6C
:10592000FD0EDBCFE9FFFE0EDBCFEAFFE9CF14F07F
:10593000EACF15F0E9CFE6FFEACFE6FF07EC01F08A
:10594000166E060EE15E165077BE779EDECFE9FF3B
:10595000DDCFEAFFEF9E7680020EDB50146E030E61
:10596000E15C02E2E16AE552E16E1450E552E7CFF4
:10597000D9FF1200D9CFE6FFE1CFD9FFFD0EDBCF73
:10598000E9FFFE0EDBCFEAFF050EE926000EEA2254
:10599000EF50060FE66EE66AFD0EDBCFE6FFFE0E69
:1059A000DBCFE6FF0001D351100DF3CFE9FFF4CFB9
:1059B000EAFF000EE926030EEA22E9CF14F0EACF4F
:1059C00015F0E9CFE6FFEACFE6FF07EC01F0166E2F
:1059D000060EE15E16500001E32BD32B100ED35DB3
:1059E00001E3D36BD451D35D07E1E12BD35103E144
:1059F0000F0ED36F01D0D307E552E7CFD9FF1200C6
:105A0000D9CFE6FFE1CFD9FF030EE12671AE3DD03D
:105A1000070E6F14E66EB6D9E552F3CFDEFFF4CF72
:105A2000DDFF779271BC719CDECFE6FFDDCFE6FF34
:105A3000D2D8E552E552000907E0DECFE6FFDDCF20
:105A4000E6FF98DFE552E55277BE779EDECFE9FFAD
:105A5000DDCFEAFFEF9E0001D451D35D03E2100ECB
:105A6000D32501D0D351E76E020EE7CFDBFFDB5029
:105A7000D880D455146EDF51D8801454C7E2020E7A
:105A8000DB50D880D455DF6FC1D77790030EE15C2F
:105A900002E2E16AE552E16EE552E7CFD9FF12007A
:105AA000D9CFE6FFE1CFD9FF030EE1260001E8518F
:105AB00038E0E5EC1AF00001E451065C146EE551A3
:105AC0000758156EE6510858166EE7510958176EBB
:105AD000D880D40E1454300E1554000E1654000EF7
:105AE00017541FE2DF6A100EDF5C09E2DF50EA6A3A
:105AF000EA0FE96E000EEA22EF6ADF2AF4D700010E
:105B0000010EEA6FE96FE86BE5EC1AF006C0E4F00D
:105B100007C0E5F008C0E6F009C0E7F00F01108704
:105B200050D0E9514EE0E5EC1AF00001E451065C7A
:105B3000146EE5510758156EE6510858166EE75178
:105B40000958176ED8806A0E1454180E1554000E9A
:105B50001654000E175435E2DF6ADF50EA6AEA0F86
:105B6000E96E000EEA22EF50FF0805E1100EDF5C3F
:105B700002E2DF2AF2D7DF50EA6AEA0FE96E000E8E
:105B8000EA22020EEFCFDBFFEF50FF0818E0080E0D
:105B9000DF02010EF3CFDBFF020EDBA009D0DBCF6B
:105BA000F3FFF390F342F3CFDBFF010EDB2AF4D7D0
:105BB000010EDBCFFAF0FAC0E6FF0ADCE552000185
:105BC000E96B030EE15C02E2E16AE552E16EE55247
:105BD000E7CFD9FF1200D9CFE6FFE1CFD9FF020E00
:105BE000E126010EDB6AFD0EDBCFE9FFFE0EDBCF07
:105BF000EAFF020EE926000EEA22EF50E00BE83839
:105C0000E840146EFD0EDBCFE9FFFE0EDBCFEAFFAE
:105C1000010EE926000EEA22EF50080DF35014247D
:105C2000DF6E0001E95118E0070EDF14156E010E5A
:105C3000155204E0E846FE0B1506FCE1146EDF5039
:105C4000E840E840E8401F0BEA6AEA0FE96E000E00
:105C5000EA221450EF1211D0E8510FE1FA51DF5C43
:105C60000CE1010EE86FE5EC1AF006C0E4F007C0A5
:105C7000E5F008C0E6F009C0E7F0FD0EDBCFE9FF74
:105C8000FE0EDBCFEAFF050EE926000EEA22EF50FA
:105C9000400B0DE00F010087E5EC1AF006C0E4F0C0
:105CA00007C0E5F008C0E6F009C0E7F029D0FD0E16
:105CB000DBCFE9FFFE0EDBCFEAFF050EE926000E83
:105CC000EA22EF500F0BE76E010EE7CFDBFFFD0E70
:105CD000DBCFE9FFFE0EDBCFEAFF050EE926000E63
:105CE000EA22EF5008080CE2FD0EDBCFE9FFFE0EC2
:105CF000DBCFEAFF050EE926000EEA22080EEF6E62
:105D0000010EDB50146E020EE15C02E2E16AE55224
:105D1000E16E1450E552E7CFD9FF12000F0120AB1E
:105D200015D00001D5510BE1010EDA6FD66BD76BA0
:105D3000D86BD96B0F0120970001DB2B07D0D5075B
:105D400005E10F0120973F0E211720870F0120A9A1
:105D50000BD00001010EDA6FD66BD76BD86BD96B05
:105D60000F0120970001DC2B0001DA5101E0C1DCBA
:105D7000779A120077B044DE77BAD0DF77B8B9DC13
:105D8000EEEF2BF0D9CFE6FFE1CFD9FF020EE126EF
:105D9000FE0EDB50060A24E0030A1EE0010A18E0AA
:105DA000070A12E0010A0CE0030A06E0010A1CE1FE
:105DB000600EDE6E0F0E1BD0300EDE6E0F0E17D093
:105DC000800EDE6E0E0E13D0900EDE6E0E0E0FD015
:105DD000A00EDE6E0E0E0BD0B00EDE6E0E0E07D0D5
:105DE000C00EDE6E0E0E03D0D00EDE6E0E0EDD6E19
:105DF000DECF14F0DDCF15F014C0F3FF15C0F4FFB3
:105E0000020EE15C02E2E16AE552E16EE552E7CFA3
:045E1000D9FF1200A4
:0C5E14000001FF6B12008A9C8A8E0001C6
:105E2000FF6B12008A8C8A9E0001FF6B1200D9CF93
:105E3000E6FFE1CFD9FFFE0EDB5002E0F3DF01D039
:105E4000ECDFE552E7CFD9FF12008A7CE5EC1AF0CF
:105E500006C0FBF007C0FCF008C0FDF009C0FEF072
:105E60001200D9CFE6FFE1CFD9FFFE0EDB5002E0F2
:105E7000020E01D0010E0001FF6FE7DFE552E7CF10
:105E8000D9FF12000001FF51020A1EE0030A01E0DF
:105E90001200E5EC1AF00001FB51065C146EFC5197
:105EA0000758156EFD510858166EFE510958176EA9
:105EB000D880120E14547A0E1554000E1654000E8B
:105EC00017541CE225EF2FF0E5EC1AF00001FB510E
:105ED000065C146EFC510758156EFD510858166E7D
:105EE000FE510958176ED880B00E1454280E155460
:0E5EF000000E1654000E175401E2A7DF120038
:025EFE0009C0D9
:105F000013F008C012F007C011F007500C02F4CFD4
:105F100005F0F3CF04F008500D02F4CF07F0F3CFF3
:105F200006F00C02F3500526F4500622E86A072218
:105F300011500D02F3500526F4500622E86A07229C
:105F400009500C02F3500626F450072209500D02A6
:105F5000086AE86A0822F3500726F4500822115014
:105F60000E02F3500626F4500722096AE86A082256
:105F7000092212500E02F3500726F4500822E86A54
:105F8000092213500E02F3500826F4500922000C87
:105F900008C012F008500D02F4CF07F0F3CF06F05E
:105FA00009500E02F4CF09F0F3CF08F00D02F350C0
:105FB0000726F4500822E86A092212500E02F35014
:0C5FC0000726F4500822E86A0922000CB1
:045FCC00410EF36E21
:105FD00000EE00F00E0E01D81200EA6002D0EE6A68
:0C5FE000FCD7F350E9601200EE6AFCD719
:045FEC003F0E0E0155
:0C5FF0004315010F040DF3CF7DF01200EB
:025FFC000100A2
:10700000D9CFE6FFE1CFD9FF020EE1269496949AFC
:10701000949C8B8C9E96C66AC78CC79E040EDF6EAE
:10702000DE520C0EDD6EE66A070EE66EE4DBE5521C
:10703000E552200EE66E040EE66EDDDBE552E5520B
:10704000E668030EE66ED7DBE552E552FE0EDB5036
:107050000F0BE66E020EE66ECEDBE552E55212D95C
:1070600000017C6B0D0EE66E040EE66EC4DBE5528D
:10707000E552020EE15C02E2E16AE552E16EE552A0
:10708000E7CFD9FF1200D9CFE6FFE1CFD9FFFE0E3F
:10709000DBCFE6FF070EE66EAEDBE552E552E552CA
:1070A000E7CFD9FF1200D9CFE6FFE1CFD9FF030E1A
:1070B000E126DF6AFE0EDB50DF5C43E2010EDB6A95
:1070C000080EF36E010EDBCFF4FFF350F45C37E2F1
:1070D000800EF36E020EF3CFDBFF020EDB5024E0D6
:1070E000020EDBCFE6FF010EDB50600FE66E83DBA6
:1070F000E552E552F40EE66E010EE66E21DBE55236
:10710000E552020EDB50800802E1010E03D0020EB0
:10711000DB50E824E76E020EE7CFDBFFDB50800890
:10712000DCE1020EDB6AD9D7E66A010EDB50600FA4
:10713000E66E61DBE552E552010EDB2AC1D7DF2A9C
:10714000B9D7030EE15C02E2E16AE552E16EE55275
:10715000E7CFD9FF1200D9CFE6FFE1CFD9FF020E6A
:10716000E126FD0EDBCF14F0FE0EDBCF15F0166A24
:10717000176AE86814180DE1E86815180AE1E8686C
:10718000161807E1E868171804E1DF6A010EDB6AE8
:1071900010D0FE0EDB50DF6EFD0EDB50E76E010EF1
:1071A000E7CFDBFFDB5005E1DF2ADF50070801E214
:1071B000DF6A010EDB5002E1010E03D0010EDB504D
:1071C000E824E76E010EE7CFDBFFDBCFE6FF600EC2
:1071D000DF24E66E10DBE552E552FE0EDFCFDBFF6B
:1071E000010EDB50E76EFD0EE7CFDBFFDBCF14F0C7
:1071F000FE0EDBCF15F014C0F3FF15C0F4FF020E36
:10720000E15C02E2E16AE552E16EE552E7CFD9FFC7
:107210001200C00EE66E600EE66EEDDAE552E55243
:10722000210EE66E610EE66EE6DAE552E552120ECA
:10723000E66E620EE66EDFDAE552E5520C0EE66EA1
:10724000630EE66ED8DAE552E5520C0EE66E640E79
:10725000E66ED1DAE552E552120EE66E650EE66E86
:10726000CADAE552E552210EE66E660EE66EC3DA24
:10727000E552E552C00EE66E670EE66EBCDAE552E8
:10728000E5521200D9CFE6FFE1CFD9FF020EE12689
:10729000E66A010EE66EAFDAE552E552DF6A080EE5
:1072A000DF5C0EE2600EDF24E76E010EE7CFDBFF4E
:1072B000E66ADBCFE6FF9FDAE552E552DF2AEFD739
:1072C000100EE66EE66AE66A6C0EE66E000EE66E7C
:1072D00032EC01F0146E050EE15E1450020EE15C1A
:1072E00002E2E16AE552E16EE552E7CFD9FF120012
:1072F000D9CFE6FFE1CFD9FF030EE126FE0EDB0674
:10730000DB50F80BE842E842E842DF6EFE0EDB504D
:10731000070BE76E010EE7CFDBFF020EDBCFE6FFC8
:10732000600EDF24E66E67DAE552E552030EE15C9B
:1073300002E2E16AE552E16EE552E7CFD9FF1200C1
:10734000D9CFE6FFE1CFD9FF040EE126FE0EDB0622
:10735000DB50F80BE842E842E842DF6EFE0EDB50FD
:10736000070BE76E010EE7CFDBFF020EDBCFE6FF78
:10737000200EDF24E66E3FDAE552E552030EDBCF46
:10738000E6FF400EDF24E66E36DAE552E552040EE3
:10739000E15C02E2E16AE552E16EE552E7CFD9FF36
:1073A0001200D9CFE6FFE1CFD9FF020EE126FE0E93
:1073B000DBCF15F015C014F0156A14C0DEFF15C040
:1073C000DDFFFC0EDBCFE6FFDFCFE6FF4ED8E55258
:1073D000E552FF0EE76EFD0EDBCF14F0FE0EDBCFA5
:1073E00015F0E7501416156A14C0DEFF15C0DDFF56
:1073F000FC0EDB50020FE66EDFCFE6FF36D8E5521B
:10740000E552020EE15C02E2E16AE552E16EE5520C
:10741000E7CFD9FF1200D9CFE6FFE1CFD9FFFE0EAB
:10742000DB98DB9ADB9CDB9E010EF36EFD0EDB50DE
:1074300004E0D890F336E806FCE1F35000017C1339
:107440007CC0E6FF010EE66ED6D9E552E552FE0E8F
:10745000DBCFE6FFFD0EDB50600FE66ECCD9E552C8
:10746000E552E552E7CFD9FF1200D9CFE6FFE1CFD1
:10747000D9FFFD0EDBCFE6FFFE0EDB380F0BE66E0D
:10748000CADFE552E552FD0EDB28E66EFE0EDBCFCD
:10749000E6FFC1DFE552E552E552E7CFD9FF120022
:1074A000D9CFE6FFE1CFD9FFE652010EF36EFD0E14
:1074B000DB5004E0D890F336E806FCE1F31C000151
:1074C0007C177CC0E6FF010EE66E95D9E552E552C9
:1074D000FE0EDB50200802E1000E0AD0FE0EDB504B
:1074E000D00FF76A2C0FF66E030EF7220800F55046
:1074F000DF6EDFCFE6FFFD0EDB50600FE66E7BD95F
:10750000E552E552E552E552E7CFD9FF1200D9CF57
:10751000E6FFE1CFD9FFE652DF6ADFCF14F014C0F7
:10752000E6FFFD0EDBCFE6FFFE0EDBCFE6FF4CEC09
:1075300001F0E552E552E552E7CF14F0F3CF15F034
:10754000F4CF16F0F350145C000EF45417E2FC0E66
:10755000DB50DF24E66EDF50E76EFD0EDBCFE9FF88
:10756000FE0EDBCFEAFFE750E926000EEA22EF50DD
:10757000E66E96DFE552E552DF2ACFD7E552E552B7
:10758000E7CFD9FF1200D9CFE6FFE1CFD9FF020E36
:10759000E126FE0EDB50DF6EFD0EDBCF14F0FE0E9B
:1075A000DB50D880145402E2FD0EDB06FD0EDB50EA
:1075B00002E1800E0AD0FD0EDB04146E010E14529F
:1075C00004E0E846FE0B1406FCE1E76E010EE7CF8F
:1075D000DBFFDECF14F0DDCF15F014C0F3FF15C0D4
:1075E000F4FF020EE15C02E2E16AE552E16EE5526F
:1075F000E7CFD9FF1200D9CFE6FFE552E7CFD9FF99
:107600001200D9CFE6FFE552E7CFD9FF1200D9CF5C
:10761000E6FFE1CFD9FF090EE126480EDF6EDE520C
:10762000450EDD6E4C0EF36E020EF3CFDBFF4C0EFB
:10763000F36E030EF3CFDBFF4F0EF36E040EF3CFAA
:10764000DBFF200EF36E050EF3CFDBFF200EF36E93
:10765000060EF3CFDBFF200EF36E070EF3CFDBFF3A
:10766000080EDB6AE66AD9CFE6FFDACFE6FF4FDF26
:10767000E552E552E552090EE15C02E2E16AE552AB
:10768000E16EE552E7CFD9FF1200D9CFE6FFE1CF97
:10769000D9FF090EE126560EDF6EDE52200EDD6E9A
:1076A000F36E020EF3CFDBFF200EF36E030EF3CF6B
:1076B000DBFF200EF36E040EF3CFDBFF200EF36E24
:1076C000050EF3CFDBFF200EF36E060EF3CFDBFFCC
:1076D000200EF36E070EF3CFDBFF080EDB6A310ED0
:1076E000F36E020EF3CFDBFF620EF36E030EF3CFE9
:1076F000DBFF570EF36E040EF3CFDBFF490EF36E84
:10770000050EF3CFDBFF500EF36E060EF3CFDBFF5B
:10771000320EF36E070EF3CFDBFFE66AD9CFE6FF3A
:10772000DACFE6FFF4DEE552E552E552090EE15C00
:1077300002E2E16AE552E16EE552E7CFD9FF1200BD
:10774000D9CFE6FFE1CFD9FF060EE12600017D513A
:10775000E66ED950040FE96EDACFEAFFE552E75042
:10776000EE6EED6AD950040FE96EDACFEAFF320E01
:10777000EC02F3CFEDFFEF02F3CFEEFFF450ED2676
:10778000DE6ADD6ADECF14F0DDCF15F0FD0EDBCF53
:1077900016F0FE0EDBCF17F01650145C175015587C
:1077A00020E2020EDB6A030EDB6A020EDBCF14F06E
:1077B000030EDBCF15F0040EDBCF16F0050EDBCF8A
:1077C00017F01650145C1750155806E2020EDB2A0B
:1077D000030EEBE3DB2AE9D7DF2A010ED3E3DB2A32
:1077E000D1D7060EE15C02E2E16AE552E16EE552B4
:1077F000E7CFD9FF1200D9CFE6FFE1CFD9FF020EC4
:10780000E126F250400B01E0010EDF6EF29CC68AC9
:107810008B9CFE0EDB50C96E9EA6FED79E96FD0E7B
:10782000DB50C96E9EA6FED79E968B8C8B9CC96A38
:107830009EA6FED79E96C96A9EA6FED79E968B8C64
:10784000C69ADF50E8B0F28CE8A0F29C020EE15C30
:1078500002E2E16AE552E16EE552E7CFD9FF12009C
:020000040030CA
:0100000015EA
:0100010013EB
:010002007984
:0100030020DC
:010005008971
:010006008079
:010008000FE8
:01000900C036
:01000A000FE6
:01000B00E014
:01000C000FE4
:01000D0040B2
:0200000400F00A
:1000000000000000000000000000000000000000F0
:1000100000000000000000000000000000000000E0
:1000200000000000000000000000000000000000D0
:1000300000000000000000000000000000000000C0
:1003F000000000000000000000FE0000820070000D
:00000001FF
