:020000040000FA
:040000001FD00ED02F
:0400080004EF04F00D
:040018000CEF04F0F5
:100020007F6E05A01200550E7E6EAA0E7E6E7F8238
:1000300000007FB2FED712000A26D8B00B2A1200A9
:100040007F6A746875687F800000733C00EF04F07D
:10005000066A1C0E056E0E01000EE06F080EE16FC1
:10006000E81EE56F000EE26F070EE36FFF0EF86FFC
:10007000EB0EF96FFF0EFA6FF80EFB6F030E436F76
:100080009E0E446F030E456F0F015D6B5C6B200E7F
:10009000706E6F6A939E939C818E818C609E04002B
:1000A00060AEFDD70FEE66F065500F0B096EF46E73
:1000B000F5E064B02BD010EE01F0EECFE6FFF42EA9
:1000C000FCD70650EBE0010AD8A407D07468756825
:1000D000736A040EA5DF819CFF000650020A05E149
:1000E0000B6A0A6A0C900C6AD9D70650030A0AE117
:1000F00007500A2606E108500B2203E10CB001D09C
:1001000074D077D00650040AC9E177D00350F86E56
:10011000F00BF36E0250F76E756E0150F66E746E52
:1001200005A605D009500126E86A02220322300EF6
:10013000F36001D008D0F350300A01E12AD0F35027
:10014000F00AACE132D005A405D0F6503F0B02E135
:10015000940E66DF05B2A2D7F650070B9FE1080E9A
:10016000F46EEE50F56E68DF0D00F42EFAD7080E2F
:10017000F46E0A00ED50F42EFCD7840E51DF080E09
:10018000F46E0900F550EE18D8A40C80F42EF9D7BF
:1001900085D7EF50F56E50DF0C00C40E41DF09002B
:1001A000F550EE18F42EF5D779D7EF50736E44DF83
:1001B000040E36DF7F6A7F8000007350EE18D8A4EB
:1001C0000C80744A752AF42EF0D768D720B7FED772
:1001D000800E216F080E226F000E236F040E246F15
:1001E000248164A02491208759D7010E266F256FA2
:1001F000EDD7266B010E256FE9D7020E266F010E93
:04020000256FE4D7AB
:06080000000035EF07F0D7
:0408080020EF04F0E9
:0C081000534F4C202020202033EF04F038
:10082000A5422280021001090D010008000000000D
:100830000000000000000000140010080000E701A4
:1008400000000F0177A009D07790779820877690E5
:100850000E017F8576880001110077980E017F9543
:10086000000176801100006ED8CF01F0E0CF02F0D9
:10087000E00ECE6E9E6A575001E18072582A58B041
:1008800081D0565001E05606575001E057065350AC
:100890000BE0532E77D08080555006E08216556AC3
:1008A000615102E0536E6ED054526CE056526AE1D0
:1008B00054B00DD054B216D054B41FD054B628D072
:1008C00054B831D054BA3AD054BC43D04DD05490DF
:1008D000651D821664518212595054E0536E641D96
:1008E000556E4CD05492641D8216655182125A5036
:1008F00049E0536E651D556E41D05494671D8216B4
:10090000665182125B503EE0536E661D556E36D0C6
:100910005496661D8216675182125C5033E0536E06
:10092000671D556E2BD05498691D8216685182122E
:100930005D5028E0536E681D556E20D0549A681D96
:100940008216695182125E501DE0536E691D556E0C
:1009500015D0549C6B1D82166A5182125F5012E0B2
:10096000536E6A1D556E0AD0549E6A1D82166B51D5
:100970008212605107E0536E6B1D556E809053508C
:100980006325576E02C0E0FF005001C0D8FF100081
:1009900010B019D071BE01D016D06F500F0B0A6E77
:1009A0007250F00B0A10726E62B60CD065AC03D0B8
:1009B00083EC0DF007D0655201E104D01080A8EC63
:1009C00006F001D0609E38B205D0A1A202D0817E8F
:1009D000A1920DD0F2A40BD010A401D0817CF2948E
:1009E00010A605D0372E03D00A0E376E520E80B4F3
:1009F00067D0640E116E126A136A132EFDEF04F0B5
:100A000010A404D0F2A402D0817CF294122EFDEF47
:100A100004F080B440D0112EFDEF04F038A255D080
:100A2000106A819C818EF26A010E356E010E746E21
:100A3000000E41EC08F0510ECDEC0CF0416A426A18
:100A400080A4FED7BAEC0CF080A4FAD7020E746E24
:100A5000000E41EC08F0742A000E41EC08F038A2B8
:100A60000DD0010E746E000E41EC08F0106A389241
:100A7000819C818EC00EF26EC8EF04F0010E746E80
:100A8000010E41EC08F0388207EC0DF01092CCEC2E
:100A90000CF010841DD010A40CD01094818C520E38
:100AA000CDEC0CF0010E746E080E106E41EC08F0E7
:100AB00007D0108407EC0DF01092CCEC0CF008D0AD
:100AC00010A206D01092108403D01082819EB8D755
:100AD00010A05ED74ED010A8D1D0108A74D110A823
:100AE000CDD0285003E02806020E286018D1108CC3
:100AF0006AD17BEC08F000080EE1E0EC0BF0BED010
:100B00007BEC08F0000807E126C02AF027C028F097
:100B1000A5EC0BF0B3D082EF06F010A4AFD002EC3E
:100B20000CF0ACD041504224D8A452EC0CF0A6D02A
:100B3000B7EF06F010A4A2D0ECEC0BF09FD07BEC4A
:100B400008F00008E8E1D7EC0CF020EC08F096D0B3
:100B5000246A256A0CD1A8EF05F079EF05F09FEF24
:100B600005F0C4EF06F0CBEF06F06FEF05F066EF8F
:100B700006F0900E235CDCE0910E235CD9E0980E29
:100B8000235CE6E0990E235CE3E05C0E235C55E019
:100B9000730E235C64E00D0E235CC4E0100E235C36
:100BA000C9E0110E235CB9E038A268D0420E235C84
:100BB00069E0530E235C38E0540E235C31E0550E9F
:100BC000235C2AE0560E235CD2E0960E235CC7E03D
:100BD0005D0E235C1FE0710E235CC3E0750E235C89
:100BE0001DE0960E235CBBE0D20E235C1BE0950E4D
:100BF000235C1CE0B20E235CB8E0570E235CB3E02C
:100C0000720E235C15E0580E235CA7E09C0E235C5B
:100C100011E034D099EF06F076EF06F050EF06F0D1
:100C20006FEF06F086EF06F068EF06F06BEF05F069
:100C300092EF06F080EF05F021D038A20CD07BECCB
:100C400008F000085FE1FF0E746E3F0E756EFF0E38
:100C500041EC08F0FF002450252454E1F4D738A2D9
:100C600007D07BEC08F000084DE118EC0CF006D042
:100C70002450252447E118EC0CF000D0609E109021
:100C8000C8EF04F010A4FAD762EC0CF010941086B0
:100C90000A0E376E520ECDEC0CF0819E818CEED791
:100CA0007BEC08F000082EE126C035F051EC0DF089
:100CB000520ECDEC0CF03EEF06F010A4DFD7500E34
:100CC0004B6E030E446E89EC0CF0D8D7DBEF06F0C8
:100CD0007BEC08F0000816E11088818CCFD77BEC04
:100CE00008F000080FE11098109AC8D77BEC08F0C4
:100CF000000808E110A807D0A7EC09F0590ECDECC8
:100D00000CF0F2D7BBD7020E75EF0CF010A8B6D7D7
:100D1000285005E02806020E286001D054D0060EA7
:100D200075EF0CF07BEC08F00008ECE17CEC0BF0CC
:100D3000A5D77BEC08F0000809E107EC0DF0520E96
:100D4000CDEC0CF0080E106E3EEF06F082EF06F0D0
:100D500066CF23F067CF24F068CF25F069CF26F067
:100D60006ACF27F06BCF28F06CCF29F0120038A2A1
:100D700005D04AEC0AF0000815E080D781A823D0FE
:100D8000F8D7030E75EF0CF07BEC08F00008BAE121
:100D9000E3EC0CF073D77BEC08F00008B3E11CEC3B
:100DA0000BF06CD719EC0AF0EECF32F0EECF34F046
:100DB000E1EC07F063D77BEC08F00008A3E1D4EC8A
:100DC0000BF05CD700D04AEC0AF000081AE038B209
:100DD00009D080AA43D083EC08F0000811E0040E8B
:100DE00079EF0CF010BC09D010BA37D083EC08F0C2
:100DF000000806E0040E7DEF0CF0050E7DEF0CF010
:100E0000B8D738B205D080BA0DD01FEC09F025D084
:100E100010BC0BD010AA06D01FEC09F0590ECDEC77
:100E20000CF01BD083EC08F0EBD719EC0AF028C0CB
:100E300050F0502A2850EBCF51F0D30E4B6E24C007
:100E40004CF025C04DF026C04EF027C04FF0070EE5
:100E5000446E8DEC0CF001D01098109C1090FA6A42
:100E60003EEF06F0060E7DEF0CF000EE00F0EE6AAD
:100E7000E966FDD70F015D6B5C6B5F6B5E6BF16AC2
:100E8000F19E5B690001F26A240E926E3B0E936E36
:100E9000819C819E8184000E946E826A8080D08EB7
:100EA000E06A7F6A106A366A6F8EB00E726E728A5E
:100EB00072500D6E0E017D6B606A306B806B906BB3
:100EC000A06BB06BC06BD06B030E436F9E0E446F74
:100ED000030E456F00010EEEF8F0EE6AFF0EE82AF1
:100EE000E962FBD76F6ABB6A840ED56E000EAA6EEC
:100EF000020ECD6EB10ECF6ECD80456A000E786EBB
:100F00009F6AA26AA06A010E9D6E010E356EF06A9C
:100F10009E6AA16A776A110E786E110E766E0F01C5
:100F2000216B226B256B0001609E719E719C776A1C
:100F3000756A97EC09F03AEC08F0386A010E746EA5
:100F400052EC08F0106E000801E10CD0388258EC29
:100F500008F0818C819E109020EC08F0C00EF26E9B
:100F6000C8EF04F03892416A426A81A8BBEF07F0EB
:100F700080AAA7EC09F0F3EC0CF020EC08F0C00E0E
:100F8000F26E819C818EC8EF04F03EC040F0403A82
:100F90004044E00B406E3EC03FF03F423F423F4086
:100FA0000F0B3F6E120062CF40F0403A4040070BFB
:100FB000406E61CF3FF03F463F463F44780B4010C4
:100FC000120062C056F032A00DD023A003D034A08E
:100FD00007D003D034A001D003D05492548002D063
:100FE0005482549032A20DD023A003D034A207D053
:100FF00003D034A201D003D05496548402D0548636
:10100000549432A40DD023A003D034A407D003D02D
:1010100034A401D003D0549A548802D0548A5498EE
:1010200032A60DD023A003D034A607D003D034A617
:1010300001D003D0549E548C02D0548E549C120084
:10104000700E746E10EE59F07F8073CFE6FF742A35
:101050007B0E7462F9D71B0EF76E1A0EF66EF86AE5
:10106000080E116E10EE64F00900F5CFE6FF112EA8
:10107000FBD71200E86A536E546E556E566E576E6B
:101080001200736E7F9E7F9C7F84F26A550E7E6E87
:10109000AA0E7E6E7F827FB2FED7A19C7F94C00E87
:1010A000F26E12007F9E7F9C7F80000073501200C2
:1010B000000E746E7F8073503E6EC5EC07F0F00E2C
:1010C00046163F5046124050476E020E746E52EC68
:1010D00008F0416E742A52EC08F0426E0F0100B71E
:1010E000FED7016B3F50016F4050026FB00E0113ED
:1010F000056B000112004150245C04E14250255C64
:1011000001E1000C010C38B203D080AA000C02D01F
:1011100010BA000C4AEC0AF0000825E119EC0AF0BC
:1011200020B002D038A20BD0285029C0EBFFB7EC7A
:101130000AF020B0000C590ECDEC0CF0000CC1EC04
:101140000CF032C033F03350EF10EE6E326E81BAD5
:1011500007D03350EF12EFCF34F0B7EC0AF0000CA9
:10116000331CEF16F8D7756A040E746E52EC08F053
:10117000000801E1010C756A060E746E52EC08F06D
:10118000146E070E746E52EC08F0156E1A6601D0DC
:101190000DD011EC0AF01B50DEEC0AF0060EE92629
:1011A00014C0EEFF15C0EEFFB1EC0AF019EC0AF026
:1011B0001550DEEC0AF0040EE926756A060E746E10
:1011C000EE5041EC08F0070E746EEE5041EC08F062
:1011D0001CC074FF145041EC08F0742A155041EC07
:1011E00008F01550DEEC0AF024C0EEFF25C0EEFF3B
:1011F00026C0EEFF27C0EEFF1AC0EEFF1BC0EEFFB9
:10120000EE6AEE6A080E2B6E000EEB6AE82A2B2EB1
:10121000FCD71D50500F746E52EC08F0E82A41ECD8
:1012200008F0050E746E52EC08F0010F41EC08F066
:10123000740652EC08F0E80641EC08F071D74AEC6D
:101240000AF0000801E01200756A060E746E52EC96
:1012500008F01E6E070E746E52EC08F01F6E19EC4B
:101260000AF01550DEEC0AF0040EE926EFCF18F074
:101270001EC0EEFFEFCF19F01FC0EEFFEFCF16F04C
:10128000EE6AEFCF17F0EE6A060E746E145041EC62
:1012900008F0070E746E155041EC08F0B7EC0AF038
:1012A000166601D011D016C014F017C015F019EC55
:1012B0000AF01550DEEC0AF0040EE92618C0EEFF25
:1012C00019C0EEFFB7EC0AF01CC074FF185041ECD7
:1012D00008F0742A195041EC08F0186601D011D0BA
:1012E00018C014F019C015F019EC0AF01550DEEC16
:1012F0000AF0060EE92616C0EEFF17C0EEFFB7ECA7
:101300000AF01D50500F746E52EC08F0E80641ECE4
:1013100008F0050E746E52EC08F0E80641EC08F097
:10132000740652EC08F0010F41EC08F01200206A3C
:10133000756A060E746E52EC08F03C6E742A52EC1C
:1013400008F03C123C661200A7EC09F01200756A26
:10135000050E746E000E41EC08F0800E740641EC30
:1013600008F0400E116E100E746E000E41EC08F085
:10137000742A112EFAD7200E116E500E746E000EC4
:1013800041EC08F0742A112EFAD786EC0AF0060E0A
:10139000746E300E146E41EC08F0070E746E000E81
:1013A000156E41EC08F0A9EC0AF0166A176A800E77
:1013B000116E15C03CF014C03DF03C50DEEC0AF05C
:1013C000100E3C26000E3D22EE6AEE6AEE6AEE6AD0
:1013D00011061BE03DC0EEFF3CC0EEFF16C0EEFF65
:1013E00017C0EEFF14C016F015C017F01150030B14
:1013F00005E0100E1526000E1422DFD7B7EC0AF018
:10140000100E1526000E1422D4D73C6A3CC0EEFF05
:101410003CC0EEFF16C0EEFF17C0EEFFB7EC0AF0BF
:101420001200C00E1B14F66E1A50F76E400E2B6E93
:1014300008D0C00E1514F66E1450F76EF86A400E00
:101440002B6EF86AEACF22F0E9CF21F001EE00F02E
:101450000900F550EE6E2B2EFBD721C0E9FF22C00C
:10146000EAFF1200F86A14C0F7FF15C0F6FF100E6D
:101470002B6EE7D7F86A14C0F7FF15C0F6FF100E01
:101480002B6EDFD7F86A14C0F7FF15C0F6FF080E01
:101490002B6ED7D7255027181F0B3C6E1D6E3C4670
:1014A000756A100E3C241C6E746E52EC08F0146EBB
:1014B0001A6E742A52EC08F0156E1B6E146601D079
:1014C000010C1550F66E1450F76EF86A2F6A090079
:1014D000F55024622F2A0900F55025622F2A0900B1
:1014E000F55026622F2A0900F55027622F2A2F6611
:1014F00006D01550DEEC0AF0080EE926000C0900B3
:10150000F550146E0900F550156ED8D7200E116EE7
:10151000000EF66E300EF76EF86A97EC0AF0112E98
:1015200001D01200400EF626000EF722F6D77F8E6D
:101530007F9C7F847F88F2CF0CF0F26A550E7E6E1E
:10154000AA0E7E6E7F820000000000000CC0F2FF39
:10155000120001EE00F0400E2B6EEE6A2B2EFDD72E
:101560001200C00E1B14F66E1A50F76E05D0C00E96
:101570001514F66E1450F76EF86A97EC0AF001EE47
:1015800000F03F0E2B6EEE50F56E0D002B2EFBD7AC
:10159000EE50F56E0C00CEEC0AF012007F8E7F9CB0
:1015A0007F987F84F2CF0CF0F26A550E7E6EAA0E01
:1015B0007E6E7F8200000CC0F2FF1200E83A030B3F
:1015C000E86603D001EE00F01200E806E86603D0FA
:1015D00001EE10F01200E806E86603D001EE20F0FC
:1015E000120001EE30F012004AEC0AF0000803E0AD
:1015F000296A286A0ED0285052E02806020E286078
:101600004ED032EC0AF001EE08F02850EB50296E73
:10161000282AD30E4B6E00C14CF001C14DF002C11F
:101620004EF003C14FF028C050F029C051F0070E12
:10163000446E8DEC0CF012003C6A050E746E52EC98
:1016400008F000082CE0526A200E306E100E746E06
:1016500052EC08F0146E742A52EC08F0156E146601
:1016600004D0300620E0742AF3D742EC0AF0522A64
:1016700000C14EF001C14FF002C150F003C151F062
:10168000F20E4B6E080E446E89EC0CF0ABEC0CF0D5
:10169000ABEC0CF004C114F005C115F0E0D7070E57
:1016A00081EC0CF0120012001D6A306A316A1D5084
:1016B000500F746E52EC08F0000F05E031263150E7
:1016C0002A6001D004D031C030F01D2AF0D71D446B
:1016D000100F746E52EC08F0146E742A52EC08F07D
:1016E000156E2A5030601200302A42EC0AF004C114
:1016F00014F005C115F0F5D7050E746E52EC08F024
:1017000000081FE02A501DE02A06050E746E52ECF8
:1017100008F02A6016D054EC0BF042EC0AF000C13D
:101720004EF001C14FF002C150F003C151F02A2A1E
:101730002AC052F0F20E4B6E080E446E89EC0CF08B
:101740001200070E81EC0CF01200050E746E52ECC4
:1017500008F00008F6E02A50F4E02A06050E746E40
:1017600052EC08F02A60EDD728501AE02806020E45
:10177000286016D054EC0BF032EC0AF001EE08F0C1
:101780002850EBCF50F0282A2A2AB50E4B6E2AC0DB
:101790004EF028C04FF0060E446E89EC0CF012009B
:1017A000060E81EC0CF01200040E746E52EC08F080
:1017B0004E6E700E4B6E040E446E89EC0CF01200EF
:1017C000050E746E52EC08F04E6E740E4B6E040EE5
:1017D000446E89EC0CF01200EF0E4B6E200EF66E8C
:1017E000080EF76E00EE4CF0070E116E7F8E0900AA
:1017F000F5CFEEFF112EFBD77F9E080E446E8DECC9
:101800000CF01200E20E4B6E100EF66E080EF76E24
:1018100000EE4CF0070E116E7F8E0900F5CFEEFF43
:10182000112EFBD77F9E080E446E8DEC0CF012003B
:101830002650000821E0140E26C03CF03C063C6017
:1018400026D09B0E4B6E070E3C6204D04BEC0CF086
:101850004F6E0BD0200EF66E080EF76EF86A260457
:10186000F6267F8E0800F5CF4FF026C04EF0050E0D
:10187000446E89EC0CF012009B0E4B6E140E4F6EF2
:1018800026C04EF0050E446E89EC0CF012000A0ED4
:1018900081EC0CF01200010E38B204093C6E3C865B
:1018A0003C501200BAEC0CF0B60E4B6EA50E4E6E0C
:1018B000220E4F6E4BEC0CF0506E060E446E89EC0F
:1018C0000CF0120024C041F025C042F0020E746EEC
:1018D000245041EC08F0742A255041EC08F0010E28
:1018E000746E080E41EC08F0120081EC0CF03EEF33
:1018F00006F081EC0CF02EEF07F081EC0CF02DEFF0
:1019000007F04E6E6F0E4B6E040E446E89EC0CF0B9
:10191000120041C04CF042C04DF044504A6E0F0ED0
:101920004616B00E46120A0E366E98EC0CF01200F7
:1019300000EE45F01FEE10F00F0110B7FED70001CA
:10194000EE50E66E530EE962FBD70F0110B7FED7DB
:101950001087000112000A0E126E116A112EAEEFEE
:101960000CF0122EFAD71200136AABEC0CF0132E07
:10197000FCD71200640E136EABEC0CF0132EFCD7E8
:101980001200030E81143A6E010E326E3A5203E0D9
:1019900032463A06FBD71200500E4B6E41C04CF057
:1019A00042C04DF0030E446E89EC0CF01200110E93
:1019B00026601200265006E0E806700F746E27506D
:1019C00041EC08F01200700E2624746E740652EC7E
:1019D00008F04F6E26C04EF0970E4B6E050E446E0B
:1019E00089EC0CF01200080E116E800E3C6E746EC5
:1019F00052EC08F03D6EF00E74263D5041EC08F0BC
:101A0000112E01D012003C2A3C50746EF1D7E1CF68
:101A10006DF0E2CF6EF01082456A0E0E116E00EE90
:101A200080F0EE6A112EFDD7BF0E466EE00E476EB7
:101A3000400E446E3C0EB36EAF0EB26E330EB16EFE
:101A4000A1920A0E366E8DEC0CF04A6AA1B215D046
:101A500071BE01D0FBD76F500F0B0A6E7250F00BA6
:101A60000A10726E62B607D010A205D0655203E16B
:101A700066EC0DF000D0609EE9D7B190A192356A76
:101A8000352A6C6B6C8110EE80F0E72804E1080EBB
:101A90003526E12AFAD76C51E71403E06C37352A72
:101AA000FAD7640E35600CD0000E746E355041ECE0
:101AB00008F058EC08F06DC0E1FF6EC0E2FF1200C4
:101AC000070E81EC0CF03568359EEED76566120086
:101AD0006138E832780B3C6E6238E842070B3C1004
:101AE000356E10EE80F06C6B6C81080E356403D09F
:101AF000355EE12AFBD7354E02D06C47FCD76C51DE
:101B0000E712609E120010B2120038A212000F01FC
:101B100000B7FED7008700011200018002402004B8
:021B20001008AB
:020000040030CA
:040000001513667CF2
:020005008981EF
:060008000FC00FE00F40E5
:0200000400F00A
:080000007F0000000000000079
:1000100000000000000000000000000000000000E0
:1000200000000000000000000000000000000000D0
:1000300000000000000000000000000000000000C0
:1000400000000000000000000000000000000000B0
:1000500000000000000000000000000000000000A0
:100060000000000000000000000000000000000090
:100070000505050505050505320003000000000023
:08008000050505050505050550
:0203FE000000FD
:00000001FF
