:020000040000FA
:040000001FD00ED02F
:0400080004EF04F00D
:040018000CEF04F0F5
:100020007F6E05A01200550E7E6EAA0E7E6E7F8238
:1000300000007FB2FED712000A26D8B00B2A1200A9
:100040007F6A746875687F800000733C00EF04F07D
:10005000066A1C0E056E0F015D6B5C6B93940E01BE
:10006000000EE06F080EE16FE81EE56F000EE26F14
:10007000070EE36FFF0EF86FEB0EF96FFF0EFA6FCE
:10008000F80EFB6F0E01030E436F9E0E446F030EBE
:10009000456F200E706E6F6A0001939E939C818E57
:1000A000818C609E040060AEFDD70FEE66F0655057
:1000B0000F0B096EF46EF5E064B02BD010EE01F07A
:1000C000EECFE6FFF42EFCD70650EBE0010AD8A4F1
:1000D00007D074687568736A040EA2DF819CFF0004
:1000E0000650020A05E10B6A0A6A0C900C6AD9D71D
:1000F0000650030A0AE107500A2606E108500B22BF
:1001000003E10CB001D076D07AD00650040AC9E1E0
:100110007BD00350F86EF00BF36E0250F76E756EE5
:100120000150F66E746E05A605D009500126E86AE6
:1001300002220322300EF36001D008D0F350300ABF
:1001400001E12AD0F350F00AACE132D005A405D089
:10015000F6503F0B02E1940E63DF05B2A2D7F650D2
:10016000070B9FE1080EF46EEE50F56E65DF0D0093
:10017000F42EFAD7080EF46E0A00ED50F42EFCD7D8
:10018000840E4EDF080EF46E0900F550EE18D8A468
:100190000C80F42EF9D785D7EF50F56E4DDF0C00AB
:1001A000C40E3EDF0900F550EE18F42EF5D779D7CE
:1001B000EF50736E41DF040E33DF7F6A7F800000F3
:1001C0007350EE18D8A40C80744A752AF42EF0D718
:1001D00068D70F0120B7FED7800E216F080E226F5F
:1001E000000E236F040E246F248164A024912087C5
:1001F000000157D70F01010E266F256FEAD70F01B7
:10020000266B010E256FE5D70F01020E266F010E3A
:04021000256FDFD7A0
:060800000000C1EF08F04A
:04080800F8EF05F010
:080810004D494F2D4F555400D6
:04081800CEEF04F02B
:10082000A5623480030C050B0D01000800000000D8
:080830000000010000000000BF
:080838001400100800001D026D
:1008400062EC04F0796F7A6F7C6B12001AA217D0F9
:1008500062EC04F0795D03E179C07AF010D07B514D
:100860007A5D05E07BC07AF0640E7C6F08D07C076F
:1008700006E17A5179197AC079F075EC04F012002A
:10088000080E316E2A6A2A1E4EEC04F006E0312A68
:10089000C80E1C6E43EC0FF0F7D71200325011E077
:1008A00031C07CF079C07BF0010E7A6F070E7C5F5F
:1008B0007C4F02D07A47FCD77A5175EC04F00F0ECA
:1008C000315C12007B6B81A07B8181A27B8381A83C
:1008D0007B8581AA7B8780A27B8980A07B8B80A679
:1008E0007B8D80AA7B8F7B5112007A6F090E7C6F03
:1008F000D8907A3302E27B330DD07B3302E3900E43
:1009000001D0910E396E3C6A7CC03DF0050E246E1C
:10091000B2EC0AF07C2B160E7C65EAD779C07AF02F
:100920001200C0EC04F0D8B491D303EC0BF02B0E02
:1009300080147D6F0A0809E07D51080808E07D51A8
:10094000030805E07D51010814E17D8301D07D930A
:10095000FEEC0CF0000809E1D5EC0CF02A50EE1288
:100960007DB3EF1269EC0DF009D04DEC0BF00008EF
:10097000F5E07D51000802E1B6EC0BF0B9EF08F0AC
:10098000130E8114226E236E234223400C0B22127D
:10099000221E0F0E221601E022061200006ED8CF92
:1009A00001F0E0CF02F0EACF06F0E9CF05F0E2CFA8
:1009B00008F0E1CF07F000019EA043D0E00ECE6E1C
:1009C0009E6A416A426A655105E0652F03D0418005
:1009D00080C065F0665105E0662F03D0418281C07A
:1009E00066F0675105E0672F03D0418482C067F04D
:1009F000685105E0682F03D0418683C068F06951D3
:100A000005E0692F03D0418884C069F06A5105E090
:100A10006A2F03D0418A85C06AF06B5105E06B2FC5
:100A200003D0418C86C06BF06C5105E06C2F03D075
:100A3000418E87C06CF0416601D0CCD04150821A03
:100A4000C9D0A192A0920A0EFA6E3150E846F9265A
:100A50000FD012D016D01AD01ED022D026D02AD035
:100A60002ED02DD02CD02BD02AD029D028D027D0B2
:100A700030502A142FE1312A304630502A143AE1FE
:100A8000312A304630502A1445E1312A3046305060
:100A90002A1450E1312A304630502A145BE1312AC1
:100AA000304630502A1466E1312A304630502A143C
:100AB00071E1312A304630502A147CE1312A4EEC63
:100AC00004F002E1326A86D0312A7551B26AB36EFF
:100AD000A08280D06DAFCFD730502F1403E16DBD11
:100AE00001D005D06DBD03D065EC10F0EDD768ECFA
:100AF00010F0EAD76EAFC4D730502F1403E16EBDAB
:100B000001D005D06EBD03D065EC10F0DDD768ECE8
:100B100010F0DAD76FAFB9D730502F1403E16FBDA3
:100B200001D005D06FBD03D065EC10F0CDD768ECD7
:100B300010F0CAD770AFAED730502F1403E170BD9C
:100B400001D005D070BD03D065EC10F0BDD768ECC6
:100B500010F0BAD771AFA3D730502F1403E171BD95
:100B600001D005D071BD03D065EC10F0ADD768ECB5
:100B700010F0AAD772AF98D730502F1403E172BD8E
:100B800001D005D072BD03D065EC10F09DD768ECA4
:100B900010F09AD773AF8DD730502F1403E173BD87
:100BA00001D005D073BD03D065EC10F08DD768EC93
:100BB00010F08AD774AF82D730502F1403E174BD80
:100BC00001D005D074BD03D065EC10F07DD768EC82
:100BD00010F07AD706C0EAFF05C0E9FF08C0E2FFBF
:100BE00007C0E1FF02C0E0FF005001C0D8FF1000C5
:100BF000006ED8CF01F06FCF0FF06ECF10F0FACFAC
:100C000003F0FA6AE9CF05F0EACF06F0E1CF07F08A
:100C1000E2CF08F00C0EFA6E10500E0BF92618D029
:100C200006D016D015D014D013D012D011D00F0189
:100C300010AB08D0205206E0202E04D010973F0EB3
:100C400011171087309F0001609E719E719C01D02A
:100C5000609E776A6F50F10B0F106F6E03C0FAFF42
:100C600005C0E9FF06C0EAFF07C0E1FF08C0E2FFD8
:100C7000005001C0D8FF100021B212001AA21200C9
:100C80000F0100B7FED700870001120021B019D074
:100C900071BE01D016D06F500F0B0F6E7250F00B5B
:100CA0000F10726E62B60CD065AC03D03CEC06F04F
:100CB00007D0655201E104D007EC10F0218001D08B
:100CC000609E1AB201D00DD0F2A40BD021A401D0A5
:100CD000817CF29421A605D01F2E03D00A0E1F6E30
:100CE000520E80B467D0640E1B6E1C6A1D6A1D2EE6
:100CF00077EF06F021A404D0F2A402D0817CF29414
:100D00001C2E77EF06F080B440D01B2E77EF06F054
:100D10001AA255D0216A819C818EF26A010E196E49
:100D2000010E746E000E9EEC0AF0510E72EC0AF089
:100D3000166A176A80A4FED74AEC0FF080A4FAD78F
:100D4000020E746E000E9EEC0AF0742A000E9EECE9
:100D50000AF01AA20DD0010E746E000E9EEC0AF07D
:100D6000216A1A92819C818EC00EF26E46EF06F0C7
:100D7000010E746E010E9EEC0AF01A8286EC0FF0E2
:100D8000219271EC0AF021841DD021A40CD0219471
:100D9000818C520E72EC0AF0010E746E080E216EF8
:100DA0009EEC0AF007D0218486EC0FF0219271ECC2
:100DB0000AF008D021A206D02192218403D02182FA
:100DC000819EB8D726EC04F021A060D745D021A899
:100DD000C8D0218A07EC10F070D121A8C2D007EC4E
:100DE00010F0605103E06007030E606111D1218CA7
:100DF00064D1C1EC0AF0000803E10BEC0BF0B1D0B8
:100E0000F9EF07F0C1EC0AF0000807E169CF62F0E2
:100E10006ACF60F058EC0EF0A4D0F9EF07F022EFA3
:100E200008F021A49ED093EC0EF09BD021A499D081
:100E3000A9EC0EF096D016501724D8A407EC0FF0AA
:100E400090D05C6A5D6AFED033EF08F03CEF08F0AA
:100E500043EF08F0E7EF06F0900E5B5CE0E0910EE8
:100E60005B5CDDE0920E5B5CDAE0980E5B5CE9E0D7
:100E7000990E5B5CE6E09A0E5B5CD1E05C0E5B5C1D
:100E800050E0730E5B5C5EE01AA26BD0420E5B5CBE
:100E90006CE00D0E5B5CCFE0100E5B5CC2E0110EEF
:100EA0005B5CC4E0530E5B5C37E0540E5B5C2EE091
:100EB000550E5B5C29E0560E5B5C7BE0710E5B5C63
:100EC000C5E0960E5B5CC0E0D20E5B5C21E0950E47
:100ED0005B5CC0E0B20E5B5C80E0570E5B5CB8E030
:100EE000720E5B5C17E0580E5B5C18E09C0E5B5C5E
:100EF00089E05D0E5B5C04E0750E5B5C03E031D065
:100F000012EF08F0C3EF07F0E9EF07F0E2EF07F0A8
:100F1000FDEF07F00BEF08F0DBEF07F0F9EF06F05D
:100F200020D01AA20BD0C1EC0AF0000862E175686B
:100F3000FF0E746EFF0E9FEC0AF0FF005C505D2404
:100F400058E1F5D71AA207D0C1EC0AF0000851E128
:100F5000BFEC0EF006D05C505D244BE1BFEC0EF010
:100F600000D0609E219046EF06F021A4FAD73BEC1A
:100F70000AF0219421860A0E1F6E520E72EC0AF0BE
:100F8000818C819EEED7C1EC0AF0000832E15EC090
:100F900019F0D4EC0FF0520E72EC0AF0B1EF07F03A
:100FA00021A4DFD7500E396E030E246EB2EC0AF086
:100FB000D8D755EF08F0C1EC0AF000081AE12188F3
:100FC000818CCFD7C1EC0AF0000813E12198219A57
:100FD000C8D7C1EC0AF000080CE121A80BD064ECE2
:100FE0000CF096EC10F047EC10F0590E72EC0AF091
:100FF000EED7B7D7020E2DEF0FF021A8B2D707EC2E
:1010000010F0605105E06007030E606101D055D01B
:10101000060E2DEF0FF0C1EC0AF00008EAE12FEC0C
:101020000EF09FD7C1EC0AF000080AE186EC0FF041
:10103000520E72EC0AF0609E080E216EB1EF07F0BE
:10104000F9EF07F007EC10F01AA205D0FEEC0CF057
:10105000000820E086D780AA64D480A22ED0F6D7DC
:10106000030E2DEF0FF0C1EC0AF00008C2E151ECC5
:101070000FF047EC10F075D7C1EC0AF00008B9E1A9
:1010800060EC0FF06ED7C1EC0AF00008B2E1CFECD3
:101090000DF067D7D5EC0CF0EECF2AF0EECF2CF0A8
:1010A000EECF2DF063EC09F05CD7C1EC0AF000083C
:1010B000A0E187EC0EF055D700D0FEEC0CF0000854
:1010C0001FE01AB209D080A054D018EC0BF0000831
:1010D00016E0040E31EF0FF021BC0ED021BA48D03B
:1010E000020E605D02E122EC10F018EC0BF000083B
:1010F00006E0040E35EF0FF0050E35EF0FF039D096
:101100001AB205D080B014D0B6EC0BF031D021BCAF
:1011100017D021AA0DD0D5EC0CF0020EEBCF2DF09C
:1011200087EC10F0B6EC0BF0590E72EC0AF020D000
:10113000020E605D02E122EC10F018EC0BF0DFD73C
:10114000D5EC0CF060C03EF03E2A6051EBCF3FF092
:10115000D30E396E5CC03AF05DC03BF05EC03CF02F
:101160005FC03DF0070E246EB6EC0AF001D0219866
:10117000219C609E2190FA6AB1EF07F0060E35EFD0
:101180000FF000EE00F0EE6AE9AEFDD7F26AF16A08
:101190000F015D6B5C6B5B6900012F0E926E3B0E65
:1011A000936E819E819C8184000E946E826AD08EA3
:1011B000E06A7F6A216A206A6F8EB00E726E728A50
:1011C0007250126E0E017D6B0E01606A306B806B87
:1011D000906BA06BB06BC06BD06B0E01030E436FB6
:1011E0009E0E446F030E456F200E706E240E606ECF
:1011F0000EEEF8F0EE6A000EE962FCD700016F6AAD
:10120000BB6A840ED56E230ECD6EB10ECF6EE00E8E
:10121000CE6E336A230E786E9F6AA26AA06AA56AB0
:10122000B86AA36AB66AA46AB76A010E9D6E010E17
:10123000196EF16AF06A200E766E9E6AA16A609E4F
:10124000719E719C776A2DEC0CF01A6A010E746E17
:1012500098EC0AF0216E000801E11BD01A824EECD6
:101260000AF047EC10F0900E5B6E77C02AF076C063
:101270002CF0761D2F14E81E2C122D6A63EC09F059
:1012800020EC04F0C00EF26E819E818C219046EF1E
:1012900006F01A92166A176A80BA05D02B0E8014CF
:1012A000020805E006D080A259EF09F080A064ECA6
:1012B0000CF047EC10F020EC04F0C00EF26E819CB4
:1012C000818E46EF06F05BB27CD0030E2D14030A2C
:1012D0006AE02AC02BF02CC047F02B1C82142B6E26
:1012E0002A502C1A5BA005D02A502C182B10456EC2
:1012F00004D02A502C142B10456EF20E746E98EC0C
:101300000AF02F6E2A1C2F1645502F102F6E9EECC0
:101310000AF0010E306E316A7551FF08B36EB26A81
:101320009D900000486A010E496E00EE65F010EED7
:1013300080F0471C2A14466E49502A1429E0E60E14
:101340004824746E98EC0AF02B6EE89EE86601D093
:101350001CD0E82A226E2BAE08D05BB014D04850C7
:1013600022C0EBFF22C0E3FF13D05BB004D0495092
:1013700047140BE103D04950471407E0485022C0FE
:10138000EBFFE36A05D0491C45164850EB6AE36A57
:10139000482A4936D1E32A1C8216455082129D8084
:1013A000A082B1801200010E306E316A7551FF08C3
:1013B000B36EB26A2A683268A082330EB16EB18011
:1013C0001200E9CF0BF0EACF0CF0E1CF0DF0E2CF45
:1013D0000EF02DAE12001C0E2D142E6E040E1E6E7D
:1013E00010EE3AF000EE5CF0EECFE6FF1E2EFCD7DA
:1013F0002E50E842E8421E6E1E2A306A30801E2EB1
:1014000001D002D03046FBD730502F1408E15BB634
:1014100003D0940E396E0FD09E0E396E07D05BB696
:1014200003D0930E396E07D09D0E396E050E246ED3
:10143000B2EC0AF004D0050E246EB6EC0AF00BC034
:10144000E9FF0CC0EAFF0DC0E1FF0EC0E2FF120091
:1014500000EE33F01FEE10F00F0110B7FED70001C1
:10146000EE50E66E410EE962FBD70F0110B7FED7D2
:101470001087000112005CC016F05DC017F0020E6C
:10148000746E5C509EEC0AF0742A5D509EEC0AF07B
:10149000010E746E080E9EEC0AF01200000E746EBF
:1014A0007F807350136E7CEC0AF0F00E34161450EB
:1014B00034121550356E020E746E98EC0AF0166EEA
:1014C000742A98EC0AF0176E0F0100B7FED7016B73
:1014D0001450016F1550026FB00E0113056B00011F
:1014E0001200500E396E16C03AF017C03BF0030ED2
:1014F000246EB2EC0AF0120013C015F0153A154430
:10150000E00B156E13C014F01442144214400F0B7C
:10151000146E120062CF15F0153A1540070B156EC8
:1015200061CF14F0144614461444780B15101200C1
:10153000756A7F9E7F9C7F8073501200756A736E00
:101540007F9E7F9C7F84F2CF11F0F26A550E7E6EF3
:10155000AA0E7E6E7F827FB2FED7A19C7F9411C0BF
:10156000F2FF120016C03AF017C03BF02450386E5C
:101570000F0E3416B00E34120A0E206E28EC0AF04C
:10158000120016505C5C04E117505D5C01E1000C38
:10159000010C200E1B6ED8901B461B4602EE00F07D
:1015A000060E746E7F807350EE6E742A1B2EFAD76F
:1015B000200E1B6ED8901B4602EE80F0860E746ED5
:1015C0007F807350EE6E742A1B2EFAD71200C20E63
:1015D0001B6E040E746E000E9EEC0AF0742A1B2E15
:1015E000FAD7800E1B6E02EE00F0EE6A1B2EFDD7BE
:1015F0001200130E8114226E236E23422340040B2B
:101600002210070B226E010E2A6E225203E02A4698
:101610002206FBD71200756A050E746E98EC0AF06C
:101620003C6E740E396E040E246EB2EC0AF0120099
:101630001AB203D080A0000C02D021BA000CFEEC3C
:101640000CF0000825E1D5EC0CF058B002D01AA23D
:101650000BD0605161C0EBFF69EC0DF058B0000C8D
:10166000590E72EC0AF0000CF9EC0AF02AC02BF0CB
:101670002B50EF10EE6E2A6E81BA07D02B50EF126E
:10168000EFCF2CF069EC0DF0000C2B1CEF16F8D707
:101690004DEC0BF00008D9E0010C040E746E98ECD0
:1016A0000AF0000801E1010CDE0E746E98EC0AF0FD
:1016B0004C6EDF0E746E98EC0AF04D6E526601D0DF
:1016C0000DD0CDEC0CF0535097EC0DF0060EE92642
:1016D0004CC0EEFF4DC0EEFF63EC0DF0D5EC0CF00E
:1016E0004D5097EC0DF0040EE926DE0E746EEE50B0
:1016F0009EEC0AF0DF0E746EEE509EEC0AF054C0C1
:1017000074FF4C509EEC0AF0742A4D509EEC0AF087
:101710004D5097EC0DF05CC0EEFF5DC0EEFF5EC07B
:10172000EEFF5FC0EEFF52C0EEFF53C0EEFFEE6A69
:10173000EE6A080E636F000EEB6AE82A632FFCD78F
:101740005550D60F746E98EC0AF0E82A9EEC0AF019
:10175000050E746E98EC0AF0010F9EEC0AF0740608
:1017600098EC0AF0E8069EEC0AF0000CFEEC0CF097
:10177000000801E01200DE0E746E98EC0AF0566E5E
:10178000DF0E746E98EC0AF0576ED5EC0CF04D50ED
:1017900097EC0DF0040EE926EFCF50F056C0EEFFA7
:1017A000EFCF51F057C0EEFFEFCF4EF0EE6AEFCF24
:1017B0004FF0EE6ADE0E746E4C509EEC0AF0DF0EB7
:1017C000746E4D509EEC0AF069EC0DF04E6601D03F
:1017D00011D04EC04CF04FC04DF0D5EC0CF04D5038
:1017E00097EC0DF0040EE92650C0EEFF51C0EEFF5D
:1017F00069EC0DF054C074FF50509EEC0AF0742A4E
:1018000051509EEC0AF0506601D011D050C04CF0FF
:1018100051C04DF0D5EC0CF04D5097EC0DF0060E8C
:10182000E9264EC0EEFF4FC0EEFF69EC0DF05550BB
:10183000D60F746E98EC0AF0E8069EEC0AF0050EDE
:10184000746E98EC0AF0E8069EEC0AF0740698ECC8
:101850000AF0010F9EEC0AF01200586A040E746E32
:1018600098EC0AF0226E742A98EC0AF02226800E78
:10187000226201D01200C9EC0AF0050E746E98ECD9
:101880000AF0266E64EC0CF0266601D01200588037
:1018900012EE00F022EE80F0E6CF5CF0E6CF5DF0D5
:1018A000E6CF5EF0E6CF5FF0000E606FDECF61F056
:1018B0001FEC0BF0010E606FDECF61F01FEC0BF040
:1018C000262EEAD7586A1200050E746E000E9EECA2
:1018D0000AF0800E74069EEC0AF0100E1B6EC60E07
:1018E000746E000E9EEC0AF0742A1B2EFAD7080EB6
:1018F0001B6ED60E746E000E9EEC0AF0742A1B2E20
:10190000FAD738EC0DF0DE0E746E300E4C6E9EEC95
:101910000AF0DF0E746E000E4D6E9EEC0AF05BEC6A
:101920000DF04E6A4F6A800E1B6E4DC022F04CC007
:1019300023F0225097EC0DF0100E2226000E2322E9
:10194000EE6AEE6AEE6AEE6A1B061BE023C0EEFF4B
:1019500022C0EEFF4EC0EEFF4FC0EEFF4CC04EF077
:101960004DC04FF01B50030B05E0100E4D26000E2E
:101970004C22DFD769EC0DF0100E4D26000E4C22E4
:10198000D4D7226A22C0EEFF22C0EEFF4EC0EEFF87
:101990004FC0EEFF69EC0DF01200C00E5314F66E4E
:1019A0005250F76E400E636F08D0C00E4D14F66EA5
:1019B0004C50F76EF86A400E636FF86AEACF5AF03F
:1019C000E9CF59F001EE00F00900F550EE6E632FFB
:1019D000FBD759C0E9FF5AC0EAFF1200F86A4CC0B1
:1019E000F7FF4DC0F6FF100E636FE7D7F86A4CC0E3
:1019F000F7FF4DC0F6FF080E636FDFD7070E5F14C9
:101A0000226E556E2246C60E2224546E746E98ECD9
:101A10000AF04C6E526E742A98EC0AF04D6E536EBA
:101A20004C6601D0010C4D50F66E4C50F76EF86AC2
:101A3000256A0900F5505C62252A0900F5505D62AF
:101A4000252A0900F5505E62252A0900F5505F62DB
:101A5000252A256606D04D5097EC0DF0080EE92694
:101A6000000C0900F5504C6E0900F5504D6ED8D7AA
:101A7000200E1B6E000EF66E300EF76EF86A49EC03
:101A80000DF01B2E01D01200400EF626000EF7229C
:101A9000F6D77F8E7F9C7F847F88F2CF11F0F26A29
:101AA000550E7E6EAA0E7E6E7F8200000000000042
:101AB00011C0F2FF120001EE00F0400E636FEE6AFB
:101AC000632FFDD71200C00E5314F66E5250F76EFE
:101AD00005D0C00E4D14F66E4C50F76EF86A49EC06
:101AE0000DF001EE00F0020E646F1F0E636FEE50FA
:101AF000F56E0D00632FFBD7EE50F56E0C0087ECF2
:101B00000DF0F62A000EF722642FEFD712007F8E19
:101B10007F9C7F987F84F2CF11F0F26A550E7E6E23
:101B2000AA0E7E6E7F82000011C0F2FF1200E83A1A
:101B3000030BE86603D001EE00F01200E806E86649
:101B400003D001EE10F01200E806E86603D001EEC3
:101B500020F0120001EE30F01200FEEC0CF0000854
:101B600003E0616B606B08D0EEEC0CF001EE08F066
:101B70006051EB50616F602BD30E396E00C13AF0AB
:101B800001C13BF002C13CF003C13DF060C03EF03A
:101B900061C03FF0070E246EB6EC0AF01200226A14
:101BA000050E746E98EC0AF000082CE0406A080EEE
:101BB000266EC60E746E98EC0AF04C6E742A98EC81
:101BC0000AF04D6E4C6604D0260620E0742AF3D746
:101BD000F6EC0CF0402A00C13CF001C13DF002C11E
:101BE0003EF003C13FF0F20E396E080E246EB2ECE7
:101BF0000AF041EC0FF041EC0FF004C14CF005C1CC
:101C00004DF0E0D7070E39EC0FF012001200556AC4
:101C1000266A276A5550D60F746E98EC0AF0000FAA
:101C200005E027262750626101D004D027C026F0A6
:101C3000552AF0D75544C60F746E98EC0AF04C6ED6
:101C4000742A98EC0AF04D6E625126601200262A22
:101C5000F6EC0CF004C14CF005C14DF0F5D7050EC3
:101C6000746E98EC0AF000081FE062511DE06207F4
:101C7000050E746E98EC0AF0626116D007EC0EF057
:101C8000F6EC0CF000C13CF001C13DF002C13EF0A9
:101C900003C13FF0622B62C040F0F20E396E080EB5
:101CA000246EB2EC0AF01200070E39EC0FF01200AD
:101CB000050E746E98EC0AF00008F6E06251F4E04C
:101CC0006207050E746E98EC0AF06261EDD7605100
:101CD0001AE06007030E606116D007EC0EF0EEEC20
:101CE0000CF001EE08F06051EBCF3EF0602B622B60
:101CF000B50E396E62C03CF060C03DF0060E246E39
:101D0000B2EC0AF01200060E39EC0FF01200040ECD
:101D1000746E98EC0AF03C6E700E396E040E246EF0
:101D2000B2EC0AF01200EF0E396E200EF66E080EBD
:101D3000F76E00EE3AF0070E1B6E7F8E0900F5CFAE
:101D4000EEFF1B2EFBD77F9E080E246EB6EC0AF02A
:101D50001200E20E396E100EF66E080EF76E00EEEF
:101D60003AF0070E1B6E7F8E0900F5CFEEFF1B2E9B
:101D7000FBD77F9E080E246EB6EC0AF012005E5070
:101D800000082FE0140E5EC022F02206226034D03C
:101D90009B0E396E070E226204D000EC0FF03D6EF0
:101DA00019D00E0E226204D017EC0FF03D6E12D047
:101DB0000F0E226204D01BEC0FF03D6E0BD0200EF4
:101DC000F66E080EF76EF86A5E04F6267F8E08003F
:101DD000F5CF3DF05EC03CF0050E246EB2EC0AF08B
:101DE00012009B0E396E140E3D6E5EC03CF0050E67
:101DF000246EB2EC0AF012000A0E39EC0FF0120059
:101E0000010E1AB20409226E2286225012004AECF8
:101E10000FF0B60E396EA50E3C6E340E3D6E00EC22
:101E20000FF03E6E060E246EB2EC0AF012001FECAC
:101E30000FF0F35012001FEC0FF0F45012003F0EA1
:101E4000F86EFF0EF76EFE0EF66E7F8E0900F5CF70
:101E5000F3FF0800F5CFF4FF120039EC0FF0B1EFFB
:101E600007F039EC0FF0B9EF08F039EC0FF0B8EFEC
:101E700008F03C6E6F0E396E040E246EB2EC0AF060
:101E800012000A0E1C6E1B6A1B2E44EF0FF01C2E54
:101E9000FAD71200640E1D6E41EC0FF01D2EFCD718
:101EA00012000D0E5E6012005E5009E0E806E60FBB
:101EB000746E5F509EEC0AF0590E72EC0AF012003C
:101EC0000D0E5E6015E05E5013E0E806E60F746EDE
:101ED00098EC0AF03D6E5EC03CF05CC03AF05DC02C
:101EE0003BF0970E396E050E246EB6EC0AF0120028
:101EF0003C6A3D6AF2D7080E1B6EE60E746E000E49
:101F00009EEC0AF0742A1B2EFAD71200E1CF4AF099
:101F1000E2CF4BF021820E0E1B6E00EE88F0EE6ACF
:101F20001B2EFDD7A0923C0EB36EAF0EB26E330ED9
:101F3000B16EB180A1920F01BF0E116FE00E126F52
:101F4000400E156F10B7FED7108710B7FED7156B70
:101F50000001A1B215D071BE01D0FBD76F500F0B9D
:101F60000F6E7250F00B0F10726E62B607D021A286
:101F700005D0655203E1EAEC0FF000D0609EE9D78E
:101F8000B190A192196A192A496A498010EE88F025
:101F9000E72804E1080E1926E12AFAD74950E71488
:101FA00003E04936192AFAD7640E19600DD0000EE5
:101FB000746E19509EEC0AF019504EEC0AF04AC0AB
:101FC000E1FF4BC0E2FF1200070E39EC0FF0196879
:101FD000199EEDD7656612006138E832780B226EE3
:101FE0006238E842070B2210196E10EE88F0496A39
:101FF0004980080E196403D0195EE12AFBD7194EF7
:1020000002D04946FCD74950E712609E120066CFC5
:102010005BF067CF5CF068CF5DF069CF5EF06ACFB0
:102020005FF06BCF60F06CCF61F0980E665C07E0FC
:10203000990E665C04E09A0E665C01E012005C6A30
:102040005D6A120061AF120061C02AF061511C0B81
:10205000060F746E5C509EEC0AF0742A5D509EEC84
:102060000AF0742A5E509EEC0AF0742A5F509EECCF
:102070000AF02A501C0BE842E842860F746E2A5080
:102080009EEC0AF02AC061F047EC10F01200080E36
:102090001B6E860E746E10EE6DF098EC0AF0E66E14
:1020A000742A1B2EFAD7EE0E746E040E1B6E10EE01
:1020B00075F098EC0AF0E66E742A1B2EFAD7F20E31
:1020C000746E98EC0AF02F6E1200900E396E02D0EA
:1020D000910E396E00EE3AF0060E746E3150E846FD
:1020E000E8467426040E1E6E050E246E98EC0AF067
:1020F000EE6E742A1E2EFAD73A5206E13B5204E1E4
:102100003986B2EC0AF01200B6EC0AF012002D503B
:10211000E8AE12001C0BE842E8422A6E860F746E8D
:10212000E86A9EEC0AF047EC10F01200860E746E1E
:10213000080E1B6EE86A9EEC0AF0742A1B2EFAD772
:0221400012008B
:020000040030CA
:0100000015EA
:0100010003FB
:010002006697
:010003007C80
:010005008971
:010006008178
:010008000FE8
:01000900C036
:01000A000FE6
:01000B00E014
:01000C000FE4
:01000D0040B2
:0200000400F00A
:060000007F00000000007B
:0A0086000000000000000000000070
:060090000000000000006A
:0A00C6000000000000000000000030
:1000D0000000000000000000000000000000000020
:1000E00000000000000000000000000000000A0006
:0400F000FFFF00000E
:0203FE000000FD
:00000001FF
