:020000040000FA
:040000001FD00ED02F
:0400080004EF04F00D
:040018000CEF04F0F5
:10002000A66E05A01200550EA76EAA0EA76EA68298
:100030000000A6B2FED712000A26D8B00B2A120082
:10004000A66AA968AA68A680A83C00EF04F0066A20
:100050001C0E056E0F019394000E006F080E016FC9
:10006000E81E056F000E026F070E036FFF0E186F7C
:10007000EB0E196FFF0E1A6FF80E1B6F030E706EEA
:100080009E0E716E030E726E200E736E6F6A0E0EF0
:10009000C16E939E939C818E818C609E040060AEA5
:1000A000FDD70FEE66F065500F0B096EF46EF5E0AC
:1000B00064B02BD010EE01F0EECFE6FFF42EFCD7AB
:1000C0000650EBE0010AD8A407D0A968AA68A86A7C
:1000D000040EA6DF819CFF000650020A05E10B6AB0
:1000E0000A6A0C900C6AD9D70650030A0AE1075035
:1000F0000A2606E108500B2203E10CB001D073D0B0
:1001000076D00650040AC9E176D00350F86EF00BA1
:10011000F36E0250F76EAA6E0150F66EA96E05A638
:1001200005D009500126E86A02220322300EF3604E
:1001300001D008D0F350300A01E12AD0F350F00A80
:10014000ACE132D005A405D0F6503F0B02E1940E8D
:1001500067DF05B2A2D7F650070B9FE1080EF46ED9
:10016000EE50F56E69DF0D00F42EFAD7080EF46E2E
:100170000A00ED50F42EFCD7840E52DF080EF46E08
:100180000900F550EE18D8A40C80F42EF9D785D7C5
:10019000EF50F56E51DF0C00C40E42DF0900F55040
:1001A000EE18F42EF5D779D7EF50A86E45DF040E80
:1001B00037DFA66AA680A850EE18D8A40C80A94AFA
:1001C000AA2AF42EF1D769D740B7FED7800E416F27
:1001D000080E426F000E436F040E446F448164A00A
:1001E000449140875AD7010E466F456FEDD7466B55
:1001F000010E456FE9D7020E466F010E456FE4D739
:06080000000075EF06F098
:0408080020EF04F0E9
:0C08100041434533202020009BEF04F002
:10082000A54704000001020A0101000800000000C1
:1008300000000000000000000E00100800002D0164
:100840006FCF0CF06ECF0DF0E9CF05F0EACF06F0D8
:10085000E1CF07F0E2CF08F0080EFA6E0D500E0B54
:10086000F92636D012D034D033D032D002D006D0D0
:100870002FD0A49200EE37F056EF04F0A49018B2F7
:100880003ED000EE37F056EF04F00F0130AB08D049
:100890001E5206E01E2E04D030973F0E31173087CF
:1008A000509F0001609E749E749C13D06F50F10B9A
:1008B0006F6E0D500E0B6F121FEE60F0E650EE6E75
:1008C0006E0EE162FBD73CBC12D03C5201E01880B6
:1008D000609EA46A6F50F10B0C106F6E05C0E9FFAB
:1008E00006C0EAFF07C0E1FF08C0E2FF110018B22E
:1008F000EFD70F0120B7FED720870001E9D7656643
:10090000E7D76138E832780B206E6238E842070B8F
:100910002010176E10EE65F0626B6281080E17648E
:1009200003D0175EE12AFBD7174E02D06247FCD7EF
:100930006251E712CDD7100024B224D024A404D0F1
:10094000F2A402D0817EF294300E8114206E203801
:10095000010F226201D008D0226E146E57EC07F00E
:1009600032EC0BF09BEC0BF080BA06D026A017D02F
:100970002690CBEC09F013D026B011D02680CBEC1A
:1009800009F00DD0F2A40BD018A401D0817CF29410
:1009900018A605D01F2E03D00A0E1F6E520E80B867
:1009A00078D0640E196E1A6A1B6A1B2ED5EF04F0FC
:1009B00018A404D0F2A402D0817CF2941A2ED5EFB0
:1009C00004F080B847D0192ED5EF04F024A266D0E9
:1009D000186A819C818EF26A010E176E010EA96E53
:1009E000000EBEEC07F0510E70EC07F0136A146AAB
:1009F00080A8FED7DAEC07F080A8FAD7020EA96E1D
:100A0000000EBEEC07F0A92A000EBEEC07F024A2EF
:100A100014D0010EA96E000EBEEC07F0186A2492E5
:100A2000819C818E226A256A266A80BA2680CBEC58
:100A300009F0C00EF26E9CEF04F0010EA96E010EDB
:100A4000BEEC07F024825FEC0AF018926DEC07F020
:100A5000188427D024B208D024A404D02494249647
:100A6000818E1FD024841DD018A40CD01894818CA2
:100A7000520E70EC07F0010EA96E080E186EBEEC57
:100A800007F007D018845FEC0AF018926DEC07F0BD
:100A900008D018A206D0189218844ED71882819ECA
:100AA000A7D718B01AD017D145EF06F02BEF06F0F4
:100AB00031EF06F024A24AEF06F063D05DEF06F0B6
:100AC0003AEF06F018A45DD0FFEC09F05AD01350AD
:100AD0001424D8A44FEC0AF054D0900E3D5CEAE008
:100AE000910E3D5CE7E0980E3D5CE4E0990E3D5CC4
:100AF000E1E05C0E3D5C34E0730E3D5C3BE00D0ECE
:100B00003D5CE5E024A23DD0420E3D5C4AE0100E83
:100B10003D5CCAE0110E3D5CD5E0530E3D5CC6E085
:100B2000540E3D5CC5E0720E3D5CC8E0960E3D5C27
:100B300061E0710E3D5C73E0F50E3D5C0EE0550E1C
:100B40003D5CBEE05D0E3D5C06E0750E3D5C01E087
:100B500018D0C4EF05F0EBEF05F039EF06F011D037
:100B6000E1EC09F00008FBE1FF0EA96EFF0EBEEC00
:100B700007F0FF00E1EC09F00008F1E115EC0AF0E4
:100B800000D018909CEF04F0E1EC09F00008E7E1D8
:100B900040C017F095EC0AF0520E70EC07F0C1EF70
:100BA00005F018A4EED723EC07F0189418860A0E67
:100BB0001F6E520E70EC07F0DBEC09F0CBEC09F085
:100BC000818CDFD718A4DDD7500E4B6E030E236E39
:100BD00018EC07F0D6D7E1EC09F0000809E15FEC6A
:100BE0000AF0520E70EC07F0080E186EC1EF05F017
:100BF000AFEF05F0E1EC09F00008B1E1405028E06A
:100C00004050010825E6040E4024A96EA906415073
:100C1000BEEC07F0CBEC09F0DBEC09F0B2D7E1EC6D
:100C200009F000089CE1405013E04050010810E634
:100C3000040E4024A96EA906B9EC07F04F6E40C01F
:100C40004EF0970E4B6E050E236E18EC07F099D7F9
:100C50004E6A4F6AF6D7E1EC09F0000880E124887B
:100C600090D724A28ED7E1EC09F00008C1E12498C6
:100C700088D719D0E1EC09F00008BAE124A881D79F
:100C800032EC0BF09BEC0BF07CD718A47AD7E9EC94
:100C900009F077D70C0E245C1AE1B2EC0AF0249626
:100CA0002494818E14D024A812D042C05DF05D0639
:100CB000B2EC0AF09BEC0BF00AD0E1EC09F0000872
:100CC00006E181EC0BF003D01898819C189C1890D9
:100CD000FA6AC1EF05F024A204D018A604D018B413
:100CE00002D0E1EC07F09CEF04F0F26AC26A0F0E4A
:100CF000C16E300E926E380E936E8184819C819EFF
:100D0000FF0E946ED08EE06AA66A1E6A776A6F8EB6
:100D1000030E706E9E0E716E030E726E200E736E59
:100D2000240E606E0F01200E506F016B056B0001E9
:100D30000FEE18F0EE6A200EE962FCD76F6ABD6A0A
:100D4000840ED56E456A230EA56E9F6AA26AA06ABC
:100D50009E6AA16A010E176EF16AF06A230EA36EF5
:100D6000DBEC09F0266A80BA2680CBEC09F0246A15
:100D7000010EA96EB9EC07F0186E000801E111D060
:100D800024827AEC07F00F01509F0001609E749E50
:100D9000749CA46AC00EF26E819E818C18909CEFA8
:100DA00004F0300E8114206E2038030B010F226EE8
:100DB000136A146E030EA96EB9EC07F0145C05E01B
:100DC0001450BEEC07F032EC0BF024902492145037
:100DD00057EC07F0060EA96EB9EC07F0000804E125
:100DE00032EC0BF09BEC0BF00F01509F0001609E6A
:100DF000749E749CA46AC00EF26E819C818E9CEFDE
:100E000004F000EE45F01FEE30F00F0130B7FED7D2
:100E10000001EE50E66E530EE962FBD70F0130B7CA
:100E2000FED730870001120013C04CF014C04DF003
:100E300023504A6E0F0E4616B00E46120A0E1E6E54
:100E400001EC07F012003EC013F03FC014F0020E98
:100E5000A96EB9EC07F0135C06E1A92AB9EC07F01A
:100E6000145C01E10DD0020EA96E3E50BEEC07F0FD
:100E7000A92A3F50BEEC07F032EC0BF09BEC0BF0D4
:100E8000010EA96E080EBEEC07F01200020EA96E4C
:100E900022C014F01350BEEC07F0A92A1450BEEC87
:100EA00007F0000EA96E1450BEEC07F01200106E91
:100EB0009DEC07F0F00E4616115046121250476E88
:100EC0000F0120B7FED7216B1150216F1250226FF6
:100ED000B00E2113256B0001120024A21200500E47
:100EE0004B6E13C04CF014C04DF0030E236E18EC83
:100EF00007F01200000EA96EA680A850106E9DEC9F
:100F000007F0F00E4616115046121250476E020EB0
:100F1000A96EB9EC07F0136EA92AB9EC07F0146EAC
:100F20000F0120B7FED7216B1150216F1250226F95
:100F3000B00E2113256B000112001050126E123AF0
:100F40001244E00B126E1050116E1142114211400A
:100F50001F0B116E120039C012F0123A1240070B2B
:100F6000126E38C011F0114611461144780B121060
:100F70001200A69EA69CA680A8501200A86EA69E4F
:100F8000A69CA684F2CF0EF0F26A550EA76EAA0EAA
:100F9000A76EA682A6B2FED7A198A6940EC0F2FFB5
:100FA00012000A0E1D6E1C6A1C2ED4EF07F01D2EB7
:100FB000FAD71200640E1B6ED1EC07F01B2EFCD783
:100FC0001200556A0F0E55165550806ED1EC07F081
:100FD0008250586E00EE27F05550E926EF50566EBD
:100FE00024B203D026B066D009D0010E255C62E0A1
:100FF000040E255C5FE0050E255C5CE05650581839
:1010000004E1552A55A8DED712005A6E25A203D056
:101010000F0E5A144FE05B6A5D6A5A3202E25B2A95
:10102000FCD755505D6E5D465D445B245D6E030EDE
:101030005B6402D03C0E5D265F6A5F805B2A5B4E7C
:1010400002D05F46FCD75F5058145E8004E05F50CA
:101050005610EF6E04D05E905F1C5614FAD724A48D
:1010600002D02486120069EC0BF024B8C1EF09F01D
:101070004C5210E14D520EE15EB003D0980E4B6E13
:1010800002D0990E4B6E050E236E13C04CF014C0A7
:101090004DF007D05EB002D0900E01D0910E4B6E95
:1010A000F2D70F0E4616B00E46120A0E1E6E18EC40
:1010B00007F088D725B20AD15850565CA2E05828CC
:1010C00005E1FF0EEF6E9DD7F6EF08F0562899E187
:1010D000581E050E255CF8E058320EE2583215E233
:1010E00058321CE2583224E258322CE2583237E2AD
:1010F000583242E258324EE256A083D756905650AC
:10110000EF6E5E6A55445D6EAAD756A27AD75692A4
:101110005650EF6E5E8055445D6EA1D756A471D7D0
:1011200056945650EF6E5E6A55445D6E5D2A97D7B1
:1011300056A667D756965650EF6E5E8055445D6E44
:101140005D2A8DD756A85DD756985650EF6E040E7F
:10115000255C2EE05E6A5544200F5D6E80D756AA4E
:1011600050D7569A5650EF6E040E255C27E05E80ED
:101170005544200F5D6E73D756AC43D7569C5650DE
:10118000EF6E040E255C21E05E6A5544200F5D6E13
:101190005D2A65D756AE35D7569E5650EF6E040E73
:1011A000255C1BE05E805544200F5D6E5D2A57D79D
:1011B0005544E846200F5D6E5E6A51D75544E846B7
:1011C000200F5D6E5D2A5E6A4AD75544E846200FBF
:1011D0005D6E5D2A5D2A5E6A42D75544E846200F5F
:1011E0005D6E5D2A5D2A5D2A5E6A39D758320EE24D
:1011F000583216E258321FE2583229E2583234E2AD
:1012000058323DE2583247E2583252E256A0F9D6FF
:1012100056905650EF6E5E6A5544E8465D6E1FD795
:1012200056A2EFD656925650EF6E5E905544E84661
:101230005D6E5D2A14D756A4E4D656945650EF6ED0
:101240005E6A5544E8465D6E5D2A5D2A08D756A65B
:10125000D8D656965650EF6E5E905544E8465D6E71
:101260005D2A5D2A5D2AFBD656A8CBD656985650E5
:10127000EF6E5E6A5544E846400F5D6EF0D656AAA2
:10128000C0D6569A5650EF6E5E905544E846400FD1
:101290005D6E5D2AE4D656ACB4D6569C5650EF6EC1
:1012A0005E6A5544E846400F5D6E5D2A5D2AD7D6DA
:1012B00056AEA7D6569E5650EF6E5E905544E84601
:1012C000400F5D6E5D2A5D2A5D2AC9D658C059F06F
:1012D00056C057F00F0E571259125950575C4FE035
:1012E000592803E1F00EEF124AD0572848E1591E61
:1012F000593A593206E2593211E259321FE2593253
:101300002DE256A87ED656985650EF6E5E6A554628
:10131000555025B05544400F5D6EA1D656AA71D6E2
:10132000569A5650EF6E25A05E805546555025B012
:101330005544400F5D6E25B05D2A91D656AC61D6FE
:10134000569C5650EF6E5E6A5546555025B0554432
:10135000400F25B0010F5D6E5D2A81D656AE51D685
:10136000569E5650EF6E25A05E805546555025B0CE
:101370005544400F25B0020F5D6E5D2A70D601EF17
:1013800008F0B00E4B6E5D425D9E5DC050F0502A7D
:10139000060E236E86D6556A00EE27F00F0E551600
:1013A0005550806ED1EC07F0555082CFEBFF552A97
:1013B00055A8F4D71200040EA96EB9EC07F0256EFB
:1013C000120013503E5C04E114503F5C01E1000C3C
:1013D000010CEF0E4B6E200EF66E080EF76E00EE4F
:1013E0004CF0070E196EA68E0900F5CFEEFF192EF0
:1013F000FBD7A69E080E236E18EC07F01200E20E33
:101400004B6E100EF66E080EF76E00EE4CF0070EE7
:10141000196EA68E0900F5CFEEFF192EFBD7A69EFA
:10142000080E236E18EC07F012004050000821E06F
:101430000E0E40C020F02006206026D09B0E4B6E82
:10144000070E206204D048EC0AF04F6E0BD0200E3D
:10145000F66E080EF76EF86A4004F626A68E0800AF
:10146000F5CF4FF040C04EF0050E236E14EC07F0A0
:1014700012009B0E4B6E0E0E4F6E40C04EF0050ECE
:10148000236E14EC07F012000A0EAAEC0AF0120008
:10149000020E24B20409206E208620501200DAECDD
:1014A00007F0B60E4B6EA50E4E6E040E4F6E48EC56
:1014B0000AF0506E060E236E14EC07F01200E1CF16
:1014C00063F0E2CF64F0C00EF26E1882456A0E0E31
:1014D000196E00EE65F0EE6A192EFDD7BF0E466E4E
:1014E000E00E476E400E236E3C0EB36EAF0EB26E32
:1014F000B10EB16E0A0E1E6E18EC07F04A6AA1A278
:10150000FED7B190A192176A172A626B628110EE22
:1015100065F0E72804E1080E1726E12AFAD76251A0
:10152000E71403E06237172AFAD7640E17600CD06D
:10153000000EA96E1750BEEC07F07AEC07F063C0FE
:10154000E1FF64C0E2FF1200070EAAEC0AF0176880
:10155000179EEED74E6E6F0E4B6E040E236E18EC78
:1015600007F012005DC07AF07B6B7A47D8907A372B
:101570007B37C00E7A15F66E7B51200FF76E400E4A
:10158000736F21EE00F0F86A0900F550DE6E732FDC
:10159000FBD721EE00F07A513F0BD926DE503E5C9E
:1015A00018E1DE503F5C15E1DE50405C12E1DE5098
:1015B000415C0FE124B20DD021EE00F07A513F0BD7
:1015C000D92613C0DEFF14C0DEFFDE6A5D28DE6EA2
:1015D0000DD021EE00F07A513F0BD9263EC0DEFF40
:1015E0003FC0DEFF40C0DEFF41C0DEFF00EC0BF07D
:1015F0007A51F66E7B51200FF76E13EC0BF0120050
:101600007A51F66E7B51200FF76EA68EA69CA684AB
:10161000A688F26A550EA76EAA0EA76EA682A6B27B
:10162000C00EF26E1200C00EF6160A0021EE00F097
:10163000080E736F080E746FDE50F56E0F00742F76
:10164000FBD7A68EA69CA698A684F26A550EA76E16
:10165000AA0EA76EA682A6B2FED7732FEBD7C00E36
:10166000F26E12007A6B7B6B100E196EF86A200E08
:10167000F76EF66A0A0000EC0BF0192E24D01A6AF5
:101680001A2A080E1B6EF86A200EF76EF66A0A0018
:1016900021EE00F0100E196E13C0DEFF14C0DEFF45
:1016A000DE6A1AC0DEFF1A2A192EF6D721EE00F0E4
:1016B00018EC0BF01B2EECD70000060EA96E010EE5
:1016C000BEEC07F01200400ED8907A27D4E37B2BB3
:1016D000D2D7F86A200EF76E5D36D8905D3401E3FC
:1016E000F72AFC0BF66E0900F5504C6E0900F55018
:1016F0004D6E0900F5504E6E0900F5504F6E00001A
:10170000120040C05DF05D0669EC0BF0F20E4B6E0E
:1017100040C052F04FC051F04EC050F04DC04FF09D
:101720004CC04EF014C04DF013C04CF0080E236EA8
:1017300018EC07F01200590E4B6E13C04CF014C099
:0C1740004DF0030E236E18EC07F01200B1
:020000040030CA
:0300010006061ED2
:020005008081F8
:060008000FC00FE00F40E5
:0200000400F00A
:080000007F0000000000000079
:0200FE00000000
:00000001FF
