:020000040000FA
:040000001FD00ED02F
:0400080004EF04F00D
:040018000CEF04F0F5
:10002000A66E05A01200550EA76EAA0EA76EA68298
:100030000000A6B2FED712000A26D8B00B2A120082
:10004000A66AA968AA68A680A83C00EF04F0066A20
:100050001C0E056E0F019394000E006F080E016FC9
:10006000E81E056F000E026F070E036FFF0E186F7C
:10007000EB0E196FFF0E1A6FF80E1B6F030E706EEA
:100080009E0E716E030E726E200E736E6F6A0E0EF0
:10009000C16E939E939C818E818C609E040060AEA5
:1000A000FDD70FEE66F065500F0B096EF46EF5E0AC
:1000B00064B02BD010EE01F0EECFE6FFF42EFCD7AB
:1000C0000650EBE0010AD8A407D0A968AA68A86A7C
:1000D000040EA6DF819CFF000650020A05E10B6AB0
:1000E0000A6A0C900C6AD9D70650030A0AE1075035
:1000F0000A2606E108500B2203E10CB001D073D0B0
:1001000076D00650040AC9E176D00350F86EF00BA1
:10011000F36E0250F76EAA6E0150F66EA96E05A638
:1001200005D009500126E86A02220322300EF3604E
:1001300001D008D0F350300A01E12AD0F350F00A80
:10014000ACE132D005A405D0F6503F0B02E1940E8D
:1001500067DF05B2A2D7F650070B9FE1080EF46ED9
:10016000EE50F56E69DF0D00F42EFAD7080EF46E2E
:100170000A00ED50F42EFCD7840E52DF080EF46E08
:100180000900F550EE18D8A40C80F42EF9D785D7C5
:10019000EF50F56E51DF0C00C40E42DF0900F55040
:1001A000EE18F42EF5D779D7EF50A86E45DF040E80
:1001B00037DFA66AA680A850EE18D8A40C80A94AFA
:1001C000AA2AF42EF1D769D740B7FED7800E416F27
:1001D000080E426F000E436F040E446F448164A00A
:1001E000449140875AD7010E466F456FEDD7466B55
:1001F000010E456FE9D7020E466F010E456FE4D739
:06080000000093EF06F07A
:0408080020EF04F0E9
:0C081000414345334320200022EF08F054
:10082000A5611E000009030B010100080000000083
:10083000000000000000000014001008000071011A
:100840006FCF0CF06ECF0DF0E9CF05F0EACF06F0D8
:10085000E1CF07F0E2CF08F0080EFA6E0D500E0B54
:10086000F92638D012D036D035D034D002D006D0C8
:1008700031D0A49200EE42F056EF04F0A49018B2EA
:1008800040D000EE42F056EF04F00F0130AB08D03C
:100890001E5206E01E2E04D030973F0E31173087CF
:1008A000509F0001609E749E749C15D06F50F10B98
:1008B0006F6E0D500E0B6F121FEE60F0E650EE6E75
:1008C0006E0EE162FBD747BC14D0475203E018809C
:1008D00026A200D0609EA46A6F50F10B0C106F6EC0
:1008E00005C0E9FF06C0EAFF07C0E1FF08C0E2FF5C
:1008F000110018B2EFD70F0120B7FED720870001F3
:10090000E9D76566E7D76138E832780B236E62383D
:10091000E842070B2310176E10EE6AF0206A208061
:10092000080E176403D0175EE12AFBD7174E02D0DA
:100930002046FCD72050E712CDD726B22ED026A4D1
:1009400004D0F2A402D0817EF294300E8114236E82
:100950002338010F246201D008D0246E146E7FEC7E
:1009600007F011EC0BF07DEC0BF080BA0AD027A059
:1009700027D027900AEC09F010EC08F021EC09F0E0
:100980001FD027B01DD027800AEC09F010EC08F02A
:1009900021EC09F011EC0BF013D018AE04D042ECAE
:1009A0000AF0080E186EF2A40BD018A401D0817CB6
:1009B000F29418A605D01F2E03D00A0E1F6E520EF9
:1009C00080B87BD0640E196E1A6A1B6A1B2EE6EF84
:1009D00004F018A404D0F2A402D0817CF2941A2E60
:1009E000E6EF04F080B84AD0192EE6EF04F026A214
:1009F00069D0186A819C818EF26A010E176E010E11
:100A0000A96E000EEDEC07F0510E98EC07F0136A9A
:100A1000146A80A8FED709EC08F080A8FAD7020E65
:100A2000A96E000EEDEC07F0A92A000EEDEC07F020
:100A300026A217D0010EA96E000EEDEC07F0186A81
:100A40002692819C818E246A276A80BA27800AECCC
:100A500009F010EC08F021EC09F0C00EF26E9DEFE9
:100A600004F0010EA96E010EEDEC07F0268243ECB6
:100A70000AF0189295EC07F0188427D026B208D017
:100A800026A404D026942696818E1FD026841DD0BD
:100A900018A40CD01894818C520E98EC07F0010E1B
:100AA000A96E080E186EEDEC07F007D0188443EC21
:100AB0000AF0189295EC07F008D018A206D0189208
:100AC00018843BD71882819EA4D718B01FD020D19C
:100AD00062EF06F048EF06F04EEF06F0496A4A6A08
:100AE00026A267EF06F026A842EC09F063D07AEF61
:100AF00006F057EF06F018A45DD0DAEC09F05AD0F2
:100B000013501424D8A42AEC0AF054D0900E485C58
:100B1000E7E0910E485CE4E0980E485CDFE0990E57
:100B2000485CDCE05C0E485C34E0730E485C3BE003
:100B30000D0E485CE5E026A23DD0420E485C4AE03E
:100B4000100E485CC5E0110E485CD5E0530E485CC1
:100B5000C1E0540E485CC0E0720E485CC8E0960EDE
:100B6000485C61E0710E485C77E0F50E485C0EE091
:100B7000550E485CBEE05D0E485C06E0750E485CB4
:100B800001E018D0DDEF05F004EF06F056EF06F0B7
:100B900011D0BCEC09F00008FBE1FF0EA96EFF0EBE
:100BA000EDEC07F0FF00BCEC09F00008F1E1F0EC1F
:100BB00009F000D018909DEF04F0BCEC09F000089B
:100BC000E7E14BC017F079EC0AF0520E98EC07F011
:100BD000DAEF05F018A4EED74BEC07F0189418865E
:100BE0000A0E1F6E520E98EC07F090EC09F00AEC1A
:100BF00009F0818CDFD718A4DDD7500E566E030E96
:100C0000256E40EC07F0D6D7BCEC09F0000809E1EE
:100C100043EC0AF0520E98EC07F0080E186EDAEF6B
:100C200005F0C8EF05F0BCEC09F00008B1E14B504D
:100C30002CE04B50090829E6060E4B24A96EA906A4
:100C40004C50E6EC07F090EC09F00AEC09F021ECCE
:100C500009F07DEC0BF0AED7BCEC09F0000898E190
:100C60004B5013E04B50090810E6060E4B24A96EBA
:100C7000A906E1EC07F05A6E4BC059F0970E566E7C
:100C8000050E256E40EC07F095D7596A5A6AF6D7DB
:100C9000BCEC09F00008C5E126888CD726A28AD7CB
:100CA000BCEC09F00008BDE1269884D719D0BCEC53
:100CB00009F00008B6E126A87DD711EC0BF07DEC19
:100CC0000BF078D718A476D7C4EC09F073D70C0EC4
:100CD000265C1AE18EEC0AF026962694818E14D0BA
:100CE00026A812D04DC067F067078EEC0AF07DECA5
:100CF0000BF00AD0BCEC09F0000806E163EC0BF045
:100D000003D01898819C189C1890FA6ADAEF05F0C5
:100D100026A204D018A605D018B403D05EB431ECD6
:100D200008F09DEF04F0F26AC26A0F0EC16E300E39
:100D3000926E380E936E8184819C819EFF0E946E1C
:100D4000D08EE06AA66A186A1E6A776A6F8E030EF2
:100D5000706E9E0E716E030E726E200E736E240EF8
:100D6000606E0F01200E506F016B056B00010FEEDE
:100D700018F0EE6A200EE962FCD76F6ABD6A840E35
:100D8000D56E810ECD6EE10ECF6E506A230EA56E2C
:100D90009F6AA26AA06A010E9D6E010E176EF16A2B
:100DA000F06A230EA36E9E6AA16A5E6A276A80BA01
:100DB0002780266A010EA96EE1EC07F0186E000884
:100DC00001E115D02682A2EC07F00F01509F00012F
:100DD000609E749E749CA46AC00EF26E819E818C8B
:100DE000189090EC09F00AEC09F09DEF04F0300E39
:100DF0008114236E2338030B010F246E136A146EC3
:100E0000030EA96EE1EC07F0145C05E01450EDEC64
:100E100007F011EC0BF02690269214507FEC07F0AF
:100E2000140EA96EE1EC07F0000804E111EC0BF0E0
:100E30007DEC0BF00F01509F0001609E749E749C2E
:100E4000A46AC00EF26E819C818E0AEC09F09DEFBF
:100E500004F000EE50F01FEE30F00F0130B7FED777
:100E60000001EE50E66E5E0EE962FBD70F0130B76F
:100E7000FED730870001120013C057F014C058F09D
:100E80002550556E0F0E5116B00E51120A0E1E6EE1
:100E900029EC07F0120049C013F04AC014F0020E0A
:100EA000A96EE1EC07F0135C06E1A92AE1EC07F07A
:100EB000145C01E10DD0020EA96E4950EDEC07F073
:100EC000A92A4A50EDEC07F011EC0BF07DEC0BF089
:100ED000010EA96E080EEDEC07F01200020EA96ECD
:100EE00024C014F01350EDEC07F0A92A1450EDECD7
:100EF00007F0000EA96E1450EDEC07F01200106E12
:100F0000C5EC07F0F00E5116115051121250526EEE
:100F10000F0120B7FED7216B1150216F1250226FA5
:100F2000B00E2113256B0001120026A21200500EF4
:100F3000566E13C057F014C058F0030E256E40ECE7
:100F400007F01200000EA96EA680A850106EC5EC26
:100F500007F0F00E5116115051121250526E020E3F
:100F6000A96EE1EC07F0136EA92AE1EC07F0146E0C
:100F70000F0120B7FED7216B1150216F1250226F45
:100F8000B00E2113256B000112001050126E123AA0
:100F90001244E00B126E1050116E114211421140BA
:100FA0000F0B116E120044C012F0123A1240070BE0
:100FB000126E43C011F0114611461144780B121005
:100FC0001200A69EA69CA680A8501200226EE1ECFC
:100FD00007F0226201D012002250A86EA69EA69CA5
:100FE000A684F2CF0EF0F26A550EA76EAA0EA76E77
:100FF000A682A6B2FED7A198A6940EC0F2FF120058
:101000000A0E1D6E1C6A1C2E03EF08F01D2EFAD767
:101010001200640E1B6E00EC08F01B2EFCD71200B1
:101020005E6A606B26B21200000E27A002D0040E8A
:101030005E82286E296E2A6E2B6E2C6E2D6E2E6EA1
:101040002F6E1200006ED8CF01F0E0CF02F07C0EC0
:10105000CE6E9E6A5E8402C0E0FF005001C0D8FFE1
:1010600010005E948250616F00EE32F060510F0B01
:10107000E926EF50611925E0626F61C0EFFF636BF5
:10108000010E646F623319E35E906151641501E1F2
:101090005E8060510F0BE824E824632563B53C0FA4
:1010A0007F0B676FE838070B656F00EE28F0EBCF1A
:1010B00066F031A0669D85EC08F06447632B63A75A
:1010C000E1D7602B60510F0B806E605101E0120080
:1010D0005F90305015E01F0BE824212A2164120094
:1010E000216B30AC07D0309C5E8081EC08F000ECC6
:1010F00008F06DD030AE03D05E9081EC08F0306A1D
:101100001200810E676FAAEF08F066B51BD066B7B4
:101110000CD066B90AD001EE80F06751E926EF9055
:101120005EB0EF8066AD16D0120066BD12005EA004
:10113000120001EE80F06751E926EF705E90EFB08B
:101140005E8008D066BD12005EA012005E9067A1AE
:101150005E8067915FB0120026A402D0268612003E
:101160005EB2674348EC0BF026B8D8EF08F0575250
:1011700014E1585212E15EA005D066B31200980E39
:10118000566E04D066B11200990E566E050E256E8D
:1011900013C057F014C058F012D05EA004D066B34C
:1011A0001200900E03D066B11200910E566EEED76B
:1011B000B00E566E67C05BF05B2A060E256E0F0EF2
:1011C0005116B00E51120A0E1E6E40EF07F0676BFB
:1011D000675111EE80F0E126E838070B00EE28F0A9
:1011E000E926EFAC02D031B011D0EFB40FD0EFB69A
:1011F0000CD0EFB80AD0EFAA09D05E90E7B05E80BD
:10120000AAEC08F000EC08F001D0E790672B67AF7C
:10121000DFD71200606B00EE32F00F0E60176051E6
:10122000806E602B8250FF0AEE6E60A9F6D7800EAA
:1012300001EE80F0EE6AE82CFDD7606B5E945F8073
:10124000120002EE00F0676BFF0EEE6E672FFDD707
:10125000676B00EE28F0EFB603D0100E67270ED0B4
:1012600048EC0BF059500AE112EE00F05A50E1261A
:1012700067C0E7FF672B67510F0BF2E1E92A67AF01
:10128000EAD712004870800E58EC0BF00900F550B8
:10129000496211D00900F5504A620DD00900F5509D
:1012A0004B6209D00900F5504C6205D048C031F0BE
:1012B00088EC0BF0120048A015D0810E58EC0BF012
:1012C0000900F55049620ED00900F5504A620AD073
:1012D0000900F5504B6206D00900F5504C6202D06F
:1012E000E7EF08F04B521BE102EE00F04C50E9260C
:1012F000EFBE15E1EF5058EC0BF00900F5504962D4
:101300000EE10900F5504A620AE101EE80F06751F2
:10131000E92648B002D0EF901200EF8012001200D0
:10132000060EA96EE1EC07F0286EA92AE1EC07F0A1
:10133000296EA92AE1EC07F02A6EA92AE1EC07F050
:101340002B6EA92AE1EC07F02C6EA92AE1EC07F03C
:101350002D6EA92AE1EC07F02E6EA92AE1EC07F028
:101360002F6EA92AE1EC07F0306E216A8DEC0BF0AC
:1013700010EC08F021EF09F01350495C04E114501F
:101380004A5C01E1000C010CEF0E566E200EF66E69
:10139000080EF76E00EE57F0070E196EA68E0900C4
:1013A000F5CFEEFF192EFBD7A69E080E256E40EC5A
:1013B00007F01200E20E566E100EF66E080EF76E73
:1013C00000EE57F0070E196EA68E0900F5CFEEFF5E
:1013D000192EFBD7A69E080E256E40EC07F01200D2
:1013E0004B50000821E0140E4BC023F0230623606D
:1013F00026D09B0E566E070E236204D023EC0AF013
:101400005A6E0BD0200EF66E080EF76EF86A4B047B
:10141000F626A68E0800F5CF5AF04BC059F0050EFF
:10142000256E3CEC07F012009B0E566E140E5A6EA1
:101430004BC059F0050E256E3CEC07F012000A0E69
:101440003AEC0AF01200020E26B20409236E23863B
:101450002350120009EC08F0B60E566EA50E596E18
:101460001E0E5A6E23EC0AF05B6E060E256E3CECE7
:1014700007F01200596E6F0E566E040E256E40EC8A
:1014800007F01200189EE1CF68F0E2CF69F0C00EBD
:10149000F26E1882506A0E0E196E00EE6AF0EE6A55
:1014A000192EFDD7BF0E516EE00E526E400E256E06
:1014B0003C0EB36EAF0EB26EB10EB16E0A0E1E6E62
:1014C00040EC07F0556AA1A2FED7B190A192176A2D
:1014D000172A206A208010EE6AF0E72804E1080E3F
:1014E0001726E12AFAD72050E71403E02036172AFE
:1014F000FAD7640E17600CD0000EA96E1750EDECF1
:1015000007F0A2EC07F068C0E1FF69C0E2FF12003B
:10151000070E3AEC0AF01768179EEED767C07FF007
:10152000806BD8907F3780377F378037C00E7F152C
:10153000F66E8051200FF76E400E786F21EE00F0AE
:10154000F86A0900F550DE6E782FFBD721EE00F027
:101550007F513F0BD926DE50495C18E1DE504A5CD2
:1015600015E1DE504B5C12E1DE504C5C0FE126B21F
:101570000DD021EE00F07F513F0BD92613C0DEFFC6
:1015800014C0DEFFDE6A6729DE6E0DD021EE00F0AA
:101590007F513F0BD92649C0DEFF4AC0DEFF4BC05A
:1015A000DEFF4CC0DEFFDEEC0AF07F51F66E8051AC
:1015B000200FF76EF2EC0AF021EF09F07F51F66E82
:1015C0008051200FF76EA68EA69CA684A688F26A8C
:1015D000550EA76EAA0EA76EA682A6B2FED7C00EA3
:1015E000F26E1200C00EF6160A0021EE00F0080E90
:1015F000786F080E796FDE50F56E0F00792FFBD7EC
:10160000A68EA69CA698A684F26A550EA76EAA0E70
:10161000A76EA682A6B2FED7782FEBD7C00EF26EC9
:1016200012007F6B806B100E196EF86A200EF76E39
:10163000F66A0A00DEEC0AF0194E06D0400ED89089
:101640007F27F8E3802BF6D71A6A1A2A100E1B6E32
:10165000F86A200EF76EF66A0A0021EE00F0100E0E
:10166000196E13C0DEFF14C0DEFFDE6A1AC0DEFF93
:101670001A2A192EF6D7F5EC0AF01B2EEED7000029
:10168000140EA96E010EEDEC07F0316A88EF0BF035
:10169000675158EC0BF00900F550576E0900F550F2
:1016A000586E0900F550596E0900F5505A6E120037
:1016B000F86AF76AF66ED890F636F736F636F736E9
:1016C000200EF72612004BC067F0670748EC0BF0BE
:1016D000F20E566E4BC05DF05AC05CF059C05BF024
:1016E00058C05AF057C059F014C058F013C057F002
:1016F000080E256E40EC07F01200590E566E13C00E
:1017000057F014C058F0030E256E40EC07F012009D
:10171000120EA96E3150E6EF07F0120EA96EE1EC41
:0617200007F0316E12001B
:020000040030CA
:0300010006061ED2
:020005008081F8
:060008000FC00FE00F40E5
:0200000400F00A
:100000007F000000AAAA000000000000000000001D
:06001000000000000000EA
:0200FE00000000
:00000001FF
