:020000040000FA
:040000001FD00ED02F
:0400080004EF04F00D
:040018000CEF04F0F5
:100020007F6E05A01200550E7E6EAA0E7E6E7F8238
:1000300000007FB2FED712000A26D8B00B2A1200A9
:100040007F6A746875687F800000733C00EF04F07D
:10005000066A1C0E056E0E01949C000EE06F080EE1
:10006000E16FE81EE56F000EE26F070EE36FFF0E13
:10007000F86FEB0EF96FFF0EFA6FF80EFB6F030EC1
:10008000436F9E0E446F030E456F0F015D6B5C6BFB
:10009000200E706E6F6A9490949282808282609E2D
:1000A000040060AEFDD70FEE66F065500F0B096ED1
:1000B000F46EF5E064B02BD010EE01F0EECFE6FF69
:1000C000F42EFCD70650EBE0010AD8A407D07468E0
:1000D0007568736A040EA4DF8292FF000650020A5C
:1000E00005E10B6A0A6A0C900C6AD9D70650030A1C
:1000F0000AE107500A2606E108500B2203E10CB082
:1001000001D074D077D00650040AC9E177D00350EB
:10011000F86EF00BF36E0250F76E756E0150F66ECE
:10012000746E05A605D009500126E86A0222032252
:10013000300EF36001D008D0F350300A01E12AD02C
:10014000F350F00AACE132D005A405D0F6503F0BD5
:1001500002E1940E65DF05B2A2D7F650070B9FE1CE
:10016000080EF46EEE50F56E67DF0D00F42EFAD730
:10017000080EF46E0A00ED50F42EFCD7840E50DF0A
:10018000080EF46E0900F550EE18D8A40C80F42E79
:10019000F9D785D7EF50F56E4FDF0C00C40E40DF66
:1001A0000900F550EE18F42EF5D779D7EF50736E9D
:1001B00043DF040E35DF7F6A7F8000007350EE1846
:1001C000D8A40C80744A752AF42EF0D768D720B7CB
:1001D000FED7800E216F080E226F000E236F040ED3
:1001E000246F248164A02491208759D7010E266FA3
:1001F000256FEDD7266B010E256FE9D7020E266F0E
:06020000010E256FE4D79A
:060800000000B9EF07F053
:0408080020EF04F0E9
:0C08100050414E202020200000EF05F099
:10082000A5591D800D01010B0D01000800000000FD
:100830000000010000000000140010080000F80192
:10084000D9CF09F0DACF0AF0E1CF07F0E2CF08F014
:10085000E9CF05F0EACF06F0A192B26A1BA230D030
:10086000782F2ED0779F76AF16D020EE6AF010EE5C
:1008700072F0040E246EE61CDE16242EFCD720EE49
:100880006AF010EE6EF0040E246EE650DE12242E96
:10089000FCD7767F15D020EE6AF010EE6EF0040ED5
:1008A000246EE61CDE16242EFCD720EE6AF010EE35
:1008B00072F0040E246EE650DE12242EFCD7767FF2
:1008C0002B28030B2B6E20EE6AF0D9268284C950A8
:1008D000DF50C96E9EA6FED79E96828882982C46CF
:1008E0002C50F00B816E0000829409C0D9FF0AC021
:1008F000DAFF07C0E1FF08C0E2FF05C0E9FF06C05C
:04090000EAFF1100F9
:100A000010001BBA1FD01BBC11D01BAE0AD0F2A421
:100A100008D0DDEC0FF0E85004E11B9E1B9AD59E38
:100A20001C901CB029D071BE11D026D0F2A4F9D7E9
:100A3000F294D59E1B9C1B8E1B9AD76AD66A810E98
:100A4000D56EDFD7200E256E4A6AF5D76F500F0B93
:100A50000B6E7250F00B0B10726E62B60CD065AC60
:100A600003D0B9EC10F007D0655201E104D01C802E
:100A7000ECEC0CF001D0609E1BB201D011D09EA016
:100A80000FD09E901CA405D0792F0AD08272040E3C
:100A9000796F1CA605D0262E03D00A0E266E520EA4
:100AA00080B678D0640E1D6E1E6A1F6A040E796FC0
:100AB0001F2E58EF05F01CA408D09EA006D0792F59
:100AC00004D08272040E796F9E901E2E58EF05F0AE
:100AD00080B647D01D2E58EF05F01BA265D01C6ACA
:100AE00082928280F26A010E1A6E010E746E000EFE
:100AF00038EC0CF0510E0CEC0CF0166A176A80A65C
:100B0000FED707EC0DF080A6FAD7020E746E000E29
:100B100038EC0CF0742A000E38EC0CF01BA20DD04F
:100B2000010E746E000E38EC0CF01C6A1B9282925F
:100B30008280C00EF26E01EF05F0010E746E010EA0
:100B400038EC0CF01B82C00EF26E57EC10F01C92C9
:100B50000BEC0CF01C84010E746E040E38EC0CF0DF
:100B600026D01BA24ED71CA64CD71CA40CD01C947C
:100B70008282520E0CEC0CF0010E746E080E1C6E8C
:100B800038EC0CF007D01C8457EC10F01C920BECE6
:100B90000CF00DD01CA20BD01C841C92010E746EA4
:100BA000040E38EC0CF003D01C828290A8D71CA055
:100BB00001D04ED01CA625D7C00EF26E502E21D7E4
:100BC00066EC0DF0E86601D01CD71CA81AD7B30E4E
:100BD000586E4A50E89E5D6E5D2A5C6A060E326E63
:100BE0004BEC0CF0E6D01CA8E4D01C8A50D11CA819
:100BF000E0D0665102E00E0E666129D11C8C47D10F
:100C00005AEC0CF0000805E1A8EC0BF000D0D9EF8D
:100C100006F015EF07F02AEF07F01CA4CAD062EC2B
:100C20000CF0C7D01CA4C5D078EC0CF0C2D0165084
:100C30001724D8A4C8EC0CF0BCD05AEC0CF0000877
:100C4000E8E169CF68F06ACF66F06DEC0BF0B1D0E7
:100C5000900E665CE0E0910E665CDDE0920E665CF4
:100C6000DAE0980E665CD7E0990E665CD4E09A0EE6
:100C7000665CD1E05C0E665C60E05D0E665C49E03F
:100C8000730E665C6CE0750E665C51E0420E665C4D
:100C90002EE00D0E665CCBE0100E665CBEE0110E21
:100CA000665CC0E0530E665C7EE0540E665C74E0E9
:100CB000550E665C28E0560E665C1BE0D20E665C44
:100CC0001AE09C0E665C1BE0950E665C8CE0B20E32
:100CD000665C8DE0960E8B5D18E0710E8B5D17E003
:100CE000570E665C28E0580E665C0BE062D0DDEFC4
:100CF00006F007EF07F019EF07F0D9EF06F01DEF48
:100D000006F000EF06F009EF07F0C5EF06F0BEEFC2
:100D100006F05AEC0CF000080CE157EC10F0520E03
:100D20000CEC0CF0609E080E1C6ED9EF06F0F1EF93
:100D300006F015EF07F032EF07F01BA20CD05AECCB
:100D40000CF00008F6E1FF0E746E3F0E756EFF0E9C
:100D500038EC0CF0FF0067506824EBE1F4D71BA2DD
:100D600007D05AEC0CF00008E4E18EEC0CF021D036
:100D700067506824DEE18EEC0CF01BD05AEC0CF0CE
:100D80000008D7E13BEC10F014D05AEC0CF000084E
:100D9000D0E14BEC10F00DD05AEC0CF00008C9E19A
:100DA0001C981C9A06D05AEC0CF000083EE11C88F6
:100DB00000D0609E1C9001EF05F01CA4FAD7D7EC80
:100DC0000BF0010E746E080E38EC0CF01C921C94A3
:100DD0001C860A0E266E520E0CEC0CF0828282905B
:100DE000E8D75AEC0CF0000820E169CF1AF0A3EC28
:100DF00010F0520E0CEC0CF0D9EF06F01CA4D9D771
:100E0000500E586E030E326E4BEC0CF0D2D739EF09
:100E100007F05AEC0CF0000808E11CA807D0F8EC29
:100E20000FF0590E0CEC0CF0BCD7C3D7020ED8EF64
:100E30000CF01CA8BED766510AE00E0E666107D002
:100E400026D06EEC0EF0590E0CEC0CF0B2D7060E5C
:100E5000D8EF0CF01BA2ADD7D2EC0EF0AAD7030E40
:100E6000D8EF0CF05AEC0CF00008DFE1E4EC0AF0EB
:100E7000A0D75AEC0CF0000803E19CEC0BF099D7DA
:100E800015EF07F0010EE4EC0CF0D9EF06F01BA211
:100E9000D9EF06F020EC0AF0000810E01CBC0AD0E4
:100EA0001CBA5ED0660773EC08F000082DE0040E53
:100EB000E0EF0CF0050EE0EF0CF052D01CBC38D087
:100EC0001CAA0CD0EFEC09F0EF5202E02AEC0DF076
:100ED000F5EC08F0590E0CEC0CF042D0665101E133
:100EE0001CD0660773EC08F0000803E0040EE0EF86
:100EF0000CF020EC0AF0EFEC09F0EF5205E0020EE6
:100F0000665D02E10EEC0DF02CD0F5EC08F0590E08
:100F10000CEC0CF04ED7666705D0060EE4EC0CF036
:100F2000D9EF06F00E0E6661F8D7BCEC0AF041D797
:100F3000EFEC09F066C05DF05D2A6651EBCF5EF024
:100F4000D30E586E8CC059F08DC05AF08EC05BF035
:100F50008FC05CF0070E326E4FEC0CF001D01C9885
:100F60001C9C609E1C90FA6AD9EF06F0060EE0EF1A
:100F70000CF00F015D6B5C6B5F6B5E6BF16AF18E69
:100F80005B6B00018B68800E946E00EE00F0EE6AE1
:100F9000E966FDD7F26A080E926EF00E8A6E0F0EA9
:100FA000936E82908292828C2A0EC66EC78C2B6AB8
:100FB000EE0E2C6ED08EE06A7F6A1C6A276A6F8EF6
:100FC000B00E726E728A72500E6E0E017D6B606A88
:100FD000306B806B906BA06BB06BC06BD06B030EF3
:100FE000436F9E0E446F030E456F0001200E706E1E
:100FF0000EEEF8F0EE6AE962FDD76F6ABB6A000E8A
:10100000786E9F6AA26AA06A310ECD6E000ECF6E16
:10101000A082A282230EB16EF80EB36EB26A526A3B
:1010200041684268436844684D6A4F6A4DC089FF11
:10103000506A010E1A6EF06AB06A9E6A609E719ED6
:10104000719C776A756A1B6A010E746E32EC0CF043
:101050001C6E080805E0000E1C6E38EC0CF039D050
:101060006DEC09F047EC0DF01B82746AEAEC0BF0B2
:101070001CB404D0B180010E766F776F82901CA4EF
:101080008282609E1C90920E746E32EC0CF0196E8F
:10109000195015E0E8B01BD0E8A219D0200E256E3B
:1010A0004A6A700E4A24746E32EC0CF0E8AE03D03B
:1010B000E89C38EC0CF04A2A252EF3D703D0200EFA
:1010C000256E4A6A1B8CD76AD66A850ED56E01EFEB
:1010D00005F01B92166A176AF8EC0FF069698292A4
:1010E000828001EF05F000D01CBA000C20EC0AF061
:1010F00000080FE1EFEC09F03FB000D0665167C087
:10110000EBFF8DEC0AF03FB0000C590E0CEC0CF02C
:10111000000C756A040E746E32EC0CF0000801E1EC
:10112000010C756A060E746E32EC0CF0336E070E0D
:10113000746E32EC0CF0346E396601D00DD0E7ECF1
:1011400009F03A50B4EC0AF0060EE92633C0EEFF7F
:1011500034C0EEFF87EC0AF0EFEC09F03450B4EC49
:101160000AF0040EE926756A060E746EEE5038EC2D
:101170000CF0070E746EEE5038EC0CF03BC074FFB0
:10118000335038EC0CF0742A345038EC0CF03450F6
:10119000B4EC0AF08CC0EEFF8DC0EEFF8EC0EEFF07
:1011A0008FC0EEFF39C0EEFF3AC0EEFFEE6AEE6A86
:1011B000180E216E000EEB6AE82A212EFCD73C5057
:1011C000500F746E32EC0CF0E82A38EC0CF0050E7F
:1011D000746E32EC0CF0010F38EC0CF0740632EC4B
:1011E0000CF0E80638EC0CF087D720EC0AF0000889
:1011F00001E01200756A060E746E32EC0CF03D6E62
:10120000070E746E32EC0CF03E6EEFEC09F03450C9
:10121000B4EC0AF0040EE926EFCF37F03DC0EEFF44
:10122000EFCF38F03EC0EEFFEFCF35F0EE6AEFCFF4
:1012300036F0EE6A060E746E335038EC0CF0070E82
:10124000746E345038EC0CF08DEC0AF0356601D039
:1012500011D035C033F036C034F0EFEC09F0345023
:10126000B4EC0AF0040EE92637C0EEFF38C0EEFFFA
:101270008DEC0AF03BC074FF375038EC0CF0742A48
:10128000385038EC0CF0376601D011D037C033F04D
:1012900038C034F0EFEC09F03450B4EC0AF0060E2C
:1012A000E92635C0EEFF36C0EEFF8DEC0AF03C506B
:1012B000500F746E32EC0CF0E80638EC0CF0050EB2
:1012C000746E32EC0CF0E80638EC0CF0740632EC7C
:1012D0000CF0010F38EC0CF012003F6A756A060E34
:1012E000746E32EC0CF02F6E742A32EC0CF02F126C
:1012F0002F6612007DEC09F01200756A050E746EFF
:10130000000E38EC0CF0800E740638EC0CF0400E39
:101310001D6E100E746E000E38EC0CF0742A1D2E2B
:10132000FAD7200E1D6E500E746E000E38EC0CF0C5
:10133000742A1D2EFAD75CEC0AF0060E746E300E7D
:10134000336E38EC0CF0070E746E000E346E38EC11
:101350000CF07FEC0AF0356A366A800E1D6E34C0E0
:101360002FF033C030F02F50B4EC0AF0200E2F26AF
:10137000000E3022EE6AEE6AEE6AEE6A1D061BE08F
:1013800030C0EEFF2FC0EEFF35C0EEFF36C0EEFFDF
:1013900033C035F034C036F01D50010B05E0200E8F
:1013A0003426000E3322DFD78DEC0AF0200E3426CF
:1013B000000E3322D4D72F6A2FC0EEFF2FC0EEFFCE
:1013C00035C0EEFF36C0EEFF8DEC0AF01200C00E05
:1013D0003A14F66E3950F76E400E216E08D0C00EEA
:1013E0003414F66E3350F76EF86A400E216EF86AC8
:1013F000EACF0FF0E9CF10F001EE00F00900F55050
:10140000EE6E212EFBD710C0E9FF0FC0EAFF1200DD
:10141000F86A33C0F7FF34C0F6FF200E216EE7D71D
:10142000F86A33C0F7FF34C0F6FF100E216EDFD725
:10143000F86A33C0F7FF34C0F6FF080E216ED7D725
:101440008D518F191F0B2F6E3C6E2F46756A100E33
:101450002F243B6E746E32EC0CF0336E396E742AAE
:1014600032EC0CF0346E3A6E336601D0010C34501D
:10147000F66E3350F76EF86A606B0900F5508C63B6
:10148000602B0900F5508D63602B0900F5508E63C9
:10149000602B0900F5508F63602B606706D03450D5
:1014A000B4EC0AF0080EE926000C0900F550336E82
:1014B0000900F550346ED8D7400E1D6E000EF66E42
:1014C000300EF76EF86A6DEC0AF01D2E01D0120096
:1014D000400EF626000EF722F6D77F8E7F9C7F8483
:1014E0007F88F2CF0DF0F26A550E7E6EAA0E7E6EE8
:1014F0007F820000000000000DC0F2FF120001EE2C
:1015000000F0400E216EEE6A212EFDD71200C00EB3
:101510003A14F66E3950F76E05D0C00E3414F66EDC
:101520003350F76EF86A6DEC0AF001EE00F03F0EF2
:10153000216EEE50F56E0D00212EFBD7EE50F56EAC
:101540000C00A4EC0AF012007F8E7F9C7F987F84B1
:10155000F2CF0DF0F26A550E7E6EAA0E7E6E7F827D
:1015600000000DC0F2FF1200200B03E101EE00F0BD
:10157000120001EE20F0120020EC0AF0000803E057
:10158000676B666B0ED0665152E066070D0E6661A2
:101590004ED008EC0AF001EE08F06651EB50676F90
:1015A000662BD30E586E00C159F001C15AF002C12A
:1015B0005BF003C15CF066C05DF067C05EF0070ED3
:1015C000326E4FEC0CF012002F6A050E746E32EC86
:1015D0000CF000082CE05F6A200E616F100E746E34
:1015E00032EC0CF0336E742A32EC0CF0346E33664D
:1015F00004D0610720E0742AF3D718EC0AF05F2AC0
:1016000000C15BF001C15CF002C15DF003C15EF09E
:10161000F20E586E080E326E4BEC0CF0E0EC10F04F
:10162000E0EC10F004C133F005C134F0E0D7070E50
:10163000E4EC0CF0120012003C6A616B626B3C50EF
:10164000500F746E32EC0CF0000F05E0622762510F
:10165000686101D004D062C061F03C2AF0D73C44FC
:10166000100F746E32EC0CF0336E742A32EC0CF006
:10167000346E685161611200612B18EC0AF004C1EC
:1016800033F005C134F0F5D7050E746E32EC0CF072
:1016900000081FE068511DE06807050E746E32EC0B
:1016A0000CF0686116D01CEC0BF018EC0AF000C1CD
:1016B0005BF001C15CF002C15DF003C15EF0682B1C
:1016C00068C05FF0F20E586E080E326E4BEC0CF0F4
:1016D0001200070EE4EC0CF01200050E746E32ECF2
:1016E0000CF00008F6E06851F4E06807050E746E2F
:1016F00032EC0CF06861EDD766511AE066070D0E0A
:10170000666116D01CEC0BF008EC0AF001EE08F054
:101710006651EBCF5DF0662B682BB50E586E68C036
:101720005BF066C05CF0060E326E4BEC0CF0120003
:10173000060EE4EC0CF01200040E746E32EC0CF0A9
:101740005B6E700E586E040E326E4BEC0CF0120095
:10175000050E746E32EC0CF05B6E740E586E040E57
:10176000326E4BEC0CF01200E1CF07F0E2CF08F044
:10177000E9CF05F0EACF06F000EE52F01FEE10F0D0
:101780000F0110B7FED70001EE50E66E600EE96261
:10179000FBD70F0110B7FED71087000107C0E1FF8C
:1017A00008C0E2FF05C0E9FF06C0EAFF120067CFEC
:1017B00016F068CF17F0020E746E675038EC0CF01C
:1017C000742A685038EC0CF0010E746E080E38EC78
:1017D0000CF0120032EC0CF0136E16EC0CF0F00E64
:1017E0005316145053121550546E020E746E32EC90
:1017F0000CF0166E742A32EC0CF0176E0F0100B765
:10180000FED7016B1450016F1550026FB00E01131B
:10181000056B00011200500E586E16C059F017C02B
:101820005AF0030E326E4BEC0CF0120013C015F0A0
:10183000153A1544E00B156E13C014F0144214420F
:1018400014400F0B146E120062CF15F0153A1540BC
:10185000070B156E61CF14F0144614461444780B30
:10186000151012007F9E7F9C7F8000007350120035
:10187000736E7F9E7F9C7F84F2CF0DF0F26A550ECF
:101880007E6EAA0E7E6E7F820DC0F2FF7FB2FED703
:10189000A19C7F94120016C059F017C05AF0325024
:1018A000576E0F0E5316B00E53120A0E276EB4EC7D
:1018B0000BF012001650675C04E11750685C01E100
:1018C000000C010CEF0E586E200EF66E080EF76E2F
:1018D00000EE59F0070E1D6E7F8E0900F5CFEEFF6A
:1018E0001D2EFBD77F9E080E326E4FEC0CF01200BF
:1018F000E20E586E100EF66E080EF76E00EE59F0FE
:10190000070E1D6E7F8E0900F5CFEEFF1D2EFBD753
:101910007F9E080E326E4FEC0CF0120069500008EA
:1019200021E0140E69CF2FF02F062F6026D09B0EDA
:10193000586E070E2F6204D0C1EC0CF05C6E0BD019
:10194000200EF66E080EF76EF86A6904F6267F8E92
:101950000800F5CF5CF069CF5BF0050E326E4BEC02
:101960000CF012009B0E586E140E5C6E69CF5BF08B
:10197000050E326E4BEC0CF012000A0EE4EC0CF08B
:101980001200010E1BB204092F6E2F862F50120079
:1019900007EC0DF0B60E586EA50E5B6E1D0E5C6E5C
:1019A000C1EC0CF05D6E060E326E4BEC0CF01200CA
:1019B000E4EC0CF0D9EF06F0E4EC0CF0B1EF07F03A
:1019C000E4EC0CF0B0EF07F05B6E6F0E586E040E97
:1019D000326E4BEC0CF0120066CF8BF067CF8CF0C0
:1019E00068CF8DF069CF8EF06ACF8FF06BCF66F045
:1019F0006CCF67F0980E665C07E0990E665C04E0B9
:101A00009A0E665C01E012008C6B8D6B1200640E06
:101A10001F6EE0EC10F01F2EFCD71200EFCF51F03C
:101A2000EC50E806E89E4A6E700E746E4A507426BA
:101A3000EC5051A2E88E38EC0CF047EC0DF06EEC57
:101A40000EF051A21200900E746E4A50E88E38ECDF
:101A50000CF01200EC50E806E89E4A6E700E746EB0
:101A60004A507426010E38EC0CF047EC0DF0A5EC52
:101A70000EF0900E746E32EC0CF0E8AE1200E89EA0
:101A80004A5C01E01200E86A38EC0CF0120001EE4A
:101A900080F0200E1D6E700E746E32EC0CF0EE6E47
:101AA000742A1D2EFAD71200F70E586EEACF5BF09B
:101AB000E9CF5CF063C05DF065C05EF05F6A080E60
:101AC000326E4BEC0CF007EC0DF01200C00E1B1444
:101AD00001E0000C4FB226D04DB008D08150E81E76
:101AE0000F0B4C6E4D2A4DC089FF000C8150E81E33
:101AF0000F0BE83A4C1210EE41F020EE45F04D404D
:101B0000030BE126D9264C50E71801E04F804CC06A
:101B1000DFFF4D2A4DC089FF070E4D1402E14FB083
:101B20004F82000C4F904DB008D08150E81E0F0B33
:101B30004C6E4D2A4DC089FF000C8150E81E0F0BE2
:101B4000E83A4C1220EE45F04D40030BD9264C509C
:101B5000DF1801E04F804D2A4DC089FF070E4D145C
:101B600001E0000C4FA003D04F924F90000C4F9219
:101B700010EE41F020EE45F04A6A010E4B6E080E61
:101B80001D6EE750DF1808E04C6E4B504C140DE111
:101B90004B464A2A1D2EF9D7E12AD92AD950500896
:101BA00003E0080E4A26E9D7000CDFCFE7FF1CA8A8
:101BB00001D0010CDF1402E04A8E01D04A9E11EEE2
:101BC00080F04A50E89EE126E75001E1000C4C6E9F
:101BD000E8B005D0E8B40FD0E8B619D0000C4CBA84
:101BE00003D0900E586E02D0980E586E4ABE5880A0
:101BF0004CB258701BD04ABE000C4CBA03D0900EA9
:101C0000586E02D0980E586E4CB258800FD04ABE13
:101C1000000C11EE80F04CBC05D04A50E126E78C58
:101C20004A8EDDD74A50E126E79CD9D745EC0EF025
:101C300058C090F0050E326E4CBA08D0595203E1EC
:101C40005A5201E103D04FEC0CF002D04BEC0CF0F7
:101C50004C9C58B04C8C700E746E4A50E89E7426A2
:101C60004C5038EC0CF0900E746E32EC0CF0516E5F
:101C700051AE07D0519E4A504A9E4A50515C01E1F4
:101C80001B8A4CB85EEC0EF0000C290EF76EF66A5B
:101C90004A50E89EE846E846F6260900F550596E97
:101CA000916F0900F5505A6E926F0900F5505B6E06
:101CB000936F0900F5505C6E946F000C10EE90F07D
:101CC00020EE8BF0050E1D6EE6CFDEFF1D2EFCD73D
:101CD0004CB603D0D2EC0EF0000CFCD7290E336EBC
:101CE0004A50E89E0F0817E6346AEFEC09F001EE5F
:101CF00000F010EE8CF04A50E846E846E926E6CFC0
:101D0000EEFFE6CFEEFFE6CFEEFFE6CFEEFF346A62
:101D10008DEC0AF01200400E346EEFEC09F001EE8B
:101D200000F010EE8CF0100E4A5CE846E846E9261A
:101D3000E6CFEEFFE6CFEEFFE6CFEEFFE6CFEEFF1B
:101D4000400E346E8DEC0AF01200290E336E4A50AC
:101D5000E89E0F0812E6346AEFEC09F001EE00F09D
:101D60004A50E846E846E926EE6AEE6AEE6A4A28F4
:101D7000EE6E346A8DEC0AF01200400E346EEFEC19
:101D800009F001EE00F0100E4A5CE846E846E9264C
:101D9000EE6AEE6AEE6A4A28EE6E400E346E8DEC04
:101DA0000AF01200E2CF11F0E1CF12F020EC0AF0BD
:101DB000000805E012001B8A1200A0EF0FF0EFEC04
:101DC00009F0E9CF10F0EACF0FF0EACFE2FF920E70
:101DD0008B5DF3E09A0E8B5DF0E0EFB2ECD70C0E6A
:101DE000E926EFCF69F069A575D0080EE95EE9CF65
:101DF000E1FF040EE12620EE6AF0040E1D6E8BB1A9
:101E000051D069A319D0E6CF30F0301E3050DF1624
:101E100069A50DD0EFCF2FF02F1E040ED9262F501D
:101E2000DF16040ED9262F50DF16080ED95E30506B
:101E3000EE14DE121D2EE7D71CB01AD010C0E9FF39
:101E4000020EE926EFA61200E906EF5011EE80F02F
:101E5000E126E1068BB104D0E7AC05D0E79C03D0C6
:101E6000E7BC01D0E78C11C0E2FF12C0E1FF120015
:101E700010C0E9FFE92AEF504A6E11EE80F0E1262A
:101E8000E1068BB102D0E79C02D0E78C00D0700E47
:101E9000746E4A50E806E89E7426E75038EC0CF061
:101EA0001C90E1D769A1C8D7EECF2FF02F1E2F507D
:101EB000DF1669A50AD0040ED9262F50DF16040EAE
:101EC000D9262F50DF16080ED95EE650DE121D2EE1
:101ED000EBD7B2D710C0E9FF040EE92610EE6EF082
:101EE000040E1D6E8BB118D010C0D9FF0FC0DAFFE1
:101EF000080ED926DE1CEE14E6121D2EFBD710C0EC
:101F0000E9FF080EE92610EE72F0040E1D6EEE5089
:101F1000E6121D2EFCD790D720EE72F0EE1CE616CE
:101F2000DE161D2EFBD710C0E9FF040EE92610EEC9
:101F30006AF0040E1D6EEE1CE6161D2EFCD77CD733
:101F400010C0E1FFE7A01200010EE350E806496E61
:101F5000700E4924746E32EC0CF0496E920E8B5D5B
:101F600011E1930E586E49BC1DD08CC059F08DC044
:101F70005AF08EC05BF08FC05CF0050E326E4FECF5
:101F80000CF071D79A0E8B5D16E19D0E586E49BC10
:101F90000FD08EC05BF08FC05CF0050E326E4BEC44
:101FA0000CF009D0920E8B5D03E1940E586EDDD7D4
:101FB0009E0E586EEED733EF0FF0F294D66A700E85
:101FC0004A24746E32EC0CF0E8AE0DD04C6E900EDC
:101FD000586E4CBA58864CBC588016EC0EF04A2A03
:101FE0002506255012004A2A25062550E8E1120050
:101FF0007DEC09F0200E1D6E700E746E010E736E76
:1020000038EC0CF0742A1D2EF9D747EC0DF001EED8
:1020100000F0400E1D6EEE6A1D2EFDD7100E1D6ED7
:1020200001EE00F0010E2F6EE906040EE9262FC026
:10203000EFFF2F2A1D2EF9D7346A290E336E8DEC4F
:102040000AF001EE00F0400E1D6EEE6A1D2EFDD767
:10205000100E1D6E01EE00F0E906040EE9262FC0F9
:10206000EFFF2F2A1D2EF9D7400E346E290E336E46
:102070008DEC0AF01200920E8E25746E740632EC0E
:102080000CF05C6E8EC05BF0970E586E050E326ED3
:102090004BEC0CF01200020E8E6112008E5106E025
:1020A000E806920F746E8F5138EC0CF01200E1CFFD
:1020B0007BF0E2CF7CF01C820E0E1D6E00EE7DF0F8
:1020C000EE6A1D2EFDD7000ED76E000ED66E820E64
:1020D000D56EF2940F01BF0E116FE00E126F400E1D
:1020E000156F10B7FED7108710B7FED7156B00011C
:1020F000F2B415D071BE01D0FBD76F500F0B0B6E31
:102100007250F00B0B10726E62B607D01CA205D095
:10211000655203E1C3EC10F000D0609EE9D7D59E74
:10212000F2941A6A1A2A2A6A2A8010EE7DF0E728A9
:1021300004E1080E1A26E12AFAD72A50E71403E030
:102140002A361A2AFAD7640E1A600DD0000E746E61
:102150001A5038EC0CF01A50EAEC0BF07BC0E1FF9F
:102160007CC0E2FF1200070EE4EC0CF01A681A9E25
:10217000EDD71CB212001BA212000F0100B7FED750
:10218000008700011200656612006138E832780BA2
:102190002F6E6238E842070B2F101A6E10EE7DF09A
:1021A0002A6A2A80080E1A6403D01A5EE12AFBD735
:1021B0001A4E02D02A46FCD72A50E712609E12001F
:1021C0000A0E1E6E1D6A1D2EE3EF10F01E2EFAD7AA
:0221D0001200FB
:020000040030CA
:040000001513667CF2
:020005008881F0
:060008000FC00FE00F40E5
:0200000400F00A
:080000007F0000000000000079
:1000100000000000000000000000000000000000E0
:1000200000000000000000000000000000000000D0
:1000300000000000000000000000000000000000C0
:1000400000000000000000000000000000000000B0
:1000500000000000000000000000000000000000A0
:100060000000000000000000000000000000000090
:100070000101010101010101010101010101010170
:100080000101010101010101010101010101010160
:04009000000000006C
:0203FE000000FD
:00000001FF
