:020000040000FA
:040000001FD00ED02F
:0400080004EF04F00D
:040018000CEF04F0F5
:10002000A66E05A01200550EA76EAA0EA76EA68298
:100030000000A6B2FED712000A26D8B00B2A120082
:10004000A66AA968AA68A680A83C00EF04F0066A20
:100050001C0E056E0F019394000E006F080E016FC9
:10006000E81E056F000E026F070E036FFF0E186F7C
:10007000EB0E196FFF0E1A6FF80E1B6F030E706EEA
:100080009E0E716E030E726E200E736E6F6A0E0EF0
:10009000C16E939E939C818E818C609E040060AEA5
:1000A000FDD70FEE66F065500F0B096EF46EF5E0AC
:1000B00064B02BD010EE01F0EECFE6FFF42EFCD7AB
:1000C0000650EBE0010AD8A407D0A968AA68A86A7C
:1000D000040EA6DF819CFF000650020A05E10B6AB0
:1000E0000A6A0C900C6AD9D70650030A0AE1075035
:1000F0000A2606E108500B2203E10CB001D073D0B0
:1001000076D00650040AC9E176D00350F86EF00BA1
:10011000F36E0250F76EAA6E0150F66EA96E05A638
:1001200005D009500126E86A02220322300EF3604E
:1001300001D008D0F350300A01E12AD0F350F00A80
:10014000ACE132D005A405D0F6503F0B02E1940E8D
:1001500067DF05B2A2D7F650070B9FE1080EF46ED9
:10016000EE50F56E69DF0D00F42EFAD7080EF46E2E
:100170000A00ED50F42EFCD7840E52DF080EF46E08
:100180000900F550EE18D8A40C80F42EF9D785D7C5
:10019000EF50F56E51DF0C00C40E42DF0900F55040
:1001A000EE18F42EF5D779D7EF50A86E45DF040E80
:1001B00037DFA66AA680A850EE18D8A40C80A94AFA
:1001C000AA2AF42EF1D769D740B7FED7800E416F27
:1001D000080E426F000E436F040E446F448164A00A
:1001E000449140875AD7010E466F456FEDD7466B55
:1001F000010E456FE9D7020E466F010E456FE4D739
:06080000000081EF07F08B
:0408080020EF04F0E9
:0C0810004C454436342020009CEF04F0DE
:10082000A54707FF110002090101000800000000B0
:1008300000000000000000000E00100800003E0252
:100840006FCF0BF06ECF0CF0E9CF05F0EACF06F0DA
:10085000E1CF07F0E2CF08F0080EFA6E0C500E0B55
:10086000F92635D012D033D032D031D002D006D0D4
:100870002ED0A49200EE36F054EF04F0A49016B2FD
:100880003FD000EE36F054EF04F00F0130AB08D04B
:10089000205206E0202E04D030973F0E31173087CB
:1008A0000001609E509F14D06F50F10B6F6E0C5082
:1008B0000E0B6F121FEE60F0E650EE6E6E0EE162F0
:1008C000FBD7609E3BBC12D03B5201E01680609E7D
:1008D000A46A6F50F10B0B106F6E05C0E9FF06C0E4
:1008E000EAFF07C0E1FF08C0E2FF110016B2EFD730
:1008F00015A2EDD70F0120B7FED720870001E7D75B
:100900006566E5D76138E832780B276E6238E842D1
:10091000070B2710146E10EE79F0766B7681080EB7
:10092000146403D0145EE12AFBD7144E02D076473C
:10093000FCD77651E712CBD7006ED8CF01F0D9CFD4
:1009400009F0DACF0AF0E1CF07F0E2CF08F0E9CF03
:1009500005F0EACF06F09E6A6F0ECE6E15A234D077
:10096000752F32D0742F30D073C074F0749F73AF72
:1009700016D020EE5BF010EE6BF0080E1E6EE61C3B
:10098000DE161E2EFCD720EE5BF010EE63F0080E94
:100990001E6EE650DE121E2EFCD7737F15D020EEA1
:1009A0005BF010EE63F0080E1E6EE61CDE161E2EC7
:1009B000FCD720EE5BF010EE6BF0080E1E6EE650DA
:1009C000DE121E2EFCD7737F020E1E6E2428030B30
:1009D000246E20EE5BF02444D926D92ADFCF25F0FF
:1009E000080E1D6E253602E2819A01D0818A818827
:1009F00081981D2EF7D71E0602E0D906EFD72438BE
:100A0000266E264626448284000081828192829C42
:100A1000829E8212829409C0D9FF0AC0DAFF07C001
:100A2000E1FF08C0E2FF05C0E9FF06C0EAFF005091
:100A300001C0D8FF100015B205D0A1A202D0817E5E
:100A4000A1920DD0F2A40BD016A401D0817CF29417
:100A500016A605D01F2E03D00A0E1F6E520E81B0AF
:100A600067D0640E176E186A196A192E35EF05F0F3
:100A700016A404D0F2A402D0817CF294182E35EF93
:100A800005F081B040D0172E35EF05F015A255D0F6
:100A9000166A819C818EF26A010E146E010EA96E97
:100AA000000E97EC0AF0510E58EC0BF0106A116A28
:100AB00081A0FED7B7EC0BF081A0FAD7020EA96E89
:100AC000000E97EC0AF0A92A000E97EC0AF015A286
:100AD0000DD0010EA96E000E97EC0AF0166A159261
:100AE000819C818EC00EF26E1BEF05F0010EA96E87
:100AF000010E97EC0AF015820AEC0DF0169257ECF5
:100B00000BF016841DD016A40CD01694818C520EB6
:100B100058EC0BF0010EA96E080E166E97EC0AF059
:100B200007D016840AEC0DF0169257EC0BF008D0A3
:100B300016A206D01692168403D01682819EB8D7CC
:100B400016A079D758D016A8DAD0EEEC05F0BED1B1
:100B500016A8D5D0EEEC05F0BFD14FEC0BF0000895
:100B60000EE145EC0CF0CBD04FEC0BF0000807E1A8
:100B70003FC059F040C057F051EC0CF0C0D0D0EF5E
:100B800006F0DBEF06F016A4BAD080EC0CF0B7D07C
:100B900016A4B5D096EC0CF0B2D010501124D8A405
:100BA000E6EC0CF0ACD03D6A3E6A05D14FEC0BF0A0
:100BB0000008E5E13FC059F01CEC0CF0A0D04FEC70
:100BC0000BF0000809E10AEC0DF0520E58EC0BF0A6
:100BD000080E166E7FEF06F0D0EF06F03DC087F0EE
:100BE0003EC088F03FC089F040C08AF041C057F055
:100BF00042C058F01200900E3C5CC3E0910E3C5C89
:100C0000C0E0980E3C5CCFE0990E3C5CCCE05C0E02
:100C10003C5C51E0730E3C5C5EE015A270D0420E6D
:100C20003C5C70E00D0E3C5CB8E0100E3C5CABE050
:100C3000110E3C5CADE0530E3C5C31E0540E3C5C6C
:100C400028E0550E3C5C23E0560E3C5C7FE0D20E63
:100C50003C5C50E0950E3C5C24E0B20E3C5C25E030
:100C6000570E3C5C20E0720E3C5CA0E0580E3C5CF1
:100C70001EE09C0E3C5C1DE05D0E3C5C04E0750ECD
:100C80003C5C03E03CD0DFEF05F090EF06F0C3EFF3
:100C900006F0BDEF06F07AEF06F0D6EF05F0B6EFFE
:100CA00006F0A3EF05F0D1EF06F0A8EF05F0ADEFE9
:100CB00005F0B4EF05F015A20AD04FEC0BF00008D8
:100CC0006FE1FF0EA96EFF0E97EC0AF0FF003D509A
:100CD0003E24F7E065D015A207D04FEC0BF00008DA
:100CE0005FE1ACEC0CF00BD03D503E2459E1ACEC94
:100CF0000CF005D016A803D0EEEC05F0D5D0169078
:100D00001BEF05F016A4FBD762EC0BF016941686C9
:100D10000A0E1F6E520E58EC0BF0818C819EEFD79D
:100D20004FEC0BF000083CE13FC014F040EC0DF03C
:100D3000520E58EC0BF07FEF06F016A4E0D7500EE1
:100D40004A6E030E296E40EC0BF0D9D74FEC0BF036
:100D5000000826E1050EA96E92EC0AF04D6E700EA9
:100D60004A6E040E296E40EC0BF0C9D74FEC0BF025
:100D7000000816E11688818CC2D74FEC0BF00008F2
:100D80000FE11698BCD74FEC0BF0000809E116A84C
:100D90000FD0C9EC09F020EC0BF0590E58EC0BF019
:100DA000AED74FEC0BF00008FBE1BEEC0BF0A7D781
:100DB000020EF6EF0CF0EEEC05F015A205D05DEC9E
:100DC0000AF000081DE09BD798EC0BF082B013D01E
:100DD00082B203D0DFEC08F013D0F8EC07F0000883
:100DE00007E155AC04D0080E5726F8EC07F008D000
:100DF000040EFAEF0CF082B2E2D779EC09F000D0E1
:100E00004DEC0AF001EE18F0EFCF5AF05AA420D0C2
:100E100001EE08F011EE10F020EE5BF0080E176EF8
:100E20003CB00BD05AA26BD7E6CF27F0271CDF16B9
:100E3000EE14DE12172EF8D762D75AA060D7EECF85
:100E400027F0271CDF16E650DE12172EF8D757D7EB
:100E500001EE08F010EE63F0080E176E3CB012D0F1
:100E600021EE10F0DE1CEE14E612172EFBD701EE79
:100E700010F010EE6BF0080E176EEE50E612172E03
:100E8000FCD73DD720EE6BF0EE1CE616DE16172ED3
:100E9000FBD701EE08F010EE5BF0080E176EEE1CAB
:100EA000E616172EFCD72BD7575001E128D7570647
:100EB000F8EC07F0276E590E58EC0BF0275000089D
:100EC00003E0040EFEEF0CF000EF07F0DFEC08F09B
:100ED000590E58EC0BF094D7576605D0060E02EC6D
:100EE0000DF07FEF06F05706110E5760F7D7A7EC0D
:100EF00009F07FEF06F01698169C1690FA6A7FEFBD
:100F000006F000EE00F0EE6AE9AEFDD7F26AC26AC2
:100F10000F0EC16E3F0E926E090E936E816A818430
:100F20001B0E946E826A8284D08EE06A166A206AF2
:100F3000776A6F8E030E706E9E0E716E030E726E68
:100F4000200E736E240E606E0F01200E506F016B29
:100F5000056B00010FEE18F0EE6A200EE962FCD777
:100F60006F6ABD6A810ECD6EE00ECF6E840ED56EB7
:100F7000446A230EA56E9F6AA26AA06A20EC0BF059
:100F8000010E146EF16AF06A9D80230EA36E9E6AB4
:100F9000A16AA46A609E156A010EA96E92EC0AF01D
:100FA000166E000809E1060EA96E92EC0AF0000F19
:100FB00010E1C9EC09F00DD0158275EC0BF0010EB3
:100FC000736F746FC00EF26E819E818C16901BEF52
:100FD00005F01592106A116A82A0F2EF07F082A262
:100FE000C9EC09F0818E819CC00EF26E1BEF05F0FA
:100FF0005DEC0AF0000854E13CEC0AF001EE18F058
:10100000200E2B14D8A401EE38F0EFCF5AF0FF0ECB
:10101000EF6E5AB412D001EE08F0200E2B14D8A4B3
:1010200001EE28F010EE63F020EE6BF0080E176E64
:10103000EE1CE616DE16172EFBD701EE08F020EEAA
:101040005BF0200E2B14D8A401EE28F057B80BD07B
:1010500057B609D05750EBCF56F0561EDB505616F8
:10106000575056C0DBFF15A204D0575058C0EBFFB5
:1010700014D058C056F05750EB505612575056C027
:10108000EBFF57B60AD058C056F0561E080FEB506B
:1010900056165750080F56C0EBFFD7EC0AF0000C5D
:1010A000050EA96E92EC0AF0000801E1010C060E93
:1010B000A96E92EC0AF02A6E070EA96E92EC0AF065
:1010C0002B6E306601D012D0200E31141C6E34EC21
:1010D0000AF01C6605D02AC006F12BC007F104D027
:1010E0002AC026F12BC027F1D1EC0AF0200E2B14D8
:1010F0001C6E3CEC0AF0060EA96E1C6603D004C1FF
:1011000027F002D024C127F0275097EC0AF0070EF1
:10111000A96E1C6603D005C127F002D025C127F0B7
:10112000275097EC0AF032C0A9FF2A5097EC0AF03A
:10113000A92A2B5097EC0AF0276A1C6613D030C0FE
:1011400004F131C005F127C006F127C007F187C0BF
:1011500000F188C001F189C002F18AC003F101EEFB
:1011600008F012D030C024F131C025F127C026F19B
:1011700027C027F187C020F188C021F189C022F162
:101180008AC023F101EE28F0100E1B6EEE6A1B2EB2
:10119000FDD73350900FA96E92EC0AF0E82A97EC35
:1011A0000AF0040EA96E92EC0AF0010F97EC0AF017
:1011B000A92A92EC0AF0E80697EC0AF03ED75DEC1B
:1011C0000AF0000801E01200060EA96E92EC0AF087
:1011D000346E070EA96E92EC0AF0356E3CEC0AF004
:1011E00020EE5BF0200E2B1411E101EE08F070EC04
:1011F00009F004C12EF005C12FF006C12CF007C183
:101200002DF034C004F135C005F110D001EE28F006
:1012100070EC09F024C12EF025C12FF026C12CF06E
:1012200027C12DF034C024F135C025F1060EA96E7A
:101230002A5097EC0AF0070EA96E2B5097EC0AF093
:10124000D7EC0AF02C6601D015D02CC02AF02DC0A6
:101250002BF03CEC0AF0200E2B1405E12EC004F11B
:101260002FC005F104D02EC024F12FC025F1D7ECFA
:101270000AF009D032C0A9FF2E5097EC0AF0A92A33
:101280002F5097EC0AF02E6601D014D02EC02AF011
:101290002FC02BF03CEC0AF0200E2B1405E12CC0E3
:1012A00006F12DC007F104D02CC026F12DC027F186
:1012B000D7EC0AF03350900FA96E92EC0AF0E806D2
:1012C00097EC0AF0040EA96E92EC0AF0E80697EC8F
:1012D0000AF0A92A92EC0AF0010F97EC0AF012002A
:1012E000080E1A6EEECF27F0271CDE161A06FAE15A
:1012F00012005DEC0AF0000801E012003CEC0AF07C
:1013000001EE08F020EE5BF0200E2B14D8A401EEC5
:1013100028F0575058C056F0561EDB5056165750FE
:1013200056C0DBFF58C056F0561EEB5056165750AD
:1013300056C0EBFF58C056F0561E080FEB5056161D
:101340005750080F56C0EBFFD7EC0AF012005DECC7
:101350000AF0000803E0586A576A08D04DEC0AF01A
:1013600001EE08F05750EB50586E572AD30E4A6ED4
:1013700000C14BF001C14CF002C14DF003C14EF071
:1013800057C04FF058C050F0070E296E44EC0BF0D8
:101390001200040EA96E000E97EC0AF0FF0EA92AA7
:1013A00097EC0AF0800E176E100EA96E000E97ECE7
:1013B0000AF0A92A172EFAD7400E176E900EA96EC2
:1013C000000E97EC0AF0A92A172EFAD7A8EC0AF01B
:1013D000060EA96E200E2A6E97EC0AF0070EA96E73
:1013E000000E2B6E97EC0AF0C9EC0AF02C6A2D6AFD
:1013F000800E176E200E2B24276E27C005F1000EDD
:101400002A20276E27C004F12CC006F12DC007F159
:101410002AC02CF02BC02DF0010E175C0AE1276AC0
:1014200027C024F127C025F12CC026F12DC027F1BB
:1014300012D0400E2B24276E27C025F1000E2A2043
:10144000276E27C024F12CC026F12DC027F104C13E
:101450002CF005C12DF0D7EC0AF0400E2B26000E23
:101460002A22172EC7D71200C00E3114F66E305044
:10147000F76E400E1B6E08D0C00E2B14F66E2A506D
:10148000F76EF86A400E1B6EF86A01EE00F0090074
:10149000F550EE6E1B2EFBD71200F86A2AC0F7FF3C
:1014A0002BC0F6FF250E1B6EEFD7F86A2AC0F7FF98
:1014B0002BC0F6FF080E1B6EE7D73F0E8815276E70
:1014C000336E2746100E2724326EA96E92EC0AF076
:1014D0002A6E306EA92A92EC0AF02B6E316E2A66C3
:1014E00001D0010C2B50F66E2A50F76EF86A526A42
:1014F0000900F5508763522A0900F5508863522A83
:101500000900F5508963522A0900F5508A63522A6E
:10151000526601D0000C0900F5502A6E0900F55002
:101520002B6EDDD7A69EA69CA680A8501200A86EA2
:10153000A69EA69CA684F26A550EA76EAA0EA76E5A
:10154000A682A6B2FED7A198A694C00EF26E120093
:10155000800E176E000EF66E200EF76EF86AB9EC6C
:101560000AF0172E01D01200400EF626000EF722C8
:10157000F6D7A68EA69CA684A688F26A550EA76EFC
:10158000AA0EA76EA682000000000000C00EF26E38
:10159000120001EE00F0400E1B6EEE6A1B2EFDD70E
:1015A0001200C00E3114F66E3050F76E05D0C00E2A
:1015B0002B14F66E2A50F76EF86AB9EC0AF001EEB9
:1015C00000F0020E1C6E190E1B6EEE50F56E0D0033
:1015D0001B2EFBD7F4EC0AF01C2E01D01200070ED4
:1015E000F62601EE20F0EFD7A68EA69CA698A6843C
:1015F0008284F26A550EA76EAA0EA76EA68200001C
:10160000C00EF26E829412000DC00FF00F3A0F441C
:10161000E00B0F6E0DC00EF00E420E420E400F0B8F
:101620000E6E120038C00FF00F3A0F40070B0F6E0E
:1016300037C00EF00E460E460E44780B0F10120007
:1016400020EE5BF010EE63F000EE6BF0DE6AE66A0F
:10165000EE6A630ED95CFAE1120000EE44F01FEE70
:1016600030F00F0130B7FED70001EE50E66E520E9B
:10167000E962FBD70F0130B7FED7308700011200B7
:1016800010C04BF011C04CF02950496E0F0E45169A
:10169000B00E45120A0E206E2DEC0BF01200105009
:1016A0003D5C04E111503E5C01E1000C010C500E68
:1016B0004A6E10C04BF011C04CF0030E296E40EC86
:1016C0000BF012003DC010F03EC011F0020EA96EEA
:1016D0003D5097EC0AF0A92A3E5097EC0AF0010E13
:1016E000A96E080E97EC0AF01200000EA96EA680F3
:1016F000A8500D6E04EC0BF0F00E45160E5045127E
:101700000F50466E020EA96E92EC0AF0106EA92AD6
:1017100092EC0AF0116E0F0120B7FED7216B0E502C
:10172000216F0F50226FB00E2113256B00011200A4
:1017300080503F0B556E070E5514576E010E586EB4
:10174000575203E058465706FBD7380E5514576ECC
:1017500057425742574282A8558C12000A0E186E03
:10176000176A172EB1EF0BF0182EFAD71200640E7D
:10177000196EAEEC0BF0192EFCD71200276A040E7E
:10178000A96E92EC0AF000082CE0516A400E536EEC
:10179000100EA96E92EC0AF02A6EA92A92EC0AF0B9
:1017A0002B6E2A6604D053061EE0A92AF3D755EC07
:1017B0000AF0512A00C14DF001C14EF002C14FF0B4
:1017C00003C150F0F20E4A6E080E296E40EC0BF089
:1017D000AEEC0BF0AEEC0BF004C12AF005C12BF01F
:1017E000E0D73F6A4ED01200336A536A546A3350CE
:1017F000900FA96E92EC0AF0000F05E054265450A9
:10180000596001D004D054C053F0332AF0D7334488
:10181000100FA96E92EC0AF02A6EA92A92EC0AF037
:101820002B6E595053601200532A55EC0AF004C134
:101830002AF005C12BF0F5D7040EA96E92EC0AF040
:10184000126E1FE059501DE05906040EA96E92EC6D
:101850000AF0596016D0F4EC0BF055EC0AF000C118
:101860004DF001C14EF002C14FF003C150F0592AB2
:1018700059C051F0F20E4A6E080E296E40EC0BF082
:101880001200070E02EC0DF01200040EA96E92EC8D
:101890000AF04D6E740E4A6E040E296E40EC0BF089
:1018A0001200040EA96E92EC0AF00008EAE059500A
:1018B000E8E05906040EA96E92EC0AF05960E1D7EF
:1018C00057501AE05706110E576016D0F4EC0BF083
:1018D0004DEC0AF001EE08F05750EBCF4FF0572ACD
:1018E000592AB50E4A6E59C04DF057C04EF0060E3B
:1018F000296E40EC0BF01200060E02EC0DF0120007
:10190000EF0E4A6E200EF66E080EF76E00EE4BF0EC
:10191000070E176EA68E0900F5CFEEFF172EFBD728
:10192000A69E080E296E44EC0BF01200E20E4A6EE1
:10193000100EF66E080EF76E00EE4BF0070E176EE7
:10194000A68E0900F5CFEEFF172EFBD7A69E080E38
:10195000296E44EC0BF012003F50000821E00E0EFF
:101960003FC027F02706276026D09B0E4A6E070E41
:10197000276204D0DFEC0CF04E6E0BD0200EF66E1A
:10198000080EF76EF86A3F04F626A68E0800F5CF1B
:101990004EF03FC04DF0050E296E40EC0BF01200EA
:1019A0009B0E4A6E0E0E4E6E3FC04DF0050E296E18
:1019B00040EC0BF012000A0E02EC0DF01200010ECA
:1019C00015B20409276E278627501200B7EC0BF0DA
:1019D000B60E4A6EA50E4D6E070E4E6EDFEC0CF085
:1019E0004F6E060E296E40EC0BF0120002EC0DF06B
:1019F0007FEF06F002EC0DF07DEF07F002EC0DF04A
:101A00007CEF07F04D6E6F0E4A6E040E296E40ECAF
:101A10000BF01200E1CF77F0E2CF78F0C00EF26E5B
:101A20001682446A0E0E176E00EE79F0EE6A172EDB
:101A3000FDD7BF0E456EE00E466E400E296E3C0E81
:101A4000B36EAF0EB26EB10EB16E0A0E206E44ECE4
:101A50000BF0496AA1A2FED7B190A192146A142A90
:101A6000236A238010EE79F0E72804E1080E14269B
:101A7000E12AFAD72350E71403E02336142AFAD7D1
:101A8000640E14600CD0000EA96E145097EC0AF08E
:101A900075EC0BF077C0E1FF78C0E2FF1200070E93
:0A1AA00002EC0DF01468149EEED75E
:020000040030CA
:0300010006061ED2
:020005008081F8
:060008000FC00FE00F40E5
:0200000400F00A
:080000007F00000000FF00007A
:1000100000000000000000000000000000000000E0
:1000200000000000000000000000000000000000D0
:1000300000000000000000000000000000000000C0
:1000400000000000000000000000000000000000B0
:1000500000000000000000000000000000000000A0
:100060000000000000000000000000000000000090
:100070000000000000000000000000000000000080
:100080000000000000000000000000000000000070
:100090000000000000000000000000000000000060
:1000A0000000000000000000000000000000000050
:1000B0000000000000000000000000000000000040
:1000C0000000000000000000000000000000000030
:0200FE00000000
:00000001FF
