:020000040000FA
:040000001FD00ED02F
:0400080004EF04F00D
:040018000CEF04F0F5
:10002000A66E05A01200550EA76EAA0EA76EA68298
:100030000000A6B2FED712000A26D8B00B2A120082
:100040000F01070E706EDE0E716E030E726EA66AE1
:10005000A968AA68A680A83C00EF04F0066A1C0EF6
:10006000056E0F019394000E006F080E016FE81EDD
:10007000056F000E026F070E036FFF0E186FEB0E79
:10008000196FFF0E1A6FF80E1B6F070E706EDE0EE3
:10009000716E030E726E200E736E6F6A939E939C48
:1000A000818E818C0400609E60AEFED70FEE66F0FC
:1000B00065500F0B096EF46EF5E064B02BD010EEB6
:1000C00001F0EECFE6FFF42EFCD70650EBE0010A7C
:1000D000D8A407D0A968AA68A86A040EA1DF819CE9
:1000E000FF000650020A05E10B6A0A6A0C900C6ACE
:1000F000D9D70650030A0AE107500A2606E108503C
:100100000B2203E10CB001D073D076D00650040A64
:10011000C9E176D00350F86EF00BF36E0250F76E23
:10012000AA6E0150F66EA96E05A605D009500126EB
:10013000E86A02220322300EF36001D008D0F350A7
:10014000300A01E12AD0F350F00AACE132D005A424
:1001500005D0F6503F0B02E1940E62DF05B2A2D744
:10016000F650070B9FE1080EF46EEE50F56E64DF5B
:100170000D00F42EFAD7080EF46E0A00ED50F42E9E
:10018000FCD7840E4DDF080EF46E0900F550EE1812
:10019000D8A40C80F42EF9D785D7EF50F56E4CDF3C
:1001A0000C00C40E3DDF0900F550EE18F42EF5D713
:1001B00079D7EF50A86E40DF040E32DFA66AA68022
:1001C000A850EE18D8A40C80A94AAA2AF42EF1D778
:1001D00069D740B7FED7800E416F080E426F000E00
:1001E000436F040E446F448164A0449140875AD702
:1001F000010E466F456FEDD7466B010E456FE9D78F
:0A020000020E466F010E456FE4D7B1
:080800000000F8EF06F0120001
:0808080007ED04F012000600E8
:06081000DDEF0DF0120007
:0608180092EF10F0120047
:10082000A5660AFF0AD8040E0301000800000000B4
:100830000000010A000000001400400800007B03D3
:0708400043414E434D44000B
:10087000020EE66EC9EC25F0E552F3CF60F0F4CF3E
:1008800061F0040EE66EA2EC25F0E5520001626F05
:1008900072EF24F062C063F00001040E626F59DA57
:1008A000500EB7EF06F00001070E636FE85002E04C
:1008B000010E01D0000E626F120012000001626B87
:1008C000120004015A6BD5C0E9FFD6C0EAFF060E3C
:1008D000EB500D0802E194D86FD0E3D900096CE029
:1008E0000401010E5A6FD5C0E9FFD6C0EAFF060E1B
:1008F000EB505E0A5DE0AB0A5AE0270A57E0600A57
:1009000053E02E0A4FE00A0A3BE0030A37E0E40A0C
:100910002BE0290A27E00F0A23E0010A1FE0030A5F
:100920001CE0010A16E0070A0DE0200A01E041D0B0
:10093000D5C0E9FFD6C0EAFF090EEB50E66E7AD8C3
:10094000E5523AD00001620503E10001060E626F34
:1009500033D00001010E626F2FD02ED0CED82CD014
:10096000CDD82AD0CCD828D0D5C0E9FFD6C0EAFF50
:10097000090EEB50E66EC4D8E5521ED0D5D81CD077
:10098000D5C0E9FFD6C0EAFF0A0EEB50E66ED5C02F
:10099000E9FFD6C0EAFF090EEB50E66EC6D8E55275
:1009A000E5520AD0E8D808D0E7D806D005D004D060
:1009B000FF0004015A6B00D004015A511DE1040EDE
:1009C0000001625D19E10401010E5A6FD5C0E9FF13
:1009D000D6C0EAFF060EEB50420A09E0530A05E0D2
:1009E000010A01E006D0CBD807D0F5D805D03BD915
:1009F00003D004015A6B00D004015A5100D01200F8
:100A0000ADD9020ECFD9B60E466EB8D90800F55052
:100A1000496EB4D9020EC0D94A6EB0D9070EBCD9FE
:100A20004B6EE3D9020EE15C02E2E16AE552E16E4F
:100A30009AD1D1D193D9020EB5D9FE0EDBCF59F0A0
:100A4000380EF66E080EF76E0900F5CF5AF0080062
:100A5000F5CF5BF059505A5C000E5B5840E39B0E9B
:100A6000466EFE0EDB50496EFE0EDB5004E1380E82
:100A7000F66E080E24D00F0E9BD919E3130E98D9E9
:100A800016E247D9F3CF5BF0F4CF5CF0FE0EDB50FB
:100A9000F10F080DF3505BC059F05CC05AF005E04F
:100AA000D8905A325932E804FBE159500BD097D90B
:100AB000FE0EDB040F015924F66E000E5A20F76E6D
:100AC0000800F5504A6EFE0EDB50080804E10001F4
:100AD000620501E14A843DD9B1EC08F004D0090E69
:100AE000E66EE66AD6D8E552E552020EE15C02E215
:100AF000E16AE552E16E37D11200120012001200D5
:100B00002DD9970E466EFE0EDB50496EFE0EDB06AB
:100B1000DB500001F76A6425F66E6551F722080084
:100B2000F5504A6E62D91FD1120018D9020EE12683
:100B300064C0DEFF65C0DDFFFE0EDB50DE26000E6A
:100B4000DD22DF06010E01E2DB06FD0EDBCFE6FF54
:100B5000DECFE6FFDDCFE6FF97EC25F0E552E5526C
:100B6000E552F7D8590E03D9020EE15C02E2E16AC0
:100B7000E552E16EF8D01200120012001200EED819
:100B8000030E10D9EF0E466E070EF36E020EF3CF72
:100B9000DBFFDB500D0812E322D9020EDB50F90F08
:100BA0005924F66E000E5A20F76E0800F550E66ED6
:100BB000020EDB50E8D8020EDB2AEBD700016205FB
:100BC00001E14E84BDEC08F0030EE15C02E2E16A53
:100BD000E552E16EC8D0C2D8070EE1263A0EF66E95
:100BE000080EF76E030E0900F5CFDBFF040E0900B7
:100BF000F5CFDBFF050E0900F5CFDBFF060E090080
:100C0000F5CFDBFF030EDBCF54F0040EDBCF55F046
:100C1000DE5254C0DEFF55C0DDFFDD52E20E466EEF
:100C2000DF6ADF50DF2A000915E0DF50E76E010EB2
:100C3000DBCFF6FF020EDBCFF7FFE750ADD8E66E55
:100C4000070EDF24A0D8070EDF5C02E3000EE9D711
:100C5000010EE7D7BDEC08F0070EE15C02E2E16AA5
:100C6000E552E16E80D0ABD80001616F606B080E79
:100C7000EB50596E5A6AE85060275A506123050EAE
:100C8000626F010EE66E65D82CD8E552E552E5524A
:100C9000A2D064D86F0E466EFD0EDB50496EA5D80B
:100CA00062D0D5C0E9FFD6C0EAFF060EEB50E00BDC
:100CB000E838E840596E020E595C12E380D85D6E48
:100CC0005C6A080EEB505C245A6E000E5D205B6E71
:100CD000000160515A1804E161515B1801E1010CF7
:100CE000000C3CD8FD0EDBCFE6FFFE0EDBCFE6FFAF
:100CF000020EE66E04EC26F0E552E552E552FC0EDB
:100D0000DBCFE6FF040EE66EABEC25F0E552E552D4
:100D10002AD024D8020EE126F29EFE0EF66EF76867
:100D20003F0EF86E0900F5CFDEFF0A00F5CFDDFFBC
:100D3000F86AF28EDECF59F0DDCF5AF059C0F3FFDA
:100D40005AC0F4FF020EE15C02E2E16AE552E16E94
:100D50000AD060C0E6FF61C0E6FF1200D9CFE6FF0F
:100D6000E1CFD9FF1200E552E7CFD9FF1200E66EBE
:100D7000A8EC08F0E552E552E5521200DECFF6FF8E
:100D8000DDCFF7FF1200EA6A400FE96E000EEA229B
:100D9000E552E750EF6E1200F626000EF72208002B
:100DA000F5501200E126200EDE6E080EDD6E1200F8
:100DB000F36EFE0EDBCFF4FFF350F45C1200D5C0EF
:100DC000E9FFD6C0EAFF070EEB501200B1EC08F0C5
:100DD000E552E5521200BDDF520EB7EF06F0CEDF4E
:100DE000F6CF59F0F7CF5AF01200B3DFE6EF06F076
:100DF00012EE00F0800E006EA50EE66E002EFDD7FE
:100E000011EE00F021EE00F0F86A589C5FEC08F05B
:100E10000CEC07F0FBD71200D9CFE6FFE1CFD9FFEA
:100E2000E652ADD800A803D0009801BE829E1150B2
:100E300006E100A404D00094028401BE829E015009
:100E4000020B03E10150040B08E00050010B05E028
:100E500045D9A0EC22F0E552E55201A005D03ED9DB
:100E60004CEC11F0E552E55202AA68D0029A00015A
:100E70006B5124E06B076B050CE10284DF6A050E01
:100E8000DF5C07E2070EE66EA2EC08F0E552DF2A0F
:100E9000F6D700016B5112E142EC11F000017689A6
:100EA000768703EC0AF01AD942EC09F0E552E552D4
:100EB000E66AB9EC1DF0E5520001769B0001670778
:100EC00021E1010EE66EBCEC09F0E552E8B0818E3E
:100ED000E8A0819E0001685102E0000E01D0010EE1
:100EE000686F0001625103E00001685102E1000EE9
:100EF00001D0010E000902E0010E01D0040E000134
:100F0000676F696982EC18F057EC09F0E7D8BEEC1E
:100F100014F0E552E552CCEC09F00001DA5100087A
:100F200005E2027E02AE03D0DA0701D0029ED6D8D7
:100F3000A9EC0DF0E552E552C5EC0AF0A3EC26F061
:100F400000090CE0010EE66EBCEC09F0E552E8B0D9
:100F5000818EE8A0819E74EC0BF064D7000169518A
:100F600001E06907695101E05DD7E66ABCEC09F070
:100F7000E552E8B0818EE8B055D7819E53D7D9CFDE
:100F8000E6FFE1CFD9FFE6520001766B768BF26A7D
:100F9000A66A20EC09F0026A0001DA6B0001040E77
:100FA000676F686B696B8B6A8A6A896A9CD8800BE9
:100FB00003E0946A3D0E08D096D8200B03E0946AB3
:100FC0003F0E02D0946A3C0E936EC50E926E8290D4
:100FD000A56AA26A9F6A210EA36EA06A9D6AF06A42
:100FE000F16AF26AA46AA16A9E6AD08E060E2F6E1A
:100FF000306E006A016A01800080DF6A200EDF5CCB
:1010000016E295D8EF6A93D8EE52EE6AED6A8FD861
:10101000030EE926000EEA22800EEF6E88D8040E39
:101020007ED8050E7CD8060E7AD868D8E7D700019E
:101030007C6B00017D6BDF6A100EDF5C15E265D80A
:1010400071D8EF6A62D842D8EF6A5FD83FD8010EF4
:1010500063D8020E61D8030E5FD8040E5DD8050E6A
:101060002FD860D84BD8E8D700017E6B00017F6B8A
:101070000001666B00018D6B020EF66E000EF76EBE
:101080000800F550E66E000EF66E000EF76E0800D2
:10109000F550E66E9AEC08F0E552E5521FD848ECA0
:1010A0000DF0E552E552819C818EF28EF28C0001AA
:1010B000050E6B6FE552E552E7CFD9FF1200120023
:1010C000E926000EEA22EF6A85EF08F02BD8EE52EF
:1010D0001200000EE926020EEA22120064C0E6FFAA
:1010E00065C0E6FF12006CC0F6FF6DC0F7FF020E90
:1010F000F626000EF7220800F5501200070EE9262A
:10110000000EEA22EF6ADF2A1200DF50080DF3CF4B
:10111000E9FFF4CFEAFF1200D3DF66EF08F0D0DF7B
:1011200069EF08F0000EE926030EEA221200EDDF57
:1011300069EF08F05ED8FE0EDBCFE6FF39EC26F053
:10114000E5525CD056D8FE0EDB50466E16D856D00F
:1011500050D8FE0EDB50466EFC0EDBCFE6FFFD0ED8
:1011600062D047D859D8476E4DD8486E06D846D079
:10117000030EE66EE7DFE55212004650E00BE8385A
:10118000E840010F456EFAEF26F033D845D8496E96
:1011900039D84A6E60C0E6FF61C0E6FFFC0EDB5046
:1011A00002E0900E01D0910EE66ED2DFE552E552DC
:1011B000E55224D01ED8F60E466E3BD8EF50496E4D
:1011C000010E0FD84A6E020E0CD84B6E030E09D8D2
:1011D0004C6E040E06D84D6EFD0EDBCFE6FFFE0E04
:1011E00022D0E76E26D8E750E926000EEA22EF501B
:1011F0001200D9CFE6FFE1CFD9FF1200E552E7CFC9
:10120000D9FF1200FF0EE76EFD0EDBCF59F0E7505D
:1012100059165A6A59501200FE0EDBCF5AF05AC0C6
:1012200059F05A501200DBCFE6FF9BDFE552E55242
:10123000E5D7FB0EDBCFE9FFFC0EDBCFEAFF1200A8
:10124000FED938EC04F00001000E646F600E656F8B
:1012500064C06CF0E8CF6DF00001706B716B736B64
:10126000746B64C0F6FFF76E0C0EF62609DAE824FC
:10127000756F64C0E6FF6DC0E6FF40EC1DF0E552FF
:10128000E552E0D113DAFD0EDBCFF6FFFE0EDBCF29
:10129000F7FFF62AF5D9400B09E0010EE66EE66E7F
:1012A000E66AC5EC08F0E552E552E55204D20001C9
:1012B000735106E0745102E0000E01D0010E746F0C
:1012C00080B42AD000016251040A22E0030A1DE022
:1012D000060A16E0070A14E0040A08E0020A01E020
:1012E00012000001726B0001020E13D00001722B7C
:1012F000060E725D10E3010E736F0001030E09D03C
:101300000001726B0001070E04D00001722B120065
:10131000080E626F1200120000016251080A26E0F6
:101320000F0A17E0020A0FE0060A08E0010A04E0CB
:10133000020A21E0010A1200626B12004AEC04F07A
:101340000001040E04D00001736B0001010E626FF6
:1013500012000001725100080EE27251060802E20A
:101360005EEF04F0010E736F4AEF04F053EC04F0EB
:101370000001736B1200120062D90001735103E087
:1013800074C0DFFF03D0FE0EDB50DF6EDF5002E0E3
:10139000010E01D0000E56D189D9040EE1260001BC
:1013A000755129E0750728E152D989D9070EF6262B
:1013B000000EF7220800020EF5CFDBFF2450E76E87
:1013C000030EE7CFDBFF020EDBCFE6FF030EDB50A1
:1013D000E552E702F350DE6EDD6A010EF4CFDBFF6B
:1013E000D00E466E496A010E4A6EDB504B6EDF50DE
:1013F0004C6E38D901D02BD9040EE15C02E2E16ACF
:10140000E552E16E58D10001769D0250010B01E0DA
:10141000768D76950250040B01E07685E30E466EDC
:101420004ED90800F550496E76C04AF0040E4B6E56
:10143000660E4C6E0A0E4D6E32EF0BF000D90F0E99
:10144000F36EFD0EDBCFF4FFF350F45C61E22AD9BA
:10145000EF50800B5DE01CD9EF50010B19E0DDD897
:1014600014D9EFCFDFFF34D9EF50800B11E030D922
:10147000EF962ED9EF50100B0BE0800E596E28D945
:10148000E3D85950EF1624D9070E25D9010EEF6E77
:10149000C4D8FBD8FE0EDBCFEFFFDB50C9D8EE522D
:1014A000EECF59F0EFCF5AF0B8D859C0EEFF5AC07E
:1014B000EDFFF8D8C9D8EF507F0B0FE1FD0EDB50E0
:1014C000040DF3CFF6FFF4CFF7FF100EF626600EF3
:1014D000F722020EF626D4D803D0E4D8B5D8EF50C0
:1014E000E66E9BD8020EC7D80E0EF66E600EF76E33
:1014F0000800F550E66E91D8050EBDD8C9D8EF802A
:10150000C7D8EF82C5D8EF96C3D8EF98CBD8EF866F
:1015100099D095D8BDD8EF50010B05E0FC0EDB50FB
:1015200002E0000E01D0010EDF6EDF5009E0FD0E7B
:10153000DBCFE6FFFE0EDBCFE6FF80DFE552E552B4
:10154000DF5080D07CD8DF6A0F0EDF5C0AE288D8DB
:101550009CD8EFCF59F0FE0EDB50595C02E0DF2A39
:10156000F3D70F0EDF5C01E1DF68DF506BD067D887
:10157000FE0EDBCFE6FFE6DFE552DF6EFF0EDF5C3F
:1015800003E06ED861D8EF905DD059D8DF6A200EA5
:10159000DF5C1FE245D8EF50FF0819E041D8EE525A
:1015A000EF0615E16CC0E6FF6DC0E6FF39D8EECF5F
:1015B000E6FFEECFE6FFEECFE6FFEFCFE6FF74ECFF
:1015C0001CF0596E060EE15E59502AD8EF68DF2AEA
:1015D000DED738D034D8DF6A200EDF5C06E220D8B0
:1015E000EF50FF0802E0DF2AF7D7200EDF5C0EE2A3
:1015F00017D8EE52FD0E68D8FE0E66D8020E6BD8D4
:10160000FC0E62D821D8FB0EDBCFEFFF200EDF5C93
:1016100002E3000E01D0010E15D0FD0EDB503BD0D1
:10162000DF50040D5CD8000EE926050EEA221200F8
:10163000080D55D8000EE926020EEA22120036D80F
:10164000E6521200E55237D0030E6BEF0BF037D89D
:101650000C0EF626000EF7220800F5CF75F01200EA
:10166000DF5019D060C0E6FF61C0E6FFB1EC08F0C2
:10167000E552E55212002FD8E552E750EF6E120006
:10168000000EF7220800F5501200040E6BEF0BF06D
:10169000C4DF24EF0BF0060D22D8000EE926040E5D
:1016A000EA221200FE0EDB5018EF0BF0D9CFE6FF56
:1016B000E1CFD9FF1200E552E7CFD9FF12006CC08D
:1016C000F6FF6DC0F7FF1200DBCFEFFF10EF0BF05E
:1016D000DF5018EF0BF0E926000EEA221200F3CFDC
:1016E000E9FFF4CFEAFF1200D9CFE6FFE1CFD9FF3F
:1016F000050EE12600016695D5C0E9FFD6C0EAFFD8
:10170000060EEB505C0A01E13CD1500A01E136D1F2
:10171000490A01E130D14F0A01E12AD1020A01E16F
:1017200017D1010A01E114D1890A01E10ED1200A81
:1017300001E10BD1600A01E108D1200A01E105D1E4
:10174000C20A01E1F1D0030A01E1CFD0650A01E14B
:10175000C9D0040A01E18AD0210A01E187D0E50A53
:1017600001E181D0260A01E17ED0200A01E17BD08F
:10177000010A01E178D0420A76E0E20A63E06A0AEF
:1017800041E0030A3FE02A0A22E0270A01E006D1ED
:10179000D5C0E9FFD6C0EAFF070EEB50E76E020E98
:1017A000E7CFDBFFD5C0E9FFD6C0EAFF080EEB505C
:1017B000E76E030EE7CFDBFF030EDBCFE6FF020E83
:1017C000DBCFE6FF89EC13F0E552E552F8D0D5C047
:1017D000E9FFD6C0EAFF090EEB50E66ED5C0E9FF7F
:1017E000D6C0EAFF080EEB50E66ED5C0E9FFD6C0C2
:1017F000EAFF070EEB50E66EC0EC13F0E552E5523F
:10180000E552DDD0D5C0E9FFD6C0EAFF080EEB50A7
:10181000E66ED5C0E9FFD6C0EAFF070EEB50E66ED4
:10182000D5C0E9FFD6C0EAFF060EEB50490802E139
:10183000010E01D0000EE66ED1EC12F0E552E55239
:10184000E552BDD0D5C0E9FFD6C0EAFF070EEB5088
:10185000E76E020EE7CFDBFF020EDBCFE6FF72EC96
:1018600015F0E552ACD0DBEC21F0A9D0D5C0E9FFF2
:10187000D6C0EAFF070EEB50596E59C05AF0596AAC
:1018800059C0DEFF5AC0DDFFD5C0E9FFD6C0EAFF70
:10189000080EEB50DF12D5C0E9FFD6C0EAFF060EF6
:1018A000EB5061080BE1D5C0E9FFD6C0EAFF090E95
:1018B000EB50E76E040EE7CFDBFF02D0040EDB6ACD
:1018C0006CC0E6FF6DC0E6FF040EDBCFE6FFDECFA7
:1018D000E6FFDDCFE6FF74EC11F0596E050EE15E18
:1018E00059506DD09AEC12F06AD0D5C0E9FFD6C03D
:1018F000EAFF070EEB50E76E020EE7CFDBFF6CC08E
:10190000F6FF6DC0F7FFF62A000EF7220800F5502B
:10191000800B01E0FF0EE66E020EDBCFE6FFFEEC71
:1019200014F0E552E5524BD0D5C0E9FFD6C0EAFF2E
:10193000070EEB50E76E020EE7CFDBFF020EDBCFA8
:10194000E6FFB4EC14F0E5523AD086EC15F037D04F
:10195000D5C0E9FFD6C0EAFF060EEB50090802E049
:10196000000E01D0010EE66E80EC21F0E55227D08A
:1019700093EC21F024D0F3EC15F021D003EC0AF025
:101980001ED051EC06F0010808E1E668FF0EE66E95
:10199000ABEC25F0E552E552FF0011D0D5C0E9FFD0
:1019A000D6C0EAFF060EEB50010EFF0802E12CD86C
:1019B00005D061EC04F0000901E137D800D0000146
:1019C000705108E06CC0E6FF6DC0E6FF48EC0DF01A
:1019D000E552E552000166B50DD00000D5C0E9FF23
:1019E000D6C0EAFFEF6A02A804D00298A380B8EC40
:1019F00008F000D0050EE15C02E2E16AE552E16E1A
:101A0000E552E7CFD9FF1200D9CFE6FF030EE1265A
:101A1000D5C0E9FFD6C0EAFFE15C02E2E16AE55227
:101A2000E16EE552E7CFD9FF1200D9CFE6FFE1CF53
:101A3000D9FFE652010EDF6ED5C0E9FFD6C0EAFF3E
:101A4000060EEB50900A0EE0010A0CE0090A0AE0CB
:101A5000010A08E00A0A06E0070A04E0090A02E0AF
:101A6000030A0FE16CC0E6FF6DC0E6FFD5C0E6FFDC
:101A7000D6C0E6FFC6EC18F0E552E552E552E55255
:101A800001D0DF6ADF50E552E552E7CFD9FF1200FF
:101A900033DBFD0EDBCFE6FFFE0EDBCFE6FF79D8B2
:101AA000E552E552116E126A136A146A156A166AD3
:101AB000176A226A236A246A256A266A276A286ABC
:101AC000296A2A6A2B6A2C6A2D6AFDDAF550040B02
:101AD00001E0FF0E0001786F18DB090E1DDB3E6E82
:101AE00014DB050E19DB186E196A0FDB060E14DB0A
:101AF0001A6E1B6A0ADB080E0FDB206E216A1C6A55
:101B0000030E1D6E1E6A1F6E2E6A860EC06E0E0EAE
:101B1000C16E010EC26E776BAC0E796F210E7A6FBB
:101B20007B6B0001950E6A6F000166AB03D000016C
:101B3000A10E6A6F410ED56ED66AD76AF28AF18419
:101B4000D58E3D6AC0DA3D90F550400B01E03D80F6
:101B5000D8D2D2DADADAF62A000EF7220800F550E7
:101B6000010B0FE1000ED8801254000E13540BE34A
:101B70000250800B08E18150100B03E10250040B6E
:101B800002E1000E01D0010EE8B08982E8A089923E
:101B9000B8D2B2DA98DAF550010B03E08150200B8D
:101BA0000AE191DAF550010B04E18DDAF550020BF0
:101BB00002E0000E01D0010EA4D2DACFE4FFE2CFA2
:101BC000DAFFE9CFE4FFEACFE4FFF6CFE4FFF7CF97
:101BD000E4FFF5CFE4FFF3CFE4FFF4CFE4FFFACF67
:101BE000E4FFE652F2946AC0D6FF828CCF0E000169
:101BF0006A5D09E13DA202D03D9206D0018A3D8492
:101C0000950E6A6F01D03D9401BE828C115028E17F
:101C100001AA02D082800ED03DB43ED202A409D0E7
:101C2000828002A603D08294828206D0829282842D
:101C300003D08290829282943DB42ED202A008D02A
:101C400082880250020B02E0828603D0829601D085
:101C5000829802A402D0818C01D0819C009A20D06D
:101C60003DB41AD202A009D0828002A203D082948D
:101C7000828206D08292828403D082908292829461
:101C800002A408D082880250080B02E0828603D0AA
:101C9000829601D0829802A002D0818C01D0819CD2
:101CA0003DB4FAD164C0E6FF65C0E6FF52DFE552FD
:101CB000E5522F500C0A68E0070A64E0010A5FE071
:101CC000030A5BE0010A56E00F0A4CE0010A47E014
:101CD000030A35E0010A31E0070A2CE0010A0FE0AF
:101CE000030A0CE0010A50E10272800E31148008F0
:101CF00002E1010E01D0040E2F6E49D002722F6A4C
:101D000031503124316E3706375041E13B2AE2D958
:101D1000080E376E3306335029E10906095006E0F4
:101D20000150100B11E10050080B0EE0060E2F6E53
:101D300000802DD00272020E29D0030E27D002722D
:101D4000060E2F6E00B023D0080E2F6E3B6AC2D94C
:101D5000160E326E3950336E080E376E18D002727E
:101D6000050E14D002723206325002E10C0E0ED073
:101D7000080E0CD00272070E09D02F6A08D002722A
:101D8000090E04D00A0E02D002720B0E2F6E3050D4
:101D90000C0A01E177D0070A73E0010A6EE0030A3A
:101DA0006AE0010A58E00F0A4EE0010A49E0030A1E
:101DB00037E0010A33E0070A2EE0010A0FE0030AC8
:101DC0000CE0010A5FE10276800E3414800802E123
:101DD000010E01D0040E306E58D00276306A3450B5
:101DE0003424346E3806385050E13C5004E1015040
:101DF000800B01E0828A3C2A76D9080E386E3606BE
:101E0000365025E101BE829A100610500EE1060EF2
:101E1000306E01803AD00276020E36D0030E34D0F6
:101E20000276060E306E01B030D0080E306E3C6A7D
:101E30005AD9120E356E3A50366E080E386E25D0CD
:101E40000276050E21D002763506355002E10C0EE1
:101E50001BD0080E19D002763DA00BD0120E355CB7
:101E600004E10001CF0E6A6F3D820E0E355C01E188
:101E7000019A070E09D0306A08D00276090E04D004
:101E80000A0E02D002760B0E306E00017751040A62
:101E900001E185D0070A01E17ED0010A10E0030AC2
:101EA00005E0010A01E0DCD0010E73D0020E776F6D
:101EB000785101E1D5D0115001E0D2D06ED011504F
:101EC00065E1785125E0C2B227D0C4505E6E5F6EE6
:101ED0005E6AC35000015E10226E5FC023F0245082
:101EE000265C266E25502758276E26502224266E03
:101EF00027505F20276E26C024F0256ED89025320B
:101F00002432D89025322432010EC26E000102D054
:101F1000010EC26E030E776F125013102CE1145095
:101F2000151015E122501C5C23501D5806E28292C8
:101F3000829401AE1BD0828E19D01850245C1950A7
:101F4000255801E28DD0820E146E156A89D01406D0
:101F5000000E155A1450151001E082D01850245C60
:101F60001950255801E27CD001BE828E0294126A7B
:101F7000090E136E75D01206000E135A125013106C
:101F80006FE1008401AE6CD0829E6AD0010EC26EF9
:101F9000030E776F65D0040E776FC28261D0C2B234
:101FA0005FD0C4505E6E5F6E5E6AC35000015E100B
:101FB000286E5FC029F02A502C5C2C6E2B502D58B7
:101FC0002D6E2C5028242C6E2D505F202D6E2CC091
:101FD0002AF02B6ED8902B322A32D8902B322A320C
:101FE000010EC26E0001776F11503AE016501710C3
:101FF00027E100AA0ED02E50000120245E6E000EB4
:1020000021205F6E5E502A5C5F502B5829E30086CA
:1020100027D01E50285C1F5029580EE20050400B5C
:1020200002E111501DE11A502A5C1B502B5818E395
:10203000820E166E176A14D001AE0FD0828E0DD0AC
:102040001606000E175A165017100AE11A502A5C8D
:102050001B502B5805E301BE828E02900088009C25
:102060000001010E795F000E7A5B7B5B79517A117A
:102070007B1112E1AC0E796F210E7A6F7B6B028AB5
:102080000001D85101E0D80764C0E6FF65C0E6FF53
:1020900080DDE552E552116E829C01BE829CE552C4
:1020A000E5CFFAFFE5CFF4FFE5CFF3FFE5CFF5FF8E
:1020B000E5CFF7FFE5CFF6FFE5CFEAFFE5CFE9FF94
:1020C000E5CFDAFF110021D8020EF626000EF72226
:1020D000080012003B50EA6A030FE96E000EEA2284
:1020E000EF50316E12003C50EA6A0A0FE96E000EA2
:1020F000EA22EF50346E1200D9CFE6FFE1CFD9FFCC
:102100001200E552E7CFD9FF1200FD0EDBCFF6FF3C
:10211000FE0EDBCFF7FF1200F626000EF7220800B6
:10212000F5501200D8CFE4FFE0CFE4FFE46EDACF41
:10213000E4FFE2CFDAFFE9CFE4FFEACFE4FFF6CF36
:10214000E4FFF7CFE4FFF5CFE4FFF3CFE4FFF4CFF4
:10215000E4FFFACFE4FF00EE4EF00B0EE80403E3D9
:10216000EECFE4FFFBD700EE59F0050EE80403E3E1
:10217000EECFE4FFFBD7E65267EC27F0A46AE55206
:1021800000EE5DF0050EE80403E3E5CFEDFFFBD7BD
:1021900000EE58F00B0EE80403E3E5CFEDFFFBD7AC
:1021A000E5CFFAFFE5CFF4FFE5CFF3FFE5CFF5FF8D
:1021B000E5CFF7FFE5CFF6FFE5CFEAFFE5CFE9FF93
:1021C000E5CFDAFFE550E5CFE0FFE5CFD8FF10001F
:1021D00036EC21F07F0803E2200EDF10DF6EFE0EEA
:1021E000DB9EDB0403E1010EDF1015D0FE0EDB5099
:1021F0007C0B040802E1FE0EDB2AFE0EDB40E84009
:10220000E8401F0BDF10DF6EFE0EDBA403D0100EC4
:10221000DF10DF6EDF50E55267EF1EF036EC21F085
:10222000E850800B03E0200EDF10DF6EFE0EDB9E19
:10223000DB0402E1010E0CD0FE0EDB50780B080827
:1022400002E1FE0EDB2AFE0EDB40E840E8401F0BF9
:10225000DF10E55267EF1EF081EC20F0018CDF6AA1
:10226000200EDF5C0CE222EC21F0800B0109E66E0F
:10227000F6EC1FF0030EE5EC20F0DF2AF1D7E55273
:1022800067EF1EF00A6A710E0B6E0C6E060E106E72
:10229000030E3A6E019012006BEC1EF001AC03D0FD
:1022A000F1DF019C1FD0000180511AE18AEC1EF081
:1022B000EF50800B05E03CEC21F059EC17F00ED00C
:1022C000CEEC1EF0020E44EC20F0400B01E0FF0EBD
:1022D000E66E3CEC21F0BBEC17F0E552E55202D083
:1022E00077EC18F067EF1EF06BEC1EF0060EE1269F
:1022F000D950FD0FE96EFF0EDA20EA6EEE50ED10B8
:1023000002E1FF0EF2D0010EDB6A020EDB6A030E61
:10231000DB6A040EDB68DF6A010EAFEC1FF0200EF3
:10232000DF5C36E205EC21F0800B23E1010EDB508F
:1023300006E105EC21F0040B02E1010E15D005ECDD
:1023400021F0040B23E0050EDB6AF6EC1FF050ECE5
:102350001FF006E1FE0EDB505A1802E1020E04D017
:10236000030EDB5013E1030EDFCFDBFF050EDB6A4C
:102370000DD0F6EC1FF050EC1FF008E1FE0EDB5024
:102380005A1804E1020EAFEC1FF002D0DF2AC7D7C3
:10239000050EDB50020842E105EC21F0100B13E0C2
:1023A000F6EC1FF0EF9872EC1FF005EC21F0080B33
:1023B00001E189D0DFCFE6FFB7EC0AF0E552F6EC99
:1023C0001FF0EF9680D0FC0EDB50020A12E0030AE9
:1023D00001E079D064EC20F0020B75E0010EE66EAE
:1023E000B0EC20F0F6EC1FF0FC0EEF140009EF6EDD
:1023F00012D064EC20F0040B66E005EC21F0030B36
:10240000596E030E595C07E205EC21F0030BE82A34
:1024100059EC1FF0F45072EC1FF055D0050EDB5054
:1024200052E1020EDB5002E0020E04D0010EDB503E
:1024300007E0010EDB50E76E040EE7CFDBFF12D0A2
:10244000030EDB500CE0030EDB50E76E040EE7CF0B
:10245000DBFF030EDBCFE6FF18DBE55203D0010EF6
:10246000AFEC1FF0050EDB502EE129EC20F0EE5210
:10247000FD0EDBCFEEFFFE0EDBCFEDFF29EC20F0F3
:10248000B4EC1FF001E0010E596E29EC20F0EE5281
:10249000EE52FDEC1EF0F346BF0E8EEC20F029EC60
:1024A00020F0EF8E29EC20F0EF9429EC20F0FC0EC8
:1024B000EF140009EF6E29EC20F0EF98040EDBCF4B
:1024C000E6FF1DD8E552050EDB500DE0630E466EAB
:1024D000B4EC20F0476E080EEB50486E050EDB5052
:1024E000496EBDEC08F0040EDB50596E060EE15C3F
:1024F00002E2E16AE552E16E595067EF1EF06BECC3
:102500001EF0C0EC1EF0EEDAE552CEEC20F067EFE4
:102510001EF06BEC1EF0630EB9EC1FF0486AFD0E66
:10252000DB5002E0080E01D0030E496EBDEC08F04E
:1025300067EF1EF00DEC20F0B4EC20F0DF6E05EC40
:1025400021F0800B23E07DEC20F000090EE17DEC12
:1025500020F0030B596EF6EC1FF05950030B92EC70
:1025600020F09F0E8EEC20F014D07DEC20F0800B3C
:102570003BEC20F0DBCFE6FFDFCFE6FF1EEC0AF0FE
:10258000E552E552F6EC1FF0EF8603D0E66AB0ECB8
:1025900020F0020EE15C02E2E16AE552E16E67EFD3
:1025A0001EF00DEC20F0FD0EDB5030EC1EF0EF5075
:1025B000800B01E180D0DE52010EDD6EFC0EDB509F
:1025C0001C080AE2060EDF6E1D0E70EC1EF06AE0BB
:1025D00086EC1FF0FDE166D0FC0EDB5014080AE229
:1025E000050EDF6E150E70EC1EF05CE086EC1FF041
:1025F000FDE158D0FC0EDB500C080AE2040EDF6E41
:102600000D0E70EC1EF04EE086EC1FF0FDE14AD09E
:10261000FC0EDB5008080DE2030EDF6E090E70ECB5
:102620001EF003E086EC1FF0FDE121EC20F0060E29
:1026300029D0FC0EDB5004080DE2020EDF6E050E01
:1026400070EC1EF003E086EC1FF0FDE121EC20F0C1
:10265000050E18D0010EDF6EFC0EDB5005E1050EF5
:10266000F36EFC0EF3CFDBFFFC0EDB04596E74EC53
:1026700020F05950070B03E086EC1FF0FDE121EC40
:1026800020F0040E48EC1EF0E9CF59F0EACF5AF0E2
:10269000E9CFE6FFEACFE6FF1CD884EC20F0E55254
:1026A0003BEC20F0D5EC1EF0DFCFE6FFCDEC1FF0C9
:1026B00093D8E55204D0E66ACDEC1FF02ADFE5524C
:1026C000E552020EE15C02E2E16AE552E16E67EF7B
:1026D0001EF06BEC1EF0FC0EDB50020A12E0020A48
:1026E00006E0010A11E101EC1FF0EF120DD0FB0E24
:1026F000DB1CE76EFB0EE7CFDBFF01EC1FF0EF16F4
:1027000003D001EC1FF0EF1A99EC20F0EF5067EFC7
:102710001EF0EBEC20F030E0FD0EDB507F0B596E2D
:102720006DEC1FF00F0E44EC20F0D880595411E2EC
:102730006DEC1FF00F0EF626000EF7220800F5CF05
:1027400059F0FD0EDB50800B5924E76EFD0EE7CFEC
:10275000DBFF4BEC21F0FD0EDBCFEFFFE66A48EC30
:1027600021F03AD884EC20F0FD0EDB507F0B0008FE
:1027700005E20001769902D04AEC20F067EF1EF0E6
:10278000EBEC20F022E0FD0EDB50030A0CE0010A26
:1027900006E0030A10E1D4EC1FF0040E07D0D4ECDD
:1027A0001FF0050E03D0D4EC1FF0060E48EC1EF00F
:1027B000FC0EDBCFEFFFFC0EDBCFE6FFCDEC1FF016
:1027C000C0EC1EF009D8E55203D048EC21F0A1DEA0
:1027D000E552E55267EF1EF060EC20F0DF6A98ECFE
:1027E0001EF08EEC1FF0D4EC1FF0EF50800B01E1D7
:1027F000B1D0C0EC1EF076D9E5524BEC21F08AEC5A
:102800001FF041EC1EF0EF50800B01E0A0D0E8EC8F
:1028100020F040EC20F0D4EC1FF0B4EC1FF019E0F5
:102820007AEC21F0F9EC1FF051EC20F07AEC21F079
:10283000EF50E66E5CEC21F04FEC21F0E8EC20F07C
:10284000E9CF5AF0EACF5BF053EC21F0EF50591882
:1028500004D0D4EC1FF0F9EC1FF051EC20F0FD0E89
:10286000DB502AE1D4EC1FF060EC1FF015E0020A07
:102870000FE0010A0DE0020A1BE15CEC21F03F0EC3
:10288000D6EC1FF0F3EC1FF0010EDBCFEFFF10D002
:10289000D5EC1EF09DDC03D0D5EC1EF0BFDCE5527C
:1028A000E66EE8EC20F01AEC21F0E552E750EF6E0E
:1028B0007AEC20F0010E31D0FD0EDB50050A20E04D
:1028C000010A1AE0070A0EE0010A07E0030A22E102
:1028D000FC0EDB501F0B800909D0FC0EDB500F0BE8
:1028E000B00904D0FC0EDB500F0BA009E66E5CECC7
:1028F00021F04FEC21F00ED05CEC21F0DE0E03D085
:102900005CEC21F0DF0ED6EC1FF0F3EC1FF0FC0EB8
:10291000DBCFEFFF7AEC20F0020ED6EC1FF0050EB5
:1029200048EC1EF0EF50E66EE8EC20F01EEC21F0D3
:1029300069EC1FF041EC1EF059500BEC1FF041EC1C
:102940001EF0EF8E00017E290F0B7E6F05D0000177
:10295000668502D04AEC20F0040EE15C02E2E16AF6
:10296000E552E16E67EF1EF0EBEC20F003E0CEECF9
:1029700020F002D04AEC20F067EF1EF081EC20F04E
:10298000DF6A200EDF5C37E205EC21F0800B31E0DE
:1029900005EC21F0100B2DE105EC21F0080B29E1ED
:1029A000F6EC1FF05FEC21F0EF0623E122EC21F0C2
:1029B0007F0B07E0CEEC1EF0F62AA4EC1EF0200BF5
:1029C0000AE1E66ADFCFE6FF19D8E552E552E66A8A
:1029D000B0EC20F00ED022EC21F0800BE66EDFCFC1
:1029E000E6FF3FEC1FF0F6EC1FF05FEC21F0010E6C
:1029F000EF6EDF2AC6D7E55267EF1EF0EBEC20F052
:102A00003DE0D4EC1FF0EF50030B000809E2D4ECDA
:102A10001FF0EF50030BE806F36E59EC1FF033D0B4
:102A2000D4EC1FF0EF50080B0AE14BEC21F0EF5013
:102A30007F0B010804E3C0EC1EF049D823D0D4EC8E
:102A40001FF0EF88FD0EDB501EE0010EE66E48EC35
:102A500021F095EC1FF017E1010EE66EE66EC0EC7A
:102A60001EF095EC1FF00FE1010EE66E020EE66E11
:102A7000C0EC1EF089EC0AF0E55203D048EC21F0DE
:102A800048DDE552E55267EF1EF073EC21F0EF6A86
:102A90007AEC21F0EE6AED6A4BEC21F0800EEF6EDD
:102AA000D4EC1FF0040E48EC1EF0EF6AD4EC1FF0DB
:102AB00040EC20F0D4EC1FF0060E48EC1EF0EF6A5C
:102AC000D4EC1FF05FEC21F0EF6A67EF1EF073ECBF
:102AD00021F0EF9ED4EC1FF0EF98D4EC1FF0EF84C0
:102AE00067EF1EF0EBEC20F00DE0040EF66E600ECA
:102AF000F76E0800F550E824E66ED4EC1FF056ECB3
:102B000020F002D04AEC20F067EF1EF00DEC20F030
:102B100098EC1EF0BEEC1FF02BEC20F0EF50800B79
:102B200058E1AEEC1EF0060EEB50800A1EE0200AC3
:102B300014E0600A0AE0200A36E1AEEC1EF00D0E49
:102B4000BBEC1EF0050EE5EC20F0AEEC1EF00C0E1A
:102B5000BBEC1EF0040EE5EC20F0AEEC1EF00B0E0C
:102B6000BBEC1EF0030EE5EC20F0AEEC1EF00A0EFE
:102B7000BBEC1EF059EC20F0AEEC1EF0090EBBECE5
:102B80001EF0010EE5EC20F0AEEC1EF0080EBBECE2
:102B90001EF04FEC21F0B4EC20F0070BE66E2BECAE
:102BA00020F056EC20F0AEEC1EF0060EEB50E00BE1
:102BB000E00BE838E840FF0F596E2BEC20F0E850AE
:102BC0000BEC1FF02BEC20F0EF8E7E290F0B7E6FAD
:102BD00002D000016685020EE15C02E2E16AE55284
:102BE000E16E67EF1EF00DEC20F0120E0001876F12
:102BF000886B7DEC20F000018C6F070EEB5030EC01
:102C00001EF0EE52EECFDEFFEDCFDDFF010EE66EE1
:102C10008CC0E6FF87C0E6FF88C0E6FFDECFE6FF98
:102C2000DDCFE6FF0CD8596E060EE15E5950020E5C
:102C3000E15C02E2E16AE552E16E67EF1EF06DECE5
:102C400020F04FE13EEC1EF040EC20F0D9EC1EF0FD
:102C5000800B0FE038EC20F0FE0EDBCFEFFF62ECD4
:102C600021F0FD0EDBCFEFFFF2EC20F0EF50591812
:102C700007D038EC20F0FD0EDBCFEFFF25EC20F085
:102C80001FEC20F0F90EDB94DB96DB98DB9ADB9CE3
:102C9000DB9EDB0404E115EC1FF0EC0E03D015EC19
:102CA0001FF0E80E5B12000E5C1266EC21F0FF0EC6
:102CB000E76EFB0EDBCF5BF0FC0EE7505B165C6A49
:102CC00066EC21F017EC21F0FA0EDBCFEFFFD1EC30
:102CD0001FF0E5EC1FF0020EEF6E010E21EC1FF06D
:102CE00002D000016685030EE15C02E2E16AE55272
:102CF000E16E67EF1EF060EC20F098EC1EF08EECB9
:102D00001FF041EC1EF0EF50800B56E1E8EC20F094
:102D100040EC20F0FD0EDBCF59F0FE0EDBCF5AF079
:102D2000FF0E5916070E5A16BEEC1FF0010EDB50AF
:102D3000200DF350200B596EDF50E840E8403F0B68
:102D4000010F3F0B800F5924E66EE8EC20F04FECAA
:102D500021F0030EDF14E824596E010EDB38F00B6E
:102D6000E81C700B880F5924E66E5CEC20F04FECE9
:102D700021F0FC0EDB5003E05CEC20F0EF805CEC1B
:102D800020F0EFCF59F0E8EC20F044EC1FF0E8EC35
:102D900020F059EC20F041EC1EF0F80EEF1403097E
:102DA000EF6E7AEC20F0010EEF6E41EC1EF0EF8E2C
:102DB0007E290F0B7E6F02D000016685040EE15C58
:102DC00002E2E16AE552E16E67EF1EF06BEC1EF085
:102DD000050EE126030EDB6AFC0EDB505EE06DECB7
:102DE0001FF04C0EF626000EF722C3EC1FF0BEECCF
:102DF0001FF0020EDB6A0A0EF36E020EC8EC1FF023
:102E00004CE2BCEC20F09AEC1FF0FD0EDB505918A0
:102E100003E1FE0EDB505A1802E0000E01D0010E55
:102E2000E76E030EE7CFDBFFDB502CE0040EDB6A1E
:102E3000060EF36E040EC8EC1FF024E211EC20F035
:102E4000010B1DE011EC20F0020B01E0010EE66E1B
:102E500005EC1FF0F6CF5BF0F7CF5CF0040EDB5013
:102E6000020D5B50F324F66E5C50F420F76E080000
:102E7000F550E66EE66A3FDFE552E552E552040E94
:102E8000DB2AD6D7020EDB2AD9CFE9FFDACFEAFF59
:102E90000E0EEE26000EEF22AED7030EDB50596E5B
:102EA000050EE15C02E2E16AE552E16E595067EF1E
:102EB0001EF081EC20F000018AEC1EF0EF50070BB1
:102EC0003A6E010E106EDF6A3A50DF5C0BE20001D1
:102ED0008AEC1EF0EE521AEC21F0EF5012EC21F0C9
:102EE000DF2AF2D700018AEC1EF05FEC21F0EF50F0
:102EF00001080DE28AEC1EF05FEC21F0EF04E66EB3
:102F00008AEC1EF056EC20F0010E806F06D08AECA1
:102F10001EF0EF9E7F290F0B7F6F0190D9EC1EF002
:102F2000010B02E0F0EC1EF0E55267EF1EF06DECD5
:102F300020F019E13EEC1EF040EC20F038EC20F0DF
:102F40007F0EEF6E62EC21F03F0EEF6ED1EC1FF0C2
:102F500017EC21F0EF6AD1EC1FF0E5EC1FF0010E49
:102F6000EF6E21EC1FF0030EE15C02E2E16AE55234
:102F7000E16E67EF1EF06BEC1EF0030EE126000120
:102F800047EC20F0EF50800B01E180D0DF6A47EC86
:102F900020F0B4EC1FF00CE047EC20F0EE5292EC85
:102FA0001EF00F6E47EC20F092EC1EF00F1804D0CC
:102FB00047EC20F092EC1EF00F6E7D51020A25E0E6
:102FC000030A1BE0010A13E047EC20F0030E48EC73
:102FD0001EF08AEC1FF047EC20F060EC1FF02CE0B4
:102FE000020A25E0010A23E0020A19E032D047EC88
:102FF00020F0B8EC20F080090FD047EC20F0050E4F
:1030000048EC1EF0EF50B00907D047EC20F0060E58
:1030100048EC1EF0EF50A00912EC21F01AD0DF505E
:1030200003EC20F03F0EEF6E2CEC1FF00CD0D5EC33
:103030001EF0E8EC10F004D0D5EC1EF00EEC11F010
:10304000E5523BEC20F0DF5003EC20F0010EDBCF2B
:10305000EFFF2CEC1FF041EC21F00FC0EFFFDF5031
:103060003A6E010E106E019000017D51020804E2DB
:10307000D9EC1EF0020B07E17D51020808E3D9EC00
:103080001EF0040B04E0F0EC1EF001D030D8200E4E
:10309000DF6E020EDB6ADF5000081AE200017C2BB3
:1030A000200E7C5D08E37C6B010E806F7D2B7D51D3
:1030B000060801E27D6BDF0647EC20F0EF50800B45
:1030C000EAE0010EF36E020EF3CFDBFFDF6AE3D717
:1030D000020EDB5004E1FD0EDB5001E028DF030EA1
:1030E000E15C02E2E16AE552E16E67EF1EF00A6818
:1030F0000B6A0C68030E3A6E010E106E019000010F
:10310000806B12000DEC20F06DEC1FF044EC20F011
:10311000200B34E0DF6A020EDF5C30E2DF5003E1B7
:103120008150010B04D08150020B01E0010E000917
:1031300002E0000E01D0010E3BEC20F0DB5019E064
:10314000C4EC1EF0EF5000080FE2C4EC1EF0EF06D6
:1031500013E1DF5002E0000E01D0010EE66EE66AD8
:1031600078DBE552E55208D0C4EC1EF00A0EEF6E93
:1031700003D0C4EC1EF0EF6ADF2ACDD7020EE15C6B
:1031800002E2E16AE552E16E67EF1EF0D9CFE6FF99
:10319000E1CFD9FF080EE126FD0EDBCFE9FFFE0EE1
:1031A000DBCFEAFF070EE926000EEA22EF50E66EBB
:1031B000D950040FE96EDACFEAFFE552E750EE6E20
:1031C000ED6AD950040FE96EDACFEAFFEE50ED6EEA
:1031D000EF6AFD0EDBCFE9FFFE0EDBCFEAFF080E44
:1031E000E926000EEA22EF50596E5A6AD950040FB0
:1031F000E96EDACFEAFF5950EE265A50ED22FD0E65
:10320000DBCFE9FFFE0EDBCFEAFF090EE926000E59
:10321000EA22EF50E66ED950060FE96EDACFEAFFE8
:10322000E552E750EE6EED6AD950060FE96EDACF3F
:10323000EAFFEE50ED6EEF6AFD0EDBCFE9FFFE0E0A
:10324000DBCFEAFF0A0EE926000EEA22EF50596EA4
:103250005A6AD950060FE96EDACFEAFF5950EE26C6
:103260005A50ED22FD0EDBCFE9FFFE0EDBCFEAFF69
:10327000060EE926000EEA22030EEFCFDBFF030E57
:10328000DB5098080CE0030EDB50990808E0030EB1
:10329000DB509D0804E0030EDB509E0804E1040EA1
:1032A000DB6A050EDB6AFB0EDBCFF6FFFC0EDBCF25
:1032B000F7FFF62A000EF7220800F550100B70E019
:1032C000030EDB50980804E0030EDB50990813E16D
:1032D000FB0EDBCFF6FFFC0EDBCFF7FF0A0EF62668
:1032E000000EF7220900F5CF59F00800F5CF5AF08B
:1032F00059505A1020E0030EDB50900804E0030EF2
:10330000DB5091084DE1FB0EDBCFF6FFFC0EDBCF6F
:10331000F7FF0A0EF626000EF7220900F5CF5BF044
:103320000800F5CF5CF0040EDB505B1803E1050EDE
:10333000DB505C1835E1030EDB50900806E0030E0D
:10334000DB50980802E0000E01D0010EE66E060E7A
:10335000DBCFE6FF070EDBCFE6FF38DDE552E552B7
:10336000E55200091DE1030EDB50900806E0030E54
:10337000DB50980802E0000E01D0010EE66E060E4A
:10338000DBCF59F0070EDBCF5AF05906000E5A5A20
:1033900059C0E6FF5AC0E6FFAEDCE552E552E55201
:1033A000D950040FE96EDACFEAFFC40EEE1802E13D
:1033B000010EED1810E1D950060FE96EDACFEAFFE1
:1033C000270EEE1801E1ED5006E1030EDB509008E8
:1033D00002E193EC21F0D950040FE96EDACFEAFF55
:1033E000A70EEE1801E1ED5038E1060EDBCF54F0E8
:1033F000070EDBCF55F0690E541801E155501EE061
:10340000680E541801E155500DE0670E541801E1A3
:10341000555001E022D0030EDB50900802E193ECFE
:1034200021F01BD0030EDB50900802E0000E01D00B
:10343000010EE66E80EC21F0E5520FD0FB0EDBCFE3
:10344000F6FFFC0EDBCFF7FFF62A000EF72208008E
:10345000F550080B01E0FF0000D0D950040FE96ED1
:10346000DACFEAFFA20EEE1801E1ED5035E1060ECB
:10347000DBCF54F0070EDBCF55F0070E541801E1F7
:10348000555028E0060E541801E155501EE0050E77
:10349000541801E1555001E01FD0FB0EDBCFF6FFC1
:1034A000FC0EDBCFF7FFF62A000EF7220800F550DE
:1034B000800B04E0030EDB50900802E0000E01D008
:1034C000010E0101F26F65DA07D0010EE66E51DBE5
:1034D000E55202D0ABDB00D00101F25101E173D122
:1034E000D950040FE96EDACFEAFF780EEE1801E149
:1034F000ED5001E0FDD0D950060FE96EDACFEAFFBA
:10350000050EEE1801E1ED5022E1030EDB509008AC
:103510001EE1E66A4EDAE552E76E020EE7CFDBFF08
:10352000020EDB50FF0813E000018151040804E3A0
:10353000030E0001815D03E20001030E816F81C073
:10354000E6FF020EDBCFE6FF7ADAE552E552060E21
:10355000DBCF59F0070EDBCF5AF0060E595E000E96
:103560005A5A010E59C0DBFF5950E66E22DAE55275
:10357000E76E020EE7CFDBFF020EDB50FF0801E132
:10358000B7D0030EDB5090084FE1010EDB50060D63
:10359000F3CFE9FFF4CFEAFF000EE926040EEA229A
:1035A000030EE926000EEA22EF86020EDB50080D1C
:1035B000F3CFE9FFF4CFEAFF000EE926020EEA227C
:1035C000030EE926000EEA22EF507F0B2DE1010EDB
:1035D000DB50060DF3CFE9FFF4CFEAFF000EE9263A
:1035E000040EEA22020EE926000EEA22EF50E66EF1
:1035F000020EDBCFE6FF89EC13F0E552E552000145
:103600008151040804E3030E0001815D03E200011F
:10361000030E816F81C0E6FF020EDBCFE6FF0FDAFB
:10362000E552E5520001812B030EDB50910860E169
:10363000020EDB50080DF3CFE9FFF4CFEAFF000ED6
:10364000E926020EEA22030EE926000EEA22EF50D6
:103650007F0B4EE0010EDB50060DF3CFE9FFF4CFF8
:10366000EAFF000EE926040EEA22030EE926000E08
:10367000EA22EF50080B3CE0020EDB50080DF3CFBE
:10368000E9FFF4CFEAFF000EE926020EEA22030E5C
:10369000E926000EEA22EF50E66E010EDB50060D21
:1036A000F3CFE9FFF4CFEAFF000EE926040EEA2289
:1036B000020EE926000EEA22E552E750EF6E010EF7
:1036C000DB50060DF3CFE9FFF4CFEAFF000EE92649
:1036D000040EEA22020EE926000EEA22EF50800BC9
:1036E000E66E020EDBCFE6FF89EC13F0E552E55201
:1036F000D950040FE96EDACFEAFFA30EEE1801E10C
:10370000ED500AE0D950040FE96EDACFEAFFA40EBB
:10371000EE1801E1ED5057E1030EDB5090080CE08C
:10372000030EDB50930808E0030EDB50980804E01A
:10373000030EDB509D0847E1D950040FE96EDACF44
:10374000EAFFA30EEE1801E1ED5002E10C0E01D0EC
:103750000C0EDF6EDF505B6E5C6A060EDBCF54F042
:10376000070EDBCF55F05B50545C596E5C505558DA
:103770005A6E010E59C0DBFFD950040FE96EDACF43
:10378000EAFFA30EEE1801E1ED5002E0000E01D0B9
:10379000010EE66E0D0EE66E60DAE552E552D95086
:1037A000040FE96EDACFEAFFA30EEE1801E1ED5047
:1037B00002E0000E01D0010EE66E010EDBCFE6FF47
:1037C00048D8E552E552080EE15C02E2E16AE552B2
:1037D000E16EE552E7CFD9FF120060EC20F0FE0E5B
:1037E000DB500C0FDE6EDD6AFE0EDB500C0FE66E5A
:1037F000D950020FE96EDACFEAFFE552E750EE6EDC
:10380000ED6A920E466EC1EC20F05AC059F05A6A29
:103810005950496EC1EC20F059504A6EA30E91DB0D
:10382000920E466E95DB5AC059F05A6A5950496E4D
:10383000FF0EE76E8DDBE75059165A6A59504A6EF3
:10384000A40E7FDB040EE15C02E2E16AE552E16E68
:103850003ED260EC20F0A0EC20F0FF0EDF5C3DE0FB
:103860006BEC21F0E66E0F0E74DA9FDA0E0E71DA51
:10387000EFEC20F0100B17E1FD0EDB5002E03ADB1D
:1038800002E0000E01D0010E596E76EC21F0B5DA9F
:10389000DF0E8EEC20F076EC21F0EF88EFEC20F0DC
:1038A000E66E100E56DAEFEC20F0200B01E0FF0E72
:1038B0005A6E20DB01E0FF0E5A5C02E0000E01D0E0
:1038C000010E596EFD0EDB5002E0000E01D0010E1C
:1038D000595C03E155DA89D8E552040EE15C02E255
:1038E000E16AE552E16EF3D1EBDBFB0EDB50DF6EFC
:1038F000FD0EDB50070A40E0060A31E0020A26E02E
:10390000010A40E130DA3EE0A5EC20F0EF063AE1B2
:1039100000018151040803E3030E815D02E2030EFE
:10392000816F8151812BE66E40DA89D8E552E552EC
:10393000F90EDBCFF6FFFA0EDBCFF7FF0E0EA4DB9E
:10394000E66EA5EC20F04FEC21F01CD00CDA1AE06A
:1039500017DA2BDAE66AD1EC12F0E5520BD003DA73
:1039600011E027EC21F0400B0DE108EC21F0120EE4
:10397000E66E73D9E55205D0F6D904E0DFCFE6FF55
:103980002CDFE552040EE15C02E2E16AE552E16EF1
:103990009ED1B7DBDF6A0F0EDF5C09E227EC21F076
:1039A000010B03E07DEC21F0EF96DF2AF4D7E5521E
:1039B0008ED1A7DBDF68FE0EDB50060813E3EFECC9
:1039C00020F0010B0FE0FE0EDB502AEC21F0EFCFD0
:1039D000DFFF05EC21F0800B01E1DF68DFCFE6FFC0
:1039E000110EB7D9DF50E55272D117DBA9DBFF0802
:1039F0001FE032EC21F0EF7E6BEC21F0080B0EE1C2
:103A0000010EDB90DB92DB94DB96DB98DB9ADB9C90
:103A1000E66AE66E3C0EE66EB3D923DAC6D9DFCF8E
:103A2000E6FF2DDA32EC21F0EF50E66E0C0E91D964
:103A3000020EE15C02E2E16AE552E16E48D1EDDAA4
:103A4000FD0EDB50040805E3030EF36EFD0EA0DA55
:103A500005E2030EF36EFD0EF3CFDBFF9EDA90D985
:103A6000010E04DA9ADA030EE66E040EE66E88D9C9
:103A7000F8D9020EE15C02E2E16AE552E16E27D17B
:103A8000CCDA8CD9F62A60D9800B01E0FF0E010157
:103A9000F26FDE6ADD6AEFD904E60F0E595C000EA4
:103AA0005A5838E2FFD8ECDAFDD8040EF1D8EF68A6
:103AB000D5DB800B28E0D2DB010B25E0CFDBE66E07
:103AC000ECDAEDDB1BD936DAEDD859C0EEFF5AC07F
:103AD000EDFF14D9020ED8DAE66EE4D8EADA0ED990
:103AE000020ED2DA800B02E0000E01D0010E596EF8
:103AF000D4DA83D9DF0E12DBD0DAEF88DFCFE6FF2E
:103B00000A0E27D902D0C9DAEF6ADF2A010EC3E311
:103B1000DB2AC1D7DE6ADD6AAED904E6200E595C25
:103B2000000E5A580CE24DD9E9D9EE52EF6A49D944
:103B3000E5D9EF68DF2A010EEFE3DB2AEDD7DE6A75
:103B4000DD6A99D904E6020E595C000E5A580AE261
:103B500001DBEF6AFFDAEE52EF6ADF2A010EF1E3D2
:103B6000DB2AEFD7020EE15C02E2E16AE552E16E88
:103B7000AED053DA0101F2514FE0010EE66E88D962
:103B80000F0EDF5C49E263DB010B44E060DB040BFA
:103B900003E1FE0EDB503EE063DAEF50FF0820E168
:103BA0006CC0E6FF6DC0E6FFE66ADF5060D8EECF7E
:103BB000E6FFEFCFE6FF74EC11F0596E050EE15E03
:103BC000595059DADF5046DB010EDBCFEFFF95DBB2
:103BD000EF82010EDB5044D8EF86E7D8110EB9D83A
:103BE000010EDB50FF0816E088DBEF9CE66ADDD8AB
:103BF0003DD9010EE66EDBCFE6FF38D909DB0E0EAC
:103C0000A8D8E66A070EE66E030EDF24E66EDFCF65
:103C1000E6FF27D9DF2AB4D7E66A130E9AD8020E38
:103C2000E15C02E2E16AE552E16E51D0F6D9E66A62
:103C30002FD90F0EDF5C0AE20ADB010B05E010DA78
:103C40005CDBEF8CE66AA2DADF2AF3D7020EE15CD6
:103C500002E2E16AE552E16E3AD0D9CFE6FF37D011
:103C6000080D97DA000EE926020EEA221200060D70
:103C700090DA000EE926040EEA221200BFDAEE52B4
:103C80001200020EDBCFE9FF030EDBCFEAFF1200CA
:103C9000E926000EEA221200E924E96E000EEA206D
:103CA000EA6E1200D8D9060EEA02F3CFEAFFE90263
:103CB000F3CFE9FFF450EA26000EE926040EEA22CB
:103CC0001200E9CF59F0EACF5AF0DF501200E55266
:103CD000E7CFD9FF1200D9CFE6FFE1CFD9FF12001D
:103CE000596EFC0EDBCFE7FF5950E75EFC0EE7CFC5
:103CF000DBFFFAD9FC0EDB50070B12003DDAD8903F
:103D0000F636F736D890F636F736100EF626600EF1
:103D1000F72212007F51080D3CDA000EE926030E4F
:103D2000EA221200EE52EF507DDAABDAEF501200C9
:103D300000017E51080DF3CF59F0F4CF5AF0000E78
:103D40005926030E5A221200000EF7220800F550E1
:103D50001200E66E82DFE552E5521200D5C0E9FF9F
:103D6000D6C0EAFF1200DFCFE6FF23DEE55283D99B
:103D7000DB50FF081200EB50E66E6DD9EE521200D8
:103D8000FE0EDBCFE6FF1200EA6ADF34FE0BEA36F6
:103D9000E96E820EE926000EEA221200FD0EDBCF4C
:103DA000F6FFFE0EDBCFF7FF1200010EDBCFE6FFC2
:103DB0001200D950FE0FE96EFF0EDA20EA6EEF50C6
:103DC000120049D9D890E936EA361200010E59C0DE
:103DD000DBFF020E5AC0DBFF11DAEF50800B12003E
:103DE0000A0EE66E000EE66E60C0E6FF61C0E6FFFA
:103DF000DAEC08F0E55284EF20F05950010B92EF15
:103E000020F097D9FB0EDB501200B6D9020EF62631
:103E1000000EF7221200070BF36EF80E8EEF20F063
:103E200089EC12F0E552E5521200FB0EFC0EDBCFDE
:103E30005CF05CC05BF05C6A030E5B16000E5C1607
:103E40001200DBCFE9FF020EDBCFEAFFEF8E0001AD
:103E50007E290F0B7E6F120014DAEF500F180F6ED1
:103E60001200EAEC0AF0E55284EF20F0E66ED1ECA5
:103E700012F084EF20F085D9D8905A50120089ECC6
:103E800013F0E552E5521200EF505918E66E120099
:103E9000130EE66EE66AC5EC08F036D9DF6A12004A
:103EA000EE52EECF59F0EFCF5AF0FD0EDB5059181D
:103EB0001200E850030BF36EF46EFC0E8EEF20F050
:103EC000EF50600BE842E842E842E842E842010A6B
:103ED0001200E5D9DF50596E12006CC0F6FF6DC0BC
:103EE000F7FF1200DFCFE6FF7FEC12F0E552050E80
:103EF000DB6A1200F9D8EF50800B1200D890E93637
:103F0000EA36000EE926050EEA221200EF46EF908F
:103F1000E8061200010EEFCFDBFF1200020E59C0BF
:103F2000DBFF030E5AC0DBFF120089EC0AF0ECD86D
:103F3000000912000900F5CF59F00800F5CF5AF03A
:103F40001200E66EE66AB1EC08F0E552E5521200A6
:103F5000020EDBCF59F0030EDBCF5AF01200F36EE6
:103F6000050EF3CFDBFF1200EE52EE52EF50800B46
:103F70001200466EFE0EDB50476E120059C0DEFF87
:103F80005AC0DDFF1200F6CF59F0F7CF5AF01200F9
:103F9000DBCFF4FFF350F45C1200FD0EDBCFE6FF45
:103FA000120020D971DF9BD1FE0E6FD1EF6E10D9B8
:103FB000E9CF5AF078D968DF0BD9050E06D9E8EFBA
:103FC00020F055DE030E48EF1EF058DE050E60DED1
:103FD000EF50E66E53DE32D97CDF10D959501BDF2B
:103FE0000DD95FEF21F06DDE4CEF1EF0DF5030EFAA
:103FF0001EF0EE52EF50E66EEBD81CD950D9E8D83F
:104000001DD9EF501200EA6A0A0FE96E000EEA228B
:1040100012002DDE020E48EF1EF05DDE020EE126DC
:104020001200F3DEB0DF040EDB50020D5950F32412
:10403000F66E5A50F420F76EF62AA4EF1EF0E66EE4
:104040004ED1B3DE9DDEFD0E20D118DEF7D8EF5045
:104050001200040E1AD1DECFE9FFDDCFEAFF120015
:10406000DFCFE6FF0B0E75DEDF50F4D88AEF1FF0CE
:1040700005DE1AEF21F0E76E010EE7CFDBFF12003D
:10408000050E06DEEF6A1200F626A4EF1EF07C5144
:1040900030EF1EF0FDD810EF1FF004DE030E48EFE6
:1040A0001EF0E66E95D8050EE5EF20F0070EE5EF61
:1040B00020F0020EE5EF20F08BD8010E48EF1EF045
:1040C0000ADE040EE1261200FA0EDBCFF6FFFB0E2D
:1040D000DBCFF7FFF62AA4EF1EF0FDDD030EE1268D
:1040E000DF6A26DEE6EF1EF0D950010FE96EDACF67
:1040F000EAFF1200C6DD5FEF21F030DE080EEB5064
:104100001200E9DDE6521200E552E552E5521200D6
:10411000060EBEDDEF504D6EBDEF08F0EF14F3104C
:10412000EF6E1200F36EF346F346F346F346F346A2
:104130001200FD0EDBCFE9FFFE0EDBCFEAFF12001F
:104140001FDE37DCE552DF6E1200DF5090DD050E1A
:1041500048EF1EF036DE820EE926000EEA2212003B
:10416000DFCFE6FF10EF1FF0F9DD070EEB50120076
:10417000040E8EDDEF501200DECFF6FFDDCFF7FF2D
:104180001200DECF59F0DDCF5AF012000EDE3FEF05
:104190001FF0F3CFE9FFF4CFEAFF1200E10EE9DEF2
:1041A000A9D8EE52EF50486EA5D8EF50496E73D89B
:1041B000EF504A6EF9DEDCDF4B6EF6DE050E68DD91
:1041C000EF504C6EF1DE88EF20F062DD4FEF21F012
:1041D00058DDEE52120087D8EF50800B120086D8BF
:1041E000EF5012004BDDE9CF5AF0DF50DF2A54DDEB
:1041F000EFCF59F043DD050E48EF1EF0010EDBCF87
:10420000E9FF020EDBCFEAFF1200F0DEEF501200F2
:10421000DF50FFDEEF50E66EB9DFDF50FADEEF5021
:10422000E66E1200E66EDF50EEDE4FEF21F026DD87
:10423000F3EF1FF046DD0F014CEF1EF042DDDF2AE9
:104240004CEF1EF0D3DE030E23DDEF50120055D8E5
:10425000EF5012000CDD040E48EF1EF04FDD030E90
:1042600044EF20F0FE0EDB5009EF20F04ADF400E55
:10427000DF6EFE0EDB50120091DD030E05DFE66EF1
:104280001200DF50DF2A03EF20F0DB5030EF1EF08A
:10429000E66AC0EF1EF088DE030E48EF1EF0E5521E
:1042A000E750EF6E1200DF50DF2AF6DCEFCF59F057
:1042B0008FDF050E48EF1EF08BDFF3EF1FF0070EC8
:1042C00048EF1EF0C2DEBBDE17EF21F0B0DF5BC0AF
:1042D000EFFFD1EF1FF0C6DF1DDEEFEF20F0CEDCE9
:1042E000050EE5EF20F0F7DCD4EF1FF0FE0EDB50FB
:1042F000E1EF1FF059DEEE521200DF50E1EF1FF048
:10430000D9CFE6FFE1CFD9FFFE0EDB5003E00284F8
:10431000050E02D00294040E466EBDEC08F0E55284
:10432000E7CFD9FF12002CEC11F0060EE66EA2ECDE
:1043300008F0E552000176896CC0F6FF6DC0F7FF0A
:10434000020EF626000EF7220800F550100B03E0CF
:10435000E66AD6DFE5521200D9CFE6FFE1CFD9FFFA
:1043600000B004D0F28EF28C0000FAD7000E056E79
:10437000046E036EFE0EDB50096E030E396E009064
:10438000E552E7CFD9FF1200D9CFE6FFE1CFD9FF41
:1043900000B004D0F28EF28C0000FAD705680368F2
:1043A000046AFE0EDB50096E030E396E0090E55272
:1043B000E7CFD9FF12006DDA040EE1265CDAC108FE
:1043C0001CE15DDAE76E010EE7CFDBFF080EEB5074
:1043D000DF6E090EEB50E76E020EE7CFDBFF0A0E31
:1043E000EB50E76E030EE7CFDBFF0C0EEB50000146
:1043F0008C6F0B0EEB508B6F28D041DA080DF3CF8A
:10440000E9FFF4CFEAFF000EE926020EEA22EE529F
:10441000EECFDEFFEDCFDDFF5CDA080EEB50E76E8E
:10442000020EE7CFDBFF090EEB50E76E030EE7CF7E
:10443000DBFF0A0EEB5000018C6F060EEB5082087A
:1044400002E1010E01D0020E8B6F020EDBCF59F09C
:1044500059C05AF0596A030EDB505910876F5AC081
:1044600088F0010E875F000E885B05DA820806E09F
:1044700002DA830803E0FFD9C10813E18BC0E6FF2D
:104480008CC0E6FF87C0E6FF88C0E6FFDECFE6FF10
:10449000DDCFE6FF1FEC16F0596E060EE15E5950B7
:1044A00036D0EDD9866F0B0EEB508C6F0A0EEB50A9
:1044B0008B6F01880A0EE66EACEC21F0E55202909B
:1044C0000001000E875D040E885919E20150020BAD
:1044D00014E10150040B11E1CED9840802E10182FC
:1044E00004D0C9D9A20801E1018464C0E6FF65C017
:1044F000E6FF26D8E552E5520AD0040E01D0050E9B
:10450000486E86C047F04C0E466EBDEC08F0040EB7
:10451000E15C02E2E16AE552E16EC0D1030E000106
:104520008715896F87C059F088C05AF0D8905A32E1
:104530005932D8905A32593259508A6F8A2B120008
:10454000A8D900018D510F0A01E114D1010A01E13E
:104550000DD1030A01E1FBD0010A01E1E5D0070A10
:1045600001E1DFD0030A01E1CCD00F0A01E1C1D0A3
:10457000010A01E1AAD0030A01E19FD0010A01E189
:1045800089D0070A01E183D0010A31E0030A1FE064
:10459000010A01E0F3D00150020B03E10150040BCA
:1045A00016E02E6A2C6A2D6A2A6A2B6A166A176A26
:1045B00002800098009C009A00960196019801AE36
:1045C00002D0829E829A0E0E72D9010ED1D02A504C
:1045D0002E6E2A50180806E20290008801AE09D01B
:1045E000828E07D0008C150E62D9020EC1D000A8B1
:1045F00002D049D9C3D0020E8B5D03E0030E8B5D60
:1046000013E1030E8B5D06E1010E8A6F070E87151D
:10461000896F01D083DF19D98AC0E6FFE66A7D0E73
:10462000E66E50D90B0E2ED08B0510E101A21FD0E3
:1046300088C059F05A6A780E59108F6FEF0E8C6F40
:10464000906B080E8E6F2ED9050E1CD08B511BE17E
:1046500001A20DD088C059F05A6A740E59108F6F9C
:104660008C6B2BD98751E66EFED80D0E0BD088C00F
:1046700059F05A6A7C0E59108F6F30D987C0E6FF07
:10468000F2D80E0E8D6F2A502E6E008A77D0EFD89A
:10469000040E6ED001988E078E5168E09051E82488
:1046A000906F8C0790AF03D0080E8C1102D0F70EDC
:1046B0008C158C6FF7D8030E5BD09051E824906F67
:1046C00000B6902BD4D8060E53D001988C078E07D5
:1046D0008E5107E1905105E1E70E8C6F080E8E6F49
:1046E0001DD08E5103E190C08CF040D0DBD8050E78
:1046F0003FD09051E824906F00A6902BB8D8080EB8
:1047000037D001988C078E078E5104E1905102E159
:104710008C6B2CD08E5102E1018628D0C3D8070EB5
:1047200027D0A5D80C0E24D00198009601A207D05E
:10473000700E89118F6F8C6BC0D8E66A10D0780E1E
:1047400089118F6FCBD8E66A8ED80E0E11D08C519E
:1047500009E00050080B06E1B0D88751E66E83D817
:104760000D0E06D08C5101E101868C0780D80F0E0A
:104770008D6F04D00198029086D8009A8FD089D886
:104780000096FE0EDB50036EFC0EDBCFE6FFFE0E46
:10479000DB50E552E718066E030E396E00018B51AF
:1047A00002E08B050CE1FD0EDB50046EFC0EDB50CD
:1047B000056EFD0EDB500618066E392A05D0FC0E7C
:1047C000DB50046E0650056E080E096E0090D9503D
:1047D000FB0FE96EFF0EDA20EA6EEF50080B0DE0DA
:1047E0000350E66EE66A60C0E6FF61C0E6FFDAEC01
:1047F00008F0E552E552E552E55250D00001872B12
:10480000000E88234C0E466E86C047F001A602D0EB
:10481000010E03D000A803D0020E486E14D001A2EE
:104820000CD0850E466E88C059F05A6A5950486EB1
:104830008751496E8CC04AF006D000A602D0030E04
:1048400001D0010E486EBDEF08F0FD0EDBCFF6FF84
:10485000FE0EDBCFF7FF030EF626000EF722080050
:10486000F550E66E12008FC0E6FF62EF24F001887B
:104870000A0E57EF24F02DD8060EEB50120029D85F
:10488000070EEB501200BADF0192019400018D6B0C
:104890001200D9CFE6FFE1CFD9FF1200E552E7CFF2
:1048A000D9FF12001BD88751E66E33EF24F0E66E75
:1048B000ACEC21F0E55200011200C7DF8C518C2BCB
:1048C000E66E12005CDFE552E552E552E55200016A
:1048D0001200D5C0E9FFD6C0EAFF1200B6DF8CC0D7
:1048E000E6FF12000001916BD369D4691200D9CFA1
:1048F000E6FFE1CFD9FF030EE126920EDE6E000E39
:10490000DD6ED3C0F6FFD4C0F7FFF86ADECFE9FF53
:10491000DDCFEAFFF29E010EF36E020EF3CFDBFF56
:10492000020EDB50020817E30001200ED26FEE509A
:10493000F56E0D00D207FBE10A00A68EA69CA69894
:10494000A684550EA76EAA0EA76EA682A69409008D
:10495000020EDB2AE5D7F28E030EE15C02E2E16A89
:10496000E552E16EE552E7CFD9FF1200D3C0F6FF62
:10497000D4C0F7FFF86AF29EA68EA69CA684A688ED
:10498000550EA76EAA0EA76EA682A694F28E77EF9A
:1049900024F0000191A905D091AB02D0B6EF24F02C
:1049A000A6DF1200D9CFE6FFE1CFD9FF030EE12643
:1049B00000019151070B050803E00001050E916FFE
:1049C000000100019151080B15E0FD0EDBCF59F0FD
:1049D000FE0EDBCF5AF0C00E5916FF0E5A16595074
:1049E0000001D31902E15A50D41904E0D2DF0001CA
:1049F000050E916F000191B72CD0D950010FE96ECF
:104A0000DACFEAFF920EEE6E000EED6E010EDBCFF6
:104A1000E9FF020EDBCFEAFFFD0EDBCFD3F0FE0E87
:104A2000DBCFD4F0C00E0001D317FF0E0001D41766
:104A3000D3C0F6FFD4C0F7FFF86A800EA66E00015F
:104A4000400ED26F0900F5CFEEFFD207FBE1000167
:104A500091873F0EE76EFD0EDBCFE9FFFE0EDBCF49
:104A6000EAFFE750E916EA6A920EE926000EEA220A
:104A7000EF5000D0596E030EE15C02E2E16AE552AC
:104A8000E16E5950E552E7CFD9FF1200DDD8020E92
:104A9000E12600019151070B050803E091819193F4
:104AA00091859151080B10E0FD0EDBCF59F0FE0E01
:104AB000DBCF5AF0C00E5916FF0E5A165950D319B3
:104AC00002E15A50D41904E0C8D86CDFE552E5522F
:104AD0003F0EE76EFD0EDBCF59F0FE0EE750591684
:104AE0005A6A920E5926000E5A2259C0DEFF5AC049
:104AF000DDFFBAD8EF50F36EFC0EDB50F35C02E042
:104B000000019189FC0EDBCFE6FFAED8EF1CE55229
:104B1000E71402E00001918BA7D8FC0EDBCFEFFF7A
:104B2000020EE15C02E2E16AE552E16E92D08CD8BD
:104B3000FC0EDBCFE6FF91D8A9DFE552E552E55246
:104B400028DF87D081D8FE0EDB50A96EA69EA69CDA
:104B5000A680A8507ED0D9CFE6FFE1CFD9FFFE0EC8
:104B6000DB50A96EFD0EDB50A86EA69EA69CA68407
:104B7000F29E550EA76EAA0EA76EA6820000000038
:104B8000F28EA1A8FED7A198A694E552E7CFD9FF4F
:104B900012005AD8030EE126FE0EDB50DF6EDF5006
:104BA000DF2AE66ECFDFE552E66ED950010FE96EDF
:104BB000DACFEAFFE552E750EE6EED6ADFCFE6FFAF
:104BC000C1DFE5525B6E5C6E5B6A010EDB505B1011
:104BD000596E020EDB505C105A6E010E59C0DBFF9D
:104BE000020E5AC0DBFF010EDBCF59F0020EDBCF05
:104BF0005AF059C0F3FF5AC0F4FF030EE15C02E221
:104C0000E16AE552E16E25D01FD8E652FE0EDB5078
:104C1000DF6EFC0EDBCFE6FFDF50DF2AE66E9BDFA8
:104C2000E552E552FC0EDBCF59F0FD0EDBCF5AF01A
:104C30005AC059F05A6A5950E66EDFCFE6FF8BDF53
:104C4000E552E552E55205D0D9CFE6FFE1CFD9FFD5
:104C50001200E552E7CFD9FF1200FD0EDBCFE6FFD1
:104C6000FE0EDBCFE6FF1200DECFE9FFDDCFEAFF6D
:104C70001200C1D90001DB6BDC6BD86B800E6F6E4C
:104C80006EAEFED7B00E776E0D01F86B606A070E40
:104C9000706E9E0E716E030E726E200E736E010E9C
:104CA000D46FD56BD86B0F01186B080E196F1A6B88
:104CB0001B6B1C6B1D6F1E6B1F6B800E016F0D013C
:104CC000E06BE16BE26BE36BE46BE56BE66BE76B70
:104CD000F06BF16BF26BF36BFA6BFC6B606A0F01BC
:104CE000506B0E01206B306B406B506B606B706BC8
:104CF0006F6AFE0EDBCFE6FF0AD8E55201D880D1FD
:104D000022D8000903E072D9EF6AFAD7120073D9EA
:104D1000E652FE0EDBCFE6FFA2EC25F0E552DF6E99
:104D2000406A72D9416E070EDF14200DF350426EB7
:104D30006BD90F01216F070EDF14200DF3CF22FF77
:104D4000256BE5525DD157D9020EE126DF6ADF50AF
:104D50003BE1070E6F14010A07E0010A0BE10001B5
:104D6000600ED56F0F0E04D00001500ED56F0F0EE0
:104D7000D66F0CD0020E6F5C070B100DF3500001C4
:104D8000D56FD66B200ED5270E0ED6232FD9EF5018
:104D9000800BE76E010EE7CFDBFFDB5012E023D87C
:104DA0003BD9400B02E020D8D2D736D90F0B0009EF
:104DB00005E01CD9020EEB50080B03E017D9EF6A8F
:104DC000C6D7010EDF6EC3D7010EDB5002E1000E25
:104DD00001D0010E596E020EE15C02E2E16AE55279
:104DE000E16E59500DD112000F012087FFD8EF6AF4
:104DF00012001200D9CFE6FFE1CFD9FF040EE12661
:104E000000010A0ED76F0001020ED86F0001D96BA6
:104E10000F010F013051080B0AE00001D95107E1E1
:104E20000001D85104E0F28EF28C0000F1D70F0E91
:104E30004116B00E4112DF6AD950010FE96EDACF88
:104E4000EAFF300EEE6E0F0EED6E030EDB6A0E0EF5
:104E5000F36E030EDBCFF4FFF350F45C18E2DF5087
:104E6000DF2AEA6A400FE96E000EEA22EF50E66E92
:104E7000010EDBCFE9FFDB2A020EDBCFEAFF01E305
:104E8000DB2AE552E750EF6E030EDB2AE0D7000184
:104E9000020ED86F0001D96B0F010F013051080BC2
:104EA0000AE00001D95107E10001D85104E0F28E77
:104EB000F28C0000F1D70F013087040EE15C02E2B2
:104EC000E16AE552E16EE552E7CFD9FF1200A4B0E6
:104ED000A490A4AA22D00F0130AB13D00001D75167
:104EE00009E1010ED96FDA5102E1020EDA6F0F010A
:104EF000309707D0D70705E10F0130973F0E4116D5
:104F000030870F0130A909D00001010ED96FDA51A5
:104F100002E1020EDA6F0F01309712006CD8040E16
:104F2000E12674AE19D0070E6F14E76E030EE7CFBB
:104F3000DBFFDBCFE6FF18D8E552F3CFDEFFF4CF7F
:104F4000DDFFA49274BC749CA4BEA49EDECFE9FFD6
:104F5000DDCFEAFFEF9EE5D7A490040EE15C02E20C
:104F6000E16AE552E16E4CD046D8020EE126FE0E13
:104F7000DB50060A24E0030A1EE0010A18E0070AD3
:104F800012E0010A0CE0030A06E0010A1CE1600ECF
:104F9000DE6E0F0E1BD0500EDE6E0F0E17D0200EE1
:104FA000DE6E0E0E13D0300EDE6E0E0E0FD0400EE3
:104FB000DE6E0E0E0BD0500EDE6E0E0E07D0600EA3
:104FC000DE6E0E0E03D0700EDE6E0E0EDD6EDECFC8
:104FD00059F0DDCF5AF059C0F3FF5AC0F4FF020E6A
:104FE000E15C02E2E16AE552E16E0AD0D5C0E9FF78
:104FF000D6C0EAFF1200D9CFE6FFE1CFD9FF1200F9
:10500000E552E7CFD9FF1200780EDF14E840E84000
:10501000E8401F0BB0091200E9DF050EE926000E7B
:06502000EA22EF5012002D
:0A502600010054500000F2010000E8
:04503000010000007B
:0C503400000EF36E00EE00F0060E01D836
:105040001200EA6002D0EE6AFCD7F350E960120069
:04505000EE6AFCD731
:01505400005B
:10600000007647003C60600A030000000001028245
:106010000000000000000000000000000000000080
:106020000000000000000000000000000000000070
:106030000000000000000000000000000000000060
:106040000000000000000000000000000000000050
:016D800063AF
:020000040030CA
:0100010006F8
:010002001EDF
:0100030010EC
:01000500807A
:010006008079
:010008000FE8
:01000900C036
:01000A000FE6
:01000B00E014
:01000C000FE4
:01000D0040B2
:0200000400F00A
:050000007200FEFF018B
:0100FF000000
:00000001FF
